{
  "address": "0x0165878A594ca255338adfa4d48449f69242Eb8F",
  "abi": [
    {
      "inputs": [
        {
          "internalType": "address",
          "name": "vrfCoordinatorV2",
          "type": "address"
        },
        {
          "internalType": "uint64",
          "name": "subscriptionId",
          "type": "uint64"
        },
        {
          "internalType": "bytes32",
          "name": "gasLane",
          "type": "bytes32"
        },
        {
          "internalType": "uint256",
          "name": "interval",
          "type": "uint256"
        },
        {
          "internalType": "uint32",
          "name": "callbackGasLimit",
          "type": "uint32"
        }
      ],
      "stateMutability": "nonpayable",
      "type": "constructor"
    },
    {
      "inputs": [
        {
          "internalType": "address",
          "name": "have",
          "type": "address"
        },
        {
          "internalType": "address",
          "name": "want",
          "type": "address"
        }
      ],
      "name": "OnlyCoordinatorCanFulfill",
      "type": "error"
    },
    {
      "anonymous": false,
      "inputs": [
        {
          "indexed": true,
          "internalType": "uint256",
          "name": "requestId",
          "type": "uint256"
        }
      ],
      "name": "RequestedID",
      "type": "event"
    },
    {
      "inputs": [
        {
          "internalType": "uint256",
          "name": "",
          "type": "uint256"
        }
      ],
      "name": "AllHost",
      "outputs": [
        {
          "internalType": "address",
          "name": "",
          "type": "address"
        }
      ],
      "stateMutability": "view",
      "type": "function"
    },
    {
      "inputs": [
        {
          "internalType": "uint256",
          "name": "",
          "type": "uint256"
        }
      ],
      "name": "AllUser",
      "outputs": [
        {
          "internalType": "address",
          "name": "",
          "type": "address"
        }
      ],
      "stateMutability": "view",
      "type": "function"
    },
    {
      "inputs": [
        {
          "internalType": "uint256",
          "name": "",
          "type": "uint256"
        }
      ],
      "name": "AllVolun",
      "outputs": [
        {
          "internalType": "address",
          "name": "",
          "type": "address"
        }
      ],
      "stateMutability": "view",
      "type": "function"
    },
    {
      "inputs": [
        {
          "internalType": "address",
          "name": "",
          "type": "address"
        },
        {
          "internalType": "uint256",
          "name": "",
          "type": "uint256"
        }
      ],
      "name": "Campaign",
      "outputs": [
        {
          "internalType": "address",
          "name": "volunteer",
          "type": "address"
        },
        {
          "internalType": "address",
          "name": "user",
          "type": "address"
        },
        {
          "internalType": "uint256",
          "name": "time",
          "type": "uint256"
        },
        {
          "internalType": "uint256",
          "name": "fee",
          "type": "uint256"
        },
        {
          "internalType": "bool",
          "name": "completed",
          "type": "bool"
        }
      ],
      "stateMutability": "view",
      "type": "function"
    },
    {
      "inputs": [
        {
          "internalType": "address",
          "name": "",
          "type": "address"
        },
        {
          "internalType": "uint256",
          "name": "",
          "type": "uint256"
        }
      ],
      "name": "Meeting",
      "outputs": [
        {
          "internalType": "address",
          "name": "host",
          "type": "address"
        },
        {
          "internalType": "address",
          "name": "user",
          "type": "address"
        },
        {
          "internalType": "uint256",
          "name": "time",
          "type": "uint256"
        },
        {
          "internalType": "uint256",
          "name": "fee",
          "type": "uint256"
        },
        {
          "internalType": "bool",
          "name": "completed",
          "type": "bool"
        }
      ],
      "stateMutability": "view",
      "type": "function"
    },
    {
      "inputs": [
        {
          "internalType": "address",
          "name": "",
          "type": "address"
        }
      ],
      "name": "UserProfile",
      "outputs": [
        {
          "internalType": "address",
          "name": "addr",
          "type": "address"
        },
        {
          "internalType": "string",
          "name": "name",
          "type": "string"
        },
        {
          "internalType": "string",
          "name": "role",
          "type": "string"
        },
        {
          "internalType": "uint256",
          "name": "rating",
          "type": "uint256"
        },
        {
          "internalType": "string",
          "name": "bio",
          "type": "string"
        },
        {
          "internalType": "string",
          "name": "profilePic",
          "type": "string"
        },
        {
          "internalType": "bool",
          "name": "avaliable",
          "type": "bool"
        },
        {
          "internalType": "bool",
          "name": "volun",
          "type": "bool"
        }
      ],
      "stateMutability": "view",
      "type": "function"
    },
    {
      "inputs": [],
      "name": "becomeVolun",
      "outputs": [],
      "stateMutability": "nonpayable",
      "type": "function"
    },
    {
      "inputs": [],
      "name": "campaignIndex",
      "outputs": [
        {
          "internalType": "uint256",
          "name": "",
          "type": "uint256"
        }
      ],
      "stateMutability": "view",
      "type": "function"
    },
    {
      "inputs": [],
      "name": "campaignNum",
      "outputs": [
        {
          "internalType": "uint256",
          "name": "",
          "type": "uint256"
        }
      ],
      "stateMutability": "view",
      "type": "function"
    },
    {
      "inputs": [
        {
          "internalType": "bytes",
          "name": "checkData",
          "type": "bytes"
        }
      ],
      "name": "checkUpkeep",
      "outputs": [
        {
          "internalType": "bool",
          "name": "upkeepNeeded",
          "type": "bool"
        },
        {
          "internalType": "bytes",
          "name": "performData",
          "type": "bytes"
        }
      ],
      "stateMutability": "view",
      "type": "function"
    },
    {
      "inputs": [],
      "name": "counter",
      "outputs": [
        {
          "internalType": "uint256",
          "name": "",
          "type": "uint256"
        }
      ],
      "stateMutability": "view",
      "type": "function"
    },
    {
      "inputs": [],
      "name": "createCampaign",
      "outputs": [],
      "stateMutability": "nonpayable",
      "type": "function"
    },
    {
      "inputs": [
        {
          "internalType": "uint256",
          "name": "_rating",
          "type": "uint256"
        },
        {
          "internalType": "string",
          "name": "_name",
          "type": "string"
        },
        {
          "internalType": "string",
          "name": "_pic",
          "type": "string"
        },
        {
          "internalType": "string",
          "name": "_bio",
          "type": "string"
        }
      ],
      "name": "createHost",
      "outputs": [],
      "stateMutability": "nonpayable",
      "type": "function"
    },
    {
      "inputs": [
        {
          "internalType": "uint256",
          "name": "_time",
          "type": "uint256"
        },
        {
          "internalType": "uint256",
          "name": "_fee",
          "type": "uint256"
        }
      ],
      "name": "createSchedule",
      "outputs": [],
      "stateMutability": "nonpayable",
      "type": "function"
    },
    {
      "inputs": [
        {
          "internalType": "uint256",
          "name": "_rating",
          "type": "uint256"
        },
        {
          "internalType": "string",
          "name": "_name",
          "type": "string"
        },
        {
          "internalType": "string",
          "name": "_pic",
          "type": "string"
        },
        {
          "internalType": "string",
          "name": "_bio",
          "type": "string"
        }
      ],
      "name": "createUser",
      "outputs": [],
      "stateMutability": "nonpayable",
      "type": "function"
    },
    {
      "inputs": [],
      "name": "getAllHost",
      "outputs": [
        {
          "internalType": "address[]",
          "name": "",
          "type": "address[]"
        }
      ],
      "stateMutability": "view",
      "type": "function"
    },
    {
      "inputs": [],
      "name": "getAllUser",
      "outputs": [
        {
          "internalType": "address[]",
          "name": "",
          "type": "address[]"
        }
      ],
      "stateMutability": "view",
      "type": "function"
    },
    {
      "inputs": [],
      "name": "getAllVolun",
      "outputs": [
        {
          "internalType": "address[]",
          "name": "",
          "type": "address[]"
        }
      ],
      "stateMutability": "view",
      "type": "function"
    },
    {
      "inputs": [
        {
          "internalType": "address",
          "name": "_prof",
          "type": "address"
        }
      ],
      "name": "getCampaign",
      "outputs": [
        {
          "components": [
            {
              "internalType": "address",
              "name": "volunteer",
              "type": "address"
            },
            {
              "internalType": "address",
              "name": "user",
              "type": "address"
            },
            {
              "internalType": "uint256",
              "name": "time",
              "type": "uint256"
            },
            {
              "internalType": "uint256",
              "name": "fee",
              "type": "uint256"
            },
            {
              "internalType": "bool",
              "name": "completed",
              "type": "bool"
            }
          ],
          "internalType": "struct XTELPT.campaign[]",
          "name": "",
          "type": "tuple[]"
        }
      ],
      "stateMutability": "view",
      "type": "function"
    },
    {
      "inputs": [
        {
          "internalType": "address",
          "name": "_prof",
          "type": "address"
        }
      ],
      "name": "getMeeting",
      "outputs": [
        {
          "components": [
            {
              "internalType": "address",
              "name": "host",
              "type": "address"
            },
            {
              "internalType": "address",
              "name": "user",
              "type": "address"
            },
            {
              "internalType": "uint256",
              "name": "time",
              "type": "uint256"
            },
            {
              "internalType": "uint256",
              "name": "fee",
              "type": "uint256"
            },
            {
              "internalType": "bool",
              "name": "completed",
              "type": "bool"
            }
          ],
          "internalType": "struct XTELPT.meeting[]",
          "name": "",
          "type": "tuple[]"
        }
      ],
      "stateMutability": "view",
      "type": "function"
    },
    {
      "inputs": [
        {
          "internalType": "address",
          "name": "userAdd",
          "type": "address"
        }
      ],
      "name": "getProfile",
      "outputs": [
        {
          "components": [
            {
              "internalType": "address",
              "name": "addr",
              "type": "address"
            },
            {
              "internalType": "string",
              "name": "name",
              "type": "string"
            },
            {
              "internalType": "string",
              "name": "role",
              "type": "string"
            },
            {
              "internalType": "uint256",
              "name": "rating",
              "type": "uint256"
            },
            {
              "internalType": "string",
              "name": "bio",
              "type": "string"
            },
            {
              "internalType": "string",
              "name": "profilePic",
              "type": "string"
            },
            {
              "internalType": "bool",
              "name": "avaliable",
              "type": "bool"
            },
            {
              "internalType": "bool",
              "name": "volun",
              "type": "bool"
            }
          ],
          "internalType": "struct XTELPT.profile",
          "name": "",
          "type": "tuple"
        }
      ],
      "stateMutability": "view",
      "type": "function"
    },
    {
      "inputs": [
        {
          "internalType": "address",
          "name": "_host",
          "type": "address"
        },
        {
          "internalType": "uint256",
          "name": "_id",
          "type": "uint256"
        }
      ],
      "name": "joinMeeting",
      "outputs": [],
      "stateMutability": "nonpayable",
      "type": "function"
    },
    {
      "inputs": [],
      "name": "meetingIndex",
      "outputs": [
        {
          "internalType": "uint256",
          "name": "",
          "type": "uint256"
        }
      ],
      "stateMutability": "view",
      "type": "function"
    },
    {
      "inputs": [],
      "name": "meetingNum",
      "outputs": [
        {
          "internalType": "uint256",
          "name": "",
          "type": "uint256"
        }
      ],
      "stateMutability": "view",
      "type": "function"
    },
    {
      "inputs": [
        {
          "internalType": "bytes",
          "name": "performData",
          "type": "bytes"
        }
      ],
      "name": "performUpkeep",
      "outputs": [],
      "stateMutability": "nonpayable",
      "type": "function"
    },
    {
      "inputs": [
        {
          "internalType": "uint256",
          "name": "requestId",
          "type": "uint256"
        },
        {
          "internalType": "uint256[]",
          "name": "randomWords",
          "type": "uint256[]"
        }
      ],
      "name": "rawFulfillRandomWords",
      "outputs": [],
      "stateMutability": "nonpayable",
      "type": "function"
    },
    {
      "inputs": [
        {
          "internalType": "uint256",
          "name": "",
          "type": "uint256"
        }
      ],
      "name": "recentCampaignCreator",
      "outputs": [
        {
          "internalType": "address",
          "name": "",
          "type": "address"
        }
      ],
      "stateMutability": "view",
      "type": "function"
    },
    {
      "inputs": [],
      "name": "s_lastTimeStamp",
      "outputs": [
        {
          "internalType": "uint256",
          "name": "",
          "type": "uint256"
        }
      ],
      "stateMutability": "view",
      "type": "function"
    },
    {
      "inputs": [],
      "name": "unVolun",
      "outputs": [],
      "stateMutability": "nonpayable",
      "type": "function"
    },
    {
      "inputs": [],
      "name": "v_lastTimeStamp",
      "outputs": [
        {
          "internalType": "uint256",
          "name": "",
          "type": "uint256"
        }
      ],
      "stateMutability": "view",
      "type": "function"
    }
  ],
  "transactionHash": "0x07e8c8ab45ede72feab58861d160eaa2a7fda20a6875ca7ce6ad139efd902cc3",
  "args": [
    "0x5FbDB2315678afecb367f032d93F642f64180aa3",
    "2",
    "0xd89b2bf150e3b9e13446986e571fb9cab24b13cea0a43ea20a6049a85cc807cc",
    "1",
    "500000"
  ],
  "numDeployments": 2,
  "solcInputHash": "a5c1f6ad50305c9daa87e23ea2bf6a40",
  "bytecode": "0x6101206040526040518060400160405280600481526020017f55736572000000000000000000000000000000000000000000000000000000008152506004908051906020019062000052929190620002c7565b506040518060400160405280600481526020017f486f73740000000000000000000000000000000000000000000000000000000081525060059080519060200190620000a0929190620002c7565b506040518060400160405280600581526020017f566f6c756e00000000000000000000000000000000000000000000000000000081525060069080519060200190620000ee929190620002c7565b50348015620000fc57600080fd5b5060405162004fa638038062004fa68339818101604052810190620001229190620003ea565b848073ffffffffffffffffffffffffffffffffffffffff1660808173ffffffffffffffffffffffffffffffffffffffff1660601b81525050508473ffffffffffffffffffffffffffffffffffffffff1660a08173ffffffffffffffffffffffffffffffffffffffff1660601b815250508260e08181525050816001819055508367ffffffffffffffff1660c08167ffffffffffffffff1660c01b815250508063ffffffff166101008163ffffffff1660e01b8152505042600281905550426003819055506000600c60003373ffffffffffffffffffffffffffffffffffffffff1673ffffffffffffffffffffffffffffffffffffffff16815260200190815260200160002060006101000a81548160ff021916908360018111156200024c576200024b62000514565b5b02179055506000600d60003373ffffffffffffffffffffffffffffffffffffffff1673ffffffffffffffffffffffffffffffffffffffff16815260200190815260200160002060006101000a81548160ff02191690836001811115620002b757620002b662000514565b5b02179055505050505050620005f9565b828054620002d590620004de565b90600052602060002090601f016020900481019282620002f9576000855562000345565b82601f106200031457805160ff191683800117855562000345565b8280016001018555821562000345579182015b828111156200034457825182559160200191906001019062000327565b5b50905062000354919062000358565b5090565b5b808211156200037357600081600090555060010162000359565b5090565b600081519050620003888162000577565b92915050565b6000815190506200039f8162000591565b92915050565b600081519050620003b681620005ab565b92915050565b600081519050620003cd81620005c5565b92915050565b600081519050620003e481620005df565b92915050565b600080600080600060a0868803121562000409576200040862000572565b5b6000620004198882890162000377565b95505060206200042c88828901620003d3565b94505060406200043f888289016200038e565b93505060606200045288828901620003a5565b92505060806200046588828901620003bc565b9150509295509295909350565b60006200047f8262000490565b9050919050565b6000819050919050565b600073ffffffffffffffffffffffffffffffffffffffff82169050919050565b6000819050919050565b600063ffffffff82169050919050565b600067ffffffffffffffff82169050919050565b60006002820490506001821680620004f757607f821691505b602082108114156200050e576200050d62000543565b5b50919050565b7f4e487b7100000000000000000000000000000000000000000000000000000000600052602160045260246000fd5b7f4e487b7100000000000000000000000000000000000000000000000000000000600052602260045260246000fd5b600080fd5b620005828162000472565b81146200058e57600080fd5b50565b6200059c8162000486565b8114620005a857600080fd5b50565b620005b681620004b0565b8114620005c257600080fd5b50565b620005d081620004ba565b8114620005dc57600080fd5b50565b620005ea81620004ca565b8114620005f657600080fd5b50565b60805160601c60a05160601c60c05160c01c60e0516101005160e01c6149556200065160003960006116920152600061164e0152600061166f01526000611612015260008181610931015261098501526149556000f3fe608060405234801561001057600080fd5b50600436106101da5760003560e01c8063680908c911610104578063841a8a7e116100a2578063cb40bf6011610071578063cb40bf6014610578578063d7358c5e14610594578063f40c48c0146105cb578063fc16198d146105d5576101da565b8063841a8a7e146104dc57806396777e8d1461050c578063b16cfdd41461052a578063c5e0cfd01461055a576101da565b8063766c21a2116100de578063766c21a2146104565780637d74311c14610474578063812f2f3314610490578063834e6e89146104ac576101da565b8063680908c9146103d75780636e04ff0d146103f5578063731301cf14610426576101da565b8063348540431161017c57806347531df81161014b57806347531df81461037357806356361f0d1461039157806361bc221a146103af5780636201fe69146103cd576101da565b806334854043146102ff5780634585e33b1461031d57806345f36eb814610339578063462d71ff14610369576101da565b806324b9ed2d116101b857806324b9ed2d146102495780632615749c1461027957806327a980a8146102975780632dd47fc9146102cb576101da565b80630f53a470146101df5780631007e8c71461020f5780631fe543e31461022d575b600080fd5b6101f960048036038101906101f4919061379a565b6105f1565b60405161020691906142a1565b60405180910390f35b610217610929565b60405161022491906142c3565b60405180910390f35b610247600480360381019061024291906138f7565b61092f565b005b610263600480360381019061025e919061379a565b6109ef565b604051610270919061419c565b60405180910390f35b610281610b68565b60405161028e9190614158565b60405180910390f35b6102b160048036038101906102ac91906137c7565b610bf6565b6040516102c295949392919061406b565b60405180910390f35b6102e560048036038101906102e091906137c7565b610c96565b6040516102f695949392919061406b565b60405180910390f35b610307610d36565b60405161031491906142c3565b60405180910390f35b61033760048036038101906103329190613807565b610d3c565b005b610353600480360381019061034e919061389d565b611268565b6040516103609190614027565b60405180910390f35b6103716112a7565b005b61037b61142c565b6040516103889190614158565b60405180910390f35b6103996114ba565b6040516103a691906142c3565b60405180910390f35b6103b76114c0565b6040516103c491906142c3565b60405180910390f35b6103d56114c6565b005b6103df611757565b6040516103ec91906142c3565b60405180910390f35b61040f600480360381019061040a9190613854565b611761565b60405161041d9291906141be565b60405180910390f35b610440600480360381019061043b919061379a565b611eab565b60405161044d919061417a565b60405180910390f35b61045e612024565b60405161046b91906142c3565b60405180910390f35b61048e60048036038101906104899190613953565b61202a565b005b6104aa60048036038101906104a59190613a0e565b6122bc565b005b6104c660048036038101906104c1919061389d565b612596565b6040516104d39190614027565b60405180910390f35b6104f660048036038101906104f1919061389d565b6125d5565b6040516105039190614027565b60405180910390f35b610514612614565b6040516105219190614158565b60405180910390f35b610544600480360381019061053f919061389d565b6126a2565b6040516105519190614027565b60405180910390f35b6105626126e1565b60405161056f91906142c3565b60405180910390f35b610592600480360381019061058d91906137c7565b6126eb565b005b6105ae60048036038101906105a9919061379a565b61285d565b6040516105c29897969594939291906140be565b60405180910390f35b6105d3612aff565b005b6105ef60048036038101906105ea9190613953565b612ce7565b005b6105f961333e565b600b60008373ffffffffffffffffffffffffffffffffffffffff1673ffffffffffffffffffffffffffffffffffffffff168152602001908152602001600020604051806101000160405290816000820160009054906101000a900473ffffffffffffffffffffffffffffffffffffffff1673ffffffffffffffffffffffffffffffffffffffff1673ffffffffffffffffffffffffffffffffffffffff1681526020016001820180546106aa9061459f565b80601f01602080910402602001604051908101604052809291908181526020018280546106d69061459f565b80156107235780601f106106f857610100808354040283529160200191610723565b820191906000526020600020905b81548152906001019060200180831161070657829003601f168201915b5050505050815260200160028201805461073c9061459f565b80601f01602080910402602001604051908101604052809291908181526020018280546107689061459f565b80156107b55780601f1061078a576101008083540402835291602001916107b5565b820191906000526020600020905b81548152906001019060200180831161079857829003601f168201915b50505050508152602001600382015481526020016004820180546107d89061459f565b80601f01602080910402602001604051908101604052809291908181526020018280546108049061459f565b80156108515780601f1061082657610100808354040283529160200191610851565b820191906000526020600020905b81548152906001019060200180831161083457829003601f168201915b5050505050815260200160058201805461086a9061459f565b80601f01602080910402602001604051908101604052809291908181526020018280546108969061459f565b80156108e35780601f106108b8576101008083540402835291602001916108e3565b820191906000526020600020905b8154815290600101906020018083116108c657829003601f168201915b505050505081526020016006820160009054906101000a900460ff161515151581526020016006820160019054906101000a900460ff1615151515815250509050919050565b60035481565b7f000000000000000000000000000000000000000000000000000000000000000073ffffffffffffffffffffffffffffffffffffffff163373ffffffffffffffffffffffffffffffffffffffff16146109e157337f00000000000000000000000000000000000000000000000000000000000000006040517f1cf993f40000000000000000000000000000000000000000000000000000000081526004016109d8929190614042565b60405180910390fd5b6109eb8282612fe1565b5050565b6060600860008373ffffffffffffffffffffffffffffffffffffffff1673ffffffffffffffffffffffffffffffffffffffff168152602001908152602001600020805480602002602001604051908101604052809291908181526020016000905b82821015610b5d57838290600052602060002090600502016040518060a00160405290816000820160009054906101000a900473ffffffffffffffffffffffffffffffffffffffff1673ffffffffffffffffffffffffffffffffffffffff1673ffffffffffffffffffffffffffffffffffffffff1681526020016001820160009054906101000a900473ffffffffffffffffffffffffffffffffffffffff1673ffffffffffffffffffffffffffffffffffffffff1673ffffffffffffffffffffffffffffffffffffffff16815260200160028201548152602001600382015481526020016004820160009054906101000a900460ff16151515158152505081526020019060010190610a50565b505050509050919050565b6060600f805480602002602001604051908101604052809291908181526020018280548015610bec57602002820191906000526020600020905b8160009054906101000a900473ffffffffffffffffffffffffffffffffffffffff1673ffffffffffffffffffffffffffffffffffffffff1681526020019060010190808311610ba2575b5050505050905090565b60076020528160005260406000208181548110610c1257600080fd5b9060005260206000209060050201600091509150508060000160009054906101000a900473ffffffffffffffffffffffffffffffffffffffff16908060010160009054906101000a900473ffffffffffffffffffffffffffffffffffffffff16908060020154908060030154908060040160009054906101000a900460ff16905085565b60086020528160005260406000208181548110610cb257600080fd5b9060005260206000209060050201600091509150508060000160009054906101000a900473ffffffffffffffffffffffffffffffffffffffff16908060010160009054906101000a900473ffffffffffffffffffffffffffffffffffffffff16908060020154908060030154908060040160009054906101000a900460ff16905085565b60025481565b60008282810190610d4d919061389d565b90506000811415610fd95760005b600e80549050811015610fd75760005b60086000600e8481548110610d8357610d82614771565b5b9060005260206000200160009054906101000a900473ffffffffffffffffffffffffffffffffffffffff1673ffffffffffffffffffffffffffffffffffffffff1673ffffffffffffffffffffffffffffffffffffffff16815260200190815260200160002080549050811015610fc3576000610e0d60405180602001604052806000815250611761565b50905080610e50576040517f08c379a0000000000000000000000000000000000000000000000000000000008152600401610e4790614261565b60405180910390fd5b600160086000600e8681548110610e6a57610e69614771565b5b9060005260206000200160009054906101000a900473ffffffffffffffffffffffffffffffffffffffff1673ffffffffffffffffffffffffffffffffffffffff1673ffffffffffffffffffffffffffffffffffffffff1681526020019081526020016000208381548110610ee157610ee0614771565b5b906000526020600020906005020160040160006101000a81548160ff0219169083151502179055506001600c6000600e8681548110610f2357610f22614771565b5b9060005260206000200160009054906101000a900473ffffffffffffffffffffffffffffffffffffffff1673ffffffffffffffffffffffffffffffffffffffff1673ffffffffffffffffffffffffffffffffffffffff16815260200190815260200160002060006101000a81548160ff02191690836001811115610faa57610fa96146e4565b5b0217905550508080610fbb90614602565b915050610d6b565b508080610fcf90614602565b915050610d5b565b505b60018114156112635760005b6010805490508110156112615760005b600760006010848154811061100d5761100c614771565b5b9060005260206000200160009054906101000a900473ffffffffffffffffffffffffffffffffffffffff1673ffffffffffffffffffffffffffffffffffffffff1673ffffffffffffffffffffffffffffffffffffffff1681526020019081526020016000208054905081101561124d57600061109760405180602001604052806000815250611761565b509050806110da576040517f08c379a00000000000000000000000000000000000000000000000000000000081526004016110d190614261565b60405180910390fd5b600160076000601086815481106110f4576110f3614771565b5b9060005260206000200160009054906101000a900473ffffffffffffffffffffffffffffffffffffffff1673ffffffffffffffffffffffffffffffffffffffff1673ffffffffffffffffffffffffffffffffffffffff168152602001908152602001600020838154811061116b5761116a614771565b5b906000526020600020906005020160040160006101000a81548160ff0219169083151502179055506001600d6000601086815481106111ad576111ac614771565b5b9060005260206000200160009054906101000a900473ffffffffffffffffffffffffffffffffffffffff1673ffffffffffffffffffffffffffffffffffffffff1673ffffffffffffffffffffffffffffffffffffffff16815260200190815260200160002060006101000a81548160ff02191690836001811115611234576112336146e4565b5b021790555050808061124590614602565b915050610ff5565b50808061125990614602565b915050610fe5565b505b505050565b600e818154811061127857600080fd5b906000526020600020016000915054906101000a900473ffffffffffffffffffffffffffffffffffffffff1681565b6040516020016112b690613ff7565b60405160208183030381529060405280519060200120600b60003373ffffffffffffffffffffffffffffffffffffffff1673ffffffffffffffffffffffffffffffffffffffff16815260200190815260200160002060020160405160200161131e9190613fcb565b6040516020818303038152906040528051906020012014611374576040517f08c379a000000000000000000000000000000000000000000000000000000000815260040161136b90614281565b60405180910390fd5b6000600b60003373ffffffffffffffffffffffffffffffffffffffff1673ffffffffffffffffffffffffffffffffffffffff16815260200190815260200160002060060160016101000a81548160ff0219169083151502179055506000600b60003373ffffffffffffffffffffffffffffffffffffffff1673ffffffffffffffffffffffffffffffffffffffff16815260200190815260200160002060060160006101000a81548160ff021916908315150217905550565b606060108054806020026020016040519081016040528092919081815260200182805480156114b057602002820191906000526020600020905b8160009054906101000a900473ffffffffffffffffffffffffffffffffffffffff1673ffffffffffffffffffffffffffffffffffffffff1681526020019060010190808311611466575b5050505050905090565b60095481565b60005481565b6040516020016114d590613fe2565b60405160208183030381529060405280519060200120600b60003373ffffffffffffffffffffffffffffffffffffffff1673ffffffffffffffffffffffffffffffffffffffff16815260200190815260200160002060020160405160200161153d9190613fcb565b6040516020818303038152906040528051906020012014611593576040517f08c379a000000000000000000000000000000000000000000000000000000000815260040161158a90614241565b60405180910390fd5b600960008154809291906115a690614602565b91905055506011339080600181540180825580915050600190039060005260206000200160009091909190916101000a81548173ffffffffffffffffffffffffffffffffffffffff021916908373ffffffffffffffffffffffffffffffffffffffff16021790555060007f000000000000000000000000000000000000000000000000000000000000000073ffffffffffffffffffffffffffffffffffffffff16635d3b1d307f00000000000000000000000000000000000000000000000000000000000000007f000000000000000000000000000000000000000000000000000000000000000060037f000000000000000000000000000000000000000000000000000000000000000060016040518663ffffffff1660e01b81526004016116d39594939291906141ee565b602060405180830381600087803b1580156116ed57600080fd5b505af1158015611701573d6000803e3d6000fd5b505050506040513d601f19601f8201168201806040525081019061172591906138ca565b9050807f87e6ecc689cdf094814065b7124cc8ca0e4c2641a19d993bf24c02446fbd478160405160405180910390a250565b6000600a54905090565b600060606000600e805490501115611b055760005b600e80549050811015611b035760005b60086000600e848154811061179e5761179d614771565b5b9060005260206000200160009054906101000a900473ffffffffffffffffffffffffffffffffffffffff1673ffffffffffffffffffffffffffffffffffffffff1673ffffffffffffffffffffffffffffffffffffffff16815260200190815260200160002080549050811015611aef57600060086000600e858154811061182857611827614771565b5b9060005260206000200160009054906101000a900473ffffffffffffffffffffffffffffffffffffffff1673ffffffffffffffffffffffffffffffffffffffff1673ffffffffffffffffffffffffffffffffffffffff168152602001908152602001600020828154811061189f5761189e614771565b5b90600052602060002090600502016002015411801561196f57506000151560086000600e85815481106118d5576118d4614771565b5b9060005260206000200160009054906101000a900473ffffffffffffffffffffffffffffffffffffffff1673ffffffffffffffffffffffffffffffffffffffff1673ffffffffffffffffffffffffffffffffffffffff168152602001908152602001600020828154811061194c5761194b614771565b5b906000526020600020906005020160040160009054906101000a900460ff161515145b15611adc576000600c60003373ffffffffffffffffffffffffffffffffffffffff1673ffffffffffffffffffffffffffffffffffffffff16815260200190815260200160002060009054906101000a900460ff1660018111156119d5576119d46146e4565b5b600060018111156119e9576119e86146e4565b5b149050600060086000600e8681548110611a0657611a05614771565b5b9060005260206000200160009054906101000a900473ffffffffffffffffffffffffffffffffffffffff1673ffffffffffffffffffffffffffffffffffffffff1673ffffffffffffffffffffffffffffffffffffffff1681526020019081526020016000208381548110611a7d57611a7c614771565b5b90600052602060002090600502016002015460025442611a9d91906144a5565b119050818015611aaa5750805b95506000604051602001611abe919061400c565b60405160208183030381529060405294506001955050505050611ea6565b8080611ae790614602565b915050611786565b508080611afb90614602565b915050611776565b505b60006010805490501115611ea55760005b601080549050811015611ea35760005b6007600060108481548110611b3e57611b3d614771565b5b9060005260206000200160009054906101000a900473ffffffffffffffffffffffffffffffffffffffff1673ffffffffffffffffffffffffffffffffffffffff1673ffffffffffffffffffffffffffffffffffffffff16815260200190815260200160002080549050811015611e8f5760006007600060108581548110611bc857611bc7614771565b5b9060005260206000200160009054906101000a900473ffffffffffffffffffffffffffffffffffffffff1673ffffffffffffffffffffffffffffffffffffffff1673ffffffffffffffffffffffffffffffffffffffff1681526020019081526020016000208281548110611c3f57611c3e614771565b5b906000526020600020906005020160020154118015611d0f5750600015156007600060108581548110611c7557611c74614771565b5b9060005260206000200160009054906101000a900473ffffffffffffffffffffffffffffffffffffffff1673ffffffffffffffffffffffffffffffffffffffff1673ffffffffffffffffffffffffffffffffffffffff1681526020019081526020016000208281548110611cec57611ceb614771565b5b906000526020600020906005020160040160009054906101000a900460ff161515145b15611e7c576000600d60003373ffffffffffffffffffffffffffffffffffffffff1673ffffffffffffffffffffffffffffffffffffffff16815260200190815260200160002060009054906101000a900460ff166001811115611d7557611d746146e4565b5b60006001811115611d8957611d886146e4565b5b14905060006007600060108681548110611da657611da5614771565b5b9060005260206000200160009054906101000a900473ffffffffffffffffffffffffffffffffffffffff1673ffffffffffffffffffffffffffffffffffffffff1673ffffffffffffffffffffffffffffffffffffffff1681526020019081526020016000208381548110611e1d57611e1c614771565b5b90600052602060002090600502016002015460035442611e3d91906144a5565b119050818015611e4a5750805b95506001604051602001611e5e919061400c565b60405160208183030381529060405294506001955050505050611ea6565b8080611e8790614602565b915050611b26565b508080611e9b90614602565b915050611b16565b505b5b915091565b6060600760008373ffffffffffffffffffffffffffffffffffffffff1673ffffffffffffffffffffffffffffffffffffffff168152602001908152602001600020805480602002602001604051908101604052809291908181526020016000905b8282101561201957838290600052602060002090600502016040518060a00160405290816000820160009054906101000a900473ffffffffffffffffffffffffffffffffffffffff1673ffffffffffffffffffffffffffffffffffffffff1673ffffffffffffffffffffffffffffffffffffffff1681526020016001820160009054906101000a900473ffffffffffffffffffffffffffffffffffffffff1673ffffffffffffffffffffffffffffffffffffffff1673ffffffffffffffffffffffffffffffffffffffff16815260200160028201548152602001600382015481526020016004820160009054906101000a900460ff16151515158152505081526020019060010190611f0c565b505050509050919050565b600a5481565b6010339080600181540180825580915050600190039060005260206000200160009091909190916101000a81548173ffffffffffffffffffffffffffffffffffffffff021916908373ffffffffffffffffffffffffffffffffffffffff16021790555033600b60003373ffffffffffffffffffffffffffffffffffffffff1673ffffffffffffffffffffffffffffffffffffffff16815260200190815260200160002060000160006101000a81548173ffffffffffffffffffffffffffffffffffffffff021916908373ffffffffffffffffffffffffffffffffffffffff16021790555082600b60003373ffffffffffffffffffffffffffffffffffffffff1673ffffffffffffffffffffffffffffffffffffffff168152602001908152602001600020600101908051906020019061216492919061339d565b5083600b60003373ffffffffffffffffffffffffffffffffffffffff1673ffffffffffffffffffffffffffffffffffffffff168152602001908152602001600020600301819055506004600b60003373ffffffffffffffffffffffffffffffffffffffff1673ffffffffffffffffffffffffffffffffffffffff1681526020019081526020016000206002019080546121fc9061459f565b612207929190613423565b5081600b60003373ffffffffffffffffffffffffffffffffffffffff1673ffffffffffffffffffffffffffffffffffffffff168152602001908152602001600020600501908051906020019061225e92919061339d565b5080600b60003373ffffffffffffffffffffffffffffffffffffffff1673ffffffffffffffffffffffffffffffffffffffff16815260200190815260200160002060040190805190602001906122b592919061339d565b5050505050565b6040516020016122cb90613ff7565b60405160208183030381529060405280519060200120600b60003373ffffffffffffffffffffffffffffffffffffffff1673ffffffffffffffffffffffffffffffffffffffff1681526020019081526020016000206002016040516020016123339190613fcb565b6040516020818303038152906040528051906020012014612389576040517f08c379a000000000000000000000000000000000000000000000000000000000815260040161238090614281565b60405180910390fd5b600a600081548092919061239c90614602565b91905055506123a96134b0565b33816000019073ffffffffffffffffffffffffffffffffffffffff16908173ffffffffffffffffffffffffffffffffffffffff16815250508281604001818152505081816060018181525050826001819055506000600c60003373ffffffffffffffffffffffffffffffffffffffff1673ffffffffffffffffffffffffffffffffffffffff16815260200190815260200160002060006101000a81548160ff0219169083600181111561245f5761245e6146e4565b5b0217905550600860003373ffffffffffffffffffffffffffffffffffffffff1673ffffffffffffffffffffffffffffffffffffffff16815260200190815260200160002081908060018154018082558091505060019003906000526020600020906005020160009091909190915060008201518160000160006101000a81548173ffffffffffffffffffffffffffffffffffffffff021916908373ffffffffffffffffffffffffffffffffffffffff16021790555060208201518160010160006101000a81548173ffffffffffffffffffffffffffffffffffffffff021916908373ffffffffffffffffffffffffffffffffffffffff160217905550604082015181600201556060820151816003015560808201518160040160006101000a81548160ff0219169083151502179055505050505050565b601081815481106125a657600080fd5b906000526020600020016000915054906101000a900473ffffffffffffffffffffffffffffffffffffffff1681565b600f81815481106125e557600080fd5b906000526020600020016000915054906101000a900473ffffffffffffffffffffffffffffffffffffffff1681565b6060600e80548060200260200160405190810160405280929190818152602001828054801561269857602002820191906000526020600020905b8160009054906101000a900473ffffffffffffffffffffffffffffffffffffffff1673ffffffffffffffffffffffffffffffffffffffff168152602001906001019080831161264e575b5050505050905090565b601181815481106126b257600080fd5b906000526020600020016000915054906101000a900473ffffffffffffffffffffffffffffffffffffffff1681565b6000600954905090565b6040516020016126fa90613fe2565b60405160208183030381529060405280519060200120600b60003373ffffffffffffffffffffffffffffffffffffffff1673ffffffffffffffffffffffffffffffffffffffff1681526020019081526020016000206002016040516020016127629190613fcb565b60405160208183030381529060405280519060200120146127b8576040517f08c379a00000000000000000000000000000000000000000000000000000000081526004016127af90614241565b60405180910390fd5b33600860008473ffffffffffffffffffffffffffffffffffffffff1673ffffffffffffffffffffffffffffffffffffffff168152602001908152602001600020828154811061280a57612809614771565b5b906000526020600020906005020160010160006101000a81548173ffffffffffffffffffffffffffffffffffffffff021916908373ffffffffffffffffffffffffffffffffffffffff1602179055505050565b600b6020528060005260406000206000915090508060000160009054906101000a900473ffffffffffffffffffffffffffffffffffffffff16908060010180546128a69061459f565b80601f01602080910402602001604051908101604052809291908181526020018280546128d29061459f565b801561291f5780601f106128f45761010080835404028352916020019161291f565b820191906000526020600020905b81548152906001019060200180831161290257829003601f168201915b5050505050908060020180546129349061459f565b80601f01602080910402602001604051908101604052809291908181526020018280546129609061459f565b80156129ad5780601f10612982576101008083540402835291602001916129ad565b820191906000526020600020905b81548152906001019060200180831161299057829003601f168201915b5050505050908060030154908060040180546129c89061459f565b80601f01602080910402602001604051908101604052809291908181526020018280546129f49061459f565b8015612a415780601f10612a1657610100808354040283529160200191612a41565b820191906000526020600020905b815481529060010190602001808311612a2457829003601f168201915b505050505090806005018054612a569061459f565b80601f0160208091040260200160405190810160405280929190818152602001828054612a829061459f565b8015612acf5780601f10612aa457610100808354040283529160200191612acf565b820191906000526020600020905b815481529060010190602001808311612ab257829003601f168201915b5050505050908060060160009054906101000a900460ff16908060060160019054906101000a900460ff16905088565b604051602001612b0e90613ff7565b60405160208183030381529060405280519060200120600b60003373ffffffffffffffffffffffffffffffffffffffff1673ffffffffffffffffffffffffffffffffffffffff168152602001908152602001600020600201604051602001612b769190613fcb565b6040516020818303038152906040528051906020012014612bcc576040517f08c379a0000000000000000000000000000000000000000000000000000000008152600401612bc390614281565b60405180910390fd5b600f339080600181540180825580915050600190039060005260206000200160009091909190916101000a81548173ffffffffffffffffffffffffffffffffffffffff021916908373ffffffffffffffffffffffffffffffffffffffff1602179055506001600b60003373ffffffffffffffffffffffffffffffffffffffff1673ffffffffffffffffffffffffffffffffffffffff16815260200190815260200160002060060160016101000a81548160ff0219169083151502179055506001600b60003373ffffffffffffffffffffffffffffffffffffffff1673ffffffffffffffffffffffffffffffffffffffff16815260200190815260200160002060060160006101000a81548160ff021916908315150217905550565b600e339080600181540180825580915050600190039060005260206000200160009091909190916101000a81548173ffffffffffffffffffffffffffffffffffffffff021916908373ffffffffffffffffffffffffffffffffffffffff1602179055506000600c60003373ffffffffffffffffffffffffffffffffffffffff1673ffffffffffffffffffffffffffffffffffffffff16815260200190815260200160002060006101000a81548160ff02191690836001811115612dad57612dac6146e4565b5b021790555033600b60003373ffffffffffffffffffffffffffffffffffffffff1673ffffffffffffffffffffffffffffffffffffffff16815260200190815260200160002060000160006101000a81548173ffffffffffffffffffffffffffffffffffffffff021916908373ffffffffffffffffffffffffffffffffffffffff16021790555082600b60003373ffffffffffffffffffffffffffffffffffffffff1673ffffffffffffffffffffffffffffffffffffffff1681526020019081526020016000206001019080519060200190612e8992919061339d565b5083600b60003373ffffffffffffffffffffffffffffffffffffffff1673ffffffffffffffffffffffffffffffffffffffff168152602001908152602001600020600301819055506005600b60003373ffffffffffffffffffffffffffffffffffffffff1673ffffffffffffffffffffffffffffffffffffffff168152602001908152602001600020600201908054612f219061459f565b612f2c929190613423565b5081600b60003373ffffffffffffffffffffffffffffffffffffffff1673ffffffffffffffffffffffffffffffffffffffff1681526020019081526020016000206005019080519060200190612f8392919061339d565b5080600b60003373ffffffffffffffffffffffffffffffffffffffff1673ffffffffffffffffffffffffffffffffffffffff1681526020019081526020016000206004019080519060200190612fda92919061339d565b5050505050565b6000600e8054905082600081518110612ffd57612ffc614771565b5b602002602001015161300f9190614655565b90506000600e828154811061302757613026614771565b5b9060005260206000200160009054906101000a900473ffffffffffffffffffffffffffffffffffffffff16905061305c61350d565b6011600160118054905061307091906144a5565b8154811061308157613080614771565b5b9060005260206000200160009054906101000a900473ffffffffffffffffffffffffffffffffffffffff16816020019073ffffffffffffffffffffffffffffffffffffffff16908173ffffffffffffffffffffffffffffffffffffffff1681525050603c81604001818152505081816000019073ffffffffffffffffffffffffffffffffffffffff16908173ffffffffffffffffffffffffffffffffffffffff1681525050601180548061313857613137614742565b5b6001900381819060005260206000200160006101000a81549073ffffffffffffffffffffffffffffffffffffffff02191690559055603c6001819055506000600d60003373ffffffffffffffffffffffffffffffffffffffff1673ffffffffffffffffffffffffffffffffffffffff16815260200190815260200160002060006101000a81548160ff021916908360018111156131d8576131d76146e4565b5b0217905550600760003373ffffffffffffffffffffffffffffffffffffffff1673ffffffffffffffffffffffffffffffffffffffff16815260200190815260200160002081908060018154018082558091505060019003906000526020600020906005020160009091909190915060008201518160000160006101000a81548173ffffffffffffffffffffffffffffffffffffffff021916908373ffffffffffffffffffffffffffffffffffffffff16021790555060208201518160010160006101000a81548173ffffffffffffffffffffffffffffffffffffffff021916908373ffffffffffffffffffffffffffffffffffffffff160217905550604082015181600201556060820151816003015560808201518160040160006101000a81548160ff0219169083151502179055505050827f87e6ecc689cdf094814065b7124cc8ca0e4c2641a19d993bf24c02446fbd478160405160405180910390a25050505050565b604051806101000160405280600073ffffffffffffffffffffffffffffffffffffffff16815260200160608152602001606081526020016000815260200160608152602001606081526020016000151581526020016000151581525090565b8280546133a99061459f565b90600052602060002090601f0160209004810192826133cb5760008555613412565b82601f106133e457805160ff1916838001178555613412565b82800160010185558215613412579182015b828111156134115782518255916020019190600101906133f6565b5b50905061341f919061356a565b5090565b82805461342f9061459f565b90600052602060002090601f016020900481019282613451576000855561349f565b82601f10613462578054855561349f565b8280016001018555821561349f57600052602060002091601f016020900482015b8281111561349e578254825591600101919060010190613483565b5b5090506134ac919061356a565b5090565b6040518060a00160405280600073ffffffffffffffffffffffffffffffffffffffff168152602001600073ffffffffffffffffffffffffffffffffffffffff16815260200160008152602001600081526020016000151581525090565b6040518060a00160405280600073ffffffffffffffffffffffffffffffffffffffff168152602001600073ffffffffffffffffffffffffffffffffffffffff16815260200160008152602001600081526020016000151581525090565b5b8082111561358357600081600090555060010161356b565b5090565b600061359a61359584614303565b6142de565b905080838252602082019050828560208602820111156135bd576135bc6147d9565b5b60005b858110156135ed57816135d38882613770565b8452602084019350602083019250506001810190506135c0565b5050509392505050565b600061360a6136058461432f565b6142de565b905082815260208101848484011115613626576136256147de565b5b61363184828561455d565b509392505050565b600061364c61364784614360565b6142de565b905082815260208101848484011115613668576136676147de565b5b61367384828561455d565b509392505050565b60008135905061368a816148f1565b92915050565b600082601f8301126136a5576136a46147d4565b5b81356136b5848260208601613587565b91505092915050565b60008083601f8401126136d4576136d36147d4565b5b8235905067ffffffffffffffff8111156136f1576136f06147cf565b5b60208301915083600182028301111561370d5761370c6147d9565b5b9250929050565b600082601f830112613729576137286147d4565b5b81356137398482602086016135f7565b91505092915050565b600082601f830112613757576137566147d4565b5b8135613767848260208601613639565b91505092915050565b60008135905061377f81614908565b92915050565b60008151905061379481614908565b92915050565b6000602082840312156137b0576137af6147e8565b5b60006137be8482850161367b565b91505092915050565b600080604083850312156137de576137dd6147e8565b5b60006137ec8582860161367b565b92505060206137fd85828601613770565b9150509250929050565b6000806020838503121561381e5761381d6147e8565b5b600083013567ffffffffffffffff81111561383c5761383b6147e3565b5b613848858286016136be565b92509250509250929050565b60006020828403121561386a576138696147e8565b5b600082013567ffffffffffffffff811115613888576138876147e3565b5b61389484828501613714565b91505092915050565b6000602082840312156138b3576138b26147e8565b5b60006138c184828501613770565b91505092915050565b6000602082840312156138e0576138df6147e8565b5b60006138ee84828501613785565b91505092915050565b6000806040838503121561390e5761390d6147e8565b5b600061391c85828601613770565b925050602083013567ffffffffffffffff81111561393d5761393c6147e3565b5b61394985828601613690565b9150509250929050565b6000806000806080858703121561396d5761396c6147e8565b5b600061397b87828801613770565b945050602085013567ffffffffffffffff81111561399c5761399b6147e3565b5b6139a887828801613742565b935050604085013567ffffffffffffffff8111156139c9576139c86147e3565b5b6139d587828801613742565b925050606085013567ffffffffffffffff8111156139f6576139f56147e3565b5b613a0287828801613742565b91505092959194509250565b60008060408385031215613a2557613a246147e8565b5b6000613a3385828601613770565b9250506020613a4485828601613770565b9150509250929050565b6000613a5a8383613a96565b60208301905092915050565b6000613a728383613dd4565b60a08301905092915050565b6000613a8a8383613e3c565b60a08301905092915050565b613a9f816144d9565b82525050565b613aae816144d9565b82525050565b6000613abf826143d6565b613ac98185614434565b9350613ad483614391565b8060005b83811015613b05578151613aec8882613a4e565b9750613af78361440d565b925050600181019050613ad8565b5085935050505092915050565b6000613b1d826143e1565b613b278185614445565b9350613b32836143a1565b8060005b83811015613b63578151613b4a8882613a66565b9750613b558361441a565b925050600181019050613b36565b5085935050505092915050565b6000613b7b826143ec565b613b858185614456565b9350613b90836143b1565b8060005b83811015613bc1578151613ba88882613a7e565b9750613bb383614427565b925050600181019050613b94565b5085935050505092915050565b613bd7816144eb565b82525050565b613be6816144eb565b82525050565b613bf5816144f7565b82525050565b6000613c06826143f7565b613c108185614467565b9350613c2081856020860161456c565b613c29816147ed565b840191505092915050565b6000613c3f82614402565b613c498185614478565b9350613c5981856020860161456c565b613c62816147ed565b840191505092915050565b6000613c7882614402565b613c828185614489565b9350613c9281856020860161456c565b613c9b816147ed565b840191505092915050565b60008154613cb38161459f565b613cbd818661449a565b94506001821660008114613cd85760018114613ce957613d1c565b60ff19831686528186019350613d1c565b613cf2856143c1565b60005b83811015613d1457815481890152600182019150602081019050613cf5565b838801955050505b50505092915050565b6000613d32600a83614489565b9150613d3d826147fe565b602082019050919050565b6000613d5560048361449a565b9150613d6082614827565b600482019050919050565b6000613d78602383614489565b9150613d8382614850565b604082019050919050565b6000613d9b60048361449a565b9150613da68261489f565b600482019050919050565b6000613dbe600a83614489565b9150613dc9826148c8565b602082019050919050565b60a082016000820151613dea6000850182613a96565b506020820151613dfd6020850182613a96565b506040820151613e106040850182613f78565b506060820151613e236060850182613f78565b506080820151613e366080850182613bce565b50505050565b60a082016000820151613e526000850182613a96565b506020820151613e656020850182613a96565b506040820151613e786040850182613f78565b506060820151613e8b6060850182613f78565b506080820151613e9e6080850182613bce565b50505050565b600061010083016000830151613ebd6000860182613a96565b5060208301518482036020860152613ed58282613c34565b91505060408301518482036040860152613eef8282613c34565b9150506060830151613f046060860182613f78565b5060808301518482036080860152613f1c8282613c34565b91505060a083015184820360a0860152613f368282613c34565b91505060c0830151613f4b60c0860182613bce565b5060e0830151613f5e60e0860182613bce565b508091505092915050565b613f7281614501565b82525050565b613f818161452f565b82525050565b613f908161452f565b82525050565b613fa7613fa28261452f565b61464b565b82525050565b613fb681614539565b82525050565b613fc581614549565b82525050565b6000613fd78284613ca6565b915081905092915050565b6000613fed82613d48565b9150819050919050565b600061400282613d8e565b9150819050919050565b60006140188284613f96565b60208201915081905092915050565b600060208201905061403c6000830184613aa5565b92915050565b60006040820190506140576000830185613aa5565b6140646020830184613aa5565b9392505050565b600060a0820190506140806000830188613aa5565b61408d6020830187613aa5565b61409a6040830186613f87565b6140a76060830185613f87565b6140b46080830184613bdd565b9695505050505050565b6000610100820190506140d4600083018b613aa5565b81810360208301526140e6818a613c6d565b905081810360408301526140fa8189613c6d565b90506141096060830188613f87565b818103608083015261411b8187613c6d565b905081810360a083015261412f8186613c6d565b905061413e60c0830185613bdd565b61414b60e0830184613bdd565b9998505050505050505050565b600060208201905081810360008301526141728184613ab4565b905092915050565b600060208201905081810360008301526141948184613b12565b905092915050565b600060208201905081810360008301526141b68184613b70565b905092915050565b60006040820190506141d36000830185613bdd565b81810360208301526141e58184613bfb565b90509392505050565b600060a0820190506142036000830188613bec565b6142106020830187613fbc565b61421d6040830186613f69565b61422a6060830185613fad565b6142376080830184613fad565b9695505050505050565b6000602082019050818103600083015261425a81613d25565b9050919050565b6000602082019050818103600083015261427a81613d6b565b9050919050565b6000602082019050818103600083015261429a81613db1565b9050919050565b600060208201905081810360008301526142bb8184613ea4565b905092915050565b60006020820190506142d86000830184613f87565b92915050565b60006142e86142f9565b90506142f482826145d1565b919050565b6000604051905090565b600067ffffffffffffffff82111561431e5761431d6147a0565b5b602082029050602081019050919050565b600067ffffffffffffffff82111561434a576143496147a0565b5b614353826147ed565b9050602081019050919050565b600067ffffffffffffffff82111561437b5761437a6147a0565b5b614384826147ed565b9050602081019050919050565b6000819050602082019050919050565b6000819050602082019050919050565b6000819050602082019050919050565b60008190508160005260206000209050919050565b600081519050919050565b600081519050919050565b600081519050919050565b600081519050919050565b600081519050919050565b6000602082019050919050565b6000602082019050919050565b6000602082019050919050565b600082825260208201905092915050565b600082825260208201905092915050565b600082825260208201905092915050565b600082825260208201905092915050565b600082825260208201905092915050565b600082825260208201905092915050565b600081905092915050565b60006144b08261452f565b91506144bb8361452f565b9250828210156144ce576144cd614686565b5b828203905092915050565b60006144e48261450f565b9050919050565b60008115159050919050565b6000819050919050565b600061ffff82169050919050565b600073ffffffffffffffffffffffffffffffffffffffff82169050919050565b6000819050919050565b600063ffffffff82169050919050565b600067ffffffffffffffff82169050919050565b82818337600083830152505050565b60005b8381101561458a57808201518184015260208101905061456f565b83811115614599576000848401525b50505050565b600060028204905060018216806145b757607f821691505b602082108114156145cb576145ca614713565b5b50919050565b6145da826147ed565b810181811067ffffffffffffffff821117156145f9576145f86147a0565b5b80604052505050565b600061460d8261452f565b91507fffffffffffffffffffffffffffffffffffffffffffffffffffffffffffffffff8214156146405761463f614686565b5b600182019050919050565b6000819050919050565b60006146608261452f565b915061466b8361452f565b92508261467b5761467a6146b5565b5b828206905092915050565b7f4e487b7100000000000000000000000000000000000000000000000000000000600052601160045260246000fd5b7f4e487b7100000000000000000000000000000000000000000000000000000000600052601260045260246000fd5b7f4e487b7100000000000000000000000000000000000000000000000000000000600052602160045260246000fd5b7f4e487b7100000000000000000000000000000000000000000000000000000000600052602260045260246000fd5b7f4e487b7100000000000000000000000000000000000000000000000000000000600052603160045260246000fd5b7f4e487b7100000000000000000000000000000000000000000000000000000000600052603260045260246000fd5b7f4e487b7100000000000000000000000000000000000000000000000000000000600052604160045260246000fd5b600080fd5b600080fd5b600080fd5b600080fd5b600080fd5b600080fd5b6000601f19601f8301169050919050565b7f4e4f542041205553455200000000000000000000000000000000000000000000600082015250565b7f5573657200000000000000000000000000000000000000000000000000000000600082015250565b7f446f65736e2774206d65657420726571756972656d656e7420666f722055704b60008201527f6565700000000000000000000000000000000000000000000000000000000000602082015250565b7f486f737400000000000000000000000000000000000000000000000000000000600082015250565b7f4e4f54204120484f535400000000000000000000000000000000000000000000600082015250565b6148fa816144d9565b811461490557600080fd5b50565b6149118161452f565b811461491c57600080fd5b5056fea26469706673582212208aa0f3ea72c0601065011aa309bd9b23235d3bb8c9fbbdd6ba270d8b47872ecf64736f6c63430008070033",
  "devdoc": {
    "kind": "dev",
    "methods": {
      "becomeVolun()": {
        "details": "This function `createVolun` allows only the Host to call it hence the `OnlyHost` modifier A host can toggle being a volunteer for campaign mode on, thereby making the profile avaliable for campaign "
      },
      "checkUpkeep(bytes)": {
        "details": "To ensure that it is never called, you may want to add the cannotExecute modifier from KeeperBase to your implementation of this method.",
        "params": {
          "checkData": "specified in the upkeep registration so it is always the same for a registered upkeep. This can easily be broken down into specific arguments using `abi.decode`, so multiple upkeeps can be registered on the same contract and easily differentiated by the contract."
        },
        "returns": {
          "performData": "bytes that the keeper should call performUpkeep with, if upkeep is needed. If you would like to encode data to decode later, try `abi.encode`.",
          "upkeepNeeded": "boolean to indicate whether the keeper should call performUpkeep or not."
        }
      },
      "createHost(uint256,string,string,string)": {
        "details": "This function `createHost` any body can call this functions and the senders profile would be set to that of a `Host`"
      },
      "createUser(uint256,string,string,string)": {
        "details": "This function `createUser` any body can call this functions and the senders profile would be set to that of a `User`"
      },
      "performUpkeep(bytes)": {
        "details": "The input to this method should not be trusted, and the caller of the method should not even be restricted to any single registry. Anyone should be able call it, and the input should be validated, there is no guarantee that the data passed in is the performData returned from checkUpkeep. This could happen due to malicious keepers, racing keepers, or simply a state change while the performUpkeep transaction is waiting for confirmation. Always validate the data passed in.",
        "params": {
          "performData": "is the data which was passed back from the checkData simulation. If it is encoded, it can easily be decoded into other types by calling `abi.decode`. This data should not be trusted, and should be validated against the contract's current state."
        }
      },
      "unVolun()": {
        "details": "This function `unVolun` allows only the Host to call it hence the `OnlyHost` modifier A host can toggle being a volunteer for campaign mode off, thereby making the profile unavaliable for campaign "
      }
    },
    "version": 1
  },
  "userdoc": {
    "kind": "user",
    "methods": {
      "checkUpkeep(bytes)": {
        "notice": "method that is simulated by the keepers to see if any work actually needs to be performed. This method does does not actually need to be executable, and since it is only ever simulated it can consume lots of gas."
      },
      "meetingNum()": {
        "notice": "Getter Functions "
      },
      "performUpkeep(bytes)": {
        "notice": "method that is actually executed by the keepers, via the registry. The data returned by the checkUpkeep simulation will be passed into this method to actually be executed."
      }
    },
    "version": 1
  },
  "storageLayout": {
    "storage": [
      {
        "astId": 195,
        "contract": "contracts/XTELPT.sol:XTELPT",
        "label": "counter",
        "offset": 0,
        "slot": "0",
        "type": "t_uint256"
      },
      {
        "astId": 197,
        "contract": "contracts/XTELPT.sol:XTELPT",
        "label": "i_interval",
        "offset": 0,
        "slot": "1",
        "type": "t_uint256"
      },
      {
        "astId": 199,
        "contract": "contracts/XTELPT.sol:XTELPT",
        "label": "s_lastTimeStamp",
        "offset": 0,
        "slot": "2",
        "type": "t_uint256"
      },
      {
        "astId": 201,
        "contract": "contracts/XTELPT.sol:XTELPT",
        "label": "v_lastTimeStamp",
        "offset": 0,
        "slot": "3",
        "type": "t_uint256"
      },
      {
        "astId": 204,
        "contract": "contracts/XTELPT.sol:XTELPT",
        "label": "userType",
        "offset": 0,
        "slot": "4",
        "type": "t_string_storage"
      },
      {
        "astId": 207,
        "contract": "contracts/XTELPT.sol:XTELPT",
        "label": "hostType",
        "offset": 0,
        "slot": "5",
        "type": "t_string_storage"
      },
      {
        "astId": 210,
        "contract": "contracts/XTELPT.sol:XTELPT",
        "label": "volunType",
        "offset": 0,
        "slot": "6",
        "type": "t_string_storage"
      },
      {
        "astId": 216,
        "contract": "contracts/XTELPT.sol:XTELPT",
        "label": "Campaign",
        "offset": 0,
        "slot": "7",
        "type": "t_mapping(t_address,t_array(t_struct(campaign)292_storage)dyn_storage)"
      },
      {
        "astId": 222,
        "contract": "contracts/XTELPT.sol:XTELPT",
        "label": "Meeting",
        "offset": 0,
        "slot": "8",
        "type": "t_mapping(t_address,t_array(t_struct(meeting)281_storage)dyn_storage)"
      },
      {
        "astId": 224,
        "contract": "contracts/XTELPT.sol:XTELPT",
        "label": "campaignIndex",
        "offset": 0,
        "slot": "9",
        "type": "t_uint256"
      },
      {
        "astId": 226,
        "contract": "contracts/XTELPT.sol:XTELPT",
        "label": "meetingIndex",
        "offset": 0,
        "slot": "10",
        "type": "t_uint256"
      },
      {
        "astId": 231,
        "contract": "contracts/XTELPT.sol:XTELPT",
        "label": "UserProfile",
        "offset": 0,
        "slot": "11",
        "type": "t_mapping(t_address,t_struct(profile)270_storage)"
      },
      {
        "astId": 236,
        "contract": "contracts/XTELPT.sol:XTELPT",
        "label": "s_xtelpState",
        "offset": 0,
        "slot": "12",
        "type": "t_mapping(t_address,t_enum(XTELPState)193)"
      },
      {
        "astId": 241,
        "contract": "contracts/XTELPT.sol:XTELPT",
        "label": "volunState",
        "offset": 0,
        "slot": "13",
        "type": "t_mapping(t_address,t_enum(XTELPState)193)"
      },
      {
        "astId": 244,
        "contract": "contracts/XTELPT.sol:XTELPT",
        "label": "AllHost",
        "offset": 0,
        "slot": "14",
        "type": "t_array(t_address)dyn_storage"
      },
      {
        "astId": 247,
        "contract": "contracts/XTELPT.sol:XTELPT",
        "label": "AllVolun",
        "offset": 0,
        "slot": "15",
        "type": "t_array(t_address)dyn_storage"
      },
      {
        "astId": 250,
        "contract": "contracts/XTELPT.sol:XTELPT",
        "label": "AllUser",
        "offset": 0,
        "slot": "16",
        "type": "t_array(t_address)dyn_storage"
      },
      {
        "astId": 253,
        "contract": "contracts/XTELPT.sol:XTELPT",
        "label": "recentCampaignCreator",
        "offset": 0,
        "slot": "17",
        "type": "t_array(t_address)dyn_storage"
      }
    ],
    "types": {
      "t_address": {
        "encoding": "inplace",
        "label": "address",
        "numberOfBytes": "20"
      },
      "t_array(t_address)dyn_storage": {
        "base": "t_address",
        "encoding": "dynamic_array",
        "label": "address[]",
        "numberOfBytes": "32"
      },
      "t_array(t_struct(campaign)292_storage)dyn_storage": {
        "base": "t_struct(campaign)292_storage",
        "encoding": "dynamic_array",
        "label": "struct XTELPT.campaign[]",
        "numberOfBytes": "32"
      },
      "t_array(t_struct(meeting)281_storage)dyn_storage": {
        "base": "t_struct(meeting)281_storage",
        "encoding": "dynamic_array",
        "label": "struct XTELPT.meeting[]",
        "numberOfBytes": "32"
      },
      "t_bool": {
        "encoding": "inplace",
        "label": "bool",
        "numberOfBytes": "1"
      },
      "t_enum(XTELPState)193": {
        "encoding": "inplace",
        "label": "enum XTELPT.XTELPState",
        "numberOfBytes": "1"
      },
      "t_mapping(t_address,t_array(t_struct(campaign)292_storage)dyn_storage)": {
        "encoding": "mapping",
        "key": "t_address",
        "label": "mapping(address => struct XTELPT.campaign[])",
        "numberOfBytes": "32",
        "value": "t_array(t_struct(campaign)292_storage)dyn_storage"
      },
      "t_mapping(t_address,t_array(t_struct(meeting)281_storage)dyn_storage)": {
        "encoding": "mapping",
        "key": "t_address",
        "label": "mapping(address => struct XTELPT.meeting[])",
        "numberOfBytes": "32",
        "value": "t_array(t_struct(meeting)281_storage)dyn_storage"
      },
      "t_mapping(t_address,t_enum(XTELPState)193)": {
        "encoding": "mapping",
        "key": "t_address",
        "label": "mapping(address => enum XTELPT.XTELPState)",
        "numberOfBytes": "32",
        "value": "t_enum(XTELPState)193"
      },
      "t_mapping(t_address,t_struct(profile)270_storage)": {
        "encoding": "mapping",
        "key": "t_address",
        "label": "mapping(address => struct XTELPT.profile)",
        "numberOfBytes": "32",
        "value": "t_struct(profile)270_storage"
      },
      "t_string_storage": {
        "encoding": "bytes",
        "label": "string",
        "numberOfBytes": "32"
      },
      "t_struct(campaign)292_storage": {
        "encoding": "inplace",
        "label": "struct XTELPT.campaign",
        "members": [
          {
            "astId": 283,
            "contract": "contracts/XTELPT.sol:XTELPT",
            "label": "volunteer",
            "offset": 0,
            "slot": "0",
            "type": "t_address"
          },
          {
            "astId": 285,
            "contract": "contracts/XTELPT.sol:XTELPT",
            "label": "user",
            "offset": 0,
            "slot": "1",
            "type": "t_address"
          },
          {
            "astId": 287,
            "contract": "contracts/XTELPT.sol:XTELPT",
            "label": "time",
            "offset": 0,
            "slot": "2",
            "type": "t_uint256"
          },
          {
            "astId": 289,
            "contract": "contracts/XTELPT.sol:XTELPT",
            "label": "fee",
            "offset": 0,
            "slot": "3",
            "type": "t_uint256"
          },
          {
            "astId": 291,
            "contract": "contracts/XTELPT.sol:XTELPT",
            "label": "completed",
            "offset": 0,
            "slot": "4",
            "type": "t_bool"
          }
        ],
        "numberOfBytes": "160"
      },
      "t_struct(meeting)281_storage": {
        "encoding": "inplace",
        "label": "struct XTELPT.meeting",
        "members": [
          {
            "astId": 272,
            "contract": "contracts/XTELPT.sol:XTELPT",
            "label": "host",
            "offset": 0,
            "slot": "0",
            "type": "t_address"
          },
          {
            "astId": 274,
            "contract": "contracts/XTELPT.sol:XTELPT",
            "label": "user",
            "offset": 0,
            "slot": "1",
            "type": "t_address"
          },
          {
            "astId": 276,
            "contract": "contracts/XTELPT.sol:XTELPT",
            "label": "time",
            "offset": 0,
            "slot": "2",
            "type": "t_uint256"
          },
          {
            "astId": 278,
            "contract": "contracts/XTELPT.sol:XTELPT",
            "label": "fee",
            "offset": 0,
            "slot": "3",
            "type": "t_uint256"
          },
          {
            "astId": 280,
            "contract": "contracts/XTELPT.sol:XTELPT",
            "label": "completed",
            "offset": 0,
            "slot": "4",
            "type": "t_bool"
          }
        ],
        "numberOfBytes": "160"
      },
      "t_struct(profile)270_storage": {
        "encoding": "inplace",
        "label": "struct XTELPT.profile",
        "members": [
          {
            "astId": 255,
            "contract": "contracts/XTELPT.sol:XTELPT",
            "label": "addr",
            "offset": 0,
            "slot": "0",
            "type": "t_address"
          },
          {
            "astId": 257,
            "contract": "contracts/XTELPT.sol:XTELPT",
            "label": "name",
            "offset": 0,
            "slot": "1",
            "type": "t_string_storage"
          },
          {
            "astId": 259,
            "contract": "contracts/XTELPT.sol:XTELPT",
            "label": "role",
            "offset": 0,
            "slot": "2",
            "type": "t_string_storage"
          },
          {
            "astId": 261,
            "contract": "contracts/XTELPT.sol:XTELPT",
            "label": "rating",
            "offset": 0,
            "slot": "3",
            "type": "t_uint256"
          },
          {
            "astId": 263,
            "contract": "contracts/XTELPT.sol:XTELPT",
            "label": "bio",
            "offset": 0,
            "slot": "4",
            "type": "t_string_storage"
          },
          {
            "astId": 265,
            "contract": "contracts/XTELPT.sol:XTELPT",
            "label": "profilePic",
            "offset": 0,
            "slot": "5",
            "type": "t_string_storage"
          },
          {
            "astId": 267,
            "contract": "contracts/XTELPT.sol:XTELPT",
            "label": "avaliable",
            "offset": 0,
            "slot": "6",
            "type": "t_bool"
          },
          {
            "astId": 269,
            "contract": "contracts/XTELPT.sol:XTELPT",
            "label": "volun",
            "offset": 1,
            "slot": "6",
            "type": "t_bool"
          }
        ],
        "numberOfBytes": "224"
      },
      "t_uint256": {
        "encoding": "inplace",
        "label": "uint256",
        "numberOfBytes": "32"
      }
    }
  }
}