{
  "address": "0x5FbDB2315678afecb367f032d93F642f64180aa3",
  "abi": [
    {
      "inputs": [],
      "stateMutability": "nonpayable",
      "type": "constructor"
    },
    {
      "anonymous": false,
      "inputs": [
        {
          "indexed": true,
          "internalType": "uint256",
          "name": "requestId",
          "type": "uint256"
        }
      ],
      "name": "RequestedID",
      "type": "event"
    },
    {
      "inputs": [
        {
          "internalType": "uint256",
          "name": "",
          "type": "uint256"
        }
      ],
      "name": "AllAccount",
      "outputs": [
        {
          "internalType": "address",
          "name": "",
          "type": "address"
        }
      ],
      "stateMutability": "view",
      "type": "function"
    },
    {
      "inputs": [
        {
          "internalType": "uint256",
          "name": "",
          "type": "uint256"
        }
      ],
      "name": "Campaign",
      "outputs": [
        {
          "internalType": "address",
          "name": "user",
          "type": "address"
        },
        {
          "internalType": "address",
          "name": "vol",
          "type": "address"
        },
        {
          "internalType": "uint256",
          "name": "start_time",
          "type": "uint256"
        },
        {
          "internalType": "uint256",
          "name": "end_time",
          "type": "uint256"
        },
        {
          "internalType": "string",
          "name": "image",
          "type": "string"
        },
        {
          "internalType": "uint256",
          "name": "fee",
          "type": "uint256"
        },
        {
          "internalType": "uint256",
          "name": "index",
          "type": "uint256"
        },
        {
          "internalType": "bool",
          "name": "completed",
          "type": "bool"
        },
        {
          "internalType": "string",
          "name": "name",
          "type": "string"
        },
        {
          "internalType": "string",
          "name": "desc",
          "type": "string"
        }
      ],
      "stateMutability": "view",
      "type": "function"
    },
    {
      "inputs": [
        {
          "internalType": "address",
          "name": "",
          "type": "address"
        },
        {
          "internalType": "uint256",
          "name": "",
          "type": "uint256"
        }
      ],
      "name": "Meeting",
      "outputs": [
        {
          "internalType": "address payable",
          "name": "host",
          "type": "address"
        },
        {
          "internalType": "address payable",
          "name": "user",
          "type": "address"
        },
        {
          "internalType": "uint256",
          "name": "start",
          "type": "uint256"
        },
        {
          "internalType": "uint256",
          "name": "end",
          "type": "uint256"
        },
        {
          "internalType": "string",
          "name": "desc",
          "type": "string"
        },
        {
          "internalType": "uint256",
          "name": "time",
          "type": "uint256"
        },
        {
          "internalType": "uint256",
          "name": "fee",
          "type": "uint256"
        },
        {
          "internalType": "uint256",
          "name": "index",
          "type": "uint256"
        },
        {
          "internalType": "bool",
          "name": "completed",
          "type": "bool"
        },
        {
          "internalType": "bool",
          "name": "booked",
          "type": "bool"
        }
      ],
      "stateMutability": "view",
      "type": "function"
    },
    {
      "inputs": [
        {
          "internalType": "address",
          "name": "",
          "type": "address"
        }
      ],
      "name": "UserProfile",
      "outputs": [
        {
          "internalType": "address",
          "name": "addr",
          "type": "address"
        },
        {
          "internalType": "string",
          "name": "name",
          "type": "string"
        },
        {
          "internalType": "string",
          "name": "role",
          "type": "string"
        },
        {
          "internalType": "uint256",
          "name": "rating",
          "type": "uint256"
        },
        {
          "internalType": "string",
          "name": "bio",
          "type": "string"
        },
        {
          "internalType": "string",
          "name": "profilePic",
          "type": "string"
        },
        {
          "internalType": "string",
          "name": "hostTitle",
          "type": "string"
        }
      ],
      "stateMutability": "view",
      "type": "function"
    },
    {
      "inputs": [],
      "name": "campaignIndex",
      "outputs": [
        {
          "internalType": "uint256",
          "name": "",
          "type": "uint256"
        }
      ],
      "stateMutability": "view",
      "type": "function"
    },
    {
      "inputs": [],
      "name": "campaignNum",
      "outputs": [
        {
          "internalType": "uint256",
          "name": "",
          "type": "uint256"
        }
      ],
      "stateMutability": "view",
      "type": "function"
    },
    {
      "inputs": [],
      "name": "counter",
      "outputs": [
        {
          "internalType": "uint256",
          "name": "",
          "type": "uint256"
        }
      ],
      "stateMutability": "view",
      "type": "function"
    },
    {
      "inputs": [
        {
          "internalType": "string",
          "name": "_name",
          "type": "string"
        },
        {
          "internalType": "string",
          "name": "_desc",
          "type": "string"
        },
        {
          "internalType": "string",
          "name": "_image",
          "type": "string"
        }
      ],
      "name": "createCampaign",
      "outputs": [],
      "stateMutability": "nonpayable",
      "type": "function"
    },
    {
      "inputs": [
        {
          "internalType": "uint256",
          "name": "_rating",
          "type": "uint256"
        },
        {
          "internalType": "string",
          "name": "_name",
          "type": "string"
        },
        {
          "internalType": "string",
          "name": "_pic",
          "type": "string"
        },
        {
          "internalType": "string",
          "name": "_bio",
          "type": "string"
        },
        {
          "internalType": "string",
          "name": "_title",
          "type": "string"
        }
      ],
      "name": "createHost",
      "outputs": [],
      "stateMutability": "nonpayable",
      "type": "function"
    },
    {
      "inputs": [
        {
          "internalType": "uint256",
          "name": "_start",
          "type": "uint256"
        },
        {
          "internalType": "uint256",
          "name": "_end",
          "type": "uint256"
        },
        {
          "internalType": "uint256",
          "name": "_fee",
          "type": "uint256"
        },
        {
          "internalType": "string",
          "name": "_desc",
          "type": "string"
        }
      ],
      "name": "createSchedule",
      "outputs": [],
      "stateMutability": "nonpayable",
      "type": "function"
    },
    {
      "inputs": [
        {
          "internalType": "uint256",
          "name": "_rating",
          "type": "uint256"
        },
        {
          "internalType": "string",
          "name": "_name",
          "type": "string"
        },
        {
          "internalType": "string",
          "name": "_pic",
          "type": "string"
        },
        {
          "internalType": "string",
          "name": "_bio",
          "type": "string"
        }
      ],
      "name": "createUser",
      "outputs": [],
      "stateMutability": "nonpayable",
      "type": "function"
    },
    {
      "inputs": [
        {
          "internalType": "uint256",
          "name": "_id",
          "type": "uint256"
        }
      ],
      "name": "endCampaign",
      "outputs": [],
      "stateMutability": "nonpayable",
      "type": "function"
    },
    {
      "inputs": [],
      "name": "endMeeting",
      "outputs": [],
      "stateMutability": "nonpayable",
      "type": "function"
    },
    {
      "inputs": [],
      "name": "getAllAccount",
      "outputs": [
        {
          "internalType": "address[]",
          "name": "",
          "type": "address[]"
        }
      ],
      "stateMutability": "view",
      "type": "function"
    },
    {
      "inputs": [],
      "name": "getCampaign",
      "outputs": [
        {
          "components": [
            {
              "internalType": "address[]",
              "name": "volunteer",
              "type": "address[]"
            },
            {
              "internalType": "address",
              "name": "user",
              "type": "address"
            },
            {
              "internalType": "address",
              "name": "vol",
              "type": "address"
            },
            {
              "internalType": "uint256",
              "name": "start_time",
              "type": "uint256"
            },
            {
              "internalType": "uint256",
              "name": "end_time",
              "type": "uint256"
            },
            {
              "internalType": "string",
              "name": "image",
              "type": "string"
            },
            {
              "internalType": "uint256",
              "name": "fee",
              "type": "uint256"
            },
            {
              "internalType": "uint256",
              "name": "index",
              "type": "uint256"
            },
            {
              "internalType": "bool",
              "name": "completed",
              "type": "bool"
            },
            {
              "internalType": "string",
              "name": "name",
              "type": "string"
            },
            {
              "internalType": "string",
              "name": "desc",
              "type": "string"
            }
          ],
          "internalType": "struct XTELPT.campaign[]",
          "name": "",
          "type": "tuple[]"
        }
      ],
      "stateMutability": "view",
      "type": "function"
    },
    {
      "inputs": [
        {
          "internalType": "uint256",
          "name": "_id",
          "type": "uint256"
        }
      ],
      "name": "getHelp",
      "outputs": [],
      "stateMutability": "nonpayable",
      "type": "function"
    },
    {
      "inputs": [
        {
          "internalType": "address",
          "name": "_prof",
          "type": "address"
        }
      ],
      "name": "getMeeting",
      "outputs": [
        {
          "components": [
            {
              "internalType": "address payable",
              "name": "host",
              "type": "address"
            },
            {
              "internalType": "address payable",
              "name": "user",
              "type": "address"
            },
            {
              "internalType": "uint256",
              "name": "start",
              "type": "uint256"
            },
            {
              "internalType": "uint256",
              "name": "end",
              "type": "uint256"
            },
            {
              "internalType": "string",
              "name": "desc",
              "type": "string"
            },
            {
              "internalType": "uint256",
              "name": "time",
              "type": "uint256"
            },
            {
              "internalType": "uint256",
              "name": "fee",
              "type": "uint256"
            },
            {
              "internalType": "uint256",
              "name": "index",
              "type": "uint256"
            },
            {
              "internalType": "bool",
              "name": "completed",
              "type": "bool"
            },
            {
              "internalType": "bool",
              "name": "booked",
              "type": "bool"
            }
          ],
          "internalType": "struct XTELPT.meeting[]",
          "name": "",
          "type": "tuple[]"
        }
      ],
      "stateMutability": "view",
      "type": "function"
    },
    {
      "inputs": [
        {
          "internalType": "address",
          "name": "userAdd",
          "type": "address"
        }
      ],
      "name": "getProfile",
      "outputs": [
        {
          "components": [
            {
              "internalType": "address",
              "name": "addr",
              "type": "address"
            },
            {
              "internalType": "string",
              "name": "name",
              "type": "string"
            },
            {
              "internalType": "string",
              "name": "role",
              "type": "string"
            },
            {
              "internalType": "uint256",
              "name": "rating",
              "type": "uint256"
            },
            {
              "internalType": "string",
              "name": "bio",
              "type": "string"
            },
            {
              "internalType": "string",
              "name": "profilePic",
              "type": "string"
            },
            {
              "internalType": "string",
              "name": "hostTitle",
              "type": "string"
            }
          ],
          "internalType": "struct XTELPT.profile",
          "name": "",
          "type": "tuple"
        }
      ],
      "stateMutability": "view",
      "type": "function"
    },
    {
      "inputs": [],
      "name": "interval",
      "outputs": [
        {
          "internalType": "uint256",
          "name": "",
          "type": "uint256"
        }
      ],
      "stateMutability": "view",
      "type": "function"
    },
    {
      "inputs": [
        {
          "internalType": "uint256",
          "name": "_id",
          "type": "uint256"
        }
      ],
      "name": "joinCampaign",
      "outputs": [],
      "stateMutability": "nonpayable",
      "type": "function"
    },
    {
      "inputs": [
        {
          "internalType": "address",
          "name": "_host",
          "type": "address"
        },
        {
          "internalType": "uint256",
          "name": "_id",
          "type": "uint256"
        }
      ],
      "name": "joinMeeting",
      "outputs": [],
      "stateMutability": "payable",
      "type": "function"
    },
    {
      "inputs": [],
      "name": "lastTimeStamp",
      "outputs": [
        {
          "internalType": "uint256",
          "name": "",
          "type": "uint256"
        }
      ],
      "stateMutability": "view",
      "type": "function"
    },
    {
      "inputs": [],
      "name": "meetingIndex",
      "outputs": [
        {
          "internalType": "uint256",
          "name": "",
          "type": "uint256"
        }
      ],
      "stateMutability": "view",
      "type": "function"
    },
    {
      "inputs": [],
      "name": "meetingNum",
      "outputs": [
        {
          "internalType": "uint256",
          "name": "",
          "type": "uint256"
        }
      ],
      "stateMutability": "view",
      "type": "function"
    },
    {
      "inputs": [
        {
          "internalType": "uint256",
          "name": "",
          "type": "uint256"
        }
      ],
      "name": "recentCampaignCreator",
      "outputs": [
        {
          "internalType": "address",
          "name": "",
          "type": "address"
        }
      ],
      "stateMutability": "view",
      "type": "function"
    }
  ],
  "transactionHash": "0x8cb4bbb626266ee3b3f7a85551901ef1c9a3064a188077a532ae563398737f5d",
  "args": [],
  "numDeployments": 1,
  "solcInputHash": "28256f3c2b2c938af0dc85122e961850",
  "bytecode": "0x60a06040526040518060400160405280600481526020017f5573657200000000000000000000000000000000000000000000000000000000815250600390805190602001906200005192919062000229565b506040518060400160405280600481526020017f486f737400000000000000000000000000000000000000000000000000000000815250600490805190602001906200009f92919062000229565b506040518060400160405280600581526020017f566f6c756e00000000000000000000000000000000000000000000000000000081525060059080519060200190620000ed92919062000229565b50348015620000fb57600080fd5b50336000806101000a81548173ffffffffffffffffffffffffffffffffffffffff021916908373ffffffffffffffffffffffffffffffffffffffff160217905550426002819055506000600b60003373ffffffffffffffffffffffffffffffffffffffff1673ffffffffffffffffffffffffffffffffffffffff16815260200190815260200160002060006101000a81548160ff02191690836001811115620001a957620001a86200030f565b5b02179055506000600c60003373ffffffffffffffffffffffffffffffffffffffff1673ffffffffffffffffffffffffffffffffffffffff16815260200190815260200160002060006101000a81548160ff021916908360018111156200021457620002136200030f565b5b021790555061012c608081815250506200036d565b8280546200023790620002d9565b90600052602060002090601f0160209004810192826200025b5760008555620002a7565b82601f106200027657805160ff1916838001178555620002a7565b82800160010185558215620002a7579182015b82811115620002a657825182559160200191906001019062000289565b5b509050620002b69190620002ba565b5090565b5b80821115620002d5576000816000905550600101620002bb565b5090565b60006002820490506001821680620002f257607f821691505b602082108114156200030957620003086200033e565b5b50919050565b7f4e487b7100000000000000000000000000000000000000000000000000000000600052602160045260246000fd5b7f4e487b7100000000000000000000000000000000000000000000000000000000600052602260045260246000fd5b6080516143576200038960003960006119bd01526143576000f3fe6080604052600436106101665760003560e01c80637eac3d92116100d1578063cb40bf601161008a578063dd0408ae11610064578063dd0408ae14610542578063e34116de1461056b578063e9323db614610594578063fc49d3e6146105da57610166565b8063cb40bf60146104ba578063d4a82a58146104d6578063d7358c5e146104ff57610166565b80637eac3d9214610396578063947a36fb146103d3578063960ccccc146103fe5780639dc5368d14610427578063b16cfdd414610452578063c5e0cfd01461048f57610166565b806356361f0d1161012357806356361f0d146102aa57806361bc221a146102d5578063680908c91461030057806370af1dd21461032b578063766c21a2146103425780637d74311c1461036d57610166565b80630f53a4701461016b578063236b8e3a146101a857806324b9ed2d146101d35780632dd47fc9146102105780633f3b3b2714610256578063550c18d714610281575b600080fd5b34801561017757600080fd5b50610192600480360381019061018d91906130f8565b610603565b60405161019f9190613dfe565b60405180910390f35b3480156101b457600080fd5b506101bd610996565b6040516101ca9190613d5a565b60405180910390f35b3480156101df57600080fd5b506101fa60048036038101906101f591906130f8565b610d29565b6040516102079190613d7c565b60405180910390f35b34801561021c57600080fd5b5061023760048036038101906102329190613125565b610f6e565b60405161024d9a99989796959493929190613b52565b60405180910390f35b34801561026257600080fd5b5061026b6110c1565b6040516102789190613e20565b60405180910390f35b34801561028d57600080fd5b506102a860048036038101906102a391906132f4565b6110c7565b005b3480156102b657600080fd5b506102bf6114b1565b6040516102cc9190613e20565b60405180910390f35b3480156102e157600080fd5b506102ea6114b7565b6040516102f79190613e20565b60405180910390f35b34801561030c57600080fd5b506103156114bd565b6040516103229190613e20565b60405180910390f35b34801561033757600080fd5b506103406114c7565b005b34801561034e57600080fd5b5061035761164c565b6040516103649190613e20565b60405180910390f35b34801561037957600080fd5b50610394600480360381019061038f9190613239565b611652565b005b3480156103a257600080fd5b506103bd60048036038101906103b8919061320c565b61197c565b6040516103ca9190613b37565b60405180910390f35b3480156103df57600080fd5b506103e86119bb565b6040516103f59190613e20565b60405180910390f35b34801561040a57600080fd5b506104256004803603810190610420919061320c565b6119df565b005b34801561043357600080fd5b5061043c611c0c565b6040516104499190613d38565b60405180910390f35b34801561045e57600080fd5b506104796004803603810190610474919061320c565b611c9a565b6040516104869190613b37565b60405180910390f35b34801561049b57600080fd5b506104a4611cd9565b6040516104b19190613e20565b60405180910390f35b6104d460048036038101906104cf9190613125565b611ce3565b005b3480156104e257600080fd5b506104fd60048036038101906104f8919061320c565b611f75565b005b34801561050b57600080fd5b50610526600480360381019061052191906130f8565b6120cb565b6040516105399796959493929190613ca6565b60405180910390f35b34801561054e57600080fd5b506105696004803603810190610564919061320c565b6123d5565b005b34801561057757600080fd5b50610592600480360381019061058d9190613165565b61250d565b005b3480156105a057600080fd5b506105bb60048036038101906105b6919061320c565b6127ac565b6040516105d19a99989796959493929190613bf5565b60405180910390f35b3480156105e657600080fd5b5061060160048036038101906105fc91906133df565b6129f5565b005b61060b612d46565b600a60008373ffffffffffffffffffffffffffffffffffffffff1673ffffffffffffffffffffffffffffffffffffffff1681526020019081526020016000206040518060e00160405290816000820160009054906101000a900473ffffffffffffffffffffffffffffffffffffffff1673ffffffffffffffffffffffffffffffffffffffff1673ffffffffffffffffffffffffffffffffffffffff1681526020016001820180546106bb9061406a565b80601f01602080910402602001604051908101604052809291908181526020018280546106e79061406a565b80156107345780601f1061070957610100808354040283529160200191610734565b820191906000526020600020905b81548152906001019060200180831161071757829003601f168201915b5050505050815260200160028201805461074d9061406a565b80601f01602080910402602001604051908101604052809291908181526020018280546107799061406a565b80156107c65780601f1061079b576101008083540402835291602001916107c6565b820191906000526020600020905b8154815290600101906020018083116107a957829003601f168201915b50505050508152602001600382015481526020016004820180546107e99061406a565b80601f01602080910402602001604051908101604052809291908181526020018280546108159061406a565b80156108625780601f1061083757610100808354040283529160200191610862565b820191906000526020600020905b81548152906001019060200180831161084557829003601f168201915b5050505050815260200160058201805461087b9061406a565b80601f01602080910402602001604051908101604052809291908181526020018280546108a79061406a565b80156108f45780601f106108c9576101008083540402835291602001916108f4565b820191906000526020600020905b8154815290600101906020018083116108d757829003601f168201915b5050505050815260200160068201805461090d9061406a565b80601f01602080910402602001604051908101604052809291908181526020018280546109399061406a565b80156109865780601f1061095b57610100808354040283529160200191610986565b820191906000526020600020905b81548152906001019060200180831161096957829003601f168201915b5050505050815250509050919050565b60606007805480602002602001604051908101604052809291908181526020016000905b82821015610d2057838290600052602060002090600b02016040518061016001604052908160008201805480602002602001604051908101604052809291908181526020018280548015610a6357602002820191906000526020600020905b8160009054906101000a900473ffffffffffffffffffffffffffffffffffffffff1673ffffffffffffffffffffffffffffffffffffffff1681526020019060010190808311610a19575b505050505081526020016001820160009054906101000a900473ffffffffffffffffffffffffffffffffffffffff1673ffffffffffffffffffffffffffffffffffffffff1673ffffffffffffffffffffffffffffffffffffffff1681526020016002820160009054906101000a900473ffffffffffffffffffffffffffffffffffffffff1673ffffffffffffffffffffffffffffffffffffffff1673ffffffffffffffffffffffffffffffffffffffff1681526020016003820154815260200160048201548152602001600582018054610b3c9061406a565b80601f0160208091040260200160405190810160405280929190818152602001828054610b689061406a565b8015610bb55780601f10610b8a57610100808354040283529160200191610bb5565b820191906000526020600020905b815481529060010190602001808311610b9857829003601f168201915b5050505050815260200160068201548152602001600782015481526020016008820160009054906101000a900460ff16151515158152602001600982018054610bfd9061406a565b80601f0160208091040260200160405190810160405280929190818152602001828054610c299061406a565b8015610c765780601f10610c4b57610100808354040283529160200191610c76565b820191906000526020600020905b815481529060010190602001808311610c5957829003601f168201915b50505050508152602001600a82018054610c8f9061406a565b80601f0160208091040260200160405190810160405280929190818152602001828054610cbb9061406a565b8015610d085780601f10610cdd57610100808354040283529160200191610d08565b820191906000526020600020905b815481529060010190602001808311610ceb57829003601f168201915b505050505081525050815260200190600101906109ba565b50505050905090565b6060600660008373ffffffffffffffffffffffffffffffffffffffff1673ffffffffffffffffffffffffffffffffffffffff168152602001908152602001600020805480602002602001604051908101604052809291908181526020016000905b82821015610f635783829060005260206000209060090201604051806101400160405290816000820160009054906101000a900473ffffffffffffffffffffffffffffffffffffffff1673ffffffffffffffffffffffffffffffffffffffff1673ffffffffffffffffffffffffffffffffffffffff1681526020016001820160009054906101000a900473ffffffffffffffffffffffffffffffffffffffff1673ffffffffffffffffffffffffffffffffffffffff1673ffffffffffffffffffffffffffffffffffffffff1681526020016002820154815260200160038201548152602001600482018054610e7e9061406a565b80601f0160208091040260200160405190810160405280929190818152602001828054610eaa9061406a565b8015610ef75780601f10610ecc57610100808354040283529160200191610ef7565b820191906000526020600020905b815481529060010190602001808311610eda57829003601f168201915b505050505081526020016005820154815260200160068201548152602001600782015481526020016008820160009054906101000a900460ff161515151581526020016008820160019054906101000a900460ff16151515158152505081526020019060010190610d8a565b505050509050919050565b60066020528160005260406000208181548110610f8a57600080fd5b9060005260206000209060090201600091509150508060000160009054906101000a900473ffffffffffffffffffffffffffffffffffffffff16908060010160009054906101000a900473ffffffffffffffffffffffffffffffffffffffff16908060020154908060030154908060040180546110069061406a565b80601f01602080910402602001604051908101604052809291908181526020018280546110329061406a565b801561107f5780601f106110545761010080835404028352916020019161107f565b820191906000526020600020905b81548152906001019060200180831161106257829003601f168201915b5050505050908060050154908060060154908060070154908060080160009054906101000a900460ff16908060080160019054906101000a900460ff1690508a565b60025481565b600073ffffffffffffffffffffffffffffffffffffffff16600a60003373ffffffffffffffffffffffffffffffffffffffff1673ffffffffffffffffffffffffffffffffffffffff16815260200190815260200160002060000160009054906101000a900473ffffffffffffffffffffffffffffffffffffffff1673ffffffffffffffffffffffffffffffffffffffff1614156111c257600d339080600181540180825580915050600190039060005260206000200160009091909190916101000a81548173ffffffffffffffffffffffffffffffffffffffff021916908373ffffffffffffffffffffffffffffffffffffffff1602179055505b6000600b60003373ffffffffffffffffffffffffffffffffffffffff1673ffffffffffffffffffffffffffffffffffffffff16815260200190815260200160002060006101000a81548160ff0219169083600181111561122557611224614145565b5b021790555033600a60003373ffffffffffffffffffffffffffffffffffffffff1673ffffffffffffffffffffffffffffffffffffffff16815260200190815260200160002060000160006101000a81548173ffffffffffffffffffffffffffffffffffffffff021916908373ffffffffffffffffffffffffffffffffffffffff16021790555083600a60003373ffffffffffffffffffffffffffffffffffffffff1673ffffffffffffffffffffffffffffffffffffffff1681526020019081526020016000206001019080519060200190611301929190612d99565b5080600a60003373ffffffffffffffffffffffffffffffffffffffff1673ffffffffffffffffffffffffffffffffffffffff1681526020019081526020016000206006019080519060200190611358929190612d99565b5084600a60003373ffffffffffffffffffffffffffffffffffffffff1673ffffffffffffffffffffffffffffffffffffffff168152602001908152602001600020600301819055506004600a60003373ffffffffffffffffffffffffffffffffffffffff1673ffffffffffffffffffffffffffffffffffffffff1681526020019081526020016000206002019080546113f09061406a565b6113fb929190612e1f565b5082600a60003373ffffffffffffffffffffffffffffffffffffffff1673ffffffffffffffffffffffffffffffffffffffff1681526020019081526020016000206005019080519060200190611452929190612d99565b5081600a60003373ffffffffffffffffffffffffffffffffffffffff1673ffffffffffffffffffffffffffffffffffffffff16815260200190815260200160002060040190805190602001906114a9929190612d99565b505050505050565b60085481565b60015481565b6000600954905090565b60005b600d805490508110156116495760005b60066000600d84815481106114f2576114f16141a3565b5b9060005260206000200160009054906101000a900473ffffffffffffffffffffffffffffffffffffffff1673ffffffffffffffffffffffffffffffffffffffff1673ffffffffffffffffffffffffffffffffffffffff1681526020019081526020016000208054905081101561163557600160066000600d858154811061157c5761157b6141a3565b5b9060005260206000200160009054906101000a900473ffffffffffffffffffffffffffffffffffffffff1673ffffffffffffffffffffffffffffffffffffffff1673ffffffffffffffffffffffffffffffffffffffff16815260200190815260200160002082815481106115f3576115f26141a3565b5b906000526020600020906009020160080160006101000a81548160ff02191690831515021790555042600281905550808061162d906140cd565b9150506114da565b508080611641906140cd565b9150506114ca565b50565b60095481565b600073ffffffffffffffffffffffffffffffffffffffff16600a60003373ffffffffffffffffffffffffffffffffffffffff1673ffffffffffffffffffffffffffffffffffffffff16815260200190815260200160002060000160009054906101000a900473ffffffffffffffffffffffffffffffffffffffff1673ffffffffffffffffffffffffffffffffffffffff16141561174d57600d339080600181540180825580915050600190039060005260206000200160009091909190916101000a81548173ffffffffffffffffffffffffffffffffffffffff021916908373ffffffffffffffffffffffffffffffffffffffff1602179055505b33600a60003373ffffffffffffffffffffffffffffffffffffffff1673ffffffffffffffffffffffffffffffffffffffff16815260200190815260200160002060000160006101000a81548173ffffffffffffffffffffffffffffffffffffffff021916908373ffffffffffffffffffffffffffffffffffffffff16021790555082600a60003373ffffffffffffffffffffffffffffffffffffffff1673ffffffffffffffffffffffffffffffffffffffff1681526020019081526020016000206001019080519060200190611824929190612d99565b5083600a60003373ffffffffffffffffffffffffffffffffffffffff1673ffffffffffffffffffffffffffffffffffffffff168152602001908152602001600020600301819055506003600a60003373ffffffffffffffffffffffffffffffffffffffff1673ffffffffffffffffffffffffffffffffffffffff1681526020019081526020016000206002019080546118bc9061406a565b6118c7929190612e1f565b5081600a60003373ffffffffffffffffffffffffffffffffffffffff1673ffffffffffffffffffffffffffffffffffffffff168152602001908152602001600020600501908051906020019061191e929190612d99565b5080600a60003373ffffffffffffffffffffffffffffffffffffffff1673ffffffffffffffffffffffffffffffffffffffff1681526020019081526020016000206004019080519060200190611975929190612d99565b5050505050565b600d818154811061198c57600080fd5b906000526020600020016000915054906101000a900473ffffffffffffffffffffffffffffffffffffffff1681565b7f000000000000000000000000000000000000000000000000000000000000000081565b6040516020016119ee90613b0d565b60405160208183030381529060405280519060200120600a60003373ffffffffffffffffffffffffffffffffffffffff1673ffffffffffffffffffffffffffffffffffffffff168152602001908152602001600020600201604051602001611a569190613af6565b6040516020818303038152906040528051906020012014611aac576040517f08c379a0000000000000000000000000000000000000000000000000000000008152600401611aa390613d9e565b60405180910390fd5b3360078281548110611ac157611ac06141a3565b5b90600052602060002090600b020160010160006101000a81548173ffffffffffffffffffffffffffffffffffffffff021916908373ffffffffffffffffffffffffffffffffffffffff16021790555060078181548110611b2457611b236141a3565b5b90600052602060002090600b0201600001600160078381548110611b4b57611b4a6141a3565b5b90600052602060002090600b020160000180549050611b6a9190613f9a565b81548110611b7b57611b7a6141a3565b5b9060005260206000200160009054906101000a900473ffffffffffffffffffffffffffffffffffffffff1660078281548110611bba57611bb96141a3565b5b90600052602060002090600b020160020160006101000a81548173ffffffffffffffffffffffffffffffffffffffff021916908373ffffffffffffffffffffffffffffffffffffffff16021790555050565b6060600d805480602002602001604051908101604052809291908181526020018280548015611c9057602002820191906000526020600020905b8160009054906101000a900473ffffffffffffffffffffffffffffffffffffffff1673ffffffffffffffffffffffffffffffffffffffff1681526020019060010190808311611c46575b5050505050905090565b600e8181548110611caa57600080fd5b906000526020600020016000915054906101000a900473ffffffffffffffffffffffffffffffffffffffff1681565b6000600854905090565b604051602001611cf290613b0d565b60405160208183030381529060405280519060200120600a60003373ffffffffffffffffffffffffffffffffffffffff1673ffffffffffffffffffffffffffffffffffffffff168152602001908152602001600020600201604051602001611d5a9190613af6565b6040516020818303038152906040528051906020012014611db0576040517f08c379a0000000000000000000000000000000000000000000000000000000008152600401611da790613d9e565b60405180910390fd5b600660008373ffffffffffffffffffffffffffffffffffffffff1673ffffffffffffffffffffffffffffffffffffffff1681526020019081526020016000208181548110611e0157611e006141a3565b5b906000526020600020906009020160060154341015611e55576040517f08c379a0000000000000000000000000000000000000000000000000000000008152600401611e4c90613dde565b60405180910390fd5b33600660008473ffffffffffffffffffffffffffffffffffffffff1673ffffffffffffffffffffffffffffffffffffffff1681526020019081526020016000208281548110611ea757611ea66141a3565b5b906000526020600020906009020160010160006101000a81548173ffffffffffffffffffffffffffffffffffffffff021916908373ffffffffffffffffffffffffffffffffffffffff1602179055506001600660008473ffffffffffffffffffffffffffffffffffffffff1673ffffffffffffffffffffffffffffffffffffffff1681526020019081526020016000208281548110611f4957611f486141a3565b5b906000526020600020906009020160080160016101000a81548160ff0219169083151502179055505050565b604051602001611f8490613b22565b60405160208183030381529060405280519060200120600a60003373ffffffffffffffffffffffffffffffffffffffff1673ffffffffffffffffffffffffffffffffffffffff168152602001908152602001600020600201604051602001611fec9190613af6565b6040516020818303038152906040528051906020012014612042576040517f08c379a000000000000000000000000000000000000000000000000000000000815260040161203990613dbe565b60405180910390fd5b60078181548110612056576120556141a3565b5b90600052602060002090600b0201600001339080600181540180825580915050600190039060005260206000200160009091909190916101000a81548173ffffffffffffffffffffffffffffffffffffffff021916908373ffffffffffffffffffffffffffffffffffffffff16021790555050565b600a6020528060005260406000206000915090508060000160009054906101000a900473ffffffffffffffffffffffffffffffffffffffff16908060010180546121149061406a565b80601f01602080910402602001604051908101604052809291908181526020018280546121409061406a565b801561218d5780601f106121625761010080835404028352916020019161218d565b820191906000526020600020905b81548152906001019060200180831161217057829003601f168201915b5050505050908060020180546121a29061406a565b80601f01602080910402602001604051908101604052809291908181526020018280546121ce9061406a565b801561221b5780601f106121f05761010080835404028352916020019161221b565b820191906000526020600020905b8154815290600101906020018083116121fe57829003601f168201915b5050505050908060030154908060040180546122369061406a565b80601f01602080910402602001604051908101604052809291908181526020018280546122629061406a565b80156122af5780601f10612284576101008083540402835291602001916122af565b820191906000526020600020905b81548152906001019060200180831161229257829003601f168201915b5050505050908060050180546122c49061406a565b80601f01602080910402602001604051908101604052809291908181526020018280546122f09061406a565b801561233d5780601f106123125761010080835404028352916020019161233d565b820191906000526020600020905b81548152906001019060200180831161232057829003601f168201915b5050505050908060060180546123529061406a565b80601f016020809104026020016040519081016040528092919081815260200182805461237e9061406a565b80156123cb5780601f106123a0576101008083540402835291602001916123cb565b820191906000526020600020905b8154815290600101906020018083116123ae57829003601f168201915b5050505050905087565b6040516020016123e490613b0d565b60405160208183030381529060405280519060200120600a60003373ffffffffffffffffffffffffffffffffffffffff1673ffffffffffffffffffffffffffffffffffffffff16815260200190815260200160002060020160405160200161244c9190613af6565b60405160208183030381529060405280519060200120146124a2576040517f08c379a000000000000000000000000000000000000000000000000000000000815260040161249990613d9e565b60405180910390fd5b6001600782815481106124b8576124b76141a3565b5b90600052602060002090600b020160080160006101000a81548160ff02191690831515021790555042600782815481106124f5576124f46141a3565b5b90600052602060002090600b02016004018190555050565b60008054906101000a900473ffffffffffffffffffffffffffffffffffffffff1673ffffffffffffffffffffffffffffffffffffffff163373ffffffffffffffffffffffffffffffffffffffff161461256557600080fd5b61256d612eac565b4281606001818152505083816101200181905250818160a001819052506008548160e00181815250508281610140018190525060008160c00181815250506000600b60003373ffffffffffffffffffffffffffffffffffffffff1673ffffffffffffffffffffffffffffffffffffffff16815260200190815260200160002060006101000a81548160ff0219169083600181111561260e5761260d614145565b5b021790555060078190806001815401808255809150506001900390600052602060002090600b0201600090919091909150600082015181600001908051906020019061265b929190612f34565b5060208201518160010160006101000a81548173ffffffffffffffffffffffffffffffffffffffff021916908373ffffffffffffffffffffffffffffffffffffffff16021790555060408201518160020160006101000a81548173ffffffffffffffffffffffffffffffffffffffff021916908373ffffffffffffffffffffffffffffffffffffffff160217905550606082015181600301556080820151816004015560a082015181600501908051906020019061271a929190612d99565b5060c0820151816006015560e082015181600701556101008201518160080160006101000a81548160ff02191690831515021790555061012082015181600901908051906020019061276d929190612d99565b5061014082015181600a01908051906020019061278b929190612d99565b505050600860008154809291906127a1906140cd565b919050555050505050565b600781815481106127bc57600080fd5b90600052602060002090600b02016000915090508060010160009054906101000a900473ffffffffffffffffffffffffffffffffffffffff16908060020160009054906101000a900473ffffffffffffffffffffffffffffffffffffffff16908060030154908060040154908060050180546128379061406a565b80601f01602080910402602001604051908101604052809291908181526020018280546128639061406a565b80156128b05780601f10612885576101008083540402835291602001916128b0565b820191906000526020600020905b81548152906001019060200180831161289357829003601f168201915b5050505050908060060154908060070154908060080160009054906101000a900460ff16908060090180546128e49061406a565b80601f01602080910402602001604051908101604052809291908181526020018280546129109061406a565b801561295d5780601f106129325761010080835404028352916020019161295d565b820191906000526020600020905b81548152906001019060200180831161294057829003601f168201915b50505050509080600a0180546129729061406a565b80601f016020809104026020016040519081016040528092919081815260200182805461299e9061406a565b80156129eb5780601f106129c0576101008083540402835291602001916129eb565b820191906000526020600020905b8154815290600101906020018083116129ce57829003601f168201915b505050505090508a565b604051602001612a0490613b22565b60405160208183030381529060405280519060200120600a60003373ffffffffffffffffffffffffffffffffffffffff1673ffffffffffffffffffffffffffffffffffffffff168152602001908152602001600020600201604051602001612a6c9190613af6565b6040516020818303038152906040528051906020012014612ac2576040517f08c379a0000000000000000000000000000000000000000000000000000000008152600401612ab990613dbe565b60405180910390fd5b612aca612fbe565b33816000019073ffffffffffffffffffffffffffffffffffffffff16908173ffffffffffffffffffffffffffffffffffffffff168152505083816060018181525050818160800181905250848160400181815250506009548160e0018181525050828160c00181815250506000600b60003373ffffffffffffffffffffffffffffffffffffffff1673ffffffffffffffffffffffffffffffffffffffff16815260200190815260200160002060006101000a81548160ff02191690836001811115612b9857612b97614145565b5b0217905550600660003373ffffffffffffffffffffffffffffffffffffffff1673ffffffffffffffffffffffffffffffffffffffff16815260200190815260200160002081908060018154018082558091505060019003906000526020600020906009020160009091909190915060008201518160000160006101000a81548173ffffffffffffffffffffffffffffffffffffffff021916908373ffffffffffffffffffffffffffffffffffffffff16021790555060208201518160010160006101000a81548173ffffffffffffffffffffffffffffffffffffffff021916908373ffffffffffffffffffffffffffffffffffffffff16021790555060408201518160020155606082015181600301556080820151816004019080519060200190612cc4929190612d99565b5060a0820151816005015560c0820151816006015560e082015181600701556101008201518160080160006101000a81548160ff0219169083151502179055506101208201518160080160016101000a81548160ff021916908315150217905550505060096000815480929190612d3a906140cd565b91905055505050505050565b6040518060e00160405280600073ffffffffffffffffffffffffffffffffffffffff1681526020016060815260200160608152602001600081526020016060815260200160608152602001606081525090565b828054612da59061406a565b90600052602060002090601f016020900481019282612dc75760008555612e0e565b82601f10612de057805160ff1916838001178555612e0e565b82800160010185558215612e0e579182015b82811115612e0d578251825591602001919060010190612df2565b5b509050612e1b9190613041565b5090565b828054612e2b9061406a565b90600052602060002090601f016020900481019282612e4d5760008555612e9b565b82601f10612e5e5780548555612e9b565b82800160010185558215612e9b57600052602060002091601f016020900482015b82811115612e9a578254825591600101919060010190612e7f565b5b509050612ea89190613041565b5090565b60405180610160016040528060608152602001600073ffffffffffffffffffffffffffffffffffffffff168152602001600073ffffffffffffffffffffffffffffffffffffffff168152602001600081526020016000815260200160608152602001600081526020016000815260200160001515815260200160608152602001606081525090565b828054828255906000526020600020908101928215612fad579160200282015b82811115612fac5782518260006101000a81548173ffffffffffffffffffffffffffffffffffffffff021916908373ffffffffffffffffffffffffffffffffffffffff16021790555091602001919060010190612f54565b5b509050612fba9190613041565b5090565b604051806101400160405280600073ffffffffffffffffffffffffffffffffffffffff168152602001600073ffffffffffffffffffffffffffffffffffffffff1681526020016000815260200160008152602001606081526020016000815260200160008152602001600081526020016000151581526020016000151581525090565b5b8082111561305a576000816000905550600101613042565b5090565b600061307161306c84613e60565b613e3b565b90508281526020810184848401111561308d5761308c614206565b5b613098848285614028565b509392505050565b6000813590506130af816142f3565b92915050565b600082601f8301126130ca576130c9614201565b5b81356130da84826020860161305e565b91505092915050565b6000813590506130f28161430a565b92915050565b60006020828403121561310e5761310d614210565b5b600061311c848285016130a0565b91505092915050565b6000806040838503121561313c5761313b614210565b5b600061314a858286016130a0565b925050602061315b858286016130e3565b9150509250929050565b60008060006060848603121561317e5761317d614210565b5b600084013567ffffffffffffffff81111561319c5761319b61420b565b5b6131a8868287016130b5565b935050602084013567ffffffffffffffff8111156131c9576131c861420b565b5b6131d5868287016130b5565b925050604084013567ffffffffffffffff8111156131f6576131f561420b565b5b613202868287016130b5565b9150509250925092565b60006020828403121561322257613221614210565b5b6000613230848285016130e3565b91505092915050565b6000806000806080858703121561325357613252614210565b5b6000613261878288016130e3565b945050602085013567ffffffffffffffff8111156132825761328161420b565b5b61328e878288016130b5565b935050604085013567ffffffffffffffff8111156132af576132ae61420b565b5b6132bb878288016130b5565b925050606085013567ffffffffffffffff8111156132dc576132db61420b565b5b6132e8878288016130b5565b91505092959194509250565b600080600080600060a086880312156133105761330f614210565b5b600061331e888289016130e3565b955050602086013567ffffffffffffffff81111561333f5761333e61420b565b5b61334b888289016130b5565b945050604086013567ffffffffffffffff81111561336c5761336b61420b565b5b613378888289016130b5565b935050606086013567ffffffffffffffff8111156133995761339861420b565b5b6133a5888289016130b5565b925050608086013567ffffffffffffffff8111156133c6576133c561420b565b5b6133d2888289016130b5565b9150509295509295909350565b600080600080608085870312156133f9576133f8614210565b5b6000613407878288016130e3565b9450506020613418878288016130e3565b9350506040613429878288016130e3565b925050606085013567ffffffffffffffff81111561344a5761344961420b565b5b613456878288016130b5565b91505092959194509250565b600061346e83836134c0565b60208301905092915050565b60006134868383613842565b905092915050565b600061349a8383613946565b905092915050565b6134ab81613fe0565b82525050565b6134ba81613fe0565b82525050565b6134c981613fce565b82525050565b6134d881613fce565b82525050565b60006134e982613ed6565b6134f38185613f29565b93506134fe83613e91565b8060005b8381101561352f5781516135168882613462565b975061352183613f02565b925050600181019050613502565b5085935050505092915050565b600061354782613ed6565b6135518185613f3a565b935061355c83613e91565b8060005b8381101561358d5781516135748882613462565b975061357f83613f02565b925050600181019050613560565b5085935050505092915050565b60006135a582613ee1565b6135af8185613f4b565b9350836020820285016135c185613ea1565b8060005b858110156135fd57848403895281516135de858261347a565b94506135e983613f0f565b925060208a019950506001810190506135c5565b50829750879550505050505092915050565b600061361a82613eec565b6136248185613f5c565b93508360208202850161363685613eb1565b8060005b858110156136725784840389528151613653858261348e565b945061365e83613f1c565b925060208a0199505060018101905061363a565b50829750879550505050505092915050565b61368d81613ff2565b82525050565b61369c81613ff2565b82525050565b60006136ad82613ef7565b6136b78185613f6d565b93506136c7818560208601614037565b6136d081614215565b840191505092915050565b60006136e682613ef7565b6136f08185613f7e565b9350613700818560208601614037565b61370981614215565b840191505092915050565b600081546137218161406a565b61372b8186613f8f565b9450600182166000811461374657600181146137575761378a565b60ff1983168652818601935061378a565b61376085613ec1565b60005b8381101561378257815481890152600182019150602081019050613763565b838801955050505b50505092915050565b60006137a0600a83613f7e565b91506137ab82614226565b602082019050919050565b60006137c3600483613f8f565b91506137ce8261424f565b600482019050919050565b60006137e6600483613f8f565b91506137f182614278565b600482019050919050565b6000613809600a83613f7e565b9150613814826142a1565b602082019050919050565b600061382c601383613f7e565b9150613837826142ca565b602082019050919050565b600061016083016000830151848203600086015261386082826134de565b915050602083015161387560208601826134c0565b50604083015161388860408601826134c0565b50606083015161389b6060860182613ad8565b5060808301516138ae6080860182613ad8565b5060a083015184820360a08601526138c682826136a2565b91505060c08301516138db60c0860182613ad8565b5060e08301516138ee60e0860182613ad8565b50610100830151613903610100860182613684565b5061012083015184820361012086015261391d82826136a2565b91505061014083015184820361014086015261393982826136a2565b9150508091505092915050565b60006101408301600083015161395f60008601826134a2565b50602083015161397260208601826134a2565b5060408301516139856040860182613ad8565b5060608301516139986060860182613ad8565b50608083015184820360808601526139b082826136a2565b91505060a08301516139c560a0860182613ad8565b5060c08301516139d860c0860182613ad8565b5060e08301516139eb60e0860182613ad8565b50610100830151613a00610100860182613684565b50610120830151613a15610120860182613684565b508091505092915050565b600060e083016000830151613a3860008601826134c0565b5060208301518482036020860152613a5082826136a2565b91505060408301518482036040860152613a6a82826136a2565b9150506060830151613a7f6060860182613ad8565b5060808301518482036080860152613a9782826136a2565b91505060a083015184820360a0860152613ab182826136a2565b91505060c083015184820360c0860152613acb82826136a2565b9150508091505092915050565b613ae18161401e565b82525050565b613af08161401e565b82525050565b6000613b028284613714565b915081905092915050565b6000613b18826137b6565b9150819050919050565b6000613b2d826137d9565b9150819050919050565b6000602082019050613b4c60008301846134cf565b92915050565b600061014082019050613b68600083018d6134b1565b613b75602083018c6134b1565b613b82604083018b613ae7565b613b8f606083018a613ae7565b8181036080830152613ba181896136db565b9050613bb060a0830188613ae7565b613bbd60c0830187613ae7565b613bca60e0830186613ae7565b613bd8610100830185613693565b613be6610120830184613693565b9b9a5050505050505050505050565b600061014082019050613c0b600083018d6134cf565b613c18602083018c6134cf565b613c25604083018b613ae7565b613c32606083018a613ae7565b8181036080830152613c4481896136db565b9050613c5360a0830188613ae7565b613c6060c0830187613ae7565b613c6d60e0830186613693565b818103610100830152613c8081856136db565b9050818103610120830152613c9581846136db565b90509b9a5050505050505050505050565b600060e082019050613cbb600083018a6134cf565b8181036020830152613ccd81896136db565b90508181036040830152613ce181886136db565b9050613cf06060830187613ae7565b8181036080830152613d0281866136db565b905081810360a0830152613d1681856136db565b905081810360c0830152613d2a81846136db565b905098975050505050505050565b60006020820190508181036000830152613d52818461353c565b905092915050565b60006020820190508181036000830152613d74818461359a565b905092915050565b60006020820190508181036000830152613d96818461360f565b905092915050565b60006020820190508181036000830152613db781613793565b9050919050565b60006020820190508181036000830152613dd7816137fc565b9050919050565b60006020820190508181036000830152613df78161381f565b9050919050565b60006020820190508181036000830152613e188184613a20565b905092915050565b6000602082019050613e356000830184613ae7565b92915050565b6000613e45613e56565b9050613e51828261409c565b919050565b6000604051905090565b600067ffffffffffffffff821115613e7b57613e7a6141d2565b5b613e8482614215565b9050602081019050919050565b6000819050602082019050919050565b6000819050602082019050919050565b6000819050602082019050919050565b60008190508160005260206000209050919050565b600081519050919050565b600081519050919050565b600081519050919050565b600081519050919050565b6000602082019050919050565b6000602082019050919050565b6000602082019050919050565b600082825260208201905092915050565b600082825260208201905092915050565b600082825260208201905092915050565b600082825260208201905092915050565b600082825260208201905092915050565b600082825260208201905092915050565b600081905092915050565b6000613fa58261401e565b9150613fb08361401e565b925082821015613fc357613fc2614116565b5b828203905092915050565b6000613fd982613ffe565b9050919050565b6000613feb82613ffe565b9050919050565b60008115159050919050565b600073ffffffffffffffffffffffffffffffffffffffff82169050919050565b6000819050919050565b82818337600083830152505050565b60005b8381101561405557808201518184015260208101905061403a565b83811115614064576000848401525b50505050565b6000600282049050600182168061408257607f821691505b6020821081141561409657614095614174565b5b50919050565b6140a582614215565b810181811067ffffffffffffffff821117156140c4576140c36141d2565b5b80604052505050565b60006140d88261401e565b91507fffffffffffffffffffffffffffffffffffffffffffffffffffffffffffffffff82141561410b5761410a614116565b5b600182019050919050565b7f4e487b7100000000000000000000000000000000000000000000000000000000600052601160045260246000fd5b7f4e487b7100000000000000000000000000000000000000000000000000000000600052602160045260246000fd5b7f4e487b7100000000000000000000000000000000000000000000000000000000600052602260045260246000fd5b7f4e487b7100000000000000000000000000000000000000000000000000000000600052603260045260246000fd5b7f4e487b7100000000000000000000000000000000000000000000000000000000600052604160045260246000fd5b600080fd5b600080fd5b600080fd5b600080fd5b6000601f19601f8301169050919050565b7f4e4f542041205553455200000000000000000000000000000000000000000000600082015250565b7f5573657200000000000000000000000000000000000000000000000000000000600082015250565b7f486f737400000000000000000000000000000000000000000000000000000000600082015250565b7f4e4f54204120484f535400000000000000000000000000000000000000000000600082015250565b7f496e73756666696369656e7420616d6f756e7400000000000000000000000000600082015250565b6142fc81613fce565b811461430757600080fd5b50565b6143138161401e565b811461431e57600080fd5b5056fea2646970667358221220eb83bf3a22cc7ab54e28f0ff789cfc15341a68e0405b7190244fbeb201ae3bfd64736f6c63430008070033",
  "devdoc": {
    "kind": "dev",
    "methods": {
      "constructor": {
        "details": "constructor used to assign values that will not change"
      },
      "createCampaign(string,string,string)": {
        "details": "This function `createCampaign` allows only the User to call it hence the `OnlyUser` modifier after which any avaliable volunteer would be assigned to the campaign"
      },
      "createHost(uint256,string,string,string,string)": {
        "details": "This function `createHost` any body can call this functions and the senders profile would be set to that of a `Host`"
      },
      "createSchedule(uint256,uint256,uint256,string)": {
        "details": "This function `createSchedule` allows only the Host to call it hence the `OnlyHost` modifier after which a Host can create a meeting with some parameters like time and fee needed"
      },
      "createUser(uint256,string,string,string)": {
        "details": "This function `createUser` any body can call this functions and the senders profile would be set to that of a `User`"
      },
      "endCampaign(uint256)": {
        "details": "This function `endCampaign` allows only the User end the campaign"
      },
      "endMeeting()": {
        "details": "This function `endMeeting` is called by chainlink automation cron job and ends every meeting by setting the completed status to true"
      },
      "getHelp(uint256)": {
        "details": "This function `getHelo` allows only the User to call it hence the `OnlyUser` modifier after which the Campaign ID is specified and the user would be assigned to the Campaign"
      },
      "joinCampaign(uint256)": {
        "details": "This function `joinCampaign` allows only the User to call it hence the `onlyHost` modifier after which the Campaign ID is specified and the user would be assigned to the Campaign"
      },
      "joinMeeting(address,uint256)": {
        "details": "This function `joinMeeting` allows only the User to call it hence the `OnlyUser` modifier after which the meeting ID is specified and the user would be assigned to the meeting"
      }
    },
    "version": 1
  },
  "userdoc": {
    "kind": "user",
    "methods": {
      "meetingNum()": {
        "notice": "Getter Functions "
      }
    },
    "version": 1
  },
  "storageLayout": {
    "storage": [
      {
        "astId": 3,
        "contract": "contracts/XTELPT.sol:XTELPT",
        "label": "owner",
        "offset": 0,
        "slot": "0",
        "type": "t_address"
      },
      {
        "astId": 8,
        "contract": "contracts/XTELPT.sol:XTELPT",
        "label": "counter",
        "offset": 0,
        "slot": "1",
        "type": "t_uint256"
      },
      {
        "astId": 12,
        "contract": "contracts/XTELPT.sol:XTELPT",
        "label": "lastTimeStamp",
        "offset": 0,
        "slot": "2",
        "type": "t_uint256"
      },
      {
        "astId": 15,
        "contract": "contracts/XTELPT.sol:XTELPT",
        "label": "userType",
        "offset": 0,
        "slot": "3",
        "type": "t_string_storage"
      },
      {
        "astId": 18,
        "contract": "contracts/XTELPT.sol:XTELPT",
        "label": "hostType",
        "offset": 0,
        "slot": "4",
        "type": "t_string_storage"
      },
      {
        "astId": 21,
        "contract": "contracts/XTELPT.sol:XTELPT",
        "label": "volunType",
        "offset": 0,
        "slot": "5",
        "type": "t_string_storage"
      },
      {
        "astId": 27,
        "contract": "contracts/XTELPT.sol:XTELPT",
        "label": "Meeting",
        "offset": 0,
        "slot": "6",
        "type": "t_mapping(t_address,t_array(t_struct(meeting)92_storage)dyn_storage)"
      },
      {
        "astId": 31,
        "contract": "contracts/XTELPT.sol:XTELPT",
        "label": "Campaign",
        "offset": 0,
        "slot": "7",
        "type": "t_array(t_struct(campaign)116_storage)dyn_storage"
      },
      {
        "astId": 33,
        "contract": "contracts/XTELPT.sol:XTELPT",
        "label": "campaignIndex",
        "offset": 0,
        "slot": "8",
        "type": "t_uint256"
      },
      {
        "astId": 35,
        "contract": "contracts/XTELPT.sol:XTELPT",
        "label": "meetingIndex",
        "offset": 0,
        "slot": "9",
        "type": "t_uint256"
      },
      {
        "astId": 40,
        "contract": "contracts/XTELPT.sol:XTELPT",
        "label": "UserProfile",
        "offset": 0,
        "slot": "10",
        "type": "t_mapping(t_address,t_struct(profile)71_storage)"
      },
      {
        "astId": 45,
        "contract": "contracts/XTELPT.sol:XTELPT",
        "label": "s_xtelpState",
        "offset": 0,
        "slot": "11",
        "type": "t_mapping(t_address,t_enum(XTELPState)6)"
      },
      {
        "astId": 50,
        "contract": "contracts/XTELPT.sol:XTELPT",
        "label": "volunState",
        "offset": 0,
        "slot": "12",
        "type": "t_mapping(t_address,t_enum(XTELPState)6)"
      },
      {
        "astId": 53,
        "contract": "contracts/XTELPT.sol:XTELPT",
        "label": "AllAccount",
        "offset": 0,
        "slot": "13",
        "type": "t_array(t_address)dyn_storage"
      },
      {
        "astId": 56,
        "contract": "contracts/XTELPT.sol:XTELPT",
        "label": "recentCampaignCreator",
        "offset": 0,
        "slot": "14",
        "type": "t_array(t_address)dyn_storage"
      }
    ],
    "types": {
      "t_address": {
        "encoding": "inplace",
        "label": "address",
        "numberOfBytes": "20"
      },
      "t_address_payable": {
        "encoding": "inplace",
        "label": "address payable",
        "numberOfBytes": "20"
      },
      "t_array(t_address)dyn_storage": {
        "base": "t_address",
        "encoding": "dynamic_array",
        "label": "address[]",
        "numberOfBytes": "32"
      },
      "t_array(t_struct(campaign)116_storage)dyn_storage": {
        "base": "t_struct(campaign)116_storage",
        "encoding": "dynamic_array",
        "label": "struct XTELPT.campaign[]",
        "numberOfBytes": "32"
      },
      "t_array(t_struct(meeting)92_storage)dyn_storage": {
        "base": "t_struct(meeting)92_storage",
        "encoding": "dynamic_array",
        "label": "struct XTELPT.meeting[]",
        "numberOfBytes": "32"
      },
      "t_bool": {
        "encoding": "inplace",
        "label": "bool",
        "numberOfBytes": "1"
      },
      "t_enum(XTELPState)6": {
        "encoding": "inplace",
        "label": "enum XTELPT.XTELPState",
        "numberOfBytes": "1"
      },
      "t_mapping(t_address,t_array(t_struct(meeting)92_storage)dyn_storage)": {
        "encoding": "mapping",
        "key": "t_address",
        "label": "mapping(address => struct XTELPT.meeting[])",
        "numberOfBytes": "32",
        "value": "t_array(t_struct(meeting)92_storage)dyn_storage"
      },
      "t_mapping(t_address,t_enum(XTELPState)6)": {
        "encoding": "mapping",
        "key": "t_address",
        "label": "mapping(address => enum XTELPT.XTELPState)",
        "numberOfBytes": "32",
        "value": "t_enum(XTELPState)6"
      },
      "t_mapping(t_address,t_struct(profile)71_storage)": {
        "encoding": "mapping",
        "key": "t_address",
        "label": "mapping(address => struct XTELPT.profile)",
        "numberOfBytes": "32",
        "value": "t_struct(profile)71_storage"
      },
      "t_string_storage": {
        "encoding": "bytes",
        "label": "string",
        "numberOfBytes": "32"
      },
      "t_struct(campaign)116_storage": {
        "encoding": "inplace",
        "label": "struct XTELPT.campaign",
        "members": [
          {
            "astId": 95,
            "contract": "contracts/XTELPT.sol:XTELPT",
            "label": "volunteer",
            "offset": 0,
            "slot": "0",
            "type": "t_array(t_address)dyn_storage"
          },
          {
            "astId": 97,
            "contract": "contracts/XTELPT.sol:XTELPT",
            "label": "user",
            "offset": 0,
            "slot": "1",
            "type": "t_address"
          },
          {
            "astId": 99,
            "contract": "contracts/XTELPT.sol:XTELPT",
            "label": "vol",
            "offset": 0,
            "slot": "2",
            "type": "t_address"
          },
          {
            "astId": 101,
            "contract": "contracts/XTELPT.sol:XTELPT",
            "label": "start_time",
            "offset": 0,
            "slot": "3",
            "type": "t_uint256"
          },
          {
            "astId": 103,
            "contract": "contracts/XTELPT.sol:XTELPT",
            "label": "end_time",
            "offset": 0,
            "slot": "4",
            "type": "t_uint256"
          },
          {
            "astId": 105,
            "contract": "contracts/XTELPT.sol:XTELPT",
            "label": "image",
            "offset": 0,
            "slot": "5",
            "type": "t_string_storage"
          },
          {
            "astId": 107,
            "contract": "contracts/XTELPT.sol:XTELPT",
            "label": "fee",
            "offset": 0,
            "slot": "6",
            "type": "t_uint256"
          },
          {
            "astId": 109,
            "contract": "contracts/XTELPT.sol:XTELPT",
            "label": "index",
            "offset": 0,
            "slot": "7",
            "type": "t_uint256"
          },
          {
            "astId": 111,
            "contract": "contracts/XTELPT.sol:XTELPT",
            "label": "completed",
            "offset": 0,
            "slot": "8",
            "type": "t_bool"
          },
          {
            "astId": 113,
            "contract": "contracts/XTELPT.sol:XTELPT",
            "label": "name",
            "offset": 0,
            "slot": "9",
            "type": "t_string_storage"
          },
          {
            "astId": 115,
            "contract": "contracts/XTELPT.sol:XTELPT",
            "label": "desc",
            "offset": 0,
            "slot": "10",
            "type": "t_string_storage"
          }
        ],
        "numberOfBytes": "352"
      },
      "t_struct(meeting)92_storage": {
        "encoding": "inplace",
        "label": "struct XTELPT.meeting",
        "members": [
          {
            "astId": 73,
            "contract": "contracts/XTELPT.sol:XTELPT",
            "label": "host",
            "offset": 0,
            "slot": "0",
            "type": "t_address_payable"
          },
          {
            "astId": 75,
            "contract": "contracts/XTELPT.sol:XTELPT",
            "label": "user",
            "offset": 0,
            "slot": "1",
            "type": "t_address_payable"
          },
          {
            "astId": 77,
            "contract": "contracts/XTELPT.sol:XTELPT",
            "label": "start",
            "offset": 0,
            "slot": "2",
            "type": "t_uint256"
          },
          {
            "astId": 79,
            "contract": "contracts/XTELPT.sol:XTELPT",
            "label": "end",
            "offset": 0,
            "slot": "3",
            "type": "t_uint256"
          },
          {
            "astId": 81,
            "contract": "contracts/XTELPT.sol:XTELPT",
            "label": "desc",
            "offset": 0,
            "slot": "4",
            "type": "t_string_storage"
          },
          {
            "astId": 83,
            "contract": "contracts/XTELPT.sol:XTELPT",
            "label": "time",
            "offset": 0,
            "slot": "5",
            "type": "t_uint256"
          },
          {
            "astId": 85,
            "contract": "contracts/XTELPT.sol:XTELPT",
            "label": "fee",
            "offset": 0,
            "slot": "6",
            "type": "t_uint256"
          },
          {
            "astId": 87,
            "contract": "contracts/XTELPT.sol:XTELPT",
            "label": "index",
            "offset": 0,
            "slot": "7",
            "type": "t_uint256"
          },
          {
            "astId": 89,
            "contract": "contracts/XTELPT.sol:XTELPT",
            "label": "completed",
            "offset": 0,
            "slot": "8",
            "type": "t_bool"
          },
          {
            "astId": 91,
            "contract": "contracts/XTELPT.sol:XTELPT",
            "label": "booked",
            "offset": 1,
            "slot": "8",
            "type": "t_bool"
          }
        ],
        "numberOfBytes": "288"
      },
      "t_struct(profile)71_storage": {
        "encoding": "inplace",
        "label": "struct XTELPT.profile",
        "members": [
          {
            "astId": 58,
            "contract": "contracts/XTELPT.sol:XTELPT",
            "label": "addr",
            "offset": 0,
            "slot": "0",
            "type": "t_address"
          },
          {
            "astId": 60,
            "contract": "contracts/XTELPT.sol:XTELPT",
            "label": "name",
            "offset": 0,
            "slot": "1",
            "type": "t_string_storage"
          },
          {
            "astId": 62,
            "contract": "contracts/XTELPT.sol:XTELPT",
            "label": "role",
            "offset": 0,
            "slot": "2",
            "type": "t_string_storage"
          },
          {
            "astId": 64,
            "contract": "contracts/XTELPT.sol:XTELPT",
            "label": "rating",
            "offset": 0,
            "slot": "3",
            "type": "t_uint256"
          },
          {
            "astId": 66,
            "contract": "contracts/XTELPT.sol:XTELPT",
            "label": "bio",
            "offset": 0,
            "slot": "4",
            "type": "t_string_storage"
          },
          {
            "astId": 68,
            "contract": "contracts/XTELPT.sol:XTELPT",
            "label": "profilePic",
            "offset": 0,
            "slot": "5",
            "type": "t_string_storage"
          },
          {
            "astId": 70,
            "contract": "contracts/XTELPT.sol:XTELPT",
            "label": "hostTitle",
            "offset": 0,
            "slot": "6",
            "type": "t_string_storage"
          }
        ],
        "numberOfBytes": "224"
      },
      "t_uint256": {
        "encoding": "inplace",
        "label": "uint256",
        "numberOfBytes": "32"
      }
    }
  }
}