{
  "address": "0x3fD4ee43DE554249473d6602d3162862f71Dd5cb",
  "abi": [
    {
      "inputs": [],
      "stateMutability": "nonpayable",
      "type": "constructor"
    },
    {
      "anonymous": false,
      "inputs": [
        {
          "indexed": true,
          "internalType": "uint256",
          "name": "requestId",
          "type": "uint256"
        }
      ],
      "name": "RequestedID",
      "type": "event"
    },
    {
      "inputs": [
        {
          "internalType": "uint256",
          "name": "",
          "type": "uint256"
        }
      ],
      "name": "AllAccount",
      "outputs": [
        {
          "internalType": "address",
          "name": "",
          "type": "address"
        }
      ],
      "stateMutability": "view",
      "type": "function"
    },
    {
      "inputs": [
        {
          "internalType": "uint256",
          "name": "",
          "type": "uint256"
        }
      ],
      "name": "Campaign",
      "outputs": [
        {
          "internalType": "address",
          "name": "user",
          "type": "address"
        },
        {
          "internalType": "address",
          "name": "vol",
          "type": "address"
        },
        {
          "internalType": "uint256",
          "name": "start_time",
          "type": "uint256"
        },
        {
          "internalType": "uint256",
          "name": "end_time",
          "type": "uint256"
        },
        {
          "internalType": "uint256",
          "name": "fee",
          "type": "uint256"
        },
        {
          "internalType": "uint256",
          "name": "index",
          "type": "uint256"
        },
        {
          "internalType": "bool",
          "name": "completed",
          "type": "bool"
        },
        {
          "internalType": "string",
          "name": "name",
          "type": "string"
        },
        {
          "internalType": "string",
          "name": "desc",
          "type": "string"
        }
      ],
      "stateMutability": "view",
      "type": "function"
    },
    {
      "inputs": [
        {
          "internalType": "address",
          "name": "",
          "type": "address"
        },
        {
          "internalType": "uint256",
          "name": "",
          "type": "uint256"
        }
      ],
      "name": "Meeting",
      "outputs": [
        {
          "internalType": "address",
          "name": "host",
          "type": "address"
        },
        {
          "internalType": "address",
          "name": "user",
          "type": "address"
        },
        {
          "internalType": "uint256",
          "name": "start",
          "type": "uint256"
        },
        {
          "internalType": "uint256",
          "name": "end",
          "type": "uint256"
        },
        {
          "internalType": "string",
          "name": "desc",
          "type": "string"
        },
        {
          "internalType": "uint256",
          "name": "time",
          "type": "uint256"
        },
        {
          "internalType": "uint256",
          "name": "fee",
          "type": "uint256"
        },
        {
          "internalType": "uint256",
          "name": "index",
          "type": "uint256"
        },
        {
          "internalType": "bool",
          "name": "completed",
          "type": "bool"
        },
        {
          "internalType": "bool",
          "name": "booked",
          "type": "bool"
        }
      ],
      "stateMutability": "view",
      "type": "function"
    },
    {
      "inputs": [
        {
          "internalType": "address",
          "name": "",
          "type": "address"
        }
      ],
      "name": "UserProfile",
      "outputs": [
        {
          "internalType": "address",
          "name": "addr",
          "type": "address"
        },
        {
          "internalType": "string",
          "name": "name",
          "type": "string"
        },
        {
          "internalType": "string",
          "name": "role",
          "type": "string"
        },
        {
          "internalType": "uint256",
          "name": "rating",
          "type": "uint256"
        },
        {
          "internalType": "string",
          "name": "bio",
          "type": "string"
        },
        {
          "internalType": "string",
          "name": "profilePic",
          "type": "string"
        },
        {
          "internalType": "string",
          "name": "hostTitle",
          "type": "string"
        }
      ],
      "stateMutability": "view",
      "type": "function"
    },
    {
      "inputs": [],
      "name": "campaignIndex",
      "outputs": [
        {
          "internalType": "uint256",
          "name": "",
          "type": "uint256"
        }
      ],
      "stateMutability": "view",
      "type": "function"
    },
    {
      "inputs": [],
      "name": "campaignNum",
      "outputs": [
        {
          "internalType": "uint256",
          "name": "",
          "type": "uint256"
        }
      ],
      "stateMutability": "view",
      "type": "function"
    },
    {
      "inputs": [
        {
          "internalType": "bytes",
          "name": "",
          "type": "bytes"
        }
      ],
      "name": "checkUpkeep",
      "outputs": [
        {
          "internalType": "bool",
          "name": "upkeepNeeded",
          "type": "bool"
        },
        {
          "internalType": "bytes",
          "name": "",
          "type": "bytes"
        }
      ],
      "stateMutability": "view",
      "type": "function"
    },
    {
      "inputs": [],
      "name": "counter",
      "outputs": [
        {
          "internalType": "uint256",
          "name": "",
          "type": "uint256"
        }
      ],
      "stateMutability": "view",
      "type": "function"
    },
    {
      "inputs": [
        {
          "internalType": "string",
          "name": "_name",
          "type": "string"
        },
        {
          "internalType": "string",
          "name": "_desc",
          "type": "string"
        }
      ],
      "name": "createCampaign",
      "outputs": [],
      "stateMutability": "nonpayable",
      "type": "function"
    },
    {
      "inputs": [
        {
          "internalType": "uint256",
          "name": "_rating",
          "type": "uint256"
        },
        {
          "internalType": "string",
          "name": "_name",
          "type": "string"
        },
        {
          "internalType": "string",
          "name": "_pic",
          "type": "string"
        },
        {
          "internalType": "string",
          "name": "_bio",
          "type": "string"
        },
        {
          "internalType": "string",
          "name": "_title",
          "type": "string"
        }
      ],
      "name": "createHost",
      "outputs": [],
      "stateMutability": "nonpayable",
      "type": "function"
    },
    {
      "inputs": [
        {
          "internalType": "uint256",
          "name": "_start",
          "type": "uint256"
        },
        {
          "internalType": "uint256",
          "name": "_time",
          "type": "uint256"
        },
        {
          "internalType": "uint256",
          "name": "_fee",
          "type": "uint256"
        },
        {
          "internalType": "string",
          "name": "_desc",
          "type": "string"
        }
      ],
      "name": "createSchedule",
      "outputs": [],
      "stateMutability": "nonpayable",
      "type": "function"
    },
    {
      "inputs": [
        {
          "internalType": "uint256",
          "name": "_rating",
          "type": "uint256"
        },
        {
          "internalType": "string",
          "name": "_name",
          "type": "string"
        },
        {
          "internalType": "string",
          "name": "_pic",
          "type": "string"
        },
        {
          "internalType": "string",
          "name": "_bio",
          "type": "string"
        }
      ],
      "name": "createUser",
      "outputs": [],
      "stateMutability": "nonpayable",
      "type": "function"
    },
    {
      "inputs": [
        {
          "internalType": "uint256",
          "name": "_id",
          "type": "uint256"
        }
      ],
      "name": "endCampaign",
      "outputs": [],
      "stateMutability": "nonpayable",
      "type": "function"
    },
    {
      "inputs": [],
      "name": "getAllAccount",
      "outputs": [
        {
          "internalType": "address[]",
          "name": "",
          "type": "address[]"
        }
      ],
      "stateMutability": "view",
      "type": "function"
    },
    {
      "inputs": [],
      "name": "getCampaign",
      "outputs": [
        {
          "components": [
            {
              "internalType": "address[]",
              "name": "volunteer",
              "type": "address[]"
            },
            {
              "internalType": "address",
              "name": "user",
              "type": "address"
            },
            {
              "internalType": "address",
              "name": "vol",
              "type": "address"
            },
            {
              "internalType": "uint256",
              "name": "start_time",
              "type": "uint256"
            },
            {
              "internalType": "uint256",
              "name": "end_time",
              "type": "uint256"
            },
            {
              "internalType": "uint256",
              "name": "fee",
              "type": "uint256"
            },
            {
              "internalType": "uint256",
              "name": "index",
              "type": "uint256"
            },
            {
              "internalType": "bool",
              "name": "completed",
              "type": "bool"
            },
            {
              "internalType": "string",
              "name": "name",
              "type": "string"
            },
            {
              "internalType": "string",
              "name": "desc",
              "type": "string"
            }
          ],
          "internalType": "struct XTELPT.campaign[]",
          "name": "",
          "type": "tuple[]"
        }
      ],
      "stateMutability": "view",
      "type": "function"
    },
    {
      "inputs": [
        {
          "internalType": "uint256",
          "name": "_id",
          "type": "uint256"
        }
      ],
      "name": "getHelp",
      "outputs": [],
      "stateMutability": "nonpayable",
      "type": "function"
    },
    {
      "inputs": [
        {
          "internalType": "address",
          "name": "_prof",
          "type": "address"
        }
      ],
      "name": "getMeeting",
      "outputs": [
        {
          "components": [
            {
              "internalType": "address",
              "name": "host",
              "type": "address"
            },
            {
              "internalType": "address",
              "name": "user",
              "type": "address"
            },
            {
              "internalType": "uint256",
              "name": "start",
              "type": "uint256"
            },
            {
              "internalType": "uint256",
              "name": "end",
              "type": "uint256"
            },
            {
              "internalType": "string",
              "name": "desc",
              "type": "string"
            },
            {
              "internalType": "uint256",
              "name": "time",
              "type": "uint256"
            },
            {
              "internalType": "uint256",
              "name": "fee",
              "type": "uint256"
            },
            {
              "internalType": "uint256",
              "name": "index",
              "type": "uint256"
            },
            {
              "internalType": "bool",
              "name": "completed",
              "type": "bool"
            },
            {
              "internalType": "bool",
              "name": "booked",
              "type": "bool"
            }
          ],
          "internalType": "struct XTELPT.meeting[]",
          "name": "",
          "type": "tuple[]"
        }
      ],
      "stateMutability": "view",
      "type": "function"
    },
    {
      "inputs": [
        {
          "internalType": "address",
          "name": "userAdd",
          "type": "address"
        }
      ],
      "name": "getProfile",
      "outputs": [
        {
          "components": [
            {
              "internalType": "address",
              "name": "addr",
              "type": "address"
            },
            {
              "internalType": "string",
              "name": "name",
              "type": "string"
            },
            {
              "internalType": "string",
              "name": "role",
              "type": "string"
            },
            {
              "internalType": "uint256",
              "name": "rating",
              "type": "uint256"
            },
            {
              "internalType": "string",
              "name": "bio",
              "type": "string"
            },
            {
              "internalType": "string",
              "name": "profilePic",
              "type": "string"
            },
            {
              "internalType": "string",
              "name": "hostTitle",
              "type": "string"
            }
          ],
          "internalType": "struct XTELPT.profile",
          "name": "",
          "type": "tuple"
        }
      ],
      "stateMutability": "view",
      "type": "function"
    },
    {
      "inputs": [
        {
          "internalType": "uint256",
          "name": "_id",
          "type": "uint256"
        }
      ],
      "name": "joinCampaign",
      "outputs": [],
      "stateMutability": "nonpayable",
      "type": "function"
    },
    {
      "inputs": [
        {
          "internalType": "address",
          "name": "_host",
          "type": "address"
        },
        {
          "internalType": "uint256",
          "name": "_id",
          "type": "uint256"
        }
      ],
      "name": "joinMeeting",
      "outputs": [],
      "stateMutability": "nonpayable",
      "type": "function"
    },
    {
      "inputs": [],
      "name": "meetingIndex",
      "outputs": [
        {
          "internalType": "uint256",
          "name": "",
          "type": "uint256"
        }
      ],
      "stateMutability": "view",
      "type": "function"
    },
    {
      "inputs": [],
      "name": "meetingNum",
      "outputs": [
        {
          "internalType": "uint256",
          "name": "",
          "type": "uint256"
        }
      ],
      "stateMutability": "view",
      "type": "function"
    },
    {
      "inputs": [
        {
          "internalType": "bytes",
          "name": "",
          "type": "bytes"
        }
      ],
      "name": "performUpkeep",
      "outputs": [],
      "stateMutability": "nonpayable",
      "type": "function"
    },
    {
      "inputs": [
        {
          "internalType": "uint256",
          "name": "",
          "type": "uint256"
        }
      ],
      "name": "recentCampaignCreator",
      "outputs": [
        {
          "internalType": "address",
          "name": "",
          "type": "address"
        }
      ],
      "stateMutability": "view",
      "type": "function"
    },
    {
      "inputs": [],
      "name": "s_lastTimeStamp",
      "outputs": [
        {
          "internalType": "uint256",
          "name": "",
          "type": "uint256"
        }
      ],
      "stateMutability": "view",
      "type": "function"
    },
    {
      "inputs": [],
      "name": "v_lastTimeStamp",
      "outputs": [
        {
          "internalType": "uint256",
          "name": "",
          "type": "uint256"
        }
      ],
      "stateMutability": "view",
      "type": "function"
    }
  ],
  "transactionHash": "0x04b2825903deaec2e3cff32ed17c40734b7912713864b546020869dbe01d7c0e",
  "args": [],
  "numDeployments": 16,
  "solcInputHash": "70b4ac4b4026054e93c31912ff3ab3b6",
  "bytecode": "0x60806040526040518060400160405280600481526020017f5573657200000000000000000000000000000000000000000000000000000000815250600590805190602001906200005192919062000226565b506040518060400160405280600481526020017f486f737400000000000000000000000000000000000000000000000000000000815250600690805190602001906200009f92919062000226565b506040518060400160405280600581526020017f566f6c756e00000000000000000000000000000000000000000000000000000081525060079080519060200190620000ed92919062000226565b50348015620000fb57600080fd5b5042600381905550426004819055506000600d60003373ffffffffffffffffffffffffffffffffffffffff1673ffffffffffffffffffffffffffffffffffffffff16815260200190815260200160002060006101000a81548160ff0219169083600181111562000170576200016f6200030c565b5b02179055506000600e60003373ffffffffffffffffffffffffffffffffffffffff1673ffffffffffffffffffffffffffffffffffffffff16815260200190815260200160002060006101000a81548160ff02191690836001811115620001db57620001da6200030c565b5b0217905550336000806101000a81548173ffffffffffffffffffffffffffffffffffffffff021916908373ffffffffffffffffffffffffffffffffffffffff1602179055506200036a565b8280546200023490620002d6565b90600052602060002090601f016020900481019282620002585760008555620002a4565b82601f106200027357805160ff1916838001178555620002a4565b82800160010185558215620002a4579182015b82811115620002a357825182559160200191906001019062000286565b5b509050620002b39190620002b7565b5090565b5b80821115620002d2576000816000905550600101620002b8565b5090565b60006002820490506001821680620002ef57607f821691505b602082108114156200030657620003056200033b565b5b50919050565b7f4e487b7100000000000000000000000000000000000000000000000000000000600052602160045260246000fd5b7f4e487b7100000000000000000000000000000000000000000000000000000000600052602260045260246000fd5b6149ef806200037a6000396000f3fe608060405234801561001057600080fd5b506004361061018e5760003560e01c80637d74311c116100de578063cb40bf6011610097578063dd0408ae11610071578063dd0408ae146104a9578063e9323db6146104c5578063fc49d3e6146104fd578063fce3f6ac146105195761018e565b8063cb40bf601461043b578063d4a82a5814610457578063d7358c5e146104735761018e565b80637d74311c146103675780637eac3d9214610383578063960ccccc146103b35780639dc5368d146103cf578063b16cfdd4146103ed578063c5e0cfd01461041d5761018e565b80634585e33b1161014b57806361bc221a1161012557806361bc221a146102dc578063680908c9146102fa5780636e04ff0d14610318578063766c21a2146103495761018e565b80634585e33b14610286578063550c18d7146102a257806356361f0d146102be5761018e565b80630f53a470146101935780631007e8c7146101c3578063236b8e3a146101e157806324b9ed2d146101ff5780632dd47fc91461022f5780633485404314610268575b600080fd5b6101ad60048036038101906101a891906135f5565b610535565b6040516101ba919061437b565b60405180910390f35b6101cb6108c8565b6040516101d8919061439d565b60405180910390f35b6101e96108ce565b6040516101f691906142a7565b60405180910390f35b610219600480360381019061021491906135f5565b610bcf565b60405161022691906142c9565b60405180910390f35b61024960048036038101906102449190613622565b610e14565b60405161025f9a999897969594939291906140b5565b60405180910390f35b610270610f67565b60405161027d919061439d565b60405180910390f35b6102a0600480360381019061029b9190613662565b610f6d565b005b6102bc60048036038101906102b79190613858565b6113ea565b005b6102c66117d4565b6040516102d3919061439d565b60405180910390f35b6102e46117da565b6040516102f1919061439d565b60405180910390f35b6103026117e0565b60405161030f919061439d565b60405180910390f35b610332600480360381019061032d91906136af565b6117ea565b6040516103409291906142eb565b60405180910390f35b610351611bf5565b60405161035e919061439d565b60405180910390f35b610381600480360381019061037c919061379d565b611bfb565b005b61039d60048036038101906103989190613770565b611f25565b6040516103aa919061409a565b60405180910390f35b6103cd60048036038101906103c89190613770565b611f64565b005b6103d7612191565b6040516103e49190614285565b60405180910390f35b61040760048036038101906104029190613770565b61221f565b604051610414919061409a565b60405180910390f35b61042561225e565b604051610432919061439d565b60405180910390f35b61045560048036038101906104509190613622565b612268565b005b610471600480360381019061046c9190613770565b612455565b005b61048d600480360381019061048891906135f5565b6125ab565b6040516104a097969594939291906141f3565b60405180910390f35b6104c360048036038101906104be9190613770565b6128b5565b005b6104df60048036038101906104da9190613770565b6129ed565b6040516104f499989796959493929190614158565b60405180910390f35b61051760048036038101906105129190613943565b612ba8565b005b610533600480360381019061052e91906136f8565b612f05565b005b61053d613184565b600c60008373ffffffffffffffffffffffffffffffffffffffff1673ffffffffffffffffffffffffffffffffffffffff1681526020019081526020016000206040518060e00160405290816000820160009054906101000a900473ffffffffffffffffffffffffffffffffffffffff1673ffffffffffffffffffffffffffffffffffffffff1673ffffffffffffffffffffffffffffffffffffffff1681526020016001820180546105ed906146d2565b80601f0160208091040260200160405190810160405280929190818152602001828054610619906146d2565b80156106665780601f1061063b57610100808354040283529160200191610666565b820191906000526020600020905b81548152906001019060200180831161064957829003601f168201915b5050505050815260200160028201805461067f906146d2565b80601f01602080910402602001604051908101604052809291908181526020018280546106ab906146d2565b80156106f85780601f106106cd576101008083540402835291602001916106f8565b820191906000526020600020905b8154815290600101906020018083116106db57829003601f168201915b505050505081526020016003820154815260200160048201805461071b906146d2565b80601f0160208091040260200160405190810160405280929190818152602001828054610747906146d2565b80156107945780601f1061076957610100808354040283529160200191610794565b820191906000526020600020905b81548152906001019060200180831161077757829003601f168201915b505050505081526020016005820180546107ad906146d2565b80601f01602080910402602001604051908101604052809291908181526020018280546107d9906146d2565b80156108265780601f106107fb57610100808354040283529160200191610826565b820191906000526020600020905b81548152906001019060200180831161080957829003601f168201915b5050505050815260200160068201805461083f906146d2565b80601f016020809104026020016040519081016040528092919081815260200182805461086b906146d2565b80156108b85780601f1061088d576101008083540402835291602001916108b8565b820191906000526020600020905b81548152906001019060200180831161089b57829003601f168201915b5050505050815250509050919050565b60045481565b60606009805480602002602001604051908101604052809291908181526020016000905b82821015610bc657838290600052602060002090600a0201604051806101400160405290816000820180548060200260200160405190810160405280929190818152602001828054801561099b57602002820191906000526020600020905b8160009054906101000a900473ffffffffffffffffffffffffffffffffffffffff1673ffffffffffffffffffffffffffffffffffffffff1681526020019060010190808311610951575b505050505081526020016001820160009054906101000a900473ffffffffffffffffffffffffffffffffffffffff1673ffffffffffffffffffffffffffffffffffffffff1673ffffffffffffffffffffffffffffffffffffffff1681526020016002820160009054906101000a900473ffffffffffffffffffffffffffffffffffffffff1673ffffffffffffffffffffffffffffffffffffffff1673ffffffffffffffffffffffffffffffffffffffff168152602001600382015481526020016004820154815260200160058201548152602001600682015481526020016007820160009054906101000a900460ff16151515158152602001600882018054610aa3906146d2565b80601f0160208091040260200160405190810160405280929190818152602001828054610acf906146d2565b8015610b1c5780601f10610af157610100808354040283529160200191610b1c565b820191906000526020600020905b815481529060010190602001808311610aff57829003601f168201915b50505050508152602001600982018054610b35906146d2565b80601f0160208091040260200160405190810160405280929190818152602001828054610b61906146d2565b8015610bae5780601f10610b8357610100808354040283529160200191610bae565b820191906000526020600020905b815481529060010190602001808311610b9157829003601f168201915b505050505081525050815260200190600101906108f2565b50505050905090565b6060600860008373ffffffffffffffffffffffffffffffffffffffff1673ffffffffffffffffffffffffffffffffffffffff168152602001908152602001600020805480602002602001604051908101604052809291908181526020016000905b82821015610e095783829060005260206000209060090201604051806101400160405290816000820160009054906101000a900473ffffffffffffffffffffffffffffffffffffffff1673ffffffffffffffffffffffffffffffffffffffff1673ffffffffffffffffffffffffffffffffffffffff1681526020016001820160009054906101000a900473ffffffffffffffffffffffffffffffffffffffff1673ffffffffffffffffffffffffffffffffffffffff1673ffffffffffffffffffffffffffffffffffffffff1681526020016002820154815260200160038201548152602001600482018054610d24906146d2565b80601f0160208091040260200160405190810160405280929190818152602001828054610d50906146d2565b8015610d9d5780601f10610d7257610100808354040283529160200191610d9d565b820191906000526020600020905b815481529060010190602001808311610d8057829003601f168201915b505050505081526020016005820154815260200160068201548152602001600782015481526020016008820160009054906101000a900460ff161515151581526020016008820160019054906101000a900460ff16151515158152505081526020019060010190610c30565b505050509050919050565b60086020528160005260406000208181548110610e3057600080fd5b9060005260206000209060090201600091509150508060000160009054906101000a900473ffffffffffffffffffffffffffffffffffffffff16908060010160009054906101000a900473ffffffffffffffffffffffffffffffffffffffff1690806002015490806003015490806004018054610eac906146d2565b80601f0160208091040260200160405190810160405280929190818152602001828054610ed8906146d2565b8015610f255780601f10610efa57610100808354040283529160200191610f25565b820191906000526020600020905b815481529060010190602001808311610f0857829003601f168201915b5050505050908060050154908060060154908060070154908060080160009054906101000a900460ff16908060080160019054906101000a900460ff1690508a565b60035481565b60005b600f805490508110156113e55760005b60086000600f8481548110610f9857610f9761480b565b5b9060005260206000200160009054906101000a900473ffffffffffffffffffffffffffffffffffffffff1673ffffffffffffffffffffffffffffffffffffffff1673ffffffffffffffffffffffffffffffffffffffff168152602001908152602001600020805490508110156113d1576000611022604051806020016040528060008152506117ea565b50905080611065576040517f08c379a000000000000000000000000000000000000000000000000000000000815260040161105c9061433b565b60405180910390fd5b60086000600f858154811061107d5761107c61480b565b5b9060005260206000200160009054906101000a900473ffffffffffffffffffffffffffffffffffffffff1673ffffffffffffffffffffffffffffffffffffffff1673ffffffffffffffffffffffffffffffffffffffff16815260200190815260200160002082815481106110f4576110f361480b565b5b90600052602060002090600902016005015460086000600f868154811061111e5761111d61480b565b5b9060005260206000200160009054906101000a900473ffffffffffffffffffffffffffffffffffffffff1673ffffffffffffffffffffffffffffffffffffffff1673ffffffffffffffffffffffffffffffffffffffff16815260200190815260200160002083815481106111955761119461480b565b5b9060005260206000209060090201600201546111b19190614564565b4211156113bd57600160086000600f86815481106111d2576111d161480b565b5b9060005260206000200160009054906101000a900473ffffffffffffffffffffffffffffffffffffffff1673ffffffffffffffffffffffffffffffffffffffff1673ffffffffffffffffffffffffffffffffffffffff16815260200190815260200160002083815481106112495761124861480b565b5b906000526020600020906009020160080160006101000a81548160ff0219169083151502179055504260086000600f868154811061128a5761128961480b565b5b9060005260206000200160009054906101000a900473ffffffffffffffffffffffffffffffffffffffff1673ffffffffffffffffffffffffffffffffffffffff1673ffffffffffffffffffffffffffffffffffffffff16815260200190815260200160002083815481106113015761130061480b565b5b9060005260206000209060090201600301819055506001600d6000600f86815481106113305761132f61480b565b5b9060005260206000200160009054906101000a900473ffffffffffffffffffffffffffffffffffffffff1673ffffffffffffffffffffffffffffffffffffffff1673ffffffffffffffffffffffffffffffffffffffff16815260200190815260200160002060006101000a81548160ff021916908360018111156113b7576113b66147ad565b5b02179055505b5080806113c990614735565b915050610f80565b5080806113dd90614735565b915050610f70565b505050565b600073ffffffffffffffffffffffffffffffffffffffff16600c60003373ffffffffffffffffffffffffffffffffffffffff1673ffffffffffffffffffffffffffffffffffffffff16815260200190815260200160002060000160009054906101000a900473ffffffffffffffffffffffffffffffffffffffff1673ffffffffffffffffffffffffffffffffffffffff1614156114e557600f339080600181540180825580915050600190039060005260206000200160009091909190916101000a81548173ffffffffffffffffffffffffffffffffffffffff021916908373ffffffffffffffffffffffffffffffffffffffff1602179055505b6000600d60003373ffffffffffffffffffffffffffffffffffffffff1673ffffffffffffffffffffffffffffffffffffffff16815260200190815260200160002060006101000a81548160ff02191690836001811115611548576115476147ad565b5b021790555033600c60003373ffffffffffffffffffffffffffffffffffffffff1673ffffffffffffffffffffffffffffffffffffffff16815260200190815260200160002060000160006101000a81548173ffffffffffffffffffffffffffffffffffffffff021916908373ffffffffffffffffffffffffffffffffffffffff16021790555083600c60003373ffffffffffffffffffffffffffffffffffffffff1673ffffffffffffffffffffffffffffffffffffffff16815260200190815260200160002060010190805190602001906116249291906131d7565b5080600c60003373ffffffffffffffffffffffffffffffffffffffff1673ffffffffffffffffffffffffffffffffffffffff168152602001908152602001600020600601908051906020019061167b9291906131d7565b5084600c60003373ffffffffffffffffffffffffffffffffffffffff1673ffffffffffffffffffffffffffffffffffffffff168152602001908152602001600020600301819055506006600c60003373ffffffffffffffffffffffffffffffffffffffff1673ffffffffffffffffffffffffffffffffffffffff168152602001908152602001600020600201908054611713906146d2565b61171e92919061325d565b5082600c60003373ffffffffffffffffffffffffffffffffffffffff1673ffffffffffffffffffffffffffffffffffffffff16815260200190815260200160002060050190805190602001906117759291906131d7565b5081600c60003373ffffffffffffffffffffffffffffffffffffffff1673ffffffffffffffffffffffffffffffffffffffff16815260200190815260200160002060040190805190602001906117cc9291906131d7565b505050505050565b600a5481565b60015481565b6000600b54905090565b6000606060005b600f80549050811015611bef5760005b60086000600f84815481106118195761181861480b565b5b9060005260206000200160009054906101000a900473ffffffffffffffffffffffffffffffffffffffff1673ffffffffffffffffffffffffffffffffffffffff1673ffffffffffffffffffffffffffffffffffffffff16815260200190815260200160002080549050811015611bdb57600060086000600f85815481106118a3576118a261480b565b5b9060005260206000200160009054906101000a900473ffffffffffffffffffffffffffffffffffffffff1673ffffffffffffffffffffffffffffffffffffffff1673ffffffffffffffffffffffffffffffffffffffff168152602001908152602001600020828154811061191a5761191961480b565b5b9060005260206000209060090201600501541180156119ea57506000151560086000600f85815481106119505761194f61480b565b5b9060005260206000200160009054906101000a900473ffffffffffffffffffffffffffffffffffffffff1673ffffffffffffffffffffffffffffffffffffffff1673ffffffffffffffffffffffffffffffffffffffff16815260200190815260200160002082815481106119c7576119c661480b565b5b906000526020600020906009020160080160009054906101000a900460ff161515145b15611bc8576000600d60003373ffffffffffffffffffffffffffffffffffffffff1673ffffffffffffffffffffffffffffffffffffffff16815260200190815260200160002060009054906101000a900460ff166001811115611a5057611a4f6147ad565b5b60006001811115611a6457611a636147ad565b5b149050600060086000600f8681548110611a8157611a8061480b565b5b9060005260206000200160009054906101000a900473ffffffffffffffffffffffffffffffffffffffff1673ffffffffffffffffffffffffffffffffffffffff1673ffffffffffffffffffffffffffffffffffffffff1681526020019081526020016000208381548110611af857611af761480b565b5b90600052602060002090600902016005015460086000600f8781548110611b2257611b2161480b565b5b9060005260206000200160009054906101000a900473ffffffffffffffffffffffffffffffffffffffff1673ffffffffffffffffffffffffffffffffffffffff1673ffffffffffffffffffffffffffffffffffffffff1681526020019081526020016000208481548110611b9957611b9861480b565b5b906000526020600020906009020160020154611bb59190614564565b42119050818015611bc35750805b955050505b8080611bd390614735565b915050611801565b508080611be790614735565b9150506117f1565b50915091565b600b5481565b600073ffffffffffffffffffffffffffffffffffffffff16600c60003373ffffffffffffffffffffffffffffffffffffffff1673ffffffffffffffffffffffffffffffffffffffff16815260200190815260200160002060000160009054906101000a900473ffffffffffffffffffffffffffffffffffffffff1673ffffffffffffffffffffffffffffffffffffffff161415611cf657600f339080600181540180825580915050600190039060005260206000200160009091909190916101000a81548173ffffffffffffffffffffffffffffffffffffffff021916908373ffffffffffffffffffffffffffffffffffffffff1602179055505b33600c60003373ffffffffffffffffffffffffffffffffffffffff1673ffffffffffffffffffffffffffffffffffffffff16815260200190815260200160002060000160006101000a81548173ffffffffffffffffffffffffffffffffffffffff021916908373ffffffffffffffffffffffffffffffffffffffff16021790555082600c60003373ffffffffffffffffffffffffffffffffffffffff1673ffffffffffffffffffffffffffffffffffffffff1681526020019081526020016000206001019080519060200190611dcd9291906131d7565b5083600c60003373ffffffffffffffffffffffffffffffffffffffff1673ffffffffffffffffffffffffffffffffffffffff168152602001908152602001600020600301819055506005600c60003373ffffffffffffffffffffffffffffffffffffffff1673ffffffffffffffffffffffffffffffffffffffff168152602001908152602001600020600201908054611e65906146d2565b611e7092919061325d565b5081600c60003373ffffffffffffffffffffffffffffffffffffffff1673ffffffffffffffffffffffffffffffffffffffff1681526020019081526020016000206005019080519060200190611ec79291906131d7565b5080600c60003373ffffffffffffffffffffffffffffffffffffffff1673ffffffffffffffffffffffffffffffffffffffff1681526020019081526020016000206004019080519060200190611f1e9291906131d7565b5050505050565b600f8181548110611f3557600080fd5b906000526020600020016000915054906101000a900473ffffffffffffffffffffffffffffffffffffffff1681565b604051602001611f7390614070565b60405160208183030381529060405280519060200120600c60003373ffffffffffffffffffffffffffffffffffffffff1673ffffffffffffffffffffffffffffffffffffffff168152602001908152602001600020600201604051602001611fdb9190614059565b6040516020818303038152906040528051906020012014612031576040517f08c379a00000000000000000000000000000000000000000000000000000000081526004016120289061431b565b60405180910390fd5b33600982815481106120465761204561480b565b5b90600052602060002090600a020160010160006101000a81548173ffffffffffffffffffffffffffffffffffffffff021916908373ffffffffffffffffffffffffffffffffffffffff160217905550600981815481106120a9576120a861480b565b5b90600052602060002090600a02016000016001600983815481106120d0576120cf61480b565b5b90600052602060002090600a0201600001805490506120ef9190614614565b81548110612100576120ff61480b565b5b9060005260206000200160009054906101000a900473ffffffffffffffffffffffffffffffffffffffff166009828154811061213f5761213e61480b565b5b90600052602060002090600a020160020160006101000a81548173ffffffffffffffffffffffffffffffffffffffff021916908373ffffffffffffffffffffffffffffffffffffffff16021790555050565b6060600f80548060200260200160405190810160405280929190818152602001828054801561221557602002820191906000526020600020905b8160009054906101000a900473ffffffffffffffffffffffffffffffffffffffff1673ffffffffffffffffffffffffffffffffffffffff16815260200190600101908083116121cb575b5050505050905090565b6010818154811061222f57600080fd5b906000526020600020016000915054906101000a900473ffffffffffffffffffffffffffffffffffffffff1681565b6000600a54905090565b60405160200161227790614070565b60405160208183030381529060405280519060200120600c60003373ffffffffffffffffffffffffffffffffffffffff1673ffffffffffffffffffffffffffffffffffffffff1681526020019081526020016000206002016040516020016122df9190614059565b6040516020818303038152906040528051906020012014612335576040517f08c379a000000000000000000000000000000000000000000000000000000000815260040161232c9061431b565b60405180910390fd5b33600860008473ffffffffffffffffffffffffffffffffffffffff1673ffffffffffffffffffffffffffffffffffffffff16815260200190815260200160002082815481106123875761238661480b565b5b906000526020600020906009020160010160006101000a81548173ffffffffffffffffffffffffffffffffffffffff021916908373ffffffffffffffffffffffffffffffffffffffff1602179055506001600860008473ffffffffffffffffffffffffffffffffffffffff1673ffffffffffffffffffffffffffffffffffffffff16815260200190815260200160002082815481106124295761242861480b565b5b906000526020600020906009020160080160016101000a81548160ff0219169083151502179055505050565b60405160200161246490614085565b60405160208183030381529060405280519060200120600c60003373ffffffffffffffffffffffffffffffffffffffff1673ffffffffffffffffffffffffffffffffffffffff1681526020019081526020016000206002016040516020016124cc9190614059565b6040516020818303038152906040528051906020012014612522576040517f08c379a00000000000000000000000000000000000000000000000000000000081526004016125199061435b565b60405180910390fd5b600981815481106125365761253561480b565b5b90600052602060002090600a0201600001339080600181540180825580915050600190039060005260206000200160009091909190916101000a81548173ffffffffffffffffffffffffffffffffffffffff021916908373ffffffffffffffffffffffffffffffffffffffff16021790555050565b600c6020528060005260406000206000915090508060000160009054906101000a900473ffffffffffffffffffffffffffffffffffffffff16908060010180546125f4906146d2565b80601f0160208091040260200160405190810160405280929190818152602001828054612620906146d2565b801561266d5780601f106126425761010080835404028352916020019161266d565b820191906000526020600020905b81548152906001019060200180831161265057829003601f168201915b505050505090806002018054612682906146d2565b80601f01602080910402602001604051908101604052809291908181526020018280546126ae906146d2565b80156126fb5780601f106126d0576101008083540402835291602001916126fb565b820191906000526020600020905b8154815290600101906020018083116126de57829003601f168201915b505050505090806003015490806004018054612716906146d2565b80601f0160208091040260200160405190810160405280929190818152602001828054612742906146d2565b801561278f5780601f106127645761010080835404028352916020019161278f565b820191906000526020600020905b81548152906001019060200180831161277257829003601f168201915b5050505050908060050180546127a4906146d2565b80601f01602080910402602001604051908101604052809291908181526020018280546127d0906146d2565b801561281d5780601f106127f25761010080835404028352916020019161281d565b820191906000526020600020905b81548152906001019060200180831161280057829003601f168201915b505050505090806006018054612832906146d2565b80601f016020809104026020016040519081016040528092919081815260200182805461285e906146d2565b80156128ab5780601f10612880576101008083540402835291602001916128ab565b820191906000526020600020905b81548152906001019060200180831161288e57829003601f168201915b5050505050905087565b6040516020016128c490614070565b60405160208183030381529060405280519060200120600c60003373ffffffffffffffffffffffffffffffffffffffff1673ffffffffffffffffffffffffffffffffffffffff16815260200190815260200160002060020160405160200161292c9190614059565b6040516020818303038152906040528051906020012014612982576040517f08c379a00000000000000000000000000000000000000000000000000000000081526004016129799061431b565b60405180910390fd5b6001600982815481106129985761299761480b565b5b90600052602060002090600a020160070160006101000a81548160ff02191690831515021790555042600982815481106129d5576129d461480b565b5b90600052602060002090600a02016004018190555050565b600981815481106129fd57600080fd5b90600052602060002090600a02016000915090508060010160009054906101000a900473ffffffffffffffffffffffffffffffffffffffff16908060020160009054906101000a900473ffffffffffffffffffffffffffffffffffffffff16908060030154908060040154908060050154908060060154908060070160009054906101000a900460ff1690806008018054612a97906146d2565b80601f0160208091040260200160405190810160405280929190818152602001828054612ac3906146d2565b8015612b105780601f10612ae557610100808354040283529160200191612b10565b820191906000526020600020905b815481529060010190602001808311612af357829003601f168201915b505050505090806009018054612b25906146d2565b80601f0160208091040260200160405190810160405280929190818152602001828054612b51906146d2565b8015612b9e5780601f10612b7357610100808354040283529160200191612b9e565b820191906000526020600020905b815481529060010190602001808311612b8157829003601f168201915b5050505050905089565b604051602001612bb790614085565b60405160208183030381529060405280519060200120600c60003373ffffffffffffffffffffffffffffffffffffffff1673ffffffffffffffffffffffffffffffffffffffff168152602001908152602001600020600201604051602001612c1f9190614059565b6040516020818303038152906040528051906020012014612c75576040517f08c379a0000000000000000000000000000000000000000000000000000000008152600401612c6c9061435b565b60405180910390fd5b612c7d6132ea565b33816000019073ffffffffffffffffffffffffffffffffffffffff16908173ffffffffffffffffffffffffffffffffffffffff1681525050603c84612cc291906145ba565b8160a001818152505081816080018190525084816040018181525050600b548160e0018181525050828160c00181815250506000600d60003373ffffffffffffffffffffffffffffffffffffffff1673ffffffffffffffffffffffffffffffffffffffff16815260200190815260200160002060006101000a81548160ff02191690836001811115612d5757612d566147ad565b5b0217905550600860003373ffffffffffffffffffffffffffffffffffffffff1673ffffffffffffffffffffffffffffffffffffffff16815260200190815260200160002081908060018154018082558091505060019003906000526020600020906009020160009091909190915060008201518160000160006101000a81548173ffffffffffffffffffffffffffffffffffffffff021916908373ffffffffffffffffffffffffffffffffffffffff16021790555060208201518160010160006101000a81548173ffffffffffffffffffffffffffffffffffffffff021916908373ffffffffffffffffffffffffffffffffffffffff16021790555060408201518160020155606082015181600301556080820151816004019080519060200190612e839291906131d7565b5060a0820151816005015560c0820151816006015560e082015181600701556101008201518160080160006101000a81548160ff0219169083151502179055506101208201518160080160016101000a81548160ff0219169083151502179055505050600b6000815480929190612ef990614735565b91905055505050505050565b60008054906101000a900473ffffffffffffffffffffffffffffffffffffffff1673ffffffffffffffffffffffffffffffffffffffff163373ffffffffffffffffffffffffffffffffffffffff1614612f5d57600080fd5b612f6561336d565b4281606001818152505082816101000181905250600a548160c00181815250508181610120018190525060008160a001818152505060016002819055506000600d60003373ffffffffffffffffffffffffffffffffffffffff1673ffffffffffffffffffffffffffffffffffffffff16815260200190815260200160002060006101000a81548160ff02191690836001811115613005576130046147ad565b5b021790555060098190806001815401808255809150506001900390600052602060002090600a020160009091909190915060008201518160000190805190602001906130529291906133ee565b5060208201518160010160006101000a81548173ffffffffffffffffffffffffffffffffffffffff021916908373ffffffffffffffffffffffffffffffffffffffff16021790555060408201518160020160006101000a81548173ffffffffffffffffffffffffffffffffffffffff021916908373ffffffffffffffffffffffffffffffffffffffff160217905550606082015181600301556080820151816004015560a0820151816005015560c0820151816006015560e08201518160070160006101000a81548160ff0219169083151502179055506101008201518160080190805190602001906131469291906131d7565b506101208201518160090190805190602001906131649291906131d7565b505050600a600081548092919061317a90614735565b9190505550505050565b6040518060e00160405280600073ffffffffffffffffffffffffffffffffffffffff1681526020016060815260200160608152602001600081526020016060815260200160608152602001606081525090565b8280546131e3906146d2565b90600052602060002090601f016020900481019282613205576000855561324c565b82601f1061321e57805160ff191683800117855561324c565b8280016001018555821561324c579182015b8281111561324b578251825591602001919060010190613230565b5b5090506132599190613478565b5090565b828054613269906146d2565b90600052602060002090601f01602090048101928261328b57600085556132d9565b82601f1061329c57805485556132d9565b828001600101855582156132d957600052602060002091601f016020900482015b828111156132d85782548255916001019190600101906132bd565b5b5090506132e69190613478565b5090565b604051806101400160405280600073ffffffffffffffffffffffffffffffffffffffff168152602001600073ffffffffffffffffffffffffffffffffffffffff1681526020016000815260200160008152602001606081526020016000815260200160008152602001600081526020016000151581526020016000151581525090565b60405180610140016040528060608152602001600073ffffffffffffffffffffffffffffffffffffffff168152602001600073ffffffffffffffffffffffffffffffffffffffff1681526020016000815260200160008152602001600081526020016000815260200160001515815260200160608152602001606081525090565b828054828255906000526020600020908101928215613467579160200282015b828111156134665782518260006101000a81548173ffffffffffffffffffffffffffffffffffffffff021916908373ffffffffffffffffffffffffffffffffffffffff1602179055509160200191906001019061340e565b5b5090506134749190613478565b5090565b5b80821115613491576000816000905550600101613479565b5090565b60006134a86134a3846143dd565b6143b8565b9050828152602081018484840111156134c4576134c3614878565b5b6134cf848285614690565b509392505050565b60006134ea6134e58461440e565b6143b8565b90508281526020810184848401111561350657613505614878565b5b613511848285614690565b509392505050565b6000813590506135288161498b565b92915050565b60008083601f8401126135445761354361486e565b5b8235905067ffffffffffffffff81111561356157613560614869565b5b60208301915083600182028301111561357d5761357c614873565b5b9250929050565b600082601f8301126135995761359861486e565b5b81356135a9848260208601613495565b91505092915050565b600082601f8301126135c7576135c661486e565b5b81356135d78482602086016134d7565b91505092915050565b6000813590506135ef816149a2565b92915050565b60006020828403121561360b5761360a614882565b5b600061361984828501613519565b91505092915050565b6000806040838503121561363957613638614882565b5b600061364785828601613519565b9250506020613658858286016135e0565b9150509250929050565b6000806020838503121561367957613678614882565b5b600083013567ffffffffffffffff8111156136975761369661487d565b5b6136a38582860161352e565b92509250509250929050565b6000602082840312156136c5576136c4614882565b5b600082013567ffffffffffffffff8111156136e3576136e261487d565b5b6136ef84828501613584565b91505092915050565b6000806040838503121561370f5761370e614882565b5b600083013567ffffffffffffffff81111561372d5761372c61487d565b5b613739858286016135b2565b925050602083013567ffffffffffffffff81111561375a5761375961487d565b5b613766858286016135b2565b9150509250929050565b60006020828403121561378657613785614882565b5b6000613794848285016135e0565b91505092915050565b600080600080608085870312156137b7576137b6614882565b5b60006137c5878288016135e0565b945050602085013567ffffffffffffffff8111156137e6576137e561487d565b5b6137f2878288016135b2565b935050604085013567ffffffffffffffff8111156138135761381261487d565b5b61381f878288016135b2565b925050606085013567ffffffffffffffff8111156138405761383f61487d565b5b61384c878288016135b2565b91505092959194509250565b600080600080600060a0868803121561387457613873614882565b5b6000613882888289016135e0565b955050602086013567ffffffffffffffff8111156138a3576138a261487d565b5b6138af888289016135b2565b945050604086013567ffffffffffffffff8111156138d0576138cf61487d565b5b6138dc888289016135b2565b935050606086013567ffffffffffffffff8111156138fd576138fc61487d565b5b613909888289016135b2565b925050608086013567ffffffffffffffff81111561392a5761392961487d565b5b613936888289016135b2565b9150509295509295909350565b6000806000806080858703121561395d5761395c614882565b5b600061396b878288016135e0565b945050602061397c878288016135e0565b935050604061398d878288016135e0565b925050606085013567ffffffffffffffff8111156139ae576139ad61487d565b5b6139ba878288016135b2565b91505092959194509250565b60006139d28383613a06565b60208301905092915050565b60006139ea8383613dc1565b905092915050565b60006139fe8383613ea9565b905092915050565b613a0f81614648565b82525050565b613a1e81614648565b82525050565b6000613a2f82614484565b613a3981856144e2565b9350613a448361443f565b8060005b83811015613a75578151613a5c88826139c6565b9750613a67836144bb565b925050600181019050613a48565b5085935050505092915050565b6000613a8d82614484565b613a9781856144f3565b9350613aa28361443f565b8060005b83811015613ad3578151613aba88826139c6565b9750613ac5836144bb565b925050600181019050613aa6565b5085935050505092915050565b6000613aeb8261448f565b613af58185614504565b935083602082028501613b078561444f565b8060005b85811015613b435784840389528151613b2485826139de565b9450613b2f836144c8565b925060208a01995050600181019050613b0b565b50829750879550505050505092915050565b6000613b608261449a565b613b6a8185614515565b935083602082028501613b7c8561445f565b8060005b85811015613bb85784840389528151613b9985826139f2565b9450613ba4836144d5565b925060208a01995050600181019050613b80565b50829750879550505050505092915050565b613bd38161465a565b82525050565b613be28161465a565b82525050565b6000613bf3826144a5565b613bfd8185614526565b9350613c0d81856020860161469f565b613c1681614887565b840191505092915050565b6000613c2c826144b0565b613c368185614537565b9350613c4681856020860161469f565b613c4f81614887565b840191505092915050565b6000613c65826144b0565b613c6f8185614548565b9350613c7f81856020860161469f565b613c8881614887565b840191505092915050565b60008154613ca0816146d2565b613caa8186614559565b94506001821660008114613cc55760018114613cd657613d09565b60ff19831686528186019350613d09565b613cdf8561446f565b60005b83811015613d0157815481890152600182019150602081019050613ce2565b838801955050505b50505092915050565b6000613d1f600a83614548565b9150613d2a82614898565b602082019050919050565b6000613d42600483614559565b9150613d4d826148c1565b600482019050919050565b6000613d65602383614548565b9150613d70826148ea565b604082019050919050565b6000613d88600483614559565b9150613d9382614939565b600482019050919050565b6000613dab600a83614548565b9150613db682614962565b602082019050919050565b6000610140830160008301518482036000860152613ddf8282613a24565b9150506020830151613df46020860182613a06565b506040830151613e076040860182613a06565b506060830151613e1a606086018261403b565b506080830151613e2d608086018261403b565b5060a0830151613e4060a086018261403b565b5060c0830151613e5360c086018261403b565b5060e0830151613e6660e0860182613bca565b50610100830151848203610100860152613e808282613c21565b915050610120830151848203610120860152613e9c8282613c21565b9150508091505092915050565b600061014083016000830151613ec26000860182613a06565b506020830151613ed56020860182613a06565b506040830151613ee8604086018261403b565b506060830151613efb606086018261403b565b5060808301518482036080860152613f138282613c21565b91505060a0830151613f2860a086018261403b565b5060c0830151613f3b60c086018261403b565b5060e0830151613f4e60e086018261403b565b50610100830151613f63610100860182613bca565b50610120830151613f78610120860182613bca565b508091505092915050565b600060e083016000830151613f9b6000860182613a06565b5060208301518482036020860152613fb38282613c21565b91505060408301518482036040860152613fcd8282613c21565b9150506060830151613fe2606086018261403b565b5060808301518482036080860152613ffa8282613c21565b91505060a083015184820360a08601526140148282613c21565b91505060c083015184820360c086015261402e8282613c21565b9150508091505092915050565b61404481614686565b82525050565b61405381614686565b82525050565b60006140658284613c93565b915081905092915050565b600061407b82613d35565b9150819050919050565b600061409082613d7b565b9150819050919050565b60006020820190506140af6000830184613a15565b92915050565b6000610140820190506140cb600083018d613a15565b6140d8602083018c613a15565b6140e5604083018b61404a565b6140f2606083018a61404a565b81810360808301526141048189613c5a565b905061411360a083018861404a565b61412060c083018761404a565b61412d60e083018661404a565b61413b610100830185613bd9565b614149610120830184613bd9565b9b9a5050505050505050505050565b60006101208201905061416e600083018c613a15565b61417b602083018b613a15565b614188604083018a61404a565b614195606083018961404a565b6141a2608083018861404a565b6141af60a083018761404a565b6141bc60c0830186613bd9565b81810360e08301526141ce8185613c5a565b90508181036101008301526141e38184613c5a565b90509a9950505050505050505050565b600060e082019050614208600083018a613a15565b818103602083015261421a8189613c5a565b9050818103604083015261422e8188613c5a565b905061423d606083018761404a565b818103608083015261424f8186613c5a565b905081810360a08301526142638185613c5a565b905081810360c08301526142778184613c5a565b905098975050505050505050565b6000602082019050818103600083015261429f8184613a82565b905092915050565b600060208201905081810360008301526142c18184613ae0565b905092915050565b600060208201905081810360008301526142e38184613b55565b905092915050565b60006040820190506143006000830185613bd9565b81810360208301526143128184613be8565b90509392505050565b6000602082019050818103600083015261433481613d12565b9050919050565b6000602082019050818103600083015261435481613d58565b9050919050565b6000602082019050818103600083015261437481613d9e565b9050919050565b600060208201905081810360008301526143958184613f83565b905092915050565b60006020820190506143b2600083018461404a565b92915050565b60006143c26143d3565b90506143ce8282614704565b919050565b6000604051905090565b600067ffffffffffffffff8211156143f8576143f761483a565b5b61440182614887565b9050602081019050919050565b600067ffffffffffffffff8211156144295761442861483a565b5b61443282614887565b9050602081019050919050565b6000819050602082019050919050565b6000819050602082019050919050565b6000819050602082019050919050565b60008190508160005260206000209050919050565b600081519050919050565b600081519050919050565b600081519050919050565b600081519050919050565b600081519050919050565b6000602082019050919050565b6000602082019050919050565b6000602082019050919050565b600082825260208201905092915050565b600082825260208201905092915050565b600082825260208201905092915050565b600082825260208201905092915050565b600082825260208201905092915050565b600082825260208201905092915050565b600082825260208201905092915050565b600081905092915050565b600061456f82614686565b915061457a83614686565b9250827fffffffffffffffffffffffffffffffffffffffffffffffffffffffffffffffff038211156145af576145ae61477e565b5b828201905092915050565b60006145c582614686565b91506145d083614686565b9250817fffffffffffffffffffffffffffffffffffffffffffffffffffffffffffffffff04831182151516156146095761460861477e565b5b828202905092915050565b600061461f82614686565b915061462a83614686565b92508282101561463d5761463c61477e565b5b828203905092915050565b600061465382614666565b9050919050565b60008115159050919050565b600073ffffffffffffffffffffffffffffffffffffffff82169050919050565b6000819050919050565b82818337600083830152505050565b60005b838110156146bd5780820151818401526020810190506146a2565b838111156146cc576000848401525b50505050565b600060028204905060018216806146ea57607f821691505b602082108114156146fe576146fd6147dc565b5b50919050565b61470d82614887565b810181811067ffffffffffffffff8211171561472c5761472b61483a565b5b80604052505050565b600061474082614686565b91507fffffffffffffffffffffffffffffffffffffffffffffffffffffffffffffffff8214156147735761477261477e565b5b600182019050919050565b7f4e487b7100000000000000000000000000000000000000000000000000000000600052601160045260246000fd5b7f4e487b7100000000000000000000000000000000000000000000000000000000600052602160045260246000fd5b7f4e487b7100000000000000000000000000000000000000000000000000000000600052602260045260246000fd5b7f4e487b7100000000000000000000000000000000000000000000000000000000600052603260045260246000fd5b7f4e487b7100000000000000000000000000000000000000000000000000000000600052604160045260246000fd5b600080fd5b600080fd5b600080fd5b600080fd5b600080fd5b600080fd5b6000601f19601f8301169050919050565b7f4e4f542041205553455200000000000000000000000000000000000000000000600082015250565b7f5573657200000000000000000000000000000000000000000000000000000000600082015250565b7f446f65736e2774206d65657420726571756972656d656e7420666f722055704b60008201527f6565700000000000000000000000000000000000000000000000000000000000602082015250565b7f486f737400000000000000000000000000000000000000000000000000000000600082015250565b7f4e4f54204120484f535400000000000000000000000000000000000000000000600082015250565b61499481614648565b811461499f57600080fd5b50565b6149ab81614686565b81146149b657600080fd5b5056fea264697066735822122024055fa8392e3ec9168761d00f588fdbbb48cbd8f16b4059ed99ab5ea659955364736f6c63430008070033",
  "devdoc": {
    "kind": "dev",
    "methods": {
      "checkUpkeep(bytes)": {
        "details": "This is the function that the Chainlink Keeper nodes call they look for `upkeepNeeded` to return True. the following should be true for this to return true: 1. It makes sure that the campaign or meeting is not yet completed 2. The time interval has passed for either meeting or campaign."
      },
      "constructor": {
        "details": "constructor used to assign values that will not change"
      },
      "createCampaign(string,string)": {
        "details": "This function `createCampaign` allows only the User to call it hence the `OnlyUser` modifier after which any avaliable volunteer would be assigned to the campaign"
      },
      "createHost(uint256,string,string,string,string)": {
        "details": "This function `createHost` any body can call this functions and the senders profile would be set to that of a `Host`"
      },
      "createSchedule(uint256,uint256,uint256,string)": {
        "details": "This function `createSchedule` allows only the Host to call it hence the `OnlyHost` modifier after which a Host can create a meeting with some parameters like time and fee needed"
      },
      "createUser(uint256,string,string,string)": {
        "details": "This function `createUser` any body can call this functions and the senders profile would be set to that of a `User`"
      },
      "endCampaign(uint256)": {
        "details": "This function `endCampaign` allows only the User end the campaign"
      },
      "getHelp(uint256)": {
        "details": "This function `getHelo` allows only the User to call it hence the `OnlyUser` modifier after which the Campaign ID is specified and the user would be assigned to the Campaign"
      },
      "joinCampaign(uint256)": {
        "details": "This function `joinCampaign` allows only the User to call it hence the `onlyHost` modifier after which the Campaign ID is specified and the user would be assigned to the Campaign"
      },
      "joinMeeting(address,uint256)": {
        "details": "This function `joinMeeting` allows only the User to call it hence the `OnlyUser` modifier after which the meeting ID is specified and the user would be assigned to the meeting"
      },
      "performUpkeep(bytes)": {
        "details": "Once `checkUpkeep` is returning `true`, this function is called"
      }
    },
    "version": 1
  },
  "userdoc": {
    "kind": "user",
    "methods": {
      "meetingNum()": {
        "notice": "Getter Functions "
      }
    },
    "version": 1
  },
  "storageLayout": {
    "storage": [
      {
        "astId": 20,
        "contract": "contracts/XTELPT.sol:XTELPT",
        "label": "owner",
        "offset": 0,
        "slot": "0",
        "type": "t_address"
      },
      {
        "astId": 25,
        "contract": "contracts/XTELPT.sol:XTELPT",
        "label": "counter",
        "offset": 0,
        "slot": "1",
        "type": "t_uint256"
      },
      {
        "astId": 27,
        "contract": "contracts/XTELPT.sol:XTELPT",
        "label": "i_interval",
        "offset": 0,
        "slot": "2",
        "type": "t_uint256"
      },
      {
        "astId": 29,
        "contract": "contracts/XTELPT.sol:XTELPT",
        "label": "s_lastTimeStamp",
        "offset": 0,
        "slot": "3",
        "type": "t_uint256"
      },
      {
        "astId": 31,
        "contract": "contracts/XTELPT.sol:XTELPT",
        "label": "v_lastTimeStamp",
        "offset": 0,
        "slot": "4",
        "type": "t_uint256"
      },
      {
        "astId": 34,
        "contract": "contracts/XTELPT.sol:XTELPT",
        "label": "userType",
        "offset": 0,
        "slot": "5",
        "type": "t_string_storage"
      },
      {
        "astId": 37,
        "contract": "contracts/XTELPT.sol:XTELPT",
        "label": "hostType",
        "offset": 0,
        "slot": "6",
        "type": "t_string_storage"
      },
      {
        "astId": 40,
        "contract": "contracts/XTELPT.sol:XTELPT",
        "label": "volunType",
        "offset": 0,
        "slot": "7",
        "type": "t_string_storage"
      },
      {
        "astId": 46,
        "contract": "contracts/XTELPT.sol:XTELPT",
        "label": "Meeting",
        "offset": 0,
        "slot": "8",
        "type": "t_mapping(t_address,t_array(t_struct(meeting)111_storage)dyn_storage)"
      },
      {
        "astId": 50,
        "contract": "contracts/XTELPT.sol:XTELPT",
        "label": "Campaign",
        "offset": 0,
        "slot": "9",
        "type": "t_array(t_struct(campaign)133_storage)dyn_storage"
      },
      {
        "astId": 52,
        "contract": "contracts/XTELPT.sol:XTELPT",
        "label": "campaignIndex",
        "offset": 0,
        "slot": "10",
        "type": "t_uint256"
      },
      {
        "astId": 54,
        "contract": "contracts/XTELPT.sol:XTELPT",
        "label": "meetingIndex",
        "offset": 0,
        "slot": "11",
        "type": "t_uint256"
      },
      {
        "astId": 59,
        "contract": "contracts/XTELPT.sol:XTELPT",
        "label": "UserProfile",
        "offset": 0,
        "slot": "12",
        "type": "t_mapping(t_address,t_struct(profile)90_storage)"
      },
      {
        "astId": 64,
        "contract": "contracts/XTELPT.sol:XTELPT",
        "label": "s_xtelpState",
        "offset": 0,
        "slot": "13",
        "type": "t_mapping(t_address,t_enum(XTELPState)23)"
      },
      {
        "astId": 69,
        "contract": "contracts/XTELPT.sol:XTELPT",
        "label": "volunState",
        "offset": 0,
        "slot": "14",
        "type": "t_mapping(t_address,t_enum(XTELPState)23)"
      },
      {
        "astId": 72,
        "contract": "contracts/XTELPT.sol:XTELPT",
        "label": "AllAccount",
        "offset": 0,
        "slot": "15",
        "type": "t_array(t_address)dyn_storage"
      },
      {
        "astId": 75,
        "contract": "contracts/XTELPT.sol:XTELPT",
        "label": "recentCampaignCreator",
        "offset": 0,
        "slot": "16",
        "type": "t_array(t_address)dyn_storage"
      }
    ],
    "types": {
      "t_address": {
        "encoding": "inplace",
        "label": "address",
        "numberOfBytes": "20"
      },
      "t_array(t_address)dyn_storage": {
        "base": "t_address",
        "encoding": "dynamic_array",
        "label": "address[]",
        "numberOfBytes": "32"
      },
      "t_array(t_struct(campaign)133_storage)dyn_storage": {
        "base": "t_struct(campaign)133_storage",
        "encoding": "dynamic_array",
        "label": "struct XTELPT.campaign[]",
        "numberOfBytes": "32"
      },
      "t_array(t_struct(meeting)111_storage)dyn_storage": {
        "base": "t_struct(meeting)111_storage",
        "encoding": "dynamic_array",
        "label": "struct XTELPT.meeting[]",
        "numberOfBytes": "32"
      },
      "t_bool": {
        "encoding": "inplace",
        "label": "bool",
        "numberOfBytes": "1"
      },
      "t_enum(XTELPState)23": {
        "encoding": "inplace",
        "label": "enum XTELPT.XTELPState",
        "numberOfBytes": "1"
      },
      "t_mapping(t_address,t_array(t_struct(meeting)111_storage)dyn_storage)": {
        "encoding": "mapping",
        "key": "t_address",
        "label": "mapping(address => struct XTELPT.meeting[])",
        "numberOfBytes": "32",
        "value": "t_array(t_struct(meeting)111_storage)dyn_storage"
      },
      "t_mapping(t_address,t_enum(XTELPState)23)": {
        "encoding": "mapping",
        "key": "t_address",
        "label": "mapping(address => enum XTELPT.XTELPState)",
        "numberOfBytes": "32",
        "value": "t_enum(XTELPState)23"
      },
      "t_mapping(t_address,t_struct(profile)90_storage)": {
        "encoding": "mapping",
        "key": "t_address",
        "label": "mapping(address => struct XTELPT.profile)",
        "numberOfBytes": "32",
        "value": "t_struct(profile)90_storage"
      },
      "t_string_storage": {
        "encoding": "bytes",
        "label": "string",
        "numberOfBytes": "32"
      },
      "t_struct(campaign)133_storage": {
        "encoding": "inplace",
        "label": "struct XTELPT.campaign",
        "members": [
          {
            "astId": 114,
            "contract": "contracts/XTELPT.sol:XTELPT",
            "label": "volunteer",
            "offset": 0,
            "slot": "0",
            "type": "t_array(t_address)dyn_storage"
          },
          {
            "astId": 116,
            "contract": "contracts/XTELPT.sol:XTELPT",
            "label": "user",
            "offset": 0,
            "slot": "1",
            "type": "t_address"
          },
          {
            "astId": 118,
            "contract": "contracts/XTELPT.sol:XTELPT",
            "label": "vol",
            "offset": 0,
            "slot": "2",
            "type": "t_address"
          },
          {
            "astId": 120,
            "contract": "contracts/XTELPT.sol:XTELPT",
            "label": "start_time",
            "offset": 0,
            "slot": "3",
            "type": "t_uint256"
          },
          {
            "astId": 122,
            "contract": "contracts/XTELPT.sol:XTELPT",
            "label": "end_time",
            "offset": 0,
            "slot": "4",
            "type": "t_uint256"
          },
          {
            "astId": 124,
            "contract": "contracts/XTELPT.sol:XTELPT",
            "label": "fee",
            "offset": 0,
            "slot": "5",
            "type": "t_uint256"
          },
          {
            "astId": 126,
            "contract": "contracts/XTELPT.sol:XTELPT",
            "label": "index",
            "offset": 0,
            "slot": "6",
            "type": "t_uint256"
          },
          {
            "astId": 128,
            "contract": "contracts/XTELPT.sol:XTELPT",
            "label": "completed",
            "offset": 0,
            "slot": "7",
            "type": "t_bool"
          },
          {
            "astId": 130,
            "contract": "contracts/XTELPT.sol:XTELPT",
            "label": "name",
            "offset": 0,
            "slot": "8",
            "type": "t_string_storage"
          },
          {
            "astId": 132,
            "contract": "contracts/XTELPT.sol:XTELPT",
            "label": "desc",
            "offset": 0,
            "slot": "9",
            "type": "t_string_storage"
          }
        ],
        "numberOfBytes": "320"
      },
      "t_struct(meeting)111_storage": {
        "encoding": "inplace",
        "label": "struct XTELPT.meeting",
        "members": [
          {
            "astId": 92,
            "contract": "contracts/XTELPT.sol:XTELPT",
            "label": "host",
            "offset": 0,
            "slot": "0",
            "type": "t_address"
          },
          {
            "astId": 94,
            "contract": "contracts/XTELPT.sol:XTELPT",
            "label": "user",
            "offset": 0,
            "slot": "1",
            "type": "t_address"
          },
          {
            "astId": 96,
            "contract": "contracts/XTELPT.sol:XTELPT",
            "label": "start",
            "offset": 0,
            "slot": "2",
            "type": "t_uint256"
          },
          {
            "astId": 98,
            "contract": "contracts/XTELPT.sol:XTELPT",
            "label": "end",
            "offset": 0,
            "slot": "3",
            "type": "t_uint256"
          },
          {
            "astId": 100,
            "contract": "contracts/XTELPT.sol:XTELPT",
            "label": "desc",
            "offset": 0,
            "slot": "4",
            "type": "t_string_storage"
          },
          {
            "astId": 102,
            "contract": "contracts/XTELPT.sol:XTELPT",
            "label": "time",
            "offset": 0,
            "slot": "5",
            "type": "t_uint256"
          },
          {
            "astId": 104,
            "contract": "contracts/XTELPT.sol:XTELPT",
            "label": "fee",
            "offset": 0,
            "slot": "6",
            "type": "t_uint256"
          },
          {
            "astId": 106,
            "contract": "contracts/XTELPT.sol:XTELPT",
            "label": "index",
            "offset": 0,
            "slot": "7",
            "type": "t_uint256"
          },
          {
            "astId": 108,
            "contract": "contracts/XTELPT.sol:XTELPT",
            "label": "completed",
            "offset": 0,
            "slot": "8",
            "type": "t_bool"
          },
          {
            "astId": 110,
            "contract": "contracts/XTELPT.sol:XTELPT",
            "label": "booked",
            "offset": 1,
            "slot": "8",
            "type": "t_bool"
          }
        ],
        "numberOfBytes": "288"
      },
      "t_struct(profile)90_storage": {
        "encoding": "inplace",
        "label": "struct XTELPT.profile",
        "members": [
          {
            "astId": 77,
            "contract": "contracts/XTELPT.sol:XTELPT",
            "label": "addr",
            "offset": 0,
            "slot": "0",
            "type": "t_address"
          },
          {
            "astId": 79,
            "contract": "contracts/XTELPT.sol:XTELPT",
            "label": "name",
            "offset": 0,
            "slot": "1",
            "type": "t_string_storage"
          },
          {
            "astId": 81,
            "contract": "contracts/XTELPT.sol:XTELPT",
            "label": "role",
            "offset": 0,
            "slot": "2",
            "type": "t_string_storage"
          },
          {
            "astId": 83,
            "contract": "contracts/XTELPT.sol:XTELPT",
            "label": "rating",
            "offset": 0,
            "slot": "3",
            "type": "t_uint256"
          },
          {
            "astId": 85,
            "contract": "contracts/XTELPT.sol:XTELPT",
            "label": "bio",
            "offset": 0,
            "slot": "4",
            "type": "t_string_storage"
          },
          {
            "astId": 87,
            "contract": "contracts/XTELPT.sol:XTELPT",
            "label": "profilePic",
            "offset": 0,
            "slot": "5",
            "type": "t_string_storage"
          },
          {
            "astId": 89,
            "contract": "contracts/XTELPT.sol:XTELPT",
            "label": "hostTitle",
            "offset": 0,
            "slot": "6",
            "type": "t_string_storage"
          }
        ],
        "numberOfBytes": "224"
      },
      "t_uint256": {
        "encoding": "inplace",
        "label": "uint256",
        "numberOfBytes": "32"
      }
    }
  }
}