{
  "address": "0xB7f1E800759e7D96f0732aac483Eec50be8c79Bb",
  "abi": [
    {
      "inputs": [],
      "stateMutability": "nonpayable",
      "type": "constructor"
    },
    {
      "anonymous": false,
      "inputs": [
        {
          "indexed": true,
          "internalType": "uint256",
          "name": "requestId",
          "type": "uint256"
        }
      ],
      "name": "RequestedID",
      "type": "event"
    },
    {
      "inputs": [
        {
          "internalType": "uint256",
          "name": "",
          "type": "uint256"
        }
      ],
      "name": "AllAccount",
      "outputs": [
        {
          "internalType": "address",
          "name": "",
          "type": "address"
        }
      ],
      "stateMutability": "view",
      "type": "function"
    },
    {
      "inputs": [
        {
          "internalType": "uint256",
          "name": "",
          "type": "uint256"
        }
      ],
      "name": "Campaign",
      "outputs": [
        {
          "internalType": "address",
          "name": "user",
          "type": "address"
        },
        {
          "internalType": "address",
          "name": "vol",
          "type": "address"
        },
        {
          "internalType": "uint256",
          "name": "start_time",
          "type": "uint256"
        },
        {
          "internalType": "uint256",
          "name": "end_time",
          "type": "uint256"
        },
        {
          "internalType": "string",
          "name": "image",
          "type": "string"
        },
        {
          "internalType": "uint256",
          "name": "fee",
          "type": "uint256"
        },
        {
          "internalType": "uint256",
          "name": "index",
          "type": "uint256"
        },
        {
          "internalType": "bool",
          "name": "completed",
          "type": "bool"
        },
        {
          "internalType": "string",
          "name": "name",
          "type": "string"
        },
        {
          "internalType": "string",
          "name": "desc",
          "type": "string"
        }
      ],
      "stateMutability": "view",
      "type": "function"
    },
    {
      "inputs": [
        {
          "internalType": "address",
          "name": "",
          "type": "address"
        },
        {
          "internalType": "uint256",
          "name": "",
          "type": "uint256"
        }
      ],
      "name": "Meeting",
      "outputs": [
        {
          "internalType": "address payable",
          "name": "host",
          "type": "address"
        },
        {
          "internalType": "address payable",
          "name": "user",
          "type": "address"
        },
        {
          "internalType": "uint256",
          "name": "start",
          "type": "uint256"
        },
        {
          "internalType": "uint256",
          "name": "end",
          "type": "uint256"
        },
        {
          "internalType": "string",
          "name": "desc",
          "type": "string"
        },
        {
          "internalType": "uint256",
          "name": "time",
          "type": "uint256"
        },
        {
          "internalType": "uint256",
          "name": "fee",
          "type": "uint256"
        },
        {
          "internalType": "uint256",
          "name": "index",
          "type": "uint256"
        },
        {
          "internalType": "bool",
          "name": "completed",
          "type": "bool"
        },
        {
          "internalType": "bool",
          "name": "booked",
          "type": "bool"
        }
      ],
      "stateMutability": "view",
      "type": "function"
    },
    {
      "inputs": [
        {
          "internalType": "address",
          "name": "",
          "type": "address"
        }
      ],
      "name": "UserProfile",
      "outputs": [
        {
          "internalType": "address",
          "name": "addr",
          "type": "address"
        },
        {
          "internalType": "string",
          "name": "name",
          "type": "string"
        },
        {
          "internalType": "string",
          "name": "role",
          "type": "string"
        },
        {
          "internalType": "uint256",
          "name": "rating",
          "type": "uint256"
        },
        {
          "internalType": "string",
          "name": "bio",
          "type": "string"
        },
        {
          "internalType": "string",
          "name": "profilePic",
          "type": "string"
        },
        {
          "internalType": "string",
          "name": "hostTitle",
          "type": "string"
        }
      ],
      "stateMutability": "view",
      "type": "function"
    },
    {
      "inputs": [],
      "name": "campaignIndex",
      "outputs": [
        {
          "internalType": "uint256",
          "name": "",
          "type": "uint256"
        }
      ],
      "stateMutability": "view",
      "type": "function"
    },
    {
      "inputs": [],
      "name": "campaignNum",
      "outputs": [
        {
          "internalType": "uint256",
          "name": "",
          "type": "uint256"
        }
      ],
      "stateMutability": "view",
      "type": "function"
    },
    {
      "inputs": [
        {
          "internalType": "bytes",
          "name": "",
          "type": "bytes"
        }
      ],
      "name": "checkUpkeep",
      "outputs": [
        {
          "internalType": "bool",
          "name": "upkeepNeeded",
          "type": "bool"
        },
        {
          "internalType": "bytes",
          "name": "",
          "type": "bytes"
        }
      ],
      "stateMutability": "view",
      "type": "function"
    },
    {
      "inputs": [],
      "name": "counter",
      "outputs": [
        {
          "internalType": "uint256",
          "name": "",
          "type": "uint256"
        }
      ],
      "stateMutability": "view",
      "type": "function"
    },
    {
      "inputs": [
        {
          "internalType": "string",
          "name": "_name",
          "type": "string"
        },
        {
          "internalType": "string",
          "name": "_desc",
          "type": "string"
        },
        {
          "internalType": "string",
          "name": "_image",
          "type": "string"
        }
      ],
      "name": "createCampaign",
      "outputs": [],
      "stateMutability": "nonpayable",
      "type": "function"
    },
    {
      "inputs": [
        {
          "internalType": "uint256",
          "name": "_rating",
          "type": "uint256"
        },
        {
          "internalType": "string",
          "name": "_name",
          "type": "string"
        },
        {
          "internalType": "string",
          "name": "_pic",
          "type": "string"
        },
        {
          "internalType": "string",
          "name": "_bio",
          "type": "string"
        },
        {
          "internalType": "string",
          "name": "_title",
          "type": "string"
        }
      ],
      "name": "createHost",
      "outputs": [],
      "stateMutability": "nonpayable",
      "type": "function"
    },
    {
      "inputs": [
        {
          "internalType": "uint256",
          "name": "_start",
          "type": "uint256"
        },
        {
          "internalType": "uint256",
          "name": "_time",
          "type": "uint256"
        },
        {
          "internalType": "uint256",
          "name": "_fee",
          "type": "uint256"
        },
        {
          "internalType": "string",
          "name": "_desc",
          "type": "string"
        }
      ],
      "name": "createSchedule",
      "outputs": [],
      "stateMutability": "nonpayable",
      "type": "function"
    },
    {
      "inputs": [
        {
          "internalType": "uint256",
          "name": "_rating",
          "type": "uint256"
        },
        {
          "internalType": "string",
          "name": "_name",
          "type": "string"
        },
        {
          "internalType": "string",
          "name": "_pic",
          "type": "string"
        },
        {
          "internalType": "string",
          "name": "_bio",
          "type": "string"
        }
      ],
      "name": "createUser",
      "outputs": [],
      "stateMutability": "nonpayable",
      "type": "function"
    },
    {
      "inputs": [
        {
          "internalType": "uint256",
          "name": "_id",
          "type": "uint256"
        }
      ],
      "name": "endCampaign",
      "outputs": [],
      "stateMutability": "nonpayable",
      "type": "function"
    },
    {
      "inputs": [],
      "name": "getAllAccount",
      "outputs": [
        {
          "internalType": "address[]",
          "name": "",
          "type": "address[]"
        }
      ],
      "stateMutability": "view",
      "type": "function"
    },
    {
      "inputs": [],
      "name": "getCampaign",
      "outputs": [
        {
          "components": [
            {
              "internalType": "address[]",
              "name": "volunteer",
              "type": "address[]"
            },
            {
              "internalType": "address",
              "name": "user",
              "type": "address"
            },
            {
              "internalType": "address",
              "name": "vol",
              "type": "address"
            },
            {
              "internalType": "uint256",
              "name": "start_time",
              "type": "uint256"
            },
            {
              "internalType": "uint256",
              "name": "end_time",
              "type": "uint256"
            },
            {
              "internalType": "string",
              "name": "image",
              "type": "string"
            },
            {
              "internalType": "uint256",
              "name": "fee",
              "type": "uint256"
            },
            {
              "internalType": "uint256",
              "name": "index",
              "type": "uint256"
            },
            {
              "internalType": "bool",
              "name": "completed",
              "type": "bool"
            },
            {
              "internalType": "string",
              "name": "name",
              "type": "string"
            },
            {
              "internalType": "string",
              "name": "desc",
              "type": "string"
            }
          ],
          "internalType": "struct XTELPT.campaign[]",
          "name": "",
          "type": "tuple[]"
        }
      ],
      "stateMutability": "view",
      "type": "function"
    },
    {
      "inputs": [
        {
          "internalType": "uint256",
          "name": "_id",
          "type": "uint256"
        }
      ],
      "name": "getHelp",
      "outputs": [],
      "stateMutability": "nonpayable",
      "type": "function"
    },
    {
      "inputs": [
        {
          "internalType": "address",
          "name": "_prof",
          "type": "address"
        }
      ],
      "name": "getMeeting",
      "outputs": [
        {
          "components": [
            {
              "internalType": "address payable",
              "name": "host",
              "type": "address"
            },
            {
              "internalType": "address payable",
              "name": "user",
              "type": "address"
            },
            {
              "internalType": "uint256",
              "name": "start",
              "type": "uint256"
            },
            {
              "internalType": "uint256",
              "name": "end",
              "type": "uint256"
            },
            {
              "internalType": "string",
              "name": "desc",
              "type": "string"
            },
            {
              "internalType": "uint256",
              "name": "time",
              "type": "uint256"
            },
            {
              "internalType": "uint256",
              "name": "fee",
              "type": "uint256"
            },
            {
              "internalType": "uint256",
              "name": "index",
              "type": "uint256"
            },
            {
              "internalType": "bool",
              "name": "completed",
              "type": "bool"
            },
            {
              "internalType": "bool",
              "name": "booked",
              "type": "bool"
            }
          ],
          "internalType": "struct XTELPT.meeting[]",
          "name": "",
          "type": "tuple[]"
        }
      ],
      "stateMutability": "view",
      "type": "function"
    },
    {
      "inputs": [
        {
          "internalType": "address",
          "name": "userAdd",
          "type": "address"
        }
      ],
      "name": "getProfile",
      "outputs": [
        {
          "components": [
            {
              "internalType": "address",
              "name": "addr",
              "type": "address"
            },
            {
              "internalType": "string",
              "name": "name",
              "type": "string"
            },
            {
              "internalType": "string",
              "name": "role",
              "type": "string"
            },
            {
              "internalType": "uint256",
              "name": "rating",
              "type": "uint256"
            },
            {
              "internalType": "string",
              "name": "bio",
              "type": "string"
            },
            {
              "internalType": "string",
              "name": "profilePic",
              "type": "string"
            },
            {
              "internalType": "string",
              "name": "hostTitle",
              "type": "string"
            }
          ],
          "internalType": "struct XTELPT.profile",
          "name": "",
          "type": "tuple"
        }
      ],
      "stateMutability": "view",
      "type": "function"
    },
    {
      "inputs": [
        {
          "internalType": "uint256",
          "name": "_id",
          "type": "uint256"
        }
      ],
      "name": "joinCampaign",
      "outputs": [],
      "stateMutability": "nonpayable",
      "type": "function"
    },
    {
      "inputs": [
        {
          "internalType": "address",
          "name": "_host",
          "type": "address"
        },
        {
          "internalType": "uint256",
          "name": "_id",
          "type": "uint256"
        }
      ],
      "name": "joinMeeting",
      "outputs": [],
      "stateMutability": "payable",
      "type": "function"
    },
    {
      "inputs": [],
      "name": "meetingIndex",
      "outputs": [
        {
          "internalType": "uint256",
          "name": "",
          "type": "uint256"
        }
      ],
      "stateMutability": "view",
      "type": "function"
    },
    {
      "inputs": [],
      "name": "meetingNum",
      "outputs": [
        {
          "internalType": "uint256",
          "name": "",
          "type": "uint256"
        }
      ],
      "stateMutability": "view",
      "type": "function"
    },
    {
      "inputs": [
        {
          "internalType": "bytes",
          "name": "",
          "type": "bytes"
        }
      ],
      "name": "performUpkeep",
      "outputs": [],
      "stateMutability": "nonpayable",
      "type": "function"
    },
    {
      "inputs": [
        {
          "internalType": "uint256",
          "name": "",
          "type": "uint256"
        }
      ],
      "name": "recentCampaignCreator",
      "outputs": [
        {
          "internalType": "address",
          "name": "",
          "type": "address"
        }
      ],
      "stateMutability": "view",
      "type": "function"
    },
    {
      "inputs": [],
      "name": "s_lastTimeStamp",
      "outputs": [
        {
          "internalType": "uint256",
          "name": "",
          "type": "uint256"
        }
      ],
      "stateMutability": "view",
      "type": "function"
    },
    {
      "inputs": [],
      "name": "v_lastTimeStamp",
      "outputs": [
        {
          "internalType": "uint256",
          "name": "",
          "type": "uint256"
        }
      ],
      "stateMutability": "view",
      "type": "function"
    }
  ],
  "transactionHash": "0x34b46428b6dcae102e413d91762a7245ca568062143e2eae4767e383e94e6ff0",
  "args": [],
  "numDeployments": 18,
  "solcInputHash": "d9b9fb135908bab16075c9c9221b8ebf",
  "bytecode": "0x60a06040526040518060400160405280600481526020017f5573657200000000000000000000000000000000000000000000000000000000815250600490805190602001906200005192919062000230565b506040518060400160405280600481526020017f486f737400000000000000000000000000000000000000000000000000000000815250600590805190602001906200009f92919062000230565b506040518060400160405280600581526020017f566f6c756e00000000000000000000000000000000000000000000000000000081525060069080519060200190620000ed92919062000230565b50348015620000fb57600080fd5b5042600281905550426003819055506000600c60003373ffffffffffffffffffffffffffffffffffffffff1673ffffffffffffffffffffffffffffffffffffffff16815260200190815260200160002060006101000a81548160ff0219169083600181111562000170576200016f62000316565b5b02179055506000600d60003373ffffffffffffffffffffffffffffffffffffffff1673ffffffffffffffffffffffffffffffffffffffff16815260200190815260200160002060006101000a81548160ff02191690836001811115620001db57620001da62000316565b5b021790555061a8c060808181525050336000806101000a81548173ffffffffffffffffffffffffffffffffffffffff021916908373ffffffffffffffffffffffffffffffffffffffff16021790555062000374565b8280546200023e90620002e0565b90600052602060002090601f016020900481019282620002625760008555620002ae565b82601f106200027d57805160ff1916838001178555620002ae565b82800160010185558215620002ae579182015b82811115620002ad57825182559160200191906001019062000290565b5b509050620002bd9190620002c1565b5090565b5b80821115620002dc576000816000905550600101620002c2565b5090565b60006002820490506001821680620002f957607f821691505b6020821081141562000310576200030f62000345565b5b50919050565b7f4e487b7100000000000000000000000000000000000000000000000000000000600052602160045260246000fd5b7f4e487b7100000000000000000000000000000000000000000000000000000000600052602260045260246000fd5b608051614cfd620003906000396000611c960152614cfd6000f3fe6080604052600436106101815760003560e01c80637d74311c116100d1578063cb40bf601161008a578063dd0408ae11610064578063dd0408ae146105ad578063e34116de146105d6578063e9323db6146105ff578063fc49d3e61461064557610181565b8063cb40bf6014610525578063d4a82a5814610541578063d7358c5e1461056a57610181565b80637d74311c146104035780637eac3d921461042c578063960ccccc146104695780639dc5368d14610492578063b16cfdd4146104bd578063c5e0cfd0146104fa57610181565b80634585e33b1161013e57806361bc221a1161011857806361bc221a14610344578063680908c91461036f5780636e04ff0d1461039a578063766c21a2146103d857610181565b80634585e33b146102c7578063550c18d7146102f057806356361f0d1461031957610181565b80630f53a470146101865780631007e8c7146101c3578063236b8e3a146101ee57806324b9ed2d146102195780632dd47fc914610256578063348540431461029c575b600080fd5b34801561019257600080fd5b506101ad60048036038101906101a8919061385c565b61066e565b6040516101ba91906146a4565b60405180910390f35b3480156101cf57600080fd5b506101d8610a01565b6040516101e591906146c6565b60405180910390f35b3480156101fa57600080fd5b50610203610a07565b60405161021091906145b0565b60405180910390f35b34801561022557600080fd5b50610240600480360381019061023b919061385c565b610d9a565b60405161024d91906145d2565b60405180910390f35b34801561026257600080fd5b5061027d60048036038101906102789190613889565b610fdf565b6040516102939a999897969594939291906143a8565b60405180910390f35b3480156102a857600080fd5b506102b1611132565b6040516102be91906146c6565b60405180910390f35b3480156102d357600080fd5b506102ee60048036038101906102e991906138c9565b611138565b005b3480156102fc57600080fd5b5061031760048036038101906103129190613aee565b611615565b005b34801561032557600080fd5b5061032e6119ff565b60405161033b91906146c6565b60405180910390f35b34801561035057600080fd5b50610359611a05565b60405161036691906146c6565b60405180910390f35b34801561037b57600080fd5b50610384611a0b565b60405161039191906146c6565b60405180910390f35b3480156103a657600080fd5b506103c160048036038101906103bc9190613916565b611a15565b6040516103cf9291906145f4565b60405180910390f35b3480156103e457600080fd5b506103ed611d02565b6040516103fa91906146c6565b60405180910390f35b34801561040f57600080fd5b5061042a60048036038101906104259190613a33565b611d08565b005b34801561043857600080fd5b50610453600480360381019061044e9190613a06565b612032565b604051610460919061438d565b60405180910390f35b34801561047557600080fd5b50610490600480360381019061048b9190613a06565b612071565b005b34801561049e57600080fd5b506104a761229e565b6040516104b4919061458e565b60405180910390f35b3480156104c957600080fd5b506104e460048036038101906104df9190613a06565b61232c565b6040516104f1919061438d565b60405180910390f35b34801561050657600080fd5b5061050f61236b565b60405161051c91906146c6565b60405180910390f35b61053f600480360381019061053a9190613889565b612375565b005b34801561054d57600080fd5b5061056860048036038101906105639190613a06565b612607565b005b34801561057657600080fd5b50610591600480360381019061058c919061385c565b61275d565b6040516105a497969594939291906144fc565b60405180910390f35b3480156105b957600080fd5b506105d460048036038101906105cf9190613a06565b612a67565b005b3480156105e257600080fd5b506105fd60048036038101906105f8919061395f565b612b9f565b005b34801561060b57600080fd5b5061062660048036038101906106219190613a06565b612e3e565b60405161063c9a9998979695949392919061444b565b60405180910390f35b34801561065157600080fd5b5061066c60048036038101906106679190613bd9565b613087565b005b6106766133e4565b600b60008373ffffffffffffffffffffffffffffffffffffffff1673ffffffffffffffffffffffffffffffffffffffff1681526020019081526020016000206040518060e00160405290816000820160009054906101000a900473ffffffffffffffffffffffffffffffffffffffff1673ffffffffffffffffffffffffffffffffffffffff1673ffffffffffffffffffffffffffffffffffffffff168152602001600182018054610726906149b7565b80601f0160208091040260200160405190810160405280929190818152602001828054610752906149b7565b801561079f5780601f106107745761010080835404028352916020019161079f565b820191906000526020600020905b81548152906001019060200180831161078257829003601f168201915b505050505081526020016002820180546107b8906149b7565b80601f01602080910402602001604051908101604052809291908181526020018280546107e4906149b7565b80156108315780601f1061080657610100808354040283529160200191610831565b820191906000526020600020905b81548152906001019060200180831161081457829003601f168201915b5050505050815260200160038201548152602001600482018054610854906149b7565b80601f0160208091040260200160405190810160405280929190818152602001828054610880906149b7565b80156108cd5780601f106108a2576101008083540402835291602001916108cd565b820191906000526020600020905b8154815290600101906020018083116108b057829003601f168201915b505050505081526020016005820180546108e6906149b7565b80601f0160208091040260200160405190810160405280929190818152602001828054610912906149b7565b801561095f5780601f106109345761010080835404028352916020019161095f565b820191906000526020600020905b81548152906001019060200180831161094257829003601f168201915b50505050508152602001600682018054610978906149b7565b80601f01602080910402602001604051908101604052809291908181526020018280546109a4906149b7565b80156109f15780601f106109c6576101008083540402835291602001916109f1565b820191906000526020600020905b8154815290600101906020018083116109d457829003601f168201915b5050505050815250509050919050565b60035481565b60606008805480602002602001604051908101604052809291908181526020016000905b82821015610d9157838290600052602060002090600b02016040518061016001604052908160008201805480602002602001604051908101604052809291908181526020018280548015610ad457602002820191906000526020600020905b8160009054906101000a900473ffffffffffffffffffffffffffffffffffffffff1673ffffffffffffffffffffffffffffffffffffffff1681526020019060010190808311610a8a575b505050505081526020016001820160009054906101000a900473ffffffffffffffffffffffffffffffffffffffff1673ffffffffffffffffffffffffffffffffffffffff1673ffffffffffffffffffffffffffffffffffffffff1681526020016002820160009054906101000a900473ffffffffffffffffffffffffffffffffffffffff1673ffffffffffffffffffffffffffffffffffffffff1673ffffffffffffffffffffffffffffffffffffffff1681526020016003820154815260200160048201548152602001600582018054610bad906149b7565b80601f0160208091040260200160405190810160405280929190818152602001828054610bd9906149b7565b8015610c265780601f10610bfb57610100808354040283529160200191610c26565b820191906000526020600020905b815481529060010190602001808311610c0957829003601f168201915b5050505050815260200160068201548152602001600782015481526020016008820160009054906101000a900460ff16151515158152602001600982018054610c6e906149b7565b80601f0160208091040260200160405190810160405280929190818152602001828054610c9a906149b7565b8015610ce75780601f10610cbc57610100808354040283529160200191610ce7565b820191906000526020600020905b815481529060010190602001808311610cca57829003601f168201915b50505050508152602001600a82018054610d00906149b7565b80601f0160208091040260200160405190810160405280929190818152602001828054610d2c906149b7565b8015610d795780601f10610d4e57610100808354040283529160200191610d79565b820191906000526020600020905b815481529060010190602001808311610d5c57829003601f168201915b50505050508152505081526020019060010190610a2b565b50505050905090565b6060600760008373ffffffffffffffffffffffffffffffffffffffff1673ffffffffffffffffffffffffffffffffffffffff168152602001908152602001600020805480602002602001604051908101604052809291908181526020016000905b82821015610fd45783829060005260206000209060090201604051806101400160405290816000820160009054906101000a900473ffffffffffffffffffffffffffffffffffffffff1673ffffffffffffffffffffffffffffffffffffffff1673ffffffffffffffffffffffffffffffffffffffff1681526020016001820160009054906101000a900473ffffffffffffffffffffffffffffffffffffffff1673ffffffffffffffffffffffffffffffffffffffff1673ffffffffffffffffffffffffffffffffffffffff1681526020016002820154815260200160038201548152602001600482018054610eef906149b7565b80601f0160208091040260200160405190810160405280929190818152602001828054610f1b906149b7565b8015610f685780601f10610f3d57610100808354040283529160200191610f68565b820191906000526020600020905b815481529060010190602001808311610f4b57829003601f168201915b505050505081526020016005820154815260200160068201548152602001600782015481526020016008820160009054906101000a900460ff161515151581526020016008820160019054906101000a900460ff16151515158152505081526020019060010190610dfb565b505050509050919050565b60076020528160005260406000208181548110610ffb57600080fd5b9060005260206000209060090201600091509150508060000160009054906101000a900473ffffffffffffffffffffffffffffffffffffffff16908060010160009054906101000a900473ffffffffffffffffffffffffffffffffffffffff1690806002015490806003015490806004018054611077906149b7565b80601f01602080910402602001604051908101604052809291908181526020018280546110a3906149b7565b80156110f05780601f106110c5576101008083540402835291602001916110f0565b820191906000526020600020905b8154815290600101906020018083116110d357829003601f168201915b5050505050908060050154908060060154908060070154908060080160009054906101000a900460ff16908060080160019054906101000a900460ff1690508a565b60025481565b60005b600e805490508110156116105760005b60076000600e848154811061116357611162614af0565b5b9060005260206000200160009054906101000a900473ffffffffffffffffffffffffffffffffffffffff1673ffffffffffffffffffffffffffffffffffffffff1673ffffffffffffffffffffffffffffffffffffffff168152602001908152602001600020805490508110156115fc5760006111ed60405180602001604052806000815250611a15565b50905080611230576040517f08c379a000000000000000000000000000000000000000000000000000000000815260040161122790614644565b60405180910390fd5b42600281905550600060076000600e868154811061125157611250614af0565b5b9060005260206000200160009054906101000a900473ffffffffffffffffffffffffffffffffffffffff1673ffffffffffffffffffffffffffffffffffffffff1673ffffffffffffffffffffffffffffffffffffffff16815260200190815260200160002083815481106112c8576112c7614af0565b5b906000526020600020906009020160000160009054906101000a900473ffffffffffffffffffffffffffffffffffffffff1690508073ffffffffffffffffffffffffffffffffffffffff166108fc60076000600e888154811061132e5761132d614af0565b5b9060005260206000200160009054906101000a900473ffffffffffffffffffffffffffffffffffffffff1673ffffffffffffffffffffffffffffffffffffffff1673ffffffffffffffffffffffffffffffffffffffff16815260200190815260200160002085815481106113a5576113a4614af0565b5b9060005260206000209060090201600601549081150290604051600060405180830381858888f193505050501580156113e2573d6000803e3d6000fd5b50600160076000600e87815481106113fd576113fc614af0565b5b9060005260206000200160009054906101000a900473ffffffffffffffffffffffffffffffffffffffff1673ffffffffffffffffffffffffffffffffffffffff1673ffffffffffffffffffffffffffffffffffffffff168152602001908152602001600020848154811061147457611473614af0565b5b906000526020600020906009020160080160006101000a81548160ff0219169083151502179055504260076000600e87815481106114b5576114b4614af0565b5b9060005260206000200160009054906101000a900473ffffffffffffffffffffffffffffffffffffffff1673ffffffffffffffffffffffffffffffffffffffff1673ffffffffffffffffffffffffffffffffffffffff168152602001908152602001600020848154811061152c5761152b614af0565b5b9060005260206000209060090201600301819055506001600c6000600e878154811061155b5761155a614af0565b5b9060005260206000200160009054906101000a900473ffffffffffffffffffffffffffffffffffffffff1673ffffffffffffffffffffffffffffffffffffffff1673ffffffffffffffffffffffffffffffffffffffff16815260200190815260200160002060006101000a81548160ff021916908360018111156115e2576115e1614a92565b5b0217905550505080806115f490614a1a565b91505061114b565b50808061160890614a1a565b91505061113b565b505050565b600073ffffffffffffffffffffffffffffffffffffffff16600b60003373ffffffffffffffffffffffffffffffffffffffff1673ffffffffffffffffffffffffffffffffffffffff16815260200190815260200160002060000160009054906101000a900473ffffffffffffffffffffffffffffffffffffffff1673ffffffffffffffffffffffffffffffffffffffff16141561171057600e339080600181540180825580915050600190039060005260206000200160009091909190916101000a81548173ffffffffffffffffffffffffffffffffffffffff021916908373ffffffffffffffffffffffffffffffffffffffff1602179055505b6000600c60003373ffffffffffffffffffffffffffffffffffffffff1673ffffffffffffffffffffffffffffffffffffffff16815260200190815260200160002060006101000a81548160ff0219169083600181111561177357611772614a92565b5b021790555033600b60003373ffffffffffffffffffffffffffffffffffffffff1673ffffffffffffffffffffffffffffffffffffffff16815260200190815260200160002060000160006101000a81548173ffffffffffffffffffffffffffffffffffffffff021916908373ffffffffffffffffffffffffffffffffffffffff16021790555083600b60003373ffffffffffffffffffffffffffffffffffffffff1673ffffffffffffffffffffffffffffffffffffffff168152602001908152602001600020600101908051906020019061184f929190613437565b5080600b60003373ffffffffffffffffffffffffffffffffffffffff1673ffffffffffffffffffffffffffffffffffffffff16815260200190815260200160002060060190805190602001906118a6929190613437565b5084600b60003373ffffffffffffffffffffffffffffffffffffffff1673ffffffffffffffffffffffffffffffffffffffff168152602001908152602001600020600301819055506005600b60003373ffffffffffffffffffffffffffffffffffffffff1673ffffffffffffffffffffffffffffffffffffffff16815260200190815260200160002060020190805461193e906149b7565b6119499291906134bd565b5082600b60003373ffffffffffffffffffffffffffffffffffffffff1673ffffffffffffffffffffffffffffffffffffffff16815260200190815260200160002060050190805190602001906119a0929190613437565b5081600b60003373ffffffffffffffffffffffffffffffffffffffff1673ffffffffffffffffffffffffffffffffffffffff16815260200190815260200160002060040190805190602001906119f7929190613437565b505050505050565b60095481565b60015481565b6000600a54905090565b6000606060005b600e80549050811015611cfc5760005b60076000600e8481548110611a4457611a43614af0565b5b9060005260206000200160009054906101000a900473ffffffffffffffffffffffffffffffffffffffff1673ffffffffffffffffffffffffffffffffffffffff1673ffffffffffffffffffffffffffffffffffffffff16815260200190815260200160002080549050811015611ce857600060076000600e8581548110611ace57611acd614af0565b5b9060005260206000200160009054906101000a900473ffffffffffffffffffffffffffffffffffffffff1673ffffffffffffffffffffffffffffffffffffffff1673ffffffffffffffffffffffffffffffffffffffff1681526020019081526020016000208281548110611b4557611b44614af0565b5b906000526020600020906009020160050154118015611c1557506000151560076000600e8581548110611b7b57611b7a614af0565b5b9060005260206000200160009054906101000a900473ffffffffffffffffffffffffffffffffffffffff1673ffffffffffffffffffffffffffffffffffffffff1673ffffffffffffffffffffffffffffffffffffffff1681526020019081526020016000208281548110611bf257611bf1614af0565b5b906000526020600020906009020160080160009054906101000a900460ff161515145b15611cd5576000600c60003373ffffffffffffffffffffffffffffffffffffffff1673ffffffffffffffffffffffffffffffffffffffff16815260200190815260200160002060009054906101000a900460ff166001811115611c7b57611c7a614a92565b5b60006001811115611c8f57611c8e614a92565b5b14905060007f000000000000000000000000000000000000000000000000000000000000000060025442611cc391906148e7565b119050818015611cd05750805b955050505b8080611ce090614a1a565b915050611a2c565b508080611cf490614a1a565b915050611a1c565b50915091565b600a5481565b600073ffffffffffffffffffffffffffffffffffffffff16600b60003373ffffffffffffffffffffffffffffffffffffffff1673ffffffffffffffffffffffffffffffffffffffff16815260200190815260200160002060000160009054906101000a900473ffffffffffffffffffffffffffffffffffffffff1673ffffffffffffffffffffffffffffffffffffffff161415611e0357600e339080600181540180825580915050600190039060005260206000200160009091909190916101000a81548173ffffffffffffffffffffffffffffffffffffffff021916908373ffffffffffffffffffffffffffffffffffffffff1602179055505b33600b60003373ffffffffffffffffffffffffffffffffffffffff1673ffffffffffffffffffffffffffffffffffffffff16815260200190815260200160002060000160006101000a81548173ffffffffffffffffffffffffffffffffffffffff021916908373ffffffffffffffffffffffffffffffffffffffff16021790555082600b60003373ffffffffffffffffffffffffffffffffffffffff1673ffffffffffffffffffffffffffffffffffffffff1681526020019081526020016000206001019080519060200190611eda929190613437565b5083600b60003373ffffffffffffffffffffffffffffffffffffffff1673ffffffffffffffffffffffffffffffffffffffff168152602001908152602001600020600301819055506004600b60003373ffffffffffffffffffffffffffffffffffffffff1673ffffffffffffffffffffffffffffffffffffffff168152602001908152602001600020600201908054611f72906149b7565b611f7d9291906134bd565b5081600b60003373ffffffffffffffffffffffffffffffffffffffff1673ffffffffffffffffffffffffffffffffffffffff1681526020019081526020016000206005019080519060200190611fd4929190613437565b5080600b60003373ffffffffffffffffffffffffffffffffffffffff1673ffffffffffffffffffffffffffffffffffffffff168152602001908152602001600020600401908051906020019061202b929190613437565b5050505050565b600e818154811061204257600080fd5b906000526020600020016000915054906101000a900473ffffffffffffffffffffffffffffffffffffffff1681565b60405160200161208090614363565b60405160208183030381529060405280519060200120600b60003373ffffffffffffffffffffffffffffffffffffffff1673ffffffffffffffffffffffffffffffffffffffff1681526020019081526020016000206002016040516020016120e8919061434c565b604051602081830303815290604052805190602001201461213e576040517f08c379a000000000000000000000000000000000000000000000000000000000815260040161213590614624565b60405180910390fd5b336008828154811061215357612152614af0565b5b90600052602060002090600b020160010160006101000a81548173ffffffffffffffffffffffffffffffffffffffff021916908373ffffffffffffffffffffffffffffffffffffffff160217905550600881815481106121b6576121b5614af0565b5b90600052602060002090600b02016000016001600883815481106121dd576121dc614af0565b5b90600052602060002090600b0201600001805490506121fc91906148e7565b8154811061220d5761220c614af0565b5b9060005260206000200160009054906101000a900473ffffffffffffffffffffffffffffffffffffffff166008828154811061224c5761224b614af0565b5b90600052602060002090600b020160020160006101000a81548173ffffffffffffffffffffffffffffffffffffffff021916908373ffffffffffffffffffffffffffffffffffffffff16021790555050565b6060600e80548060200260200160405190810160405280929190818152602001828054801561232257602002820191906000526020600020905b8160009054906101000a900473ffffffffffffffffffffffffffffffffffffffff1673ffffffffffffffffffffffffffffffffffffffff16815260200190600101908083116122d8575b5050505050905090565b600f818154811061233c57600080fd5b906000526020600020016000915054906101000a900473ffffffffffffffffffffffffffffffffffffffff1681565b6000600954905090565b60405160200161238490614363565b60405160208183030381529060405280519060200120600b60003373ffffffffffffffffffffffffffffffffffffffff1673ffffffffffffffffffffffffffffffffffffffff1681526020019081526020016000206002016040516020016123ec919061434c565b6040516020818303038152906040528051906020012014612442576040517f08c379a000000000000000000000000000000000000000000000000000000000815260040161243990614624565b60405180910390fd5b600760008373ffffffffffffffffffffffffffffffffffffffff1673ffffffffffffffffffffffffffffffffffffffff168152602001908152602001600020818154811061249357612492614af0565b5b9060005260206000209060090201600601543410156124e7576040517f08c379a00000000000000000000000000000000000000000000000000000000081526004016124de90614684565b60405180910390fd5b33600760008473ffffffffffffffffffffffffffffffffffffffff1673ffffffffffffffffffffffffffffffffffffffff168152602001908152602001600020828154811061253957612538614af0565b5b906000526020600020906009020160010160006101000a81548173ffffffffffffffffffffffffffffffffffffffff021916908373ffffffffffffffffffffffffffffffffffffffff1602179055506001600760008473ffffffffffffffffffffffffffffffffffffffff1673ffffffffffffffffffffffffffffffffffffffff16815260200190815260200160002082815481106125db576125da614af0565b5b906000526020600020906009020160080160016101000a81548160ff0219169083151502179055505050565b60405160200161261690614378565b60405160208183030381529060405280519060200120600b60003373ffffffffffffffffffffffffffffffffffffffff1673ffffffffffffffffffffffffffffffffffffffff16815260200190815260200160002060020160405160200161267e919061434c565b60405160208183030381529060405280519060200120146126d4576040517f08c379a00000000000000000000000000000000000000000000000000000000081526004016126cb90614664565b60405180910390fd5b600881815481106126e8576126e7614af0565b5b90600052602060002090600b0201600001339080600181540180825580915050600190039060005260206000200160009091909190916101000a81548173ffffffffffffffffffffffffffffffffffffffff021916908373ffffffffffffffffffffffffffffffffffffffff16021790555050565b600b6020528060005260406000206000915090508060000160009054906101000a900473ffffffffffffffffffffffffffffffffffffffff16908060010180546127a6906149b7565b80601f01602080910402602001604051908101604052809291908181526020018280546127d2906149b7565b801561281f5780601f106127f45761010080835404028352916020019161281f565b820191906000526020600020905b81548152906001019060200180831161280257829003601f168201915b505050505090806002018054612834906149b7565b80601f0160208091040260200160405190810160405280929190818152602001828054612860906149b7565b80156128ad5780601f10612882576101008083540402835291602001916128ad565b820191906000526020600020905b81548152906001019060200180831161289057829003601f168201915b5050505050908060030154908060040180546128c8906149b7565b80601f01602080910402602001604051908101604052809291908181526020018280546128f4906149b7565b80156129415780601f1061291657610100808354040283529160200191612941565b820191906000526020600020905b81548152906001019060200180831161292457829003601f168201915b505050505090806005018054612956906149b7565b80601f0160208091040260200160405190810160405280929190818152602001828054612982906149b7565b80156129cf5780601f106129a4576101008083540402835291602001916129cf565b820191906000526020600020905b8154815290600101906020018083116129b257829003601f168201915b5050505050908060060180546129e4906149b7565b80601f0160208091040260200160405190810160405280929190818152602001828054612a10906149b7565b8015612a5d5780601f10612a3257610100808354040283529160200191612a5d565b820191906000526020600020905b815481529060010190602001808311612a4057829003601f168201915b5050505050905087565b604051602001612a7690614363565b60405160208183030381529060405280519060200120600b60003373ffffffffffffffffffffffffffffffffffffffff1673ffffffffffffffffffffffffffffffffffffffff168152602001908152602001600020600201604051602001612ade919061434c565b6040516020818303038152906040528051906020012014612b34576040517f08c379a0000000000000000000000000000000000000000000000000000000008152600401612b2b90614624565b60405180910390fd5b600160088281548110612b4a57612b49614af0565b5b90600052602060002090600b020160080160006101000a81548160ff0219169083151502179055504260088281548110612b8757612b86614af0565b5b90600052602060002090600b02016004018190555050565b60008054906101000a900473ffffffffffffffffffffffffffffffffffffffff1673ffffffffffffffffffffffffffffffffffffffff163373ffffffffffffffffffffffffffffffffffffffff1614612bf757600080fd5b612bff61354a565b4281606001818152505083816101200181905250818160a001819052506009548160e00181815250508281610140018190525060008160c00181815250506000600c60003373ffffffffffffffffffffffffffffffffffffffff1673ffffffffffffffffffffffffffffffffffffffff16815260200190815260200160002060006101000a81548160ff02191690836001811115612ca057612c9f614a92565b5b021790555060088190806001815401808255809150506001900390600052602060002090600b02016000909190919091506000820151816000019080519060200190612ced9291906135d2565b5060208201518160010160006101000a81548173ffffffffffffffffffffffffffffffffffffffff021916908373ffffffffffffffffffffffffffffffffffffffff16021790555060408201518160020160006101000a81548173ffffffffffffffffffffffffffffffffffffffff021916908373ffffffffffffffffffffffffffffffffffffffff160217905550606082015181600301556080820151816004015560a0820151816005019080519060200190612dac929190613437565b5060c0820151816006015560e082015181600701556101008201518160080160006101000a81548160ff021916908315150217905550610120820151816009019080519060200190612dff929190613437565b5061014082015181600a019080519060200190612e1d929190613437565b50505060096000815480929190612e3390614a1a565b919050555050505050565b60088181548110612e4e57600080fd5b90600052602060002090600b02016000915090508060010160009054906101000a900473ffffffffffffffffffffffffffffffffffffffff16908060020160009054906101000a900473ffffffffffffffffffffffffffffffffffffffff1690806003015490806004015490806005018054612ec9906149b7565b80601f0160208091040260200160405190810160405280929190818152602001828054612ef5906149b7565b8015612f425780601f10612f1757610100808354040283529160200191612f42565b820191906000526020600020905b815481529060010190602001808311612f2557829003601f168201915b5050505050908060060154908060070154908060080160009054906101000a900460ff1690806009018054612f76906149b7565b80601f0160208091040260200160405190810160405280929190818152602001828054612fa2906149b7565b8015612fef5780601f10612fc457610100808354040283529160200191612fef565b820191906000526020600020905b815481529060010190602001808311612fd257829003601f168201915b50505050509080600a018054613004906149b7565b80601f0160208091040260200160405190810160405280929190818152602001828054613030906149b7565b801561307d5780601f106130525761010080835404028352916020019161307d565b820191906000526020600020905b81548152906001019060200180831161306057829003601f168201915b505050505090508a565b60405160200161309690614378565b60405160208183030381529060405280519060200120600b60003373ffffffffffffffffffffffffffffffffffffffff1673ffffffffffffffffffffffffffffffffffffffff1681526020019081526020016000206002016040516020016130fe919061434c565b6040516020818303038152906040528051906020012014613154576040517f08c379a000000000000000000000000000000000000000000000000000000000815260040161314b90614664565b60405180910390fd5b61315c61365c565b33816000019073ffffffffffffffffffffffffffffffffffffffff16908173ffffffffffffffffffffffffffffffffffffffff1681525050603c846131a1919061488d565b8160a001818152505081816080018190525084816040018181525050600a548160e0018181525050828160c00181815250506000600c60003373ffffffffffffffffffffffffffffffffffffffff1673ffffffffffffffffffffffffffffffffffffffff16815260200190815260200160002060006101000a81548160ff0219169083600181111561323657613235614a92565b5b0217905550600760003373ffffffffffffffffffffffffffffffffffffffff1673ffffffffffffffffffffffffffffffffffffffff16815260200190815260200160002081908060018154018082558091505060019003906000526020600020906009020160009091909190915060008201518160000160006101000a81548173ffffffffffffffffffffffffffffffffffffffff021916908373ffffffffffffffffffffffffffffffffffffffff16021790555060208201518160010160006101000a81548173ffffffffffffffffffffffffffffffffffffffff021916908373ffffffffffffffffffffffffffffffffffffffff16021790555060408201518160020155606082015181600301556080820151816004019080519060200190613362929190613437565b5060a0820151816005015560c0820151816006015560e082015181600701556101008201518160080160006101000a81548160ff0219169083151502179055506101208201518160080160016101000a81548160ff0219169083151502179055505050600a60008154809291906133d890614a1a565b91905055505050505050565b6040518060e00160405280600073ffffffffffffffffffffffffffffffffffffffff1681526020016060815260200160608152602001600081526020016060815260200160608152602001606081525090565b828054613443906149b7565b90600052602060002090601f01602090048101928261346557600085556134ac565b82601f1061347e57805160ff19168380011785556134ac565b828001600101855582156134ac579182015b828111156134ab578251825591602001919060010190613490565b5b5090506134b991906136df565b5090565b8280546134c9906149b7565b90600052602060002090601f0160209004810192826134eb5760008555613539565b82601f106134fc5780548555613539565b8280016001018555821561353957600052602060002091601f016020900482015b8281111561353857825482559160010191906001019061351d565b5b50905061354691906136df565b5090565b60405180610160016040528060608152602001600073ffffffffffffffffffffffffffffffffffffffff168152602001600073ffffffffffffffffffffffffffffffffffffffff168152602001600081526020016000815260200160608152602001600081526020016000815260200160001515815260200160608152602001606081525090565b82805482825590600052602060002090810192821561364b579160200282015b8281111561364a5782518260006101000a81548173ffffffffffffffffffffffffffffffffffffffff021916908373ffffffffffffffffffffffffffffffffffffffff160217905550916020019190600101906135f2565b5b50905061365891906136df565b5090565b604051806101400160405280600073ffffffffffffffffffffffffffffffffffffffff168152602001600073ffffffffffffffffffffffffffffffffffffffff1681526020016000815260200160008152602001606081526020016000815260200160008152602001600081526020016000151581526020016000151581525090565b5b808211156136f85760008160009055506001016136e0565b5090565b600061370f61370a84614706565b6146e1565b90508281526020810184848401111561372b5761372a614b5d565b5b613736848285614975565b509392505050565b600061375161374c84614737565b6146e1565b90508281526020810184848401111561376d5761376c614b5d565b5b613778848285614975565b509392505050565b60008135905061378f81614c99565b92915050565b60008083601f8401126137ab576137aa614b53565b5b8235905067ffffffffffffffff8111156137c8576137c7614b4e565b5b6020830191508360018202830111156137e4576137e3614b58565b5b9250929050565b600082601f830112613800576137ff614b53565b5b81356138108482602086016136fc565b91505092915050565b600082601f83011261382e5761382d614b53565b5b813561383e84826020860161373e565b91505092915050565b60008135905061385681614cb0565b92915050565b60006020828403121561387257613871614b67565b5b600061388084828501613780565b91505092915050565b600080604083850312156138a05761389f614b67565b5b60006138ae85828601613780565b92505060206138bf85828601613847565b9150509250929050565b600080602083850312156138e0576138df614b67565b5b600083013567ffffffffffffffff8111156138fe576138fd614b62565b5b61390a85828601613795565b92509250509250929050565b60006020828403121561392c5761392b614b67565b5b600082013567ffffffffffffffff81111561394a57613949614b62565b5b613956848285016137eb565b91505092915050565b60008060006060848603121561397857613977614b67565b5b600084013567ffffffffffffffff81111561399657613995614b62565b5b6139a286828701613819565b935050602084013567ffffffffffffffff8111156139c3576139c2614b62565b5b6139cf86828701613819565b925050604084013567ffffffffffffffff8111156139f0576139ef614b62565b5b6139fc86828701613819565b9150509250925092565b600060208284031215613a1c57613a1b614b67565b5b6000613a2a84828501613847565b91505092915050565b60008060008060808587031215613a4d57613a4c614b67565b5b6000613a5b87828801613847565b945050602085013567ffffffffffffffff811115613a7c57613a7b614b62565b5b613a8887828801613819565b935050604085013567ffffffffffffffff811115613aa957613aa8614b62565b5b613ab587828801613819565b925050606085013567ffffffffffffffff811115613ad657613ad5614b62565b5b613ae287828801613819565b91505092959194509250565b600080600080600060a08688031215613b0a57613b09614b67565b5b6000613b1888828901613847565b955050602086013567ffffffffffffffff811115613b3957613b38614b62565b5b613b4588828901613819565b945050604086013567ffffffffffffffff811115613b6657613b65614b62565b5b613b7288828901613819565b935050606086013567ffffffffffffffff811115613b9357613b92614b62565b5b613b9f88828901613819565b925050608086013567ffffffffffffffff811115613bc057613bbf614b62565b5b613bcc88828901613819565b9150509295509295909350565b60008060008060808587031215613bf357613bf2614b67565b5b6000613c0187828801613847565b9450506020613c1287828801613847565b9350506040613c2387828801613847565b925050606085013567ffffffffffffffff811115613c4457613c43614b62565b5b613c5087828801613819565b91505092959194509250565b6000613c688383613cba565b60208301905092915050565b6000613c808383614098565b905092915050565b6000613c94838361419c565b905092915050565b613ca58161492d565b82525050565b613cb48161492d565b82525050565b613cc38161491b565b82525050565b613cd28161491b565b82525050565b6000613ce3826147ad565b613ced818561480b565b9350613cf883614768565b8060005b83811015613d29578151613d108882613c5c565b9750613d1b836147e4565b925050600181019050613cfc565b5085935050505092915050565b6000613d41826147ad565b613d4b818561481c565b9350613d5683614768565b8060005b83811015613d87578151613d6e8882613c5c565b9750613d79836147e4565b925050600181019050613d5a565b5085935050505092915050565b6000613d9f826147b8565b613da9818561482d565b935083602082028501613dbb85614778565b8060005b85811015613df75784840389528151613dd88582613c74565b9450613de3836147f1565b925060208a01995050600181019050613dbf565b50829750879550505050505092915050565b6000613e14826147c3565b613e1e818561483e565b935083602082028501613e3085614788565b8060005b85811015613e6c5784840389528151613e4d8582613c88565b9450613e58836147fe565b925060208a01995050600181019050613e34565b50829750879550505050505092915050565b613e878161493f565b82525050565b613e968161493f565b82525050565b6000613ea7826147ce565b613eb1818561484f565b9350613ec1818560208601614984565b613eca81614b6c565b840191505092915050565b6000613ee0826147d9565b613eea8185614860565b9350613efa818560208601614984565b613f0381614b6c565b840191505092915050565b6000613f19826147d9565b613f238185614871565b9350613f33818560208601614984565b613f3c81614b6c565b840191505092915050565b60008154613f54816149b7565b613f5e8186614882565b94506001821660008114613f795760018114613f8a57613fbd565b60ff19831686528186019350613fbd565b613f9385614798565b60005b83811015613fb557815481890152600182019150602081019050613f96565b838801955050505b50505092915050565b6000613fd3600a83614871565b9150613fde82614b7d565b602082019050919050565b6000613ff6600483614882565b915061400182614ba6565b600482019050919050565b6000614019602383614871565b915061402482614bcf565b604082019050919050565b600061403c600483614882565b915061404782614c1e565b600482019050919050565b600061405f600a83614871565b915061406a82614c47565b602082019050919050565b6000614082601383614871565b915061408d82614c70565b602082019050919050565b60006101608301600083015184820360008601526140b68282613cd8565b91505060208301516140cb6020860182613cba565b5060408301516140de6040860182613cba565b5060608301516140f1606086018261432e565b506080830151614104608086018261432e565b5060a083015184820360a086015261411c8282613ed5565b91505060c083015161413160c086018261432e565b5060e083015161414460e086018261432e565b50610100830151614159610100860182613e7e565b506101208301518482036101208601526141738282613ed5565b91505061014083015184820361014086015261418f8282613ed5565b9150508091505092915050565b6000610140830160008301516141b56000860182613c9c565b5060208301516141c86020860182613c9c565b5060408301516141db604086018261432e565b5060608301516141ee606086018261432e565b50608083015184820360808601526142068282613ed5565b91505060a083015161421b60a086018261432e565b5060c083015161422e60c086018261432e565b5060e083015161424160e086018261432e565b50610100830151614256610100860182613e7e565b5061012083015161426b610120860182613e7e565b508091505092915050565b600060e08301600083015161428e6000860182613cba565b50602083015184820360208601526142a68282613ed5565b915050604083015184820360408601526142c08282613ed5565b91505060608301516142d5606086018261432e565b50608083015184820360808601526142ed8282613ed5565b91505060a083015184820360a08601526143078282613ed5565b91505060c083015184820360c08601526143218282613ed5565b9150508091505092915050565b6143378161496b565b82525050565b6143468161496b565b82525050565b60006143588284613f47565b915081905092915050565b600061436e82613fe9565b9150819050919050565b60006143838261402f565b9150819050919050565b60006020820190506143a26000830184613cc9565b92915050565b6000610140820190506143be600083018d613cab565b6143cb602083018c613cab565b6143d8604083018b61433d565b6143e5606083018a61433d565b81810360808301526143f78189613f0e565b905061440660a083018861433d565b61441360c083018761433d565b61442060e083018661433d565b61442e610100830185613e8d565b61443c610120830184613e8d565b9b9a5050505050505050505050565b600061014082019050614461600083018d613cc9565b61446e602083018c613cc9565b61447b604083018b61433d565b614488606083018a61433d565b818103608083015261449a8189613f0e565b90506144a960a083018861433d565b6144b660c083018761433d565b6144c360e0830186613e8d565b8181036101008301526144d68185613f0e565b90508181036101208301526144eb8184613f0e565b90509b9a5050505050505050505050565b600060e082019050614511600083018a613cc9565b81810360208301526145238189613f0e565b905081810360408301526145378188613f0e565b9050614546606083018761433d565b81810360808301526145588186613f0e565b905081810360a083015261456c8185613f0e565b905081810360c08301526145808184613f0e565b905098975050505050505050565b600060208201905081810360008301526145a88184613d36565b905092915050565b600060208201905081810360008301526145ca8184613d94565b905092915050565b600060208201905081810360008301526145ec8184613e09565b905092915050565b60006040820190506146096000830185613e8d565b818103602083015261461b8184613e9c565b90509392505050565b6000602082019050818103600083015261463d81613fc6565b9050919050565b6000602082019050818103600083015261465d8161400c565b9050919050565b6000602082019050818103600083015261467d81614052565b9050919050565b6000602082019050818103600083015261469d81614075565b9050919050565b600060208201905081810360008301526146be8184614276565b905092915050565b60006020820190506146db600083018461433d565b92915050565b60006146eb6146fc565b90506146f782826149e9565b919050565b6000604051905090565b600067ffffffffffffffff82111561472157614720614b1f565b5b61472a82614b6c565b9050602081019050919050565b600067ffffffffffffffff82111561475257614751614b1f565b5b61475b82614b6c565b9050602081019050919050565b6000819050602082019050919050565b6000819050602082019050919050565b6000819050602082019050919050565b60008190508160005260206000209050919050565b600081519050919050565b600081519050919050565b600081519050919050565b600081519050919050565b600081519050919050565b6000602082019050919050565b6000602082019050919050565b6000602082019050919050565b600082825260208201905092915050565b600082825260208201905092915050565b600082825260208201905092915050565b600082825260208201905092915050565b600082825260208201905092915050565b600082825260208201905092915050565b600082825260208201905092915050565b600081905092915050565b60006148988261496b565b91506148a38361496b565b9250817fffffffffffffffffffffffffffffffffffffffffffffffffffffffffffffffff04831182151516156148dc576148db614a63565b5b828202905092915050565b60006148f28261496b565b91506148fd8361496b565b9250828210156149105761490f614a63565b5b828203905092915050565b60006149268261494b565b9050919050565b60006149388261494b565b9050919050565b60008115159050919050565b600073ffffffffffffffffffffffffffffffffffffffff82169050919050565b6000819050919050565b82818337600083830152505050565b60005b838110156149a2578082015181840152602081019050614987565b838111156149b1576000848401525b50505050565b600060028204905060018216806149cf57607f821691505b602082108114156149e3576149e2614ac1565b5b50919050565b6149f282614b6c565b810181811067ffffffffffffffff82111715614a1157614a10614b1f565b5b80604052505050565b6000614a258261496b565b91507fffffffffffffffffffffffffffffffffffffffffffffffffffffffffffffffff821415614a5857614a57614a63565b5b600182019050919050565b7f4e487b7100000000000000000000000000000000000000000000000000000000600052601160045260246000fd5b7f4e487b7100000000000000000000000000000000000000000000000000000000600052602160045260246000fd5b7f4e487b7100000000000000000000000000000000000000000000000000000000600052602260045260246000fd5b7f4e487b7100000000000000000000000000000000000000000000000000000000600052603260045260246000fd5b7f4e487b7100000000000000000000000000000000000000000000000000000000600052604160045260246000fd5b600080fd5b600080fd5b600080fd5b600080fd5b600080fd5b600080fd5b6000601f19601f8301169050919050565b7f4e4f542041205553455200000000000000000000000000000000000000000000600082015250565b7f5573657200000000000000000000000000000000000000000000000000000000600082015250565b7f446f65736e2774206d65657420726571756972656d656e7420666f722055704b60008201527f6565700000000000000000000000000000000000000000000000000000000000602082015250565b7f486f737400000000000000000000000000000000000000000000000000000000600082015250565b7f4e4f54204120484f535400000000000000000000000000000000000000000000600082015250565b7f496e73756666696369656e7420616d6f756e7400000000000000000000000000600082015250565b614ca28161491b565b8114614cad57600080fd5b50565b614cb98161496b565b8114614cc457600080fd5b5056fea2646970667358221220373a19e2a009c2567f228f712eaabfc1f1ab40f96bf736009f6256945dd8bafa64736f6c63430008070033",
  "devdoc": {
    "kind": "dev",
    "methods": {
      "checkUpkeep(bytes)": {
        "details": "This is the function that the Chainlink Keeper nodes call they look for `upkeepNeeded` to return True. the following should be true for this to return true: 1. It makes sure that the campaign or meeting is not yet completed 2. The time interval has passed for either meeting or campaign."
      },
      "constructor": {
        "details": "constructor used to assign values that will not change"
      },
      "createCampaign(string,string,string)": {
        "details": "This function `createCampaign` allows only the User to call it hence the `OnlyUser` modifier after which any avaliable volunteer would be assigned to the campaign"
      },
      "createHost(uint256,string,string,string,string)": {
        "details": "This function `createHost` any body can call this functions and the senders profile would be set to that of a `Host`"
      },
      "createSchedule(uint256,uint256,uint256,string)": {
        "details": "This function `createSchedule` allows only the Host to call it hence the `OnlyHost` modifier after which a Host can create a meeting with some parameters like time and fee needed"
      },
      "createUser(uint256,string,string,string)": {
        "details": "This function `createUser` any body can call this functions and the senders profile would be set to that of a `User`"
      },
      "endCampaign(uint256)": {
        "details": "This function `endCampaign` allows only the User end the campaign"
      },
      "getHelp(uint256)": {
        "details": "This function `getHelo` allows only the User to call it hence the `OnlyUser` modifier after which the Campaign ID is specified and the user would be assigned to the Campaign"
      },
      "joinCampaign(uint256)": {
        "details": "This function `joinCampaign` allows only the User to call it hence the `onlyHost` modifier after which the Campaign ID is specified and the user would be assigned to the Campaign"
      },
      "joinMeeting(address,uint256)": {
        "details": "This function `joinMeeting` allows only the User to call it hence the `OnlyUser` modifier after which the meeting ID is specified and the user would be assigned to the meeting"
      },
      "performUpkeep(bytes)": {
        "details": "Once `checkUpkeep` is returning `true`, this function is called"
      }
    },
    "version": 1
  },
  "userdoc": {
    "kind": "user",
    "methods": {
      "meetingNum()": {
        "notice": "Getter Functions "
      }
    },
    "version": 1
  },
  "storageLayout": {
    "storage": [
      {
        "astId": 20,
        "contract": "contracts/XTELPT.sol:XTELPT",
        "label": "owner",
        "offset": 0,
        "slot": "0",
        "type": "t_address"
      },
      {
        "astId": 25,
        "contract": "contracts/XTELPT.sol:XTELPT",
        "label": "counter",
        "offset": 0,
        "slot": "1",
        "type": "t_uint256"
      },
      {
        "astId": 29,
        "contract": "contracts/XTELPT.sol:XTELPT",
        "label": "s_lastTimeStamp",
        "offset": 0,
        "slot": "2",
        "type": "t_uint256"
      },
      {
        "astId": 31,
        "contract": "contracts/XTELPT.sol:XTELPT",
        "label": "v_lastTimeStamp",
        "offset": 0,
        "slot": "3",
        "type": "t_uint256"
      },
      {
        "astId": 34,
        "contract": "contracts/XTELPT.sol:XTELPT",
        "label": "userType",
        "offset": 0,
        "slot": "4",
        "type": "t_string_storage"
      },
      {
        "astId": 37,
        "contract": "contracts/XTELPT.sol:XTELPT",
        "label": "hostType",
        "offset": 0,
        "slot": "5",
        "type": "t_string_storage"
      },
      {
        "astId": 40,
        "contract": "contracts/XTELPT.sol:XTELPT",
        "label": "volunType",
        "offset": 0,
        "slot": "6",
        "type": "t_string_storage"
      },
      {
        "astId": 46,
        "contract": "contracts/XTELPT.sol:XTELPT",
        "label": "Meeting",
        "offset": 0,
        "slot": "7",
        "type": "t_mapping(t_address,t_array(t_struct(meeting)111_storage)dyn_storage)"
      },
      {
        "astId": 50,
        "contract": "contracts/XTELPT.sol:XTELPT",
        "label": "Campaign",
        "offset": 0,
        "slot": "8",
        "type": "t_array(t_struct(campaign)135_storage)dyn_storage"
      },
      {
        "astId": 52,
        "contract": "contracts/XTELPT.sol:XTELPT",
        "label": "campaignIndex",
        "offset": 0,
        "slot": "9",
        "type": "t_uint256"
      },
      {
        "astId": 54,
        "contract": "contracts/XTELPT.sol:XTELPT",
        "label": "meetingIndex",
        "offset": 0,
        "slot": "10",
        "type": "t_uint256"
      },
      {
        "astId": 59,
        "contract": "contracts/XTELPT.sol:XTELPT",
        "label": "UserProfile",
        "offset": 0,
        "slot": "11",
        "type": "t_mapping(t_address,t_struct(profile)90_storage)"
      },
      {
        "astId": 64,
        "contract": "contracts/XTELPT.sol:XTELPT",
        "label": "s_xtelpState",
        "offset": 0,
        "slot": "12",
        "type": "t_mapping(t_address,t_enum(XTELPState)23)"
      },
      {
        "astId": 69,
        "contract": "contracts/XTELPT.sol:XTELPT",
        "label": "volunState",
        "offset": 0,
        "slot": "13",
        "type": "t_mapping(t_address,t_enum(XTELPState)23)"
      },
      {
        "astId": 72,
        "contract": "contracts/XTELPT.sol:XTELPT",
        "label": "AllAccount",
        "offset": 0,
        "slot": "14",
        "type": "t_array(t_address)dyn_storage"
      },
      {
        "astId": 75,
        "contract": "contracts/XTELPT.sol:XTELPT",
        "label": "recentCampaignCreator",
        "offset": 0,
        "slot": "15",
        "type": "t_array(t_address)dyn_storage"
      }
    ],
    "types": {
      "t_address": {
        "encoding": "inplace",
        "label": "address",
        "numberOfBytes": "20"
      },
      "t_address_payable": {
        "encoding": "inplace",
        "label": "address payable",
        "numberOfBytes": "20"
      },
      "t_array(t_address)dyn_storage": {
        "base": "t_address",
        "encoding": "dynamic_array",
        "label": "address[]",
        "numberOfBytes": "32"
      },
      "t_array(t_struct(campaign)135_storage)dyn_storage": {
        "base": "t_struct(campaign)135_storage",
        "encoding": "dynamic_array",
        "label": "struct XTELPT.campaign[]",
        "numberOfBytes": "32"
      },
      "t_array(t_struct(meeting)111_storage)dyn_storage": {
        "base": "t_struct(meeting)111_storage",
        "encoding": "dynamic_array",
        "label": "struct XTELPT.meeting[]",
        "numberOfBytes": "32"
      },
      "t_bool": {
        "encoding": "inplace",
        "label": "bool",
        "numberOfBytes": "1"
      },
      "t_enum(XTELPState)23": {
        "encoding": "inplace",
        "label": "enum XTELPT.XTELPState",
        "numberOfBytes": "1"
      },
      "t_mapping(t_address,t_array(t_struct(meeting)111_storage)dyn_storage)": {
        "encoding": "mapping",
        "key": "t_address",
        "label": "mapping(address => struct XTELPT.meeting[])",
        "numberOfBytes": "32",
        "value": "t_array(t_struct(meeting)111_storage)dyn_storage"
      },
      "t_mapping(t_address,t_enum(XTELPState)23)": {
        "encoding": "mapping",
        "key": "t_address",
        "label": "mapping(address => enum XTELPT.XTELPState)",
        "numberOfBytes": "32",
        "value": "t_enum(XTELPState)23"
      },
      "t_mapping(t_address,t_struct(profile)90_storage)": {
        "encoding": "mapping",
        "key": "t_address",
        "label": "mapping(address => struct XTELPT.profile)",
        "numberOfBytes": "32",
        "value": "t_struct(profile)90_storage"
      },
      "t_string_storage": {
        "encoding": "bytes",
        "label": "string",
        "numberOfBytes": "32"
      },
      "t_struct(campaign)135_storage": {
        "encoding": "inplace",
        "label": "struct XTELPT.campaign",
        "members": [
          {
            "astId": 114,
            "contract": "contracts/XTELPT.sol:XTELPT",
            "label": "volunteer",
            "offset": 0,
            "slot": "0",
            "type": "t_array(t_address)dyn_storage"
          },
          {
            "astId": 116,
            "contract": "contracts/XTELPT.sol:XTELPT",
            "label": "user",
            "offset": 0,
            "slot": "1",
            "type": "t_address"
          },
          {
            "astId": 118,
            "contract": "contracts/XTELPT.sol:XTELPT",
            "label": "vol",
            "offset": 0,
            "slot": "2",
            "type": "t_address"
          },
          {
            "astId": 120,
            "contract": "contracts/XTELPT.sol:XTELPT",
            "label": "start_time",
            "offset": 0,
            "slot": "3",
            "type": "t_uint256"
          },
          {
            "astId": 122,
            "contract": "contracts/XTELPT.sol:XTELPT",
            "label": "end_time",
            "offset": 0,
            "slot": "4",
            "type": "t_uint256"
          },
          {
            "astId": 124,
            "contract": "contracts/XTELPT.sol:XTELPT",
            "label": "image",
            "offset": 0,
            "slot": "5",
            "type": "t_string_storage"
          },
          {
            "astId": 126,
            "contract": "contracts/XTELPT.sol:XTELPT",
            "label": "fee",
            "offset": 0,
            "slot": "6",
            "type": "t_uint256"
          },
          {
            "astId": 128,
            "contract": "contracts/XTELPT.sol:XTELPT",
            "label": "index",
            "offset": 0,
            "slot": "7",
            "type": "t_uint256"
          },
          {
            "astId": 130,
            "contract": "contracts/XTELPT.sol:XTELPT",
            "label": "completed",
            "offset": 0,
            "slot": "8",
            "type": "t_bool"
          },
          {
            "astId": 132,
            "contract": "contracts/XTELPT.sol:XTELPT",
            "label": "name",
            "offset": 0,
            "slot": "9",
            "type": "t_string_storage"
          },
          {
            "astId": 134,
            "contract": "contracts/XTELPT.sol:XTELPT",
            "label": "desc",
            "offset": 0,
            "slot": "10",
            "type": "t_string_storage"
          }
        ],
        "numberOfBytes": "352"
      },
      "t_struct(meeting)111_storage": {
        "encoding": "inplace",
        "label": "struct XTELPT.meeting",
        "members": [
          {
            "astId": 92,
            "contract": "contracts/XTELPT.sol:XTELPT",
            "label": "host",
            "offset": 0,
            "slot": "0",
            "type": "t_address_payable"
          },
          {
            "astId": 94,
            "contract": "contracts/XTELPT.sol:XTELPT",
            "label": "user",
            "offset": 0,
            "slot": "1",
            "type": "t_address_payable"
          },
          {
            "astId": 96,
            "contract": "contracts/XTELPT.sol:XTELPT",
            "label": "start",
            "offset": 0,
            "slot": "2",
            "type": "t_uint256"
          },
          {
            "astId": 98,
            "contract": "contracts/XTELPT.sol:XTELPT",
            "label": "end",
            "offset": 0,
            "slot": "3",
            "type": "t_uint256"
          },
          {
            "astId": 100,
            "contract": "contracts/XTELPT.sol:XTELPT",
            "label": "desc",
            "offset": 0,
            "slot": "4",
            "type": "t_string_storage"
          },
          {
            "astId": 102,
            "contract": "contracts/XTELPT.sol:XTELPT",
            "label": "time",
            "offset": 0,
            "slot": "5",
            "type": "t_uint256"
          },
          {
            "astId": 104,
            "contract": "contracts/XTELPT.sol:XTELPT",
            "label": "fee",
            "offset": 0,
            "slot": "6",
            "type": "t_uint256"
          },
          {
            "astId": 106,
            "contract": "contracts/XTELPT.sol:XTELPT",
            "label": "index",
            "offset": 0,
            "slot": "7",
            "type": "t_uint256"
          },
          {
            "astId": 108,
            "contract": "contracts/XTELPT.sol:XTELPT",
            "label": "completed",
            "offset": 0,
            "slot": "8",
            "type": "t_bool"
          },
          {
            "astId": 110,
            "contract": "contracts/XTELPT.sol:XTELPT",
            "label": "booked",
            "offset": 1,
            "slot": "8",
            "type": "t_bool"
          }
        ],
        "numberOfBytes": "288"
      },
      "t_struct(profile)90_storage": {
        "encoding": "inplace",
        "label": "struct XTELPT.profile",
        "members": [
          {
            "astId": 77,
            "contract": "contracts/XTELPT.sol:XTELPT",
            "label": "addr",
            "offset": 0,
            "slot": "0",
            "type": "t_address"
          },
          {
            "astId": 79,
            "contract": "contracts/XTELPT.sol:XTELPT",
            "label": "name",
            "offset": 0,
            "slot": "1",
            "type": "t_string_storage"
          },
          {
            "astId": 81,
            "contract": "contracts/XTELPT.sol:XTELPT",
            "label": "role",
            "offset": 0,
            "slot": "2",
            "type": "t_string_storage"
          },
          {
            "astId": 83,
            "contract": "contracts/XTELPT.sol:XTELPT",
            "label": "rating",
            "offset": 0,
            "slot": "3",
            "type": "t_uint256"
          },
          {
            "astId": 85,
            "contract": "contracts/XTELPT.sol:XTELPT",
            "label": "bio",
            "offset": 0,
            "slot": "4",
            "type": "t_string_storage"
          },
          {
            "astId": 87,
            "contract": "contracts/XTELPT.sol:XTELPT",
            "label": "profilePic",
            "offset": 0,
            "slot": "5",
            "type": "t_string_storage"
          },
          {
            "astId": 89,
            "contract": "contracts/XTELPT.sol:XTELPT",
            "label": "hostTitle",
            "offset": 0,
            "slot": "6",
            "type": "t_string_storage"
          }
        ],
        "numberOfBytes": "224"
      },
      "t_uint256": {
        "encoding": "inplace",
        "label": "uint256",
        "numberOfBytes": "32"
      }
    }
  }
}