{
  "address": "0x3C8472f1934f9a09c55041f325aBE528AfCb1388",
  "abi": [
    {
      "inputs": [],
      "stateMutability": "nonpayable",
      "type": "constructor"
    },
    {
      "anonymous": false,
      "inputs": [
        {
          "indexed": true,
          "internalType": "uint256",
          "name": "requestId",
          "type": "uint256"
        }
      ],
      "name": "RequestedID",
      "type": "event"
    },
    {
      "inputs": [
        {
          "internalType": "uint256",
          "name": "",
          "type": "uint256"
        }
      ],
      "name": "AllAccount",
      "outputs": [
        {
          "internalType": "address",
          "name": "",
          "type": "address"
        }
      ],
      "stateMutability": "view",
      "type": "function"
    },
    {
      "inputs": [
        {
          "internalType": "uint256",
          "name": "",
          "type": "uint256"
        }
      ],
      "name": "Campaign",
      "outputs": [
        {
          "internalType": "address",
          "name": "user",
          "type": "address"
        },
        {
          "internalType": "address",
          "name": "vol",
          "type": "address"
        },
        {
          "internalType": "uint256",
          "name": "start_time",
          "type": "uint256"
        },
        {
          "internalType": "uint256",
          "name": "end_time",
          "type": "uint256"
        },
        {
          "internalType": "string",
          "name": "image",
          "type": "string"
        },
        {
          "internalType": "uint256",
          "name": "fee",
          "type": "uint256"
        },
        {
          "internalType": "uint256",
          "name": "index",
          "type": "uint256"
        },
        {
          "internalType": "bool",
          "name": "completed",
          "type": "bool"
        },
        {
          "internalType": "string",
          "name": "name",
          "type": "string"
        },
        {
          "internalType": "string",
          "name": "desc",
          "type": "string"
        }
      ],
      "stateMutability": "view",
      "type": "function"
    },
    {
      "inputs": [
        {
          "internalType": "address",
          "name": "",
          "type": "address"
        },
        {
          "internalType": "uint256",
          "name": "",
          "type": "uint256"
        }
      ],
      "name": "Meeting",
      "outputs": [
        {
          "internalType": "address payable",
          "name": "host",
          "type": "address"
        },
        {
          "internalType": "address payable",
          "name": "user",
          "type": "address"
        },
        {
          "internalType": "uint256",
          "name": "start",
          "type": "uint256"
        },
        {
          "internalType": "uint256",
          "name": "end",
          "type": "uint256"
        },
        {
          "internalType": "string",
          "name": "desc",
          "type": "string"
        },
        {
          "internalType": "uint256",
          "name": "time",
          "type": "uint256"
        },
        {
          "internalType": "uint256",
          "name": "fee",
          "type": "uint256"
        },
        {
          "internalType": "uint256",
          "name": "index",
          "type": "uint256"
        },
        {
          "internalType": "bool",
          "name": "completed",
          "type": "bool"
        },
        {
          "internalType": "bool",
          "name": "booked",
          "type": "bool"
        }
      ],
      "stateMutability": "view",
      "type": "function"
    },
    {
      "inputs": [
        {
          "internalType": "address",
          "name": "",
          "type": "address"
        }
      ],
      "name": "UserProfile",
      "outputs": [
        {
          "internalType": "address",
          "name": "addr",
          "type": "address"
        },
        {
          "internalType": "string",
          "name": "name",
          "type": "string"
        },
        {
          "internalType": "string",
          "name": "role",
          "type": "string"
        },
        {
          "internalType": "uint256",
          "name": "rating",
          "type": "uint256"
        },
        {
          "internalType": "string",
          "name": "bio",
          "type": "string"
        },
        {
          "internalType": "string",
          "name": "profilePic",
          "type": "string"
        },
        {
          "internalType": "string",
          "name": "hostTitle",
          "type": "string"
        }
      ],
      "stateMutability": "view",
      "type": "function"
    },
    {
      "inputs": [],
      "name": "campaignIndex",
      "outputs": [
        {
          "internalType": "uint256",
          "name": "",
          "type": "uint256"
        }
      ],
      "stateMutability": "view",
      "type": "function"
    },
    {
      "inputs": [],
      "name": "campaignNum",
      "outputs": [
        {
          "internalType": "uint256",
          "name": "",
          "type": "uint256"
        }
      ],
      "stateMutability": "view",
      "type": "function"
    },
    {
      "inputs": [],
      "name": "counter",
      "outputs": [
        {
          "internalType": "uint256",
          "name": "",
          "type": "uint256"
        }
      ],
      "stateMutability": "view",
      "type": "function"
    },
    {
      "inputs": [
        {
          "internalType": "string",
          "name": "_name",
          "type": "string"
        },
        {
          "internalType": "string",
          "name": "_desc",
          "type": "string"
        },
        {
          "internalType": "string",
          "name": "_image",
          "type": "string"
        }
      ],
      "name": "createCampaign",
      "outputs": [],
      "stateMutability": "nonpayable",
      "type": "function"
    },
    {
      "inputs": [
        {
          "internalType": "uint256",
          "name": "_rating",
          "type": "uint256"
        },
        {
          "internalType": "string",
          "name": "_name",
          "type": "string"
        },
        {
          "internalType": "string",
          "name": "_pic",
          "type": "string"
        },
        {
          "internalType": "string",
          "name": "_bio",
          "type": "string"
        },
        {
          "internalType": "string",
          "name": "_title",
          "type": "string"
        }
      ],
      "name": "createHost",
      "outputs": [],
      "stateMutability": "nonpayable",
      "type": "function"
    },
    {
      "inputs": [
        {
          "internalType": "uint256",
          "name": "_start",
          "type": "uint256"
        },
        {
          "internalType": "uint256",
          "name": "_end",
          "type": "uint256"
        },
        {
          "internalType": "uint256",
          "name": "_fee",
          "type": "uint256"
        },
        {
          "internalType": "string",
          "name": "_desc",
          "type": "string"
        }
      ],
      "name": "createSchedule",
      "outputs": [],
      "stateMutability": "nonpayable",
      "type": "function"
    },
    {
      "inputs": [
        {
          "internalType": "uint256",
          "name": "_rating",
          "type": "uint256"
        },
        {
          "internalType": "string",
          "name": "_name",
          "type": "string"
        },
        {
          "internalType": "string",
          "name": "_pic",
          "type": "string"
        },
        {
          "internalType": "string",
          "name": "_bio",
          "type": "string"
        }
      ],
      "name": "createUser",
      "outputs": [],
      "stateMutability": "nonpayable",
      "type": "function"
    },
    {
      "inputs": [
        {
          "internalType": "uint256",
          "name": "_id",
          "type": "uint256"
        },
        {
          "internalType": "string",
          "name": "_name",
          "type": "string"
        },
        {
          "internalType": "string",
          "name": "_desc",
          "type": "string"
        },
        {
          "internalType": "string",
          "name": "_image",
          "type": "string"
        }
      ],
      "name": "editCampaign",
      "outputs": [],
      "stateMutability": "nonpayable",
      "type": "function"
    },
    {
      "inputs": [
        {
          "internalType": "uint256",
          "name": "_id",
          "type": "uint256"
        }
      ],
      "name": "endCampaign",
      "outputs": [],
      "stateMutability": "nonpayable",
      "type": "function"
    },
    {
      "inputs": [],
      "name": "endMeeting",
      "outputs": [],
      "stateMutability": "nonpayable",
      "type": "function"
    },
    {
      "inputs": [],
      "name": "getAllAccount",
      "outputs": [
        {
          "internalType": "address[]",
          "name": "",
          "type": "address[]"
        }
      ],
      "stateMutability": "view",
      "type": "function"
    },
    {
      "inputs": [],
      "name": "getCampaign",
      "outputs": [
        {
          "components": [
            {
              "internalType": "address[]",
              "name": "volunteer",
              "type": "address[]"
            },
            {
              "internalType": "address",
              "name": "user",
              "type": "address"
            },
            {
              "internalType": "address",
              "name": "vol",
              "type": "address"
            },
            {
              "internalType": "uint256",
              "name": "start_time",
              "type": "uint256"
            },
            {
              "internalType": "uint256",
              "name": "end_time",
              "type": "uint256"
            },
            {
              "internalType": "string",
              "name": "image",
              "type": "string"
            },
            {
              "internalType": "uint256",
              "name": "fee",
              "type": "uint256"
            },
            {
              "internalType": "uint256",
              "name": "index",
              "type": "uint256"
            },
            {
              "internalType": "bool",
              "name": "completed",
              "type": "bool"
            },
            {
              "internalType": "string",
              "name": "name",
              "type": "string"
            },
            {
              "internalType": "string",
              "name": "desc",
              "type": "string"
            }
          ],
          "internalType": "struct XTELPT.campaign[]",
          "name": "",
          "type": "tuple[]"
        }
      ],
      "stateMutability": "view",
      "type": "function"
    },
    {
      "inputs": [
        {
          "internalType": "uint256",
          "name": "_id",
          "type": "uint256"
        }
      ],
      "name": "getHelp",
      "outputs": [],
      "stateMutability": "nonpayable",
      "type": "function"
    },
    {
      "inputs": [
        {
          "internalType": "address",
          "name": "_prof",
          "type": "address"
        }
      ],
      "name": "getMeeting",
      "outputs": [
        {
          "components": [
            {
              "internalType": "address payable",
              "name": "host",
              "type": "address"
            },
            {
              "internalType": "address payable",
              "name": "user",
              "type": "address"
            },
            {
              "internalType": "uint256",
              "name": "start",
              "type": "uint256"
            },
            {
              "internalType": "uint256",
              "name": "end",
              "type": "uint256"
            },
            {
              "internalType": "string",
              "name": "desc",
              "type": "string"
            },
            {
              "internalType": "uint256",
              "name": "time",
              "type": "uint256"
            },
            {
              "internalType": "uint256",
              "name": "fee",
              "type": "uint256"
            },
            {
              "internalType": "uint256",
              "name": "index",
              "type": "uint256"
            },
            {
              "internalType": "bool",
              "name": "completed",
              "type": "bool"
            },
            {
              "internalType": "bool",
              "name": "booked",
              "type": "bool"
            }
          ],
          "internalType": "struct XTELPT.meeting[]",
          "name": "",
          "type": "tuple[]"
        }
      ],
      "stateMutability": "view",
      "type": "function"
    },
    {
      "inputs": [
        {
          "internalType": "address",
          "name": "userAdd",
          "type": "address"
        }
      ],
      "name": "getProfile",
      "outputs": [
        {
          "components": [
            {
              "internalType": "address",
              "name": "addr",
              "type": "address"
            },
            {
              "internalType": "string",
              "name": "name",
              "type": "string"
            },
            {
              "internalType": "string",
              "name": "role",
              "type": "string"
            },
            {
              "internalType": "uint256",
              "name": "rating",
              "type": "uint256"
            },
            {
              "internalType": "string",
              "name": "bio",
              "type": "string"
            },
            {
              "internalType": "string",
              "name": "profilePic",
              "type": "string"
            },
            {
              "internalType": "string",
              "name": "hostTitle",
              "type": "string"
            }
          ],
          "internalType": "struct XTELPT.profile",
          "name": "",
          "type": "tuple"
        }
      ],
      "stateMutability": "view",
      "type": "function"
    },
    {
      "inputs": [],
      "name": "interval",
      "outputs": [
        {
          "internalType": "uint256",
          "name": "",
          "type": "uint256"
        }
      ],
      "stateMutability": "view",
      "type": "function"
    },
    {
      "inputs": [
        {
          "internalType": "uint256",
          "name": "_id",
          "type": "uint256"
        }
      ],
      "name": "joinCampaign",
      "outputs": [],
      "stateMutability": "nonpayable",
      "type": "function"
    },
    {
      "inputs": [
        {
          "internalType": "address",
          "name": "_host",
          "type": "address"
        },
        {
          "internalType": "uint256",
          "name": "_id",
          "type": "uint256"
        }
      ],
      "name": "joinMeeting",
      "outputs": [],
      "stateMutability": "payable",
      "type": "function"
    },
    {
      "inputs": [],
      "name": "lastTimeStamp",
      "outputs": [
        {
          "internalType": "uint256",
          "name": "",
          "type": "uint256"
        }
      ],
      "stateMutability": "view",
      "type": "function"
    },
    {
      "inputs": [],
      "name": "meetingIndex",
      "outputs": [
        {
          "internalType": "uint256",
          "name": "",
          "type": "uint256"
        }
      ],
      "stateMutability": "view",
      "type": "function"
    },
    {
      "inputs": [],
      "name": "meetingNum",
      "outputs": [
        {
          "internalType": "uint256",
          "name": "",
          "type": "uint256"
        }
      ],
      "stateMutability": "view",
      "type": "function"
    },
    {
      "inputs": [],
      "name": "owner",
      "outputs": [
        {
          "internalType": "address",
          "name": "",
          "type": "address"
        }
      ],
      "stateMutability": "view",
      "type": "function"
    },
    {
      "inputs": [
        {
          "internalType": "uint256",
          "name": "",
          "type": "uint256"
        }
      ],
      "name": "recentCampaignCreator",
      "outputs": [
        {
          "internalType": "address",
          "name": "",
          "type": "address"
        }
      ],
      "stateMutability": "view",
      "type": "function"
    }
  ],
  "transactionHash": "0xa9ab1d6d79f5eeb8b0611b0e9264fadf310b20de99d2ec39eed8047f05373777",
  "args": [],
  "numDeployments": 20,
  "solcInputHash": "2fc6e80ac9cdaef29782309f63002be6",
  "bytecode": "0x60a06040526040518060400160405280600481526020017f5573657200000000000000000000000000000000000000000000000000000000815250600390805190602001906200005192919062000229565b506040518060400160405280600481526020017f486f737400000000000000000000000000000000000000000000000000000000815250600490805190602001906200009f92919062000229565b506040518060400160405280600581526020017f566f6c756e00000000000000000000000000000000000000000000000000000081525060059080519060200190620000ed92919062000229565b50348015620000fb57600080fd5b50336000806101000a81548173ffffffffffffffffffffffffffffffffffffffff021916908373ffffffffffffffffffffffffffffffffffffffff160217905550426002819055506000600b60003373ffffffffffffffffffffffffffffffffffffffff1673ffffffffffffffffffffffffffffffffffffffff16815260200190815260200160002060006101000a81548160ff02191690836001811115620001a957620001a86200030f565b5b02179055506000600c60003373ffffffffffffffffffffffffffffffffffffffff1673ffffffffffffffffffffffffffffffffffffffff16815260200190815260200160002060006101000a81548160ff021916908360018111156200021457620002136200030f565b5b021790555061012c608081815250506200036d565b8280546200023790620002d9565b90600052602060002090601f0160209004810192826200025b5760008555620002a7565b82601f106200027657805160ff1916838001178555620002a7565b82800160010185558215620002a7579182015b82811115620002a657825182559160200191906001019062000289565b5b509050620002b69190620002ba565b5090565b5b80821115620002d5576000816000905550600101620002bb565b5090565b60006002820490506001821680620002f257607f821691505b602082108114156200030957620003086200033e565b5b50919050565b7f4e487b7100000000000000000000000000000000000000000000000000000000600052602160045260246000fd5b7f4e487b7100000000000000000000000000000000000000000000000000000000600052602260045260246000fd5b608051614511620003896000396000611b7701526145116000f3fe60806040526004361061019c5760003560e01c80637fa9d037116100ec578063cb40bf601161008a578063dd0408ae11610064578063dd0408ae146105cc578063e34116de146105f5578063e9323db61461061e578063fc49d3e6146106645761019c565b8063cb40bf6014610544578063d4a82a5814610560578063d7358c5e146105895761019c565b8063960ccccc116100c6578063960ccccc146104885780639dc5368d146104b1578063b16cfdd4146104dc578063c5e0cfd0146105195761019c565b80637fa9d037146104095780638da5cb5b14610432578063947a36fb1461045d5761019c565b806356361f0d1161015957806370af1dd21161013357806370af1dd214610361578063766c21a2146103785780637d74311c146103a35780637eac3d92146103cc5761019c565b806356361f0d146102e057806361bc221a1461030b578063680908c9146103365761019c565b80630f53a470146101a1578063236b8e3a146101de57806324b9ed2d146102095780632dd47fc9146102465780633f3b3b271461028c578063550c18d7146102b7575b600080fd5b3480156101ad57600080fd5b506101c860048036038101906101c391906132b2565b61068d565b6040516101d59190613fb8565b60405180910390f35b3480156101ea57600080fd5b506101f3610a20565b6040516102009190613f14565b60405180910390f35b34801561021557600080fd5b50610230600480360381019061022b91906132b2565b610db3565b60405161023d9190613f36565b60405180910390f35b34801561025257600080fd5b5061026d600480360381019061026891906132df565b610ff8565b6040516102839a99989796959493929190613d0c565b60405180910390f35b34801561029857600080fd5b506102a161114b565b6040516102ae9190613fda565b60405180910390f35b3480156102c357600080fd5b506102de60048036038101906102d991906134ae565b611151565b005b3480156102ec57600080fd5b506102f561153b565b6040516103029190613fda565b60405180910390f35b34801561031757600080fd5b50610320611541565b60405161032d9190613fda565b60405180910390f35b34801561034257600080fd5b5061034b611547565b6040516103589190613fda565b60405180910390f35b34801561036d57600080fd5b50610376611551565b005b34801561038457600080fd5b5061038d6116d6565b60405161039a9190613fda565b60405180910390f35b3480156103af57600080fd5b506103ca60048036038101906103c591906133f3565b6116dc565b005b3480156103d857600080fd5b506103f360048036038101906103ee91906133c6565b611a06565b6040516104009190613cf1565b60405180910390f35b34801561041557600080fd5b50610430600480360381019061042b91906133f3565b611a45565b005b34801561043e57600080fd5b50610447611b51565b6040516104549190613cf1565b60405180910390f35b34801561046957600080fd5b50610472611b75565b60405161047f9190613fda565b60405180910390f35b34801561049457600080fd5b506104af60048036038101906104aa91906133c6565b611b99565b005b3480156104bd57600080fd5b506104c6611dc6565b6040516104d39190613ef2565b60405180910390f35b3480156104e857600080fd5b5061050360048036038101906104fe91906133c6565b611e54565b6040516105109190613cf1565b60405180910390f35b34801561052557600080fd5b5061052e611e93565b60405161053b9190613fda565b60405180910390f35b61055e600480360381019061055991906132df565b611e9d565b005b34801561056c57600080fd5b50610587600480360381019061058291906133c6565b61212f565b005b34801561059557600080fd5b506105b060048036038101906105ab91906132b2565b612285565b6040516105c39796959493929190613e60565b60405180910390f35b3480156105d857600080fd5b506105f360048036038101906105ee91906133c6565b61258f565b005b34801561060157600080fd5b5061061c6004803603810190610617919061331f565b6126c7565b005b34801561062a57600080fd5b50610645600480360381019061064091906133c6565b612966565b60405161065b9a99989796959493929190613daf565b60405180910390f35b34801561067057600080fd5b5061068b60048036038101906106869190613599565b612baf565b005b610695612f00565b600a60008373ffffffffffffffffffffffffffffffffffffffff1673ffffffffffffffffffffffffffffffffffffffff1681526020019081526020016000206040518060e00160405290816000820160009054906101000a900473ffffffffffffffffffffffffffffffffffffffff1673ffffffffffffffffffffffffffffffffffffffff1673ffffffffffffffffffffffffffffffffffffffff16815260200160018201805461074590614224565b80601f016020809104026020016040519081016040528092919081815260200182805461077190614224565b80156107be5780601f10610793576101008083540402835291602001916107be565b820191906000526020600020905b8154815290600101906020018083116107a157829003601f168201915b505050505081526020016002820180546107d790614224565b80601f016020809104026020016040519081016040528092919081815260200182805461080390614224565b80156108505780601f1061082557610100808354040283529160200191610850565b820191906000526020600020905b81548152906001019060200180831161083357829003601f168201915b505050505081526020016003820154815260200160048201805461087390614224565b80601f016020809104026020016040519081016040528092919081815260200182805461089f90614224565b80156108ec5780601f106108c1576101008083540402835291602001916108ec565b820191906000526020600020905b8154815290600101906020018083116108cf57829003601f168201915b5050505050815260200160058201805461090590614224565b80601f016020809104026020016040519081016040528092919081815260200182805461093190614224565b801561097e5780601f106109535761010080835404028352916020019161097e565b820191906000526020600020905b81548152906001019060200180831161096157829003601f168201915b5050505050815260200160068201805461099790614224565b80601f01602080910402602001604051908101604052809291908181526020018280546109c390614224565b8015610a105780601f106109e557610100808354040283529160200191610a10565b820191906000526020600020905b8154815290600101906020018083116109f357829003601f168201915b5050505050815250509050919050565b60606007805480602002602001604051908101604052809291908181526020016000905b82821015610daa57838290600052602060002090600b02016040518061016001604052908160008201805480602002602001604051908101604052809291908181526020018280548015610aed57602002820191906000526020600020905b8160009054906101000a900473ffffffffffffffffffffffffffffffffffffffff1673ffffffffffffffffffffffffffffffffffffffff1681526020019060010190808311610aa3575b505050505081526020016001820160009054906101000a900473ffffffffffffffffffffffffffffffffffffffff1673ffffffffffffffffffffffffffffffffffffffff1673ffffffffffffffffffffffffffffffffffffffff1681526020016002820160009054906101000a900473ffffffffffffffffffffffffffffffffffffffff1673ffffffffffffffffffffffffffffffffffffffff1673ffffffffffffffffffffffffffffffffffffffff1681526020016003820154815260200160048201548152602001600582018054610bc690614224565b80601f0160208091040260200160405190810160405280929190818152602001828054610bf290614224565b8015610c3f5780601f10610c1457610100808354040283529160200191610c3f565b820191906000526020600020905b815481529060010190602001808311610c2257829003601f168201915b5050505050815260200160068201548152602001600782015481526020016008820160009054906101000a900460ff16151515158152602001600982018054610c8790614224565b80601f0160208091040260200160405190810160405280929190818152602001828054610cb390614224565b8015610d005780601f10610cd557610100808354040283529160200191610d00565b820191906000526020600020905b815481529060010190602001808311610ce357829003601f168201915b50505050508152602001600a82018054610d1990614224565b80601f0160208091040260200160405190810160405280929190818152602001828054610d4590614224565b8015610d925780601f10610d6757610100808354040283529160200191610d92565b820191906000526020600020905b815481529060010190602001808311610d7557829003601f168201915b50505050508152505081526020019060010190610a44565b50505050905090565b6060600660008373ffffffffffffffffffffffffffffffffffffffff1673ffffffffffffffffffffffffffffffffffffffff168152602001908152602001600020805480602002602001604051908101604052809291908181526020016000905b82821015610fed5783829060005260206000209060090201604051806101400160405290816000820160009054906101000a900473ffffffffffffffffffffffffffffffffffffffff1673ffffffffffffffffffffffffffffffffffffffff1673ffffffffffffffffffffffffffffffffffffffff1681526020016001820160009054906101000a900473ffffffffffffffffffffffffffffffffffffffff1673ffffffffffffffffffffffffffffffffffffffff1673ffffffffffffffffffffffffffffffffffffffff1681526020016002820154815260200160038201548152602001600482018054610f0890614224565b80601f0160208091040260200160405190810160405280929190818152602001828054610f3490614224565b8015610f815780601f10610f5657610100808354040283529160200191610f81565b820191906000526020600020905b815481529060010190602001808311610f6457829003601f168201915b505050505081526020016005820154815260200160068201548152602001600782015481526020016008820160009054906101000a900460ff161515151581526020016008820160019054906101000a900460ff16151515158152505081526020019060010190610e14565b505050509050919050565b6006602052816000526040600020818154811061101457600080fd5b9060005260206000209060090201600091509150508060000160009054906101000a900473ffffffffffffffffffffffffffffffffffffffff16908060010160009054906101000a900473ffffffffffffffffffffffffffffffffffffffff169080600201549080600301549080600401805461109090614224565b80601f01602080910402602001604051908101604052809291908181526020018280546110bc90614224565b80156111095780601f106110de57610100808354040283529160200191611109565b820191906000526020600020905b8154815290600101906020018083116110ec57829003601f168201915b5050505050908060050154908060060154908060070154908060080160009054906101000a900460ff16908060080160019054906101000a900460ff1690508a565b60025481565b600073ffffffffffffffffffffffffffffffffffffffff16600a60003373ffffffffffffffffffffffffffffffffffffffff1673ffffffffffffffffffffffffffffffffffffffff16815260200190815260200160002060000160009054906101000a900473ffffffffffffffffffffffffffffffffffffffff1673ffffffffffffffffffffffffffffffffffffffff16141561124c57600d339080600181540180825580915050600190039060005260206000200160009091909190916101000a81548173ffffffffffffffffffffffffffffffffffffffff021916908373ffffffffffffffffffffffffffffffffffffffff1602179055505b6000600b60003373ffffffffffffffffffffffffffffffffffffffff1673ffffffffffffffffffffffffffffffffffffffff16815260200190815260200160002060006101000a81548160ff021916908360018111156112af576112ae6142ff565b5b021790555033600a60003373ffffffffffffffffffffffffffffffffffffffff1673ffffffffffffffffffffffffffffffffffffffff16815260200190815260200160002060000160006101000a81548173ffffffffffffffffffffffffffffffffffffffff021916908373ffffffffffffffffffffffffffffffffffffffff16021790555083600a60003373ffffffffffffffffffffffffffffffffffffffff1673ffffffffffffffffffffffffffffffffffffffff168152602001908152602001600020600101908051906020019061138b929190612f53565b5080600a60003373ffffffffffffffffffffffffffffffffffffffff1673ffffffffffffffffffffffffffffffffffffffff16815260200190815260200160002060060190805190602001906113e2929190612f53565b5084600a60003373ffffffffffffffffffffffffffffffffffffffff1673ffffffffffffffffffffffffffffffffffffffff168152602001908152602001600020600301819055506004600a60003373ffffffffffffffffffffffffffffffffffffffff1673ffffffffffffffffffffffffffffffffffffffff16815260200190815260200160002060020190805461147a90614224565b611485929190612fd9565b5082600a60003373ffffffffffffffffffffffffffffffffffffffff1673ffffffffffffffffffffffffffffffffffffffff16815260200190815260200160002060050190805190602001906114dc929190612f53565b5081600a60003373ffffffffffffffffffffffffffffffffffffffff1673ffffffffffffffffffffffffffffffffffffffff1681526020019081526020016000206004019080519060200190611533929190612f53565b505050505050565b60085481565b60015481565b6000600954905090565b60005b600d805490508110156116d35760005b60066000600d848154811061157c5761157b61435d565b5b9060005260206000200160009054906101000a900473ffffffffffffffffffffffffffffffffffffffff1673ffffffffffffffffffffffffffffffffffffffff1673ffffffffffffffffffffffffffffffffffffffff168152602001908152602001600020805490508110156116bf57600160066000600d85815481106116065761160561435d565b5b9060005260206000200160009054906101000a900473ffffffffffffffffffffffffffffffffffffffff1673ffffffffffffffffffffffffffffffffffffffff1673ffffffffffffffffffffffffffffffffffffffff168152602001908152602001600020828154811061167d5761167c61435d565b5b906000526020600020906009020160080160006101000a81548160ff0219169083151502179055504260028190555080806116b790614287565b915050611564565b5080806116cb90614287565b915050611554565b50565b60095481565b600073ffffffffffffffffffffffffffffffffffffffff16600a60003373ffffffffffffffffffffffffffffffffffffffff1673ffffffffffffffffffffffffffffffffffffffff16815260200190815260200160002060000160009054906101000a900473ffffffffffffffffffffffffffffffffffffffff1673ffffffffffffffffffffffffffffffffffffffff1614156117d757600d339080600181540180825580915050600190039060005260206000200160009091909190916101000a81548173ffffffffffffffffffffffffffffffffffffffff021916908373ffffffffffffffffffffffffffffffffffffffff1602179055505b33600a60003373ffffffffffffffffffffffffffffffffffffffff1673ffffffffffffffffffffffffffffffffffffffff16815260200190815260200160002060000160006101000a81548173ffffffffffffffffffffffffffffffffffffffff021916908373ffffffffffffffffffffffffffffffffffffffff16021790555082600a60003373ffffffffffffffffffffffffffffffffffffffff1673ffffffffffffffffffffffffffffffffffffffff16815260200190815260200160002060010190805190602001906118ae929190612f53565b5083600a60003373ffffffffffffffffffffffffffffffffffffffff1673ffffffffffffffffffffffffffffffffffffffff168152602001908152602001600020600301819055506003600a60003373ffffffffffffffffffffffffffffffffffffffff1673ffffffffffffffffffffffffffffffffffffffff16815260200190815260200160002060020190805461194690614224565b611951929190612fd9565b5081600a60003373ffffffffffffffffffffffffffffffffffffffff1673ffffffffffffffffffffffffffffffffffffffff16815260200190815260200160002060050190805190602001906119a8929190612f53565b5080600a60003373ffffffffffffffffffffffffffffffffffffffff1673ffffffffffffffffffffffffffffffffffffffff16815260200190815260200160002060040190805190602001906119ff929190612f53565b5050505050565b600d8181548110611a1657600080fd5b906000526020600020016000915054906101000a900473ffffffffffffffffffffffffffffffffffffffff1681565b60008054906101000a900473ffffffffffffffffffffffffffffffffffffffff1673ffffffffffffffffffffffffffffffffffffffff163373ffffffffffffffffffffffffffffffffffffffff1614611a9d57600080fd5b8260078581548110611ab257611ab161435d565b5b90600052602060002090600b02016009019080519060200190611ad6929190612f53565b508060078581548110611aec57611aeb61435d565b5b90600052602060002090600b02016005019080519060200190611b10929190612f53565b508160078581548110611b2657611b2561435d565b5b90600052602060002090600b0201600a019080519060200190611b4a929190612f53565b5050505050565b60008054906101000a900473ffffffffffffffffffffffffffffffffffffffff1681565b7f000000000000000000000000000000000000000000000000000000000000000081565b604051602001611ba890613cc7565b60405160208183030381529060405280519060200120600a60003373ffffffffffffffffffffffffffffffffffffffff1673ffffffffffffffffffffffffffffffffffffffff168152602001908152602001600020600201604051602001611c109190613cb0565b6040516020818303038152906040528051906020012014611c66576040517f08c379a0000000000000000000000000000000000000000000000000000000008152600401611c5d90613f58565b60405180910390fd5b3360078281548110611c7b57611c7a61435d565b5b90600052602060002090600b020160010160006101000a81548173ffffffffffffffffffffffffffffffffffffffff021916908373ffffffffffffffffffffffffffffffffffffffff16021790555060078181548110611cde57611cdd61435d565b5b90600052602060002090600b0201600001600160078381548110611d0557611d0461435d565b5b90600052602060002090600b020160000180549050611d249190614154565b81548110611d3557611d3461435d565b5b9060005260206000200160009054906101000a900473ffffffffffffffffffffffffffffffffffffffff1660078281548110611d7457611d7361435d565b5b90600052602060002090600b020160020160006101000a81548173ffffffffffffffffffffffffffffffffffffffff021916908373ffffffffffffffffffffffffffffffffffffffff16021790555050565b6060600d805480602002602001604051908101604052809291908181526020018280548015611e4a57602002820191906000526020600020905b8160009054906101000a900473ffffffffffffffffffffffffffffffffffffffff1673ffffffffffffffffffffffffffffffffffffffff1681526020019060010190808311611e00575b5050505050905090565b600e8181548110611e6457600080fd5b906000526020600020016000915054906101000a900473ffffffffffffffffffffffffffffffffffffffff1681565b6000600854905090565b604051602001611eac90613cc7565b60405160208183030381529060405280519060200120600a60003373ffffffffffffffffffffffffffffffffffffffff1673ffffffffffffffffffffffffffffffffffffffff168152602001908152602001600020600201604051602001611f149190613cb0565b6040516020818303038152906040528051906020012014611f6a576040517f08c379a0000000000000000000000000000000000000000000000000000000008152600401611f6190613f58565b60405180910390fd5b600660008373ffffffffffffffffffffffffffffffffffffffff1673ffffffffffffffffffffffffffffffffffffffff1681526020019081526020016000208181548110611fbb57611fba61435d565b5b90600052602060002090600902016006015434101561200f576040517f08c379a000000000000000000000000000000000000000000000000000000000815260040161200690613f98565b60405180910390fd5b33600660008473ffffffffffffffffffffffffffffffffffffffff1673ffffffffffffffffffffffffffffffffffffffff16815260200190815260200160002082815481106120615761206061435d565b5b906000526020600020906009020160010160006101000a81548173ffffffffffffffffffffffffffffffffffffffff021916908373ffffffffffffffffffffffffffffffffffffffff1602179055506001600660008473ffffffffffffffffffffffffffffffffffffffff1673ffffffffffffffffffffffffffffffffffffffff16815260200190815260200160002082815481106121035761210261435d565b5b906000526020600020906009020160080160016101000a81548160ff0219169083151502179055505050565b60405160200161213e90613cdc565b60405160208183030381529060405280519060200120600a60003373ffffffffffffffffffffffffffffffffffffffff1673ffffffffffffffffffffffffffffffffffffffff1681526020019081526020016000206002016040516020016121a69190613cb0565b60405160208183030381529060405280519060200120146121fc576040517f08c379a00000000000000000000000000000000000000000000000000000000081526004016121f390613f78565b60405180910390fd5b600781815481106122105761220f61435d565b5b90600052602060002090600b0201600001339080600181540180825580915050600190039060005260206000200160009091909190916101000a81548173ffffffffffffffffffffffffffffffffffffffff021916908373ffffffffffffffffffffffffffffffffffffffff16021790555050565b600a6020528060005260406000206000915090508060000160009054906101000a900473ffffffffffffffffffffffffffffffffffffffff16908060010180546122ce90614224565b80601f01602080910402602001604051908101604052809291908181526020018280546122fa90614224565b80156123475780601f1061231c57610100808354040283529160200191612347565b820191906000526020600020905b81548152906001019060200180831161232a57829003601f168201915b50505050509080600201805461235c90614224565b80601f016020809104026020016040519081016040528092919081815260200182805461238890614224565b80156123d55780601f106123aa576101008083540402835291602001916123d5565b820191906000526020600020905b8154815290600101906020018083116123b857829003601f168201915b5050505050908060030154908060040180546123f090614224565b80601f016020809104026020016040519081016040528092919081815260200182805461241c90614224565b80156124695780601f1061243e57610100808354040283529160200191612469565b820191906000526020600020905b81548152906001019060200180831161244c57829003601f168201915b50505050509080600501805461247e90614224565b80601f01602080910402602001604051908101604052809291908181526020018280546124aa90614224565b80156124f75780601f106124cc576101008083540402835291602001916124f7565b820191906000526020600020905b8154815290600101906020018083116124da57829003601f168201915b50505050509080600601805461250c90614224565b80601f016020809104026020016040519081016040528092919081815260200182805461253890614224565b80156125855780601f1061255a57610100808354040283529160200191612585565b820191906000526020600020905b81548152906001019060200180831161256857829003601f168201915b5050505050905087565b60405160200161259e90613cc7565b60405160208183030381529060405280519060200120600a60003373ffffffffffffffffffffffffffffffffffffffff1673ffffffffffffffffffffffffffffffffffffffff1681526020019081526020016000206002016040516020016126069190613cb0565b604051602081830303815290604052805190602001201461265c576040517f08c379a000000000000000000000000000000000000000000000000000000000815260040161265390613f58565b60405180910390fd5b6001600782815481106126725761267161435d565b5b90600052602060002090600b020160080160006101000a81548160ff02191690831515021790555042600782815481106126af576126ae61435d565b5b90600052602060002090600b02016004018190555050565b60008054906101000a900473ffffffffffffffffffffffffffffffffffffffff1673ffffffffffffffffffffffffffffffffffffffff163373ffffffffffffffffffffffffffffffffffffffff161461271f57600080fd5b612727613066565b4281606001818152505083816101200181905250818160a001819052506008548160e00181815250508281610140018190525060008160c00181815250506000600b60003373ffffffffffffffffffffffffffffffffffffffff1673ffffffffffffffffffffffffffffffffffffffff16815260200190815260200160002060006101000a81548160ff021916908360018111156127c8576127c76142ff565b5b021790555060078190806001815401808255809150506001900390600052602060002090600b020160009091909190915060008201518160000190805190602001906128159291906130ee565b5060208201518160010160006101000a81548173ffffffffffffffffffffffffffffffffffffffff021916908373ffffffffffffffffffffffffffffffffffffffff16021790555060408201518160020160006101000a81548173ffffffffffffffffffffffffffffffffffffffff021916908373ffffffffffffffffffffffffffffffffffffffff160217905550606082015181600301556080820151816004015560a08201518160050190805190602001906128d4929190612f53565b5060c0820151816006015560e082015181600701556101008201518160080160006101000a81548160ff021916908315150217905550610120820151816009019080519060200190612927929190612f53565b5061014082015181600a019080519060200190612945929190612f53565b5050506008600081548092919061295b90614287565b919050555050505050565b6007818154811061297657600080fd5b90600052602060002090600b02016000915090508060010160009054906101000a900473ffffffffffffffffffffffffffffffffffffffff16908060020160009054906101000a900473ffffffffffffffffffffffffffffffffffffffff16908060030154908060040154908060050180546129f190614224565b80601f0160208091040260200160405190810160405280929190818152602001828054612a1d90614224565b8015612a6a5780601f10612a3f57610100808354040283529160200191612a6a565b820191906000526020600020905b815481529060010190602001808311612a4d57829003601f168201915b5050505050908060060154908060070154908060080160009054906101000a900460ff1690806009018054612a9e90614224565b80601f0160208091040260200160405190810160405280929190818152602001828054612aca90614224565b8015612b175780601f10612aec57610100808354040283529160200191612b17565b820191906000526020600020905b815481529060010190602001808311612afa57829003601f168201915b50505050509080600a018054612b2c90614224565b80601f0160208091040260200160405190810160405280929190818152602001828054612b5890614224565b8015612ba55780601f10612b7a57610100808354040283529160200191612ba5565b820191906000526020600020905b815481529060010190602001808311612b8857829003601f168201915b505050505090508a565b604051602001612bbe90613cdc565b60405160208183030381529060405280519060200120600a60003373ffffffffffffffffffffffffffffffffffffffff1673ffffffffffffffffffffffffffffffffffffffff168152602001908152602001600020600201604051602001612c269190613cb0565b6040516020818303038152906040528051906020012014612c7c576040517f08c379a0000000000000000000000000000000000000000000000000000000008152600401612c7390613f78565b60405180910390fd5b612c84613178565b33816000019073ffffffffffffffffffffffffffffffffffffffff16908173ffffffffffffffffffffffffffffffffffffffff168152505083816060018181525050818160800181905250848160400181815250506009548160e0018181525050828160c00181815250506000600b60003373ffffffffffffffffffffffffffffffffffffffff1673ffffffffffffffffffffffffffffffffffffffff16815260200190815260200160002060006101000a81548160ff02191690836001811115612d5257612d516142ff565b5b0217905550600660003373ffffffffffffffffffffffffffffffffffffffff1673ffffffffffffffffffffffffffffffffffffffff16815260200190815260200160002081908060018154018082558091505060019003906000526020600020906009020160009091909190915060008201518160000160006101000a81548173ffffffffffffffffffffffffffffffffffffffff021916908373ffffffffffffffffffffffffffffffffffffffff16021790555060208201518160010160006101000a81548173ffffffffffffffffffffffffffffffffffffffff021916908373ffffffffffffffffffffffffffffffffffffffff16021790555060408201518160020155606082015181600301556080820151816004019080519060200190612e7e929190612f53565b5060a0820151816005015560c0820151816006015560e082015181600701556101008201518160080160006101000a81548160ff0219169083151502179055506101208201518160080160016101000a81548160ff021916908315150217905550505060096000815480929190612ef490614287565b91905055505050505050565b6040518060e00160405280600073ffffffffffffffffffffffffffffffffffffffff1681526020016060815260200160608152602001600081526020016060815260200160608152602001606081525090565b828054612f5f90614224565b90600052602060002090601f016020900481019282612f815760008555612fc8565b82601f10612f9a57805160ff1916838001178555612fc8565b82800160010185558215612fc8579182015b82811115612fc7578251825591602001919060010190612fac565b5b509050612fd591906131fb565b5090565b828054612fe590614224565b90600052602060002090601f0160209004810192826130075760008555613055565b82601f106130185780548555613055565b8280016001018555821561305557600052602060002091601f016020900482015b82811115613054578254825591600101919060010190613039565b5b50905061306291906131fb565b5090565b60405180610160016040528060608152602001600073ffffffffffffffffffffffffffffffffffffffff168152602001600073ffffffffffffffffffffffffffffffffffffffff168152602001600081526020016000815260200160608152602001600081526020016000815260200160001515815260200160608152602001606081525090565b828054828255906000526020600020908101928215613167579160200282015b828111156131665782518260006101000a81548173ffffffffffffffffffffffffffffffffffffffff021916908373ffffffffffffffffffffffffffffffffffffffff1602179055509160200191906001019061310e565b5b50905061317491906131fb565b5090565b604051806101400160405280600073ffffffffffffffffffffffffffffffffffffffff168152602001600073ffffffffffffffffffffffffffffffffffffffff1681526020016000815260200160008152602001606081526020016000815260200160008152602001600081526020016000151581526020016000151581525090565b5b808211156132145760008160009055506001016131fc565b5090565b600061322b6132268461401a565b613ff5565b905082815260208101848484011115613247576132466143c0565b5b6132528482856141e2565b509392505050565b600081359050613269816144ad565b92915050565b600082601f830112613284576132836143bb565b5b8135613294848260208601613218565b91505092915050565b6000813590506132ac816144c4565b92915050565b6000602082840312156132c8576132c76143ca565b5b60006132d68482850161325a565b91505092915050565b600080604083850312156132f6576132f56143ca565b5b60006133048582860161325a565b92505060206133158582860161329d565b9150509250929050565b600080600060608486031215613338576133376143ca565b5b600084013567ffffffffffffffff811115613356576133556143c5565b5b6133628682870161326f565b935050602084013567ffffffffffffffff811115613383576133826143c5565b5b61338f8682870161326f565b925050604084013567ffffffffffffffff8111156133b0576133af6143c5565b5b6133bc8682870161326f565b9150509250925092565b6000602082840312156133dc576133db6143ca565b5b60006133ea8482850161329d565b91505092915050565b6000806000806080858703121561340d5761340c6143ca565b5b600061341b8782880161329d565b945050602085013567ffffffffffffffff81111561343c5761343b6143c5565b5b6134488782880161326f565b935050604085013567ffffffffffffffff811115613469576134686143c5565b5b6134758782880161326f565b925050606085013567ffffffffffffffff811115613496576134956143c5565b5b6134a28782880161326f565b91505092959194509250565b600080600080600060a086880312156134ca576134c96143ca565b5b60006134d88882890161329d565b955050602086013567ffffffffffffffff8111156134f9576134f86143c5565b5b6135058882890161326f565b945050604086013567ffffffffffffffff811115613526576135256143c5565b5b6135328882890161326f565b935050606086013567ffffffffffffffff811115613553576135526143c5565b5b61355f8882890161326f565b925050608086013567ffffffffffffffff8111156135805761357f6143c5565b5b61358c8882890161326f565b9150509295509295909350565b600080600080608085870312156135b3576135b26143ca565b5b60006135c18782880161329d565b94505060206135d28782880161329d565b93505060406135e38782880161329d565b925050606085013567ffffffffffffffff811115613604576136036143c5565b5b6136108782880161326f565b91505092959194509250565b6000613628838361367a565b60208301905092915050565b600061364083836139fc565b905092915050565b60006136548383613b00565b905092915050565b6136658161419a565b82525050565b6136748161419a565b82525050565b61368381614188565b82525050565b61369281614188565b82525050565b60006136a382614090565b6136ad81856140e3565b93506136b88361404b565b8060005b838110156136e95781516136d0888261361c565b97506136db836140bc565b9250506001810190506136bc565b5085935050505092915050565b600061370182614090565b61370b81856140f4565b93506137168361404b565b8060005b8381101561374757815161372e888261361c565b9750613739836140bc565b92505060018101905061371a565b5085935050505092915050565b600061375f8261409b565b6137698185614105565b93508360208202850161377b8561405b565b8060005b858110156137b757848403895281516137988582613634565b94506137a3836140c9565b925060208a0199505060018101905061377f565b50829750879550505050505092915050565b60006137d4826140a6565b6137de8185614116565b9350836020820285016137f08561406b565b8060005b8581101561382c578484038952815161380d8582613648565b9450613818836140d6565b925060208a019950506001810190506137f4565b50829750879550505050505092915050565b613847816141ac565b82525050565b613856816141ac565b82525050565b6000613867826140b1565b6138718185614127565b93506138818185602086016141f1565b61388a816143cf565b840191505092915050565b60006138a0826140b1565b6138aa8185614138565b93506138ba8185602086016141f1565b6138c3816143cf565b840191505092915050565b600081546138db81614224565b6138e58186614149565b94506001821660008114613900576001811461391157613944565b60ff19831686528186019350613944565b61391a8561407b565b60005b8381101561393c5781548189015260018201915060208101905061391d565b838801955050505b50505092915050565b600061395a600a83614138565b9150613965826143e0565b602082019050919050565b600061397d600483614149565b915061398882614409565b600482019050919050565b60006139a0600483614149565b91506139ab82614432565b600482019050919050565b60006139c3600a83614138565b91506139ce8261445b565b602082019050919050565b60006139e6601383614138565b91506139f182614484565b602082019050919050565b6000610160830160008301518482036000860152613a1a8282613698565b9150506020830151613a2f602086018261367a565b506040830151613a42604086018261367a565b506060830151613a556060860182613c92565b506080830151613a686080860182613c92565b5060a083015184820360a0860152613a80828261385c565b91505060c0830151613a9560c0860182613c92565b5060e0830151613aa860e0860182613c92565b50610100830151613abd61010086018261383e565b50610120830151848203610120860152613ad7828261385c565b915050610140830151848203610140860152613af3828261385c565b9150508091505092915050565b600061014083016000830151613b19600086018261365c565b506020830151613b2c602086018261365c565b506040830151613b3f6040860182613c92565b506060830151613b526060860182613c92565b5060808301518482036080860152613b6a828261385c565b91505060a0830151613b7f60a0860182613c92565b5060c0830151613b9260c0860182613c92565b5060e0830151613ba560e0860182613c92565b50610100830151613bba61010086018261383e565b50610120830151613bcf61012086018261383e565b508091505092915050565b600060e083016000830151613bf2600086018261367a565b5060208301518482036020860152613c0a828261385c565b91505060408301518482036040860152613c24828261385c565b9150506060830151613c396060860182613c92565b5060808301518482036080860152613c51828261385c565b91505060a083015184820360a0860152613c6b828261385c565b91505060c083015184820360c0860152613c85828261385c565b9150508091505092915050565b613c9b816141d8565b82525050565b613caa816141d8565b82525050565b6000613cbc82846138ce565b915081905092915050565b6000613cd282613970565b9150819050919050565b6000613ce782613993565b9150819050919050565b6000602082019050613d066000830184613689565b92915050565b600061014082019050613d22600083018d61366b565b613d2f602083018c61366b565b613d3c604083018b613ca1565b613d49606083018a613ca1565b8181036080830152613d5b8189613895565b9050613d6a60a0830188613ca1565b613d7760c0830187613ca1565b613d8460e0830186613ca1565b613d9261010083018561384d565b613da061012083018461384d565b9b9a5050505050505050505050565b600061014082019050613dc5600083018d613689565b613dd2602083018c613689565b613ddf604083018b613ca1565b613dec606083018a613ca1565b8181036080830152613dfe8189613895565b9050613e0d60a0830188613ca1565b613e1a60c0830187613ca1565b613e2760e083018661384d565b818103610100830152613e3a8185613895565b9050818103610120830152613e4f8184613895565b90509b9a5050505050505050505050565b600060e082019050613e75600083018a613689565b8181036020830152613e878189613895565b90508181036040830152613e9b8188613895565b9050613eaa6060830187613ca1565b8181036080830152613ebc8186613895565b905081810360a0830152613ed08185613895565b905081810360c0830152613ee48184613895565b905098975050505050505050565b60006020820190508181036000830152613f0c81846136f6565b905092915050565b60006020820190508181036000830152613f2e8184613754565b905092915050565b60006020820190508181036000830152613f5081846137c9565b905092915050565b60006020820190508181036000830152613f718161394d565b9050919050565b60006020820190508181036000830152613f91816139b6565b9050919050565b60006020820190508181036000830152613fb1816139d9565b9050919050565b60006020820190508181036000830152613fd28184613bda565b905092915050565b6000602082019050613fef6000830184613ca1565b92915050565b6000613fff614010565b905061400b8282614256565b919050565b6000604051905090565b600067ffffffffffffffff8211156140355761403461438c565b5b61403e826143cf565b9050602081019050919050565b6000819050602082019050919050565b6000819050602082019050919050565b6000819050602082019050919050565b60008190508160005260206000209050919050565b600081519050919050565b600081519050919050565b600081519050919050565b600081519050919050565b6000602082019050919050565b6000602082019050919050565b6000602082019050919050565b600082825260208201905092915050565b600082825260208201905092915050565b600082825260208201905092915050565b600082825260208201905092915050565b600082825260208201905092915050565b600082825260208201905092915050565b600081905092915050565b600061415f826141d8565b915061416a836141d8565b92508282101561417d5761417c6142d0565b5b828203905092915050565b6000614193826141b8565b9050919050565b60006141a5826141b8565b9050919050565b60008115159050919050565b600073ffffffffffffffffffffffffffffffffffffffff82169050919050565b6000819050919050565b82818337600083830152505050565b60005b8381101561420f5780820151818401526020810190506141f4565b8381111561421e576000848401525b50505050565b6000600282049050600182168061423c57607f821691505b602082108114156142505761424f61432e565b5b50919050565b61425f826143cf565b810181811067ffffffffffffffff8211171561427e5761427d61438c565b5b80604052505050565b6000614292826141d8565b91507fffffffffffffffffffffffffffffffffffffffffffffffffffffffffffffffff8214156142c5576142c46142d0565b5b600182019050919050565b7f4e487b7100000000000000000000000000000000000000000000000000000000600052601160045260246000fd5b7f4e487b7100000000000000000000000000000000000000000000000000000000600052602160045260246000fd5b7f4e487b7100000000000000000000000000000000000000000000000000000000600052602260045260246000fd5b7f4e487b7100000000000000000000000000000000000000000000000000000000600052603260045260246000fd5b7f4e487b7100000000000000000000000000000000000000000000000000000000600052604160045260246000fd5b600080fd5b600080fd5b600080fd5b600080fd5b6000601f19601f8301169050919050565b7f4e4f542041205553455200000000000000000000000000000000000000000000600082015250565b7f5573657200000000000000000000000000000000000000000000000000000000600082015250565b7f486f737400000000000000000000000000000000000000000000000000000000600082015250565b7f4e4f54204120484f535400000000000000000000000000000000000000000000600082015250565b7f496e73756666696369656e7420616d6f756e7400000000000000000000000000600082015250565b6144b681614188565b81146144c157600080fd5b50565b6144cd816141d8565b81146144d857600080fd5b5056fea26469706673582212208e4fa8bfbea50a37abb188525cd26951b6e08c2ee9970b77a90642b77e4634a864736f6c63430008070033",
  "devdoc": {
    "kind": "dev",
    "methods": {
      "constructor": {
        "details": "constructor used to assign values that will not change"
      },
      "createCampaign(string,string,string)": {
        "details": "This function `createCampaign` allows only the User to call it hence the `OnlyUser` modifier after which any avaliable volunteer would be assigned to the campaign"
      },
      "createHost(uint256,string,string,string,string)": {
        "details": "This function `createHost` any body can call this functions and the senders profile would be set to that of a `Host`"
      },
      "createSchedule(uint256,uint256,uint256,string)": {
        "details": "This function `createSchedule` allows only the Host to call it hence the `OnlyHost` modifier after which a Host can create a meeting with some parameters like time and fee needed"
      },
      "createUser(uint256,string,string,string)": {
        "details": "This function `createUser` any body can call this functions and the senders profile would be set to that of a `User`"
      },
      "editCampaign(uint256,string,string,string)": {
        "details": "This function `editCampaign` can only be called by the owner of the smart contract to make changes to th campaign that is still active"
      },
      "endCampaign(uint256)": {
        "details": "This function `endCampaign` allows only the User end the campaign"
      },
      "endMeeting()": {
        "details": "This function `endMeeting` is called by chainlink automation cron job and ends every meeting by setting the completed status to true"
      },
      "getHelp(uint256)": {
        "details": "This function `getHelp` allows only the User to call it hence the `OnlyUser` modifier after which the Campaign ID is specified and the user would be assigned to the Campaign"
      },
      "joinCampaign(uint256)": {
        "details": "This function `joinCampaign` allows only the User to call it hence the `onlyHost` modifier after which the Campaign ID is specified and the user would be assigned to the Campaign"
      },
      "joinMeeting(address,uint256)": {
        "details": "This function `joinMeeting` allows only the User to call it hence the `OnlyUser` modifier after which the meeting ID is specified and the user would be assigned to the meeting"
      }
    },
    "version": 1
  },
  "userdoc": {
    "kind": "user",
    "methods": {
      "meetingNum()": {
        "notice": "Getter Functions "
      }
    },
    "version": 1
  },
  "storageLayout": {
    "storage": [
      {
        "astId": 3,
        "contract": "contracts/XTELPT.sol:XTELPT",
        "label": "owner",
        "offset": 0,
        "slot": "0",
        "type": "t_address"
      },
      {
        "astId": 8,
        "contract": "contracts/XTELPT.sol:XTELPT",
        "label": "counter",
        "offset": 0,
        "slot": "1",
        "type": "t_uint256"
      },
      {
        "astId": 12,
        "contract": "contracts/XTELPT.sol:XTELPT",
        "label": "lastTimeStamp",
        "offset": 0,
        "slot": "2",
        "type": "t_uint256"
      },
      {
        "astId": 15,
        "contract": "contracts/XTELPT.sol:XTELPT",
        "label": "userType",
        "offset": 0,
        "slot": "3",
        "type": "t_string_storage"
      },
      {
        "astId": 18,
        "contract": "contracts/XTELPT.sol:XTELPT",
        "label": "hostType",
        "offset": 0,
        "slot": "4",
        "type": "t_string_storage"
      },
      {
        "astId": 21,
        "contract": "contracts/XTELPT.sol:XTELPT",
        "label": "volunType",
        "offset": 0,
        "slot": "5",
        "type": "t_string_storage"
      },
      {
        "astId": 27,
        "contract": "contracts/XTELPT.sol:XTELPT",
        "label": "Meeting",
        "offset": 0,
        "slot": "6",
        "type": "t_mapping(t_address,t_array(t_struct(meeting)92_storage)dyn_storage)"
      },
      {
        "astId": 31,
        "contract": "contracts/XTELPT.sol:XTELPT",
        "label": "Campaign",
        "offset": 0,
        "slot": "7",
        "type": "t_array(t_struct(campaign)116_storage)dyn_storage"
      },
      {
        "astId": 33,
        "contract": "contracts/XTELPT.sol:XTELPT",
        "label": "campaignIndex",
        "offset": 0,
        "slot": "8",
        "type": "t_uint256"
      },
      {
        "astId": 35,
        "contract": "contracts/XTELPT.sol:XTELPT",
        "label": "meetingIndex",
        "offset": 0,
        "slot": "9",
        "type": "t_uint256"
      },
      {
        "astId": 40,
        "contract": "contracts/XTELPT.sol:XTELPT",
        "label": "UserProfile",
        "offset": 0,
        "slot": "10",
        "type": "t_mapping(t_address,t_struct(profile)71_storage)"
      },
      {
        "astId": 45,
        "contract": "contracts/XTELPT.sol:XTELPT",
        "label": "s_xtelpState",
        "offset": 0,
        "slot": "11",
        "type": "t_mapping(t_address,t_enum(XTELPState)6)"
      },
      {
        "astId": 50,
        "contract": "contracts/XTELPT.sol:XTELPT",
        "label": "volunState",
        "offset": 0,
        "slot": "12",
        "type": "t_mapping(t_address,t_enum(XTELPState)6)"
      },
      {
        "astId": 53,
        "contract": "contracts/XTELPT.sol:XTELPT",
        "label": "AllAccount",
        "offset": 0,
        "slot": "13",
        "type": "t_array(t_address)dyn_storage"
      },
      {
        "astId": 56,
        "contract": "contracts/XTELPT.sol:XTELPT",
        "label": "recentCampaignCreator",
        "offset": 0,
        "slot": "14",
        "type": "t_array(t_address)dyn_storage"
      }
    ],
    "types": {
      "t_address": {
        "encoding": "inplace",
        "label": "address",
        "numberOfBytes": "20"
      },
      "t_address_payable": {
        "encoding": "inplace",
        "label": "address payable",
        "numberOfBytes": "20"
      },
      "t_array(t_address)dyn_storage": {
        "base": "t_address",
        "encoding": "dynamic_array",
        "label": "address[]",
        "numberOfBytes": "32"
      },
      "t_array(t_struct(campaign)116_storage)dyn_storage": {
        "base": "t_struct(campaign)116_storage",
        "encoding": "dynamic_array",
        "label": "struct XTELPT.campaign[]",
        "numberOfBytes": "32"
      },
      "t_array(t_struct(meeting)92_storage)dyn_storage": {
        "base": "t_struct(meeting)92_storage",
        "encoding": "dynamic_array",
        "label": "struct XTELPT.meeting[]",
        "numberOfBytes": "32"
      },
      "t_bool": {
        "encoding": "inplace",
        "label": "bool",
        "numberOfBytes": "1"
      },
      "t_enum(XTELPState)6": {
        "encoding": "inplace",
        "label": "enum XTELPT.XTELPState",
        "numberOfBytes": "1"
      },
      "t_mapping(t_address,t_array(t_struct(meeting)92_storage)dyn_storage)": {
        "encoding": "mapping",
        "key": "t_address",
        "label": "mapping(address => struct XTELPT.meeting[])",
        "numberOfBytes": "32",
        "value": "t_array(t_struct(meeting)92_storage)dyn_storage"
      },
      "t_mapping(t_address,t_enum(XTELPState)6)": {
        "encoding": "mapping",
        "key": "t_address",
        "label": "mapping(address => enum XTELPT.XTELPState)",
        "numberOfBytes": "32",
        "value": "t_enum(XTELPState)6"
      },
      "t_mapping(t_address,t_struct(profile)71_storage)": {
        "encoding": "mapping",
        "key": "t_address",
        "label": "mapping(address => struct XTELPT.profile)",
        "numberOfBytes": "32",
        "value": "t_struct(profile)71_storage"
      },
      "t_string_storage": {
        "encoding": "bytes",
        "label": "string",
        "numberOfBytes": "32"
      },
      "t_struct(campaign)116_storage": {
        "encoding": "inplace",
        "label": "struct XTELPT.campaign",
        "members": [
          {
            "astId": 95,
            "contract": "contracts/XTELPT.sol:XTELPT",
            "label": "volunteer",
            "offset": 0,
            "slot": "0",
            "type": "t_array(t_address)dyn_storage"
          },
          {
            "astId": 97,
            "contract": "contracts/XTELPT.sol:XTELPT",
            "label": "user",
            "offset": 0,
            "slot": "1",
            "type": "t_address"
          },
          {
            "astId": 99,
            "contract": "contracts/XTELPT.sol:XTELPT",
            "label": "vol",
            "offset": 0,
            "slot": "2",
            "type": "t_address"
          },
          {
            "astId": 101,
            "contract": "contracts/XTELPT.sol:XTELPT",
            "label": "start_time",
            "offset": 0,
            "slot": "3",
            "type": "t_uint256"
          },
          {
            "astId": 103,
            "contract": "contracts/XTELPT.sol:XTELPT",
            "label": "end_time",
            "offset": 0,
            "slot": "4",
            "type": "t_uint256"
          },
          {
            "astId": 105,
            "contract": "contracts/XTELPT.sol:XTELPT",
            "label": "image",
            "offset": 0,
            "slot": "5",
            "type": "t_string_storage"
          },
          {
            "astId": 107,
            "contract": "contracts/XTELPT.sol:XTELPT",
            "label": "fee",
            "offset": 0,
            "slot": "6",
            "type": "t_uint256"
          },
          {
            "astId": 109,
            "contract": "contracts/XTELPT.sol:XTELPT",
            "label": "index",
            "offset": 0,
            "slot": "7",
            "type": "t_uint256"
          },
          {
            "astId": 111,
            "contract": "contracts/XTELPT.sol:XTELPT",
            "label": "completed",
            "offset": 0,
            "slot": "8",
            "type": "t_bool"
          },
          {
            "astId": 113,
            "contract": "contracts/XTELPT.sol:XTELPT",
            "label": "name",
            "offset": 0,
            "slot": "9",
            "type": "t_string_storage"
          },
          {
            "astId": 115,
            "contract": "contracts/XTELPT.sol:XTELPT",
            "label": "desc",
            "offset": 0,
            "slot": "10",
            "type": "t_string_storage"
          }
        ],
        "numberOfBytes": "352"
      },
      "t_struct(meeting)92_storage": {
        "encoding": "inplace",
        "label": "struct XTELPT.meeting",
        "members": [
          {
            "astId": 73,
            "contract": "contracts/XTELPT.sol:XTELPT",
            "label": "host",
            "offset": 0,
            "slot": "0",
            "type": "t_address_payable"
          },
          {
            "astId": 75,
            "contract": "contracts/XTELPT.sol:XTELPT",
            "label": "user",
            "offset": 0,
            "slot": "1",
            "type": "t_address_payable"
          },
          {
            "astId": 77,
            "contract": "contracts/XTELPT.sol:XTELPT",
            "label": "start",
            "offset": 0,
            "slot": "2",
            "type": "t_uint256"
          },
          {
            "astId": 79,
            "contract": "contracts/XTELPT.sol:XTELPT",
            "label": "end",
            "offset": 0,
            "slot": "3",
            "type": "t_uint256"
          },
          {
            "astId": 81,
            "contract": "contracts/XTELPT.sol:XTELPT",
            "label": "desc",
            "offset": 0,
            "slot": "4",
            "type": "t_string_storage"
          },
          {
            "astId": 83,
            "contract": "contracts/XTELPT.sol:XTELPT",
            "label": "time",
            "offset": 0,
            "slot": "5",
            "type": "t_uint256"
          },
          {
            "astId": 85,
            "contract": "contracts/XTELPT.sol:XTELPT",
            "label": "fee",
            "offset": 0,
            "slot": "6",
            "type": "t_uint256"
          },
          {
            "astId": 87,
            "contract": "contracts/XTELPT.sol:XTELPT",
            "label": "index",
            "offset": 0,
            "slot": "7",
            "type": "t_uint256"
          },
          {
            "astId": 89,
            "contract": "contracts/XTELPT.sol:XTELPT",
            "label": "completed",
            "offset": 0,
            "slot": "8",
            "type": "t_bool"
          },
          {
            "astId": 91,
            "contract": "contracts/XTELPT.sol:XTELPT",
            "label": "booked",
            "offset": 1,
            "slot": "8",
            "type": "t_bool"
          }
        ],
        "numberOfBytes": "288"
      },
      "t_struct(profile)71_storage": {
        "encoding": "inplace",
        "label": "struct XTELPT.profile",
        "members": [
          {
            "astId": 58,
            "contract": "contracts/XTELPT.sol:XTELPT",
            "label": "addr",
            "offset": 0,
            "slot": "0",
            "type": "t_address"
          },
          {
            "astId": 60,
            "contract": "contracts/XTELPT.sol:XTELPT",
            "label": "name",
            "offset": 0,
            "slot": "1",
            "type": "t_string_storage"
          },
          {
            "astId": 62,
            "contract": "contracts/XTELPT.sol:XTELPT",
            "label": "role",
            "offset": 0,
            "slot": "2",
            "type": "t_string_storage"
          },
          {
            "astId": 64,
            "contract": "contracts/XTELPT.sol:XTELPT",
            "label": "rating",
            "offset": 0,
            "slot": "3",
            "type": "t_uint256"
          },
          {
            "astId": 66,
            "contract": "contracts/XTELPT.sol:XTELPT",
            "label": "bio",
            "offset": 0,
            "slot": "4",
            "type": "t_string_storage"
          },
          {
            "astId": 68,
            "contract": "contracts/XTELPT.sol:XTELPT",
            "label": "profilePic",
            "offset": 0,
            "slot": "5",
            "type": "t_string_storage"
          },
          {
            "astId": 70,
            "contract": "contracts/XTELPT.sol:XTELPT",
            "label": "hostTitle",
            "offset": 0,
            "slot": "6",
            "type": "t_string_storage"
          }
        ],
        "numberOfBytes": "224"
      },
      "t_uint256": {
        "encoding": "inplace",
        "label": "uint256",
        "numberOfBytes": "32"
      }
    }
  }
}