{
  "address": "0x6022ca77e9Bb56a1E1eE9dFDf2f3e15168a64766",
  "abi": [
    {
      "inputs": [],
      "stateMutability": "nonpayable",
      "type": "constructor"
    },
    {
      "anonymous": false,
      "inputs": [
        {
          "indexed": true,
          "internalType": "uint256",
          "name": "requestId",
          "type": "uint256"
        }
      ],
      "name": "RequestedID",
      "type": "event"
    },
    {
      "inputs": [
        {
          "internalType": "uint256",
          "name": "",
          "type": "uint256"
        }
      ],
      "name": "AllAccount",
      "outputs": [
        {
          "internalType": "address",
          "name": "",
          "type": "address"
        }
      ],
      "stateMutability": "view",
      "type": "function"
    },
    {
      "inputs": [
        {
          "internalType": "uint256",
          "name": "",
          "type": "uint256"
        }
      ],
      "name": "Campaign",
      "outputs": [
        {
          "internalType": "address",
          "name": "user",
          "type": "address"
        },
        {
          "internalType": "uint256",
          "name": "start_time",
          "type": "uint256"
        },
        {
          "internalType": "uint256",
          "name": "end_time",
          "type": "uint256"
        },
        {
          "internalType": "uint256",
          "name": "fee",
          "type": "uint256"
        },
        {
          "internalType": "uint256",
          "name": "index",
          "type": "uint256"
        },
        {
          "internalType": "bool",
          "name": "completed",
          "type": "bool"
        },
        {
          "internalType": "string",
          "name": "name",
          "type": "string"
        },
        {
          "internalType": "string",
          "name": "desc",
          "type": "string"
        }
      ],
      "stateMutability": "view",
      "type": "function"
    },
    {
      "inputs": [
        {
          "internalType": "address",
          "name": "",
          "type": "address"
        },
        {
          "internalType": "uint256",
          "name": "",
          "type": "uint256"
        }
      ],
      "name": "Meeting",
      "outputs": [
        {
          "internalType": "address",
          "name": "host",
          "type": "address"
        },
        {
          "internalType": "address",
          "name": "user",
          "type": "address"
        },
        {
          "internalType": "uint256",
          "name": "start",
          "type": "uint256"
        },
        {
          "internalType": "uint256",
          "name": "end",
          "type": "uint256"
        },
        {
          "internalType": "string",
          "name": "desc",
          "type": "string"
        },
        {
          "internalType": "uint256",
          "name": "time",
          "type": "uint256"
        },
        {
          "internalType": "uint256",
          "name": "fee",
          "type": "uint256"
        },
        {
          "internalType": "uint256",
          "name": "index",
          "type": "uint256"
        },
        {
          "internalType": "bool",
          "name": "completed",
          "type": "bool"
        },
        {
          "internalType": "bool",
          "name": "booked",
          "type": "bool"
        }
      ],
      "stateMutability": "view",
      "type": "function"
    },
    {
      "inputs": [
        {
          "internalType": "address",
          "name": "",
          "type": "address"
        }
      ],
      "name": "UserProfile",
      "outputs": [
        {
          "internalType": "address",
          "name": "addr",
          "type": "address"
        },
        {
          "internalType": "string",
          "name": "name",
          "type": "string"
        },
        {
          "internalType": "string",
          "name": "role",
          "type": "string"
        },
        {
          "internalType": "uint256",
          "name": "rating",
          "type": "uint256"
        },
        {
          "internalType": "string",
          "name": "bio",
          "type": "string"
        },
        {
          "internalType": "string",
          "name": "profilePic",
          "type": "string"
        },
        {
          "internalType": "string",
          "name": "hostTitle",
          "type": "string"
        }
      ],
      "stateMutability": "view",
      "type": "function"
    },
    {
      "inputs": [],
      "name": "campaignIndex",
      "outputs": [
        {
          "internalType": "uint256",
          "name": "",
          "type": "uint256"
        }
      ],
      "stateMutability": "view",
      "type": "function"
    },
    {
      "inputs": [],
      "name": "campaignNum",
      "outputs": [
        {
          "internalType": "uint256",
          "name": "",
          "type": "uint256"
        }
      ],
      "stateMutability": "view",
      "type": "function"
    },
    {
      "inputs": [
        {
          "internalType": "bytes",
          "name": "",
          "type": "bytes"
        }
      ],
      "name": "checkUpkeep",
      "outputs": [
        {
          "internalType": "bool",
          "name": "upkeepNeeded",
          "type": "bool"
        },
        {
          "internalType": "bytes",
          "name": "",
          "type": "bytes"
        }
      ],
      "stateMutability": "view",
      "type": "function"
    },
    {
      "inputs": [],
      "name": "counter",
      "outputs": [
        {
          "internalType": "uint256",
          "name": "",
          "type": "uint256"
        }
      ],
      "stateMutability": "view",
      "type": "function"
    },
    {
      "inputs": [
        {
          "internalType": "string",
          "name": "_name",
          "type": "string"
        },
        {
          "internalType": "string",
          "name": "_desc",
          "type": "string"
        }
      ],
      "name": "createCampaign",
      "outputs": [],
      "stateMutability": "nonpayable",
      "type": "function"
    },
    {
      "inputs": [
        {
          "internalType": "uint256",
          "name": "_rating",
          "type": "uint256"
        },
        {
          "internalType": "string",
          "name": "_name",
          "type": "string"
        },
        {
          "internalType": "string",
          "name": "_pic",
          "type": "string"
        },
        {
          "internalType": "string",
          "name": "_bio",
          "type": "string"
        },
        {
          "internalType": "string",
          "name": "_title",
          "type": "string"
        }
      ],
      "name": "createHost",
      "outputs": [],
      "stateMutability": "nonpayable",
      "type": "function"
    },
    {
      "inputs": [
        {
          "internalType": "uint256",
          "name": "_time",
          "type": "uint256"
        },
        {
          "internalType": "uint256",
          "name": "_fee",
          "type": "uint256"
        },
        {
          "internalType": "string",
          "name": "_desc",
          "type": "string"
        }
      ],
      "name": "createSchedule",
      "outputs": [],
      "stateMutability": "nonpayable",
      "type": "function"
    },
    {
      "inputs": [
        {
          "internalType": "uint256",
          "name": "_rating",
          "type": "uint256"
        },
        {
          "internalType": "string",
          "name": "_name",
          "type": "string"
        },
        {
          "internalType": "string",
          "name": "_pic",
          "type": "string"
        },
        {
          "internalType": "string",
          "name": "_bio",
          "type": "string"
        }
      ],
      "name": "createUser",
      "outputs": [],
      "stateMutability": "nonpayable",
      "type": "function"
    },
    {
      "inputs": [
        {
          "internalType": "uint256",
          "name": "_id",
          "type": "uint256"
        }
      ],
      "name": "endCampaign",
      "outputs": [],
      "stateMutability": "nonpayable",
      "type": "function"
    },
    {
      "inputs": [],
      "name": "getAllAccount",
      "outputs": [
        {
          "internalType": "address[]",
          "name": "",
          "type": "address[]"
        }
      ],
      "stateMutability": "view",
      "type": "function"
    },
    {
      "inputs": [],
      "name": "getCampaign",
      "outputs": [
        {
          "components": [
            {
              "internalType": "address[]",
              "name": "volunteer",
              "type": "address[]"
            },
            {
              "internalType": "address",
              "name": "user",
              "type": "address"
            },
            {
              "internalType": "uint256",
              "name": "start_time",
              "type": "uint256"
            },
            {
              "internalType": "uint256",
              "name": "end_time",
              "type": "uint256"
            },
            {
              "internalType": "uint256",
              "name": "fee",
              "type": "uint256"
            },
            {
              "internalType": "uint256",
              "name": "index",
              "type": "uint256"
            },
            {
              "internalType": "bool",
              "name": "completed",
              "type": "bool"
            },
            {
              "internalType": "string",
              "name": "name",
              "type": "string"
            },
            {
              "internalType": "string",
              "name": "desc",
              "type": "string"
            }
          ],
          "internalType": "struct XTELPT.campaign[]",
          "name": "",
          "type": "tuple[]"
        }
      ],
      "stateMutability": "view",
      "type": "function"
    },
    {
      "inputs": [
        {
          "internalType": "uint256",
          "name": "_id",
          "type": "uint256"
        }
      ],
      "name": "getHelp",
      "outputs": [],
      "stateMutability": "nonpayable",
      "type": "function"
    },
    {
      "inputs": [
        {
          "internalType": "address",
          "name": "_prof",
          "type": "address"
        }
      ],
      "name": "getMeeting",
      "outputs": [
        {
          "components": [
            {
              "internalType": "address",
              "name": "host",
              "type": "address"
            },
            {
              "internalType": "address",
              "name": "user",
              "type": "address"
            },
            {
              "internalType": "uint256",
              "name": "start",
              "type": "uint256"
            },
            {
              "internalType": "uint256",
              "name": "end",
              "type": "uint256"
            },
            {
              "internalType": "string",
              "name": "desc",
              "type": "string"
            },
            {
              "internalType": "uint256",
              "name": "time",
              "type": "uint256"
            },
            {
              "internalType": "uint256",
              "name": "fee",
              "type": "uint256"
            },
            {
              "internalType": "uint256",
              "name": "index",
              "type": "uint256"
            },
            {
              "internalType": "bool",
              "name": "completed",
              "type": "bool"
            },
            {
              "internalType": "bool",
              "name": "booked",
              "type": "bool"
            }
          ],
          "internalType": "struct XTELPT.meeting[]",
          "name": "",
          "type": "tuple[]"
        }
      ],
      "stateMutability": "view",
      "type": "function"
    },
    {
      "inputs": [
        {
          "internalType": "address",
          "name": "userAdd",
          "type": "address"
        }
      ],
      "name": "getProfile",
      "outputs": [
        {
          "components": [
            {
              "internalType": "address",
              "name": "addr",
              "type": "address"
            },
            {
              "internalType": "string",
              "name": "name",
              "type": "string"
            },
            {
              "internalType": "string",
              "name": "role",
              "type": "string"
            },
            {
              "internalType": "uint256",
              "name": "rating",
              "type": "uint256"
            },
            {
              "internalType": "string",
              "name": "bio",
              "type": "string"
            },
            {
              "internalType": "string",
              "name": "profilePic",
              "type": "string"
            },
            {
              "internalType": "string",
              "name": "hostTitle",
              "type": "string"
            }
          ],
          "internalType": "struct XTELPT.profile",
          "name": "",
          "type": "tuple"
        }
      ],
      "stateMutability": "view",
      "type": "function"
    },
    {
      "inputs": [
        {
          "internalType": "uint256",
          "name": "_id",
          "type": "uint256"
        }
      ],
      "name": "joinCampaign",
      "outputs": [],
      "stateMutability": "nonpayable",
      "type": "function"
    },
    {
      "inputs": [
        {
          "internalType": "address",
          "name": "_host",
          "type": "address"
        },
        {
          "internalType": "uint256",
          "name": "_id",
          "type": "uint256"
        }
      ],
      "name": "joinMeeting",
      "outputs": [],
      "stateMutability": "nonpayable",
      "type": "function"
    },
    {
      "inputs": [],
      "name": "meetingIndex",
      "outputs": [
        {
          "internalType": "uint256",
          "name": "",
          "type": "uint256"
        }
      ],
      "stateMutability": "view",
      "type": "function"
    },
    {
      "inputs": [],
      "name": "meetingNum",
      "outputs": [
        {
          "internalType": "uint256",
          "name": "",
          "type": "uint256"
        }
      ],
      "stateMutability": "view",
      "type": "function"
    },
    {
      "inputs": [
        {
          "internalType": "bytes",
          "name": "",
          "type": "bytes"
        }
      ],
      "name": "performUpkeep",
      "outputs": [],
      "stateMutability": "nonpayable",
      "type": "function"
    },
    {
      "inputs": [
        {
          "internalType": "uint256",
          "name": "",
          "type": "uint256"
        }
      ],
      "name": "recentCampaignCreator",
      "outputs": [
        {
          "internalType": "address",
          "name": "",
          "type": "address"
        }
      ],
      "stateMutability": "view",
      "type": "function"
    },
    {
      "inputs": [],
      "name": "s_lastTimeStamp",
      "outputs": [
        {
          "internalType": "uint256",
          "name": "",
          "type": "uint256"
        }
      ],
      "stateMutability": "view",
      "type": "function"
    },
    {
      "inputs": [],
      "name": "v_lastTimeStamp",
      "outputs": [
        {
          "internalType": "uint256",
          "name": "",
          "type": "uint256"
        }
      ],
      "stateMutability": "view",
      "type": "function"
    }
  ],
  "transactionHash": "0x75bc37c8497967bdb3defd0334e30a31cb397acc055086392d57a5879c6fb731",
  "args": [],
  "numDeployments": 14,
  "solcInputHash": "3730cf363305bcf6ad9f01629fe51f6d",
  "bytecode": "0x60806040526040518060400160405280600481526020017f5573657200000000000000000000000000000000000000000000000000000000815250600590805190602001906200005192919062000226565b506040518060400160405280600481526020017f486f737400000000000000000000000000000000000000000000000000000000815250600690805190602001906200009f92919062000226565b506040518060400160405280600581526020017f566f6c756e00000000000000000000000000000000000000000000000000000081525060079080519060200190620000ed92919062000226565b50348015620000fb57600080fd5b5042600381905550426004819055506000600d60003373ffffffffffffffffffffffffffffffffffffffff1673ffffffffffffffffffffffffffffffffffffffff16815260200190815260200160002060006101000a81548160ff0219169083600181111562000170576200016f6200030c565b5b02179055506000600e60003373ffffffffffffffffffffffffffffffffffffffff1673ffffffffffffffffffffffffffffffffffffffff16815260200190815260200160002060006101000a81548160ff02191690836001811115620001db57620001da6200030c565b5b0217905550336000806101000a81548173ffffffffffffffffffffffffffffffffffffffff021916908373ffffffffffffffffffffffffffffffffffffffff1602179055506200036a565b8280546200023490620002d6565b90600052602060002090601f016020900481019282620002585760008555620002a4565b82601f106200027357805160ff1916838001178555620002a4565b82800160010185558215620002a4579182015b82811115620002a357825182559160200191906001019062000286565b5b509050620002b39190620002b7565b5090565b5b80821115620002d2576000816000905550600101620002b8565b5090565b60006002820490506001821680620002ef57607f821691505b602082108114156200030657620003056200033b565b5b50919050565b7f4e487b7100000000000000000000000000000000000000000000000000000000600052602160045260246000fd5b7f4e487b7100000000000000000000000000000000000000000000000000000000600052602260045260246000fd5b614643806200037a6000396000f3fe608060405234801561001057600080fd5b506004361061018e5760003560e01c8063766c21a2116100de578063c5e0cfd011610097578063d7358c5e11610071578063d7358c5e1461048f578063dd0408ae146104c5578063e9323db6146104e1578063fce3f6ac146105185761018e565b8063c5e0cfd014610439578063cb40bf6014610457578063d4a82a58146104735761018e565b8063766c21a2146103655780637d74311c146103835780637eac3d921461039f578063960ccccc146103cf5780639dc5368d146103eb578063b16cfdd4146104095761018e565b80634585e33b1161014b5780635d5be658116101255780635d5be658146102dc57806361bc221a146102f8578063680908c9146103165780636e04ff0d146103345761018e565b80634585e33b14610286578063550c18d7146102a257806356361f0d146102be5761018e565b80630f53a470146101935780631007e8c7146101c3578063236b8e3a146101e157806324b9ed2d146101ff5780632dd47fc91461022f5780633485404314610268575b600080fd5b6101ad60048036038101906101a891906132d7565b610534565b6040516101ba9190614025565b60405180910390f35b6101cb6108c7565b6040516101d89190614047565b60405180910390f35b6101e96108cd565b6040516101f69190613f51565b60405180910390f35b610219600480360381019061021491906132d7565b610b78565b6040516102269190613f73565b60405180910390f35b61024960048036038101906102449190613304565b610dbd565b60405161025f9a99989796959493929190613d6e565b60405180910390f35b610270610f10565b60405161027d9190614047565b60405180910390f35b6102a0600480360381019061029b9190613344565b610f16565b005b6102bc60048036038101906102b7919061353a565b61123f565b005b6102c6611629565b6040516102d39190614047565b60405180910390f35b6102f660048036038101906102f19190613625565b61162f565b005b61030061199e565b60405161030d9190614047565b60405180910390f35b61031e6119a4565b60405161032b9190614047565b60405180910390f35b61034e60048036038101906103499190613391565b6119ae565b60405161035c929190613f95565b60405180910390f35b61036d611db9565b60405161037a9190614047565b60405180910390f35b61039d6004803603810190610398919061347f565b611dbf565b005b6103b960048036038101906103b49190613452565b6120e9565b6040516103c69190613d53565b60405180910390f35b6103e960048036038101906103e49190613452565b612128565b005b6103f361225c565b6040516104009190613f2f565b60405180910390f35b610423600480360381019061041e9190613452565b6122ea565b6040516104309190613d53565b60405180910390f35b610441612329565b60405161044e9190614047565b60405180910390f35b610471600480360381019061046c9190613304565b612333565b005b61048d60048036038101906104889190613452565b612520565b005b6104a960048036038101906104a491906132d7565b612676565b6040516104bc9796959493929190613e11565b60405180910390f35b6104df60048036038101906104da9190613452565b612980565b005b6104fb60048036038101906104f69190613452565b612ab8565b60405161050f989796959493929190613ea3565b60405180910390f35b610532600480360381019061052d91906133da565b612c4d565b005b61053c612e83565b600c60008373ffffffffffffffffffffffffffffffffffffffff1673ffffffffffffffffffffffffffffffffffffffff1681526020019081526020016000206040518060e00160405290816000820160009054906101000a900473ffffffffffffffffffffffffffffffffffffffff1673ffffffffffffffffffffffffffffffffffffffff1673ffffffffffffffffffffffffffffffffffffffff1681526020016001820180546105ec90614326565b80601f016020809104026020016040519081016040528092919081815260200182805461061890614326565b80156106655780601f1061063a57610100808354040283529160200191610665565b820191906000526020600020905b81548152906001019060200180831161064857829003601f168201915b5050505050815260200160028201805461067e90614326565b80601f01602080910402602001604051908101604052809291908181526020018280546106aa90614326565b80156106f75780601f106106cc576101008083540402835291602001916106f7565b820191906000526020600020905b8154815290600101906020018083116106da57829003601f168201915b505050505081526020016003820154815260200160048201805461071a90614326565b80601f016020809104026020016040519081016040528092919081815260200182805461074690614326565b80156107935780601f1061076857610100808354040283529160200191610793565b820191906000526020600020905b81548152906001019060200180831161077657829003601f168201915b505050505081526020016005820180546107ac90614326565b80601f01602080910402602001604051908101604052809291908181526020018280546107d890614326565b80156108255780601f106107fa57610100808354040283529160200191610825565b820191906000526020600020905b81548152906001019060200180831161080857829003601f168201915b5050505050815260200160068201805461083e90614326565b80601f016020809104026020016040519081016040528092919081815260200182805461086a90614326565b80156108b75780601f1061088c576101008083540402835291602001916108b7565b820191906000526020600020905b81548152906001019060200180831161089a57829003601f168201915b5050505050815250509050919050565b60045481565b60606009805480602002602001604051908101604052809291908181526020016000905b82821015610b6f5783829060005260206000209060090201604051806101200160405290816000820180548060200260200160405190810160405280929190818152602001828054801561099a57602002820191906000526020600020905b8160009054906101000a900473ffffffffffffffffffffffffffffffffffffffff1673ffffffffffffffffffffffffffffffffffffffff1681526020019060010190808311610950575b505050505081526020016001820160009054906101000a900473ffffffffffffffffffffffffffffffffffffffff1673ffffffffffffffffffffffffffffffffffffffff1673ffffffffffffffffffffffffffffffffffffffff168152602001600282015481526020016003820154815260200160048201548152602001600582015481526020016006820160009054906101000a900460ff16151515158152602001600782018054610a4c90614326565b80601f0160208091040260200160405190810160405280929190818152602001828054610a7890614326565b8015610ac55780601f10610a9a57610100808354040283529160200191610ac5565b820191906000526020600020905b815481529060010190602001808311610aa857829003601f168201915b50505050508152602001600882018054610ade90614326565b80601f0160208091040260200160405190810160405280929190818152602001828054610b0a90614326565b8015610b575780601f10610b2c57610100808354040283529160200191610b57565b820191906000526020600020905b815481529060010190602001808311610b3a57829003601f168201915b505050505081525050815260200190600101906108f1565b50505050905090565b6060600860008373ffffffffffffffffffffffffffffffffffffffff1673ffffffffffffffffffffffffffffffffffffffff168152602001908152602001600020805480602002602001604051908101604052809291908181526020016000905b82821015610db25783829060005260206000209060090201604051806101400160405290816000820160009054906101000a900473ffffffffffffffffffffffffffffffffffffffff1673ffffffffffffffffffffffffffffffffffffffff1673ffffffffffffffffffffffffffffffffffffffff1681526020016001820160009054906101000a900473ffffffffffffffffffffffffffffffffffffffff1673ffffffffffffffffffffffffffffffffffffffff1673ffffffffffffffffffffffffffffffffffffffff1681526020016002820154815260200160038201548152602001600482018054610ccd90614326565b80601f0160208091040260200160405190810160405280929190818152602001828054610cf990614326565b8015610d465780601f10610d1b57610100808354040283529160200191610d46565b820191906000526020600020905b815481529060010190602001808311610d2957829003601f168201915b505050505081526020016005820154815260200160068201548152602001600782015481526020016008820160009054906101000a900460ff161515151581526020016008820160019054906101000a900460ff16151515158152505081526020019060010190610bd9565b505050509050919050565b60086020528160005260406000208181548110610dd957600080fd5b9060005260206000209060090201600091509150508060000160009054906101000a900473ffffffffffffffffffffffffffffffffffffffff16908060010160009054906101000a900473ffffffffffffffffffffffffffffffffffffffff1690806002015490806003015490806004018054610e5590614326565b80601f0160208091040260200160405190810160405280929190818152602001828054610e8190614326565b8015610ece5780601f10610ea357610100808354040283529160200191610ece565b820191906000526020600020905b815481529060010190602001808311610eb157829003601f168201915b5050505050908060050154908060060154908060070154908060080160009054906101000a900460ff16908060080160019054906101000a900460ff1690508a565b60035481565b60005b600f8054905081101561123a5760005b60086000600f8481548110610f4157610f4061445f565b5b9060005260206000200160009054906101000a900473ffffffffffffffffffffffffffffffffffffffff1673ffffffffffffffffffffffffffffffffffffffff1673ffffffffffffffffffffffffffffffffffffffff16815260200190815260200160002080549050811015611226576000610fcb604051806020016040528060008152506119ae565b5090508061100e576040517f08c379a000000000000000000000000000000000000000000000000000000000815260040161100590613fe5565b60405180910390fd5b600160086000600f86815481106110285761102761445f565b5b9060005260206000200160009054906101000a900473ffffffffffffffffffffffffffffffffffffffff1673ffffffffffffffffffffffffffffffffffffffff1673ffffffffffffffffffffffffffffffffffffffff168152602001908152602001600020838154811061109f5761109e61445f565b5b906000526020600020906009020160080160006101000a81548160ff0219169083151502179055504260086000600f86815481106110e0576110df61445f565b5b9060005260206000200160009054906101000a900473ffffffffffffffffffffffffffffffffffffffff1673ffffffffffffffffffffffffffffffffffffffff1673ffffffffffffffffffffffffffffffffffffffff16815260200190815260200160002083815481106111575761115661445f565b5b9060005260206000209060090201600301819055506001600d6000600f86815481106111865761118561445f565b5b9060005260206000200160009054906101000a900473ffffffffffffffffffffffffffffffffffffffff1673ffffffffffffffffffffffffffffffffffffffff1673ffffffffffffffffffffffffffffffffffffffff16815260200190815260200160002060006101000a81548160ff0219169083600181111561120d5761120c614401565b5b021790555050808061121e90614389565b915050610f29565b50808061123290614389565b915050610f19565b505050565b600073ffffffffffffffffffffffffffffffffffffffff16600c60003373ffffffffffffffffffffffffffffffffffffffff1673ffffffffffffffffffffffffffffffffffffffff16815260200190815260200160002060000160009054906101000a900473ffffffffffffffffffffffffffffffffffffffff1673ffffffffffffffffffffffffffffffffffffffff16141561133a57600f339080600181540180825580915050600190039060005260206000200160009091909190916101000a81548173ffffffffffffffffffffffffffffffffffffffff021916908373ffffffffffffffffffffffffffffffffffffffff1602179055505b6000600d60003373ffffffffffffffffffffffffffffffffffffffff1673ffffffffffffffffffffffffffffffffffffffff16815260200190815260200160002060006101000a81548160ff0219169083600181111561139d5761139c614401565b5b021790555033600c60003373ffffffffffffffffffffffffffffffffffffffff1673ffffffffffffffffffffffffffffffffffffffff16815260200190815260200160002060000160006101000a81548173ffffffffffffffffffffffffffffffffffffffff021916908373ffffffffffffffffffffffffffffffffffffffff16021790555083600c60003373ffffffffffffffffffffffffffffffffffffffff1673ffffffffffffffffffffffffffffffffffffffff1681526020019081526020016000206001019080519060200190611479929190612ed6565b5080600c60003373ffffffffffffffffffffffffffffffffffffffff1673ffffffffffffffffffffffffffffffffffffffff16815260200190815260200160002060060190805190602001906114d0929190612ed6565b5084600c60003373ffffffffffffffffffffffffffffffffffffffff1673ffffffffffffffffffffffffffffffffffffffff168152602001908152602001600020600301819055506006600c60003373ffffffffffffffffffffffffffffffffffffffff1673ffffffffffffffffffffffffffffffffffffffff16815260200190815260200160002060020190805461156890614326565b611573929190612f5c565b5082600c60003373ffffffffffffffffffffffffffffffffffffffff1673ffffffffffffffffffffffffffffffffffffffff16815260200190815260200160002060050190805190602001906115ca929190612ed6565b5081600c60003373ffffffffffffffffffffffffffffffffffffffff1673ffffffffffffffffffffffffffffffffffffffff1681526020019081526020016000206004019080519060200190611621929190612ed6565b505050505050565b600a5481565b60405160200161163e90613d3e565b60405160208183030381529060405280519060200120600c60003373ffffffffffffffffffffffffffffffffffffffff1673ffffffffffffffffffffffffffffffffffffffff1681526020019081526020016000206002016040516020016116a69190613d12565b60405160208183030381529060405280519060200120146116fc576040517f08c379a00000000000000000000000000000000000000000000000000000000081526004016116f390614005565b60405180910390fd5b611704612fe9565b33816000019073ffffffffffffffffffffffffffffffffffffffff16908173ffffffffffffffffffffffffffffffffffffffff1681525050603c84611749919061420e565b8160a001818152505081816080018190525042816040018181525050600b548160e0018181525050828160c0018181525050603c84611788919061420e565b6002819055506000600d60003373ffffffffffffffffffffffffffffffffffffffff1673ffffffffffffffffffffffffffffffffffffffff16815260200190815260200160002060006101000a81548160ff021916908360018111156117f1576117f0614401565b5b0217905550600860003373ffffffffffffffffffffffffffffffffffffffff1673ffffffffffffffffffffffffffffffffffffffff16815260200190815260200160002081908060018154018082558091505060019003906000526020600020906009020160009091909190915060008201518160000160006101000a81548173ffffffffffffffffffffffffffffffffffffffff021916908373ffffffffffffffffffffffffffffffffffffffff16021790555060208201518160010160006101000a81548173ffffffffffffffffffffffffffffffffffffffff021916908373ffffffffffffffffffffffffffffffffffffffff1602179055506040820151816002015560608201518160030155608082015181600401908051906020019061191d929190612ed6565b5060a0820151816005015560c0820151816006015560e082015181600701556101008201518160080160006101000a81548160ff0219169083151502179055506101208201518160080160016101000a81548160ff0219169083151502179055505050600b600081548092919061199390614389565b919050555050505050565b60015481565b6000600b54905090565b6000606060005b600f80549050811015611db35760005b60086000600f84815481106119dd576119dc61445f565b5b9060005260206000200160009054906101000a900473ffffffffffffffffffffffffffffffffffffffff1673ffffffffffffffffffffffffffffffffffffffff1673ffffffffffffffffffffffffffffffffffffffff16815260200190815260200160002080549050811015611d9f57600060086000600f8581548110611a6757611a6661445f565b5b9060005260206000200160009054906101000a900473ffffffffffffffffffffffffffffffffffffffff1673ffffffffffffffffffffffffffffffffffffffff1673ffffffffffffffffffffffffffffffffffffffff1681526020019081526020016000208281548110611ade57611add61445f565b5b906000526020600020906009020160050154118015611bae57506000151560086000600f8581548110611b1457611b1361445f565b5b9060005260206000200160009054906101000a900473ffffffffffffffffffffffffffffffffffffffff1673ffffffffffffffffffffffffffffffffffffffff1673ffffffffffffffffffffffffffffffffffffffff1681526020019081526020016000208281548110611b8b57611b8a61445f565b5b906000526020600020906009020160080160009054906101000a900460ff161515145b15611d8c576000600d60003373ffffffffffffffffffffffffffffffffffffffff1673ffffffffffffffffffffffffffffffffffffffff16815260200190815260200160002060009054906101000a900460ff166001811115611c1457611c13614401565b5b60006001811115611c2857611c27614401565b5b149050600060086000600f8681548110611c4557611c4461445f565b5b9060005260206000200160009054906101000a900473ffffffffffffffffffffffffffffffffffffffff1673ffffffffffffffffffffffffffffffffffffffff1673ffffffffffffffffffffffffffffffffffffffff1681526020019081526020016000208381548110611cbc57611cbb61445f565b5b90600052602060002090600902016005015460086000600f8781548110611ce657611ce561445f565b5b9060005260206000200160009054906101000a900473ffffffffffffffffffffffffffffffffffffffff1673ffffffffffffffffffffffffffffffffffffffff1673ffffffffffffffffffffffffffffffffffffffff1681526020019081526020016000208481548110611d5d57611d5c61445f565b5b90600052602060002090600902016002015442611d7a9190614268565b119050818015611d875750805b955050505b8080611d9790614389565b9150506119c5565b508080611dab90614389565b9150506119b5565b50915091565b600b5481565b600073ffffffffffffffffffffffffffffffffffffffff16600c60003373ffffffffffffffffffffffffffffffffffffffff1673ffffffffffffffffffffffffffffffffffffffff16815260200190815260200160002060000160009054906101000a900473ffffffffffffffffffffffffffffffffffffffff1673ffffffffffffffffffffffffffffffffffffffff161415611eba57600f339080600181540180825580915050600190039060005260206000200160009091909190916101000a81548173ffffffffffffffffffffffffffffffffffffffff021916908373ffffffffffffffffffffffffffffffffffffffff1602179055505b33600c60003373ffffffffffffffffffffffffffffffffffffffff1673ffffffffffffffffffffffffffffffffffffffff16815260200190815260200160002060000160006101000a81548173ffffffffffffffffffffffffffffffffffffffff021916908373ffffffffffffffffffffffffffffffffffffffff16021790555082600c60003373ffffffffffffffffffffffffffffffffffffffff1673ffffffffffffffffffffffffffffffffffffffff1681526020019081526020016000206001019080519060200190611f91929190612ed6565b5083600c60003373ffffffffffffffffffffffffffffffffffffffff1673ffffffffffffffffffffffffffffffffffffffff168152602001908152602001600020600301819055506005600c60003373ffffffffffffffffffffffffffffffffffffffff1673ffffffffffffffffffffffffffffffffffffffff16815260200190815260200160002060020190805461202990614326565b612034929190612f5c565b5081600c60003373ffffffffffffffffffffffffffffffffffffffff1673ffffffffffffffffffffffffffffffffffffffff168152602001908152602001600020600501908051906020019061208b929190612ed6565b5080600c60003373ffffffffffffffffffffffffffffffffffffffff1673ffffffffffffffffffffffffffffffffffffffff16815260200190815260200160002060040190805190602001906120e2929190612ed6565b5050505050565b600f81815481106120f957600080fd5b906000526020600020016000915054906101000a900473ffffffffffffffffffffffffffffffffffffffff1681565b60405160200161213790613d29565b60405160208183030381529060405280519060200120600c60003373ffffffffffffffffffffffffffffffffffffffff1673ffffffffffffffffffffffffffffffffffffffff16815260200190815260200160002060020160405160200161219f9190613d12565b60405160208183030381529060405280519060200120146121f5576040517f08c379a00000000000000000000000000000000000000000000000000000000081526004016121ec90613fc5565b60405180910390fd5b336009828154811061220a5761220961445f565b5b906000526020600020906009020160010160006101000a81548173ffffffffffffffffffffffffffffffffffffffff021916908373ffffffffffffffffffffffffffffffffffffffff16021790555050565b6060600f8054806020026020016040519081016040528092919081815260200182805480156122e057602002820191906000526020600020905b8160009054906101000a900473ffffffffffffffffffffffffffffffffffffffff1673ffffffffffffffffffffffffffffffffffffffff1681526020019060010190808311612296575b5050505050905090565b601081815481106122fa57600080fd5b906000526020600020016000915054906101000a900473ffffffffffffffffffffffffffffffffffffffff1681565b6000600a54905090565b60405160200161234290613d29565b60405160208183030381529060405280519060200120600c60003373ffffffffffffffffffffffffffffffffffffffff1673ffffffffffffffffffffffffffffffffffffffff1681526020019081526020016000206002016040516020016123aa9190613d12565b6040516020818303038152906040528051906020012014612400576040517f08c379a00000000000000000000000000000000000000000000000000000000081526004016123f790613fc5565b60405180910390fd5b33600860008473ffffffffffffffffffffffffffffffffffffffff1673ffffffffffffffffffffffffffffffffffffffff16815260200190815260200160002082815481106124525761245161445f565b5b906000526020600020906009020160010160006101000a81548173ffffffffffffffffffffffffffffffffffffffff021916908373ffffffffffffffffffffffffffffffffffffffff1602179055506001600860008473ffffffffffffffffffffffffffffffffffffffff1673ffffffffffffffffffffffffffffffffffffffff16815260200190815260200160002082815481106124f4576124f361445f565b5b906000526020600020906009020160080160016101000a81548160ff0219169083151502179055505050565b60405160200161252f90613d3e565b60405160208183030381529060405280519060200120600c60003373ffffffffffffffffffffffffffffffffffffffff1673ffffffffffffffffffffffffffffffffffffffff1681526020019081526020016000206002016040516020016125979190613d12565b60405160208183030381529060405280519060200120146125ed576040517f08c379a00000000000000000000000000000000000000000000000000000000081526004016125e490614005565b60405180910390fd5b600981815481106126015761260061445f565b5b9060005260206000209060090201600001339080600181540180825580915050600190039060005260206000200160009091909190916101000a81548173ffffffffffffffffffffffffffffffffffffffff021916908373ffffffffffffffffffffffffffffffffffffffff16021790555050565b600c6020528060005260406000206000915090508060000160009054906101000a900473ffffffffffffffffffffffffffffffffffffffff16908060010180546126bf90614326565b80601f01602080910402602001604051908101604052809291908181526020018280546126eb90614326565b80156127385780601f1061270d57610100808354040283529160200191612738565b820191906000526020600020905b81548152906001019060200180831161271b57829003601f168201915b50505050509080600201805461274d90614326565b80601f016020809104026020016040519081016040528092919081815260200182805461277990614326565b80156127c65780601f1061279b576101008083540402835291602001916127c6565b820191906000526020600020905b8154815290600101906020018083116127a957829003601f168201915b5050505050908060030154908060040180546127e190614326565b80601f016020809104026020016040519081016040528092919081815260200182805461280d90614326565b801561285a5780601f1061282f5761010080835404028352916020019161285a565b820191906000526020600020905b81548152906001019060200180831161283d57829003601f168201915b50505050509080600501805461286f90614326565b80601f016020809104026020016040519081016040528092919081815260200182805461289b90614326565b80156128e85780601f106128bd576101008083540402835291602001916128e8565b820191906000526020600020905b8154815290600101906020018083116128cb57829003601f168201915b5050505050908060060180546128fd90614326565b80601f016020809104026020016040519081016040528092919081815260200182805461292990614326565b80156129765780601f1061294b57610100808354040283529160200191612976565b820191906000526020600020905b81548152906001019060200180831161295957829003601f168201915b5050505050905087565b60405160200161298f90613d29565b60405160208183030381529060405280519060200120600c60003373ffffffffffffffffffffffffffffffffffffffff1673ffffffffffffffffffffffffffffffffffffffff1681526020019081526020016000206002016040516020016129f79190613d12565b6040516020818303038152906040528051906020012014612a4d576040517f08c379a0000000000000000000000000000000000000000000000000000000008152600401612a4490613fc5565b60405180910390fd5b600160098281548110612a6357612a6261445f565b5b906000526020600020906009020160060160006101000a81548160ff0219169083151502179055504260098281548110612aa057612a9f61445f565b5b90600052602060002090600902016003018190555050565b60098181548110612ac857600080fd5b90600052602060002090600902016000915090508060010160009054906101000a900473ffffffffffffffffffffffffffffffffffffffff16908060020154908060030154908060040154908060050154908060060160009054906101000a900460ff1690806007018054612b3c90614326565b80601f0160208091040260200160405190810160405280929190818152602001828054612b6890614326565b8015612bb55780601f10612b8a57610100808354040283529160200191612bb5565b820191906000526020600020905b815481529060010190602001808311612b9857829003601f168201915b505050505090806008018054612bca90614326565b80601f0160208091040260200160405190810160405280929190818152602001828054612bf690614326565b8015612c435780601f10612c1857610100808354040283529160200191612c43565b820191906000526020600020905b815481529060010190602001808311612c2657829003601f168201915b5050505050905088565b60008054906101000a900473ffffffffffffffffffffffffffffffffffffffff1673ffffffffffffffffffffffffffffffffffffffff163373ffffffffffffffffffffffffffffffffffffffff1614612ca557600080fd5b612cad61306c565b42816040018181525050828160e00181905250600a548160a001818152505081816101000181905250600081608001818152505060016002819055506000600d60003373ffffffffffffffffffffffffffffffffffffffff1673ffffffffffffffffffffffffffffffffffffffff16815260200190815260200160002060006101000a81548160ff02191690836001811115612d4c57612d4b614401565b5b021790555060098190806001815401808255809150506001900390600052602060002090600902016000909190919091506000820151816000019080519060200190612d999291906130d0565b5060208201518160010160006101000a81548173ffffffffffffffffffffffffffffffffffffffff021916908373ffffffffffffffffffffffffffffffffffffffff16021790555060408201518160020155606082015181600301556080820151816004015560a0820151816005015560c08201518160060160006101000a81548160ff02191690831515021790555060e0820151816007019080519060200190612e45929190612ed6565b50610100820151816008019080519060200190612e63929190612ed6565b505050600a6000815480929190612e7990614389565b9190505550505050565b6040518060e00160405280600073ffffffffffffffffffffffffffffffffffffffff1681526020016060815260200160608152602001600081526020016060815260200160608152602001606081525090565b828054612ee290614326565b90600052602060002090601f016020900481019282612f045760008555612f4b565b82601f10612f1d57805160ff1916838001178555612f4b565b82800160010185558215612f4b579182015b82811115612f4a578251825591602001919060010190612f2f565b5b509050612f58919061315a565b5090565b828054612f6890614326565b90600052602060002090601f016020900481019282612f8a5760008555612fd8565b82601f10612f9b5780548555612fd8565b82800160010185558215612fd857600052602060002091601f016020900482015b82811115612fd7578254825591600101919060010190612fbc565b5b509050612fe5919061315a565b5090565b604051806101400160405280600073ffffffffffffffffffffffffffffffffffffffff168152602001600073ffffffffffffffffffffffffffffffffffffffff1681526020016000815260200160008152602001606081526020016000815260200160008152602001600081526020016000151581526020016000151581525090565b60405180610120016040528060608152602001600073ffffffffffffffffffffffffffffffffffffffff1681526020016000815260200160008152602001600081526020016000815260200160001515815260200160608152602001606081525090565b828054828255906000526020600020908101928215613149579160200282015b828111156131485782518260006101000a81548173ffffffffffffffffffffffffffffffffffffffff021916908373ffffffffffffffffffffffffffffffffffffffff160217905550916020019190600101906130f0565b5b509050613156919061315a565b5090565b5b8082111561317357600081600090555060010161315b565b5090565b600061318a61318584614087565b614062565b9050828152602081018484840111156131a6576131a56144cc565b5b6131b18482856142e4565b509392505050565b60006131cc6131c7846140b8565b614062565b9050828152602081018484840111156131e8576131e76144cc565b5b6131f38482856142e4565b509392505050565b60008135905061320a816145df565b92915050565b60008083601f840112613226576132256144c2565b5b8235905067ffffffffffffffff811115613243576132426144bd565b5b60208301915083600182028301111561325f5761325e6144c7565b5b9250929050565b600082601f83011261327b5761327a6144c2565b5b813561328b848260208601613177565b91505092915050565b600082601f8301126132a9576132a86144c2565b5b81356132b98482602086016131b9565b91505092915050565b6000813590506132d1816145f6565b92915050565b6000602082840312156132ed576132ec6144d6565b5b60006132fb848285016131fb565b91505092915050565b6000806040838503121561331b5761331a6144d6565b5b6000613329858286016131fb565b925050602061333a858286016132c2565b9150509250929050565b6000806020838503121561335b5761335a6144d6565b5b600083013567ffffffffffffffff811115613379576133786144d1565b5b61338585828601613210565b92509250509250929050565b6000602082840312156133a7576133a66144d6565b5b600082013567ffffffffffffffff8111156133c5576133c46144d1565b5b6133d184828501613266565b91505092915050565b600080604083850312156133f1576133f06144d6565b5b600083013567ffffffffffffffff81111561340f5761340e6144d1565b5b61341b85828601613294565b925050602083013567ffffffffffffffff81111561343c5761343b6144d1565b5b61344885828601613294565b9150509250929050565b600060208284031215613468576134676144d6565b5b6000613476848285016132c2565b91505092915050565b60008060008060808587031215613499576134986144d6565b5b60006134a7878288016132c2565b945050602085013567ffffffffffffffff8111156134c8576134c76144d1565b5b6134d487828801613294565b935050604085013567ffffffffffffffff8111156134f5576134f46144d1565b5b61350187828801613294565b925050606085013567ffffffffffffffff811115613522576135216144d1565b5b61352e87828801613294565b91505092959194509250565b600080600080600060a08688031215613556576135556144d6565b5b6000613564888289016132c2565b955050602086013567ffffffffffffffff811115613585576135846144d1565b5b61359188828901613294565b945050604086013567ffffffffffffffff8111156135b2576135b16144d1565b5b6135be88828901613294565b935050606086013567ffffffffffffffff8111156135df576135de6144d1565b5b6135eb88828901613294565b925050608086013567ffffffffffffffff81111561360c5761360b6144d1565b5b61361888828901613294565b9150509295509295909350565b60008060006060848603121561363e5761363d6144d6565b5b600061364c868287016132c2565b935050602061365d868287016132c2565b925050604084013567ffffffffffffffff81111561367e5761367d6144d1565b5b61368a86828701613294565b9150509250925092565b60006136a083836136d4565b60208301905092915050565b60006136b88383613a8f565b905092915050565b60006136cc8383613b62565b905092915050565b6136dd8161429c565b82525050565b6136ec8161429c565b82525050565b60006136fd8261412e565b613707818561418c565b9350613712836140e9565b8060005b8381101561374357815161372a8882613694565b975061373583614165565b925050600181019050613716565b5085935050505092915050565b600061375b8261412e565b613765818561419d565b9350613770836140e9565b8060005b838110156137a15781516137888882613694565b975061379383614165565b925050600181019050613774565b5085935050505092915050565b60006137b982614139565b6137c381856141ae565b9350836020820285016137d5856140f9565b8060005b8581101561381157848403895281516137f285826136ac565b94506137fd83614172565b925060208a019950506001810190506137d9565b50829750879550505050505092915050565b600061382e82614144565b61383881856141bf565b93508360208202850161384a85614109565b8060005b85811015613886578484038952815161386785826136c0565b94506138728361417f565b925060208a0199505060018101905061384e565b50829750879550505050505092915050565b6138a1816142ae565b82525050565b6138b0816142ae565b82525050565b60006138c18261414f565b6138cb81856141d0565b93506138db8185602086016142f3565b6138e4816144db565b840191505092915050565b60006138fa8261415a565b61390481856141e1565b93506139148185602086016142f3565b61391d816144db565b840191505092915050565b60006139338261415a565b61393d81856141f2565b935061394d8185602086016142f3565b613956816144db565b840191505092915050565b6000815461396e81614326565b6139788186614203565b9450600182166000811461399357600181146139a4576139d7565b60ff198316865281860193506139d7565b6139ad85614119565b60005b838110156139cf578154818901526001820191506020810190506139b0565b838801955050505b50505092915050565b60006139ed600a836141f2565b91506139f8826144ec565b602082019050919050565b6000613a10600483614203565b9150613a1b82614515565b600482019050919050565b6000613a336023836141f2565b9150613a3e8261453e565b604082019050919050565b6000613a56600483614203565b9150613a618261458d565b600482019050919050565b6000613a79600a836141f2565b9150613a84826145b6565b602082019050919050565b6000610120830160008301518482036000860152613aad82826136f2565b9150506020830151613ac260208601826136d4565b506040830151613ad56040860182613cf4565b506060830151613ae86060860182613cf4565b506080830151613afb6080860182613cf4565b5060a0830151613b0e60a0860182613cf4565b5060c0830151613b2160c0860182613898565b5060e083015184820360e0860152613b3982826138ef565b915050610100830151848203610100860152613b5582826138ef565b9150508091505092915050565b600061014083016000830151613b7b60008601826136d4565b506020830151613b8e60208601826136d4565b506040830151613ba16040860182613cf4565b506060830151613bb46060860182613cf4565b5060808301518482036080860152613bcc82826138ef565b91505060a0830151613be160a0860182613cf4565b5060c0830151613bf460c0860182613cf4565b5060e0830151613c0760e0860182613cf4565b50610100830151613c1c610100860182613898565b50610120830151613c31610120860182613898565b508091505092915050565b600060e083016000830151613c5460008601826136d4565b5060208301518482036020860152613c6c82826138ef565b91505060408301518482036040860152613c8682826138ef565b9150506060830151613c9b6060860182613cf4565b5060808301518482036080860152613cb382826138ef565b91505060a083015184820360a0860152613ccd82826138ef565b91505060c083015184820360c0860152613ce782826138ef565b9150508091505092915050565b613cfd816142da565b82525050565b613d0c816142da565b82525050565b6000613d1e8284613961565b915081905092915050565b6000613d3482613a03565b9150819050919050565b6000613d4982613a49565b9150819050919050565b6000602082019050613d6860008301846136e3565b92915050565b600061014082019050613d84600083018d6136e3565b613d91602083018c6136e3565b613d9e604083018b613d03565b613dab606083018a613d03565b8181036080830152613dbd8189613928565b9050613dcc60a0830188613d03565b613dd960c0830187613d03565b613de660e0830186613d03565b613df46101008301856138a7565b613e026101208301846138a7565b9b9a5050505050505050505050565b600060e082019050613e26600083018a6136e3565b8181036020830152613e388189613928565b90508181036040830152613e4c8188613928565b9050613e5b6060830187613d03565b8181036080830152613e6d8186613928565b905081810360a0830152613e818185613928565b905081810360c0830152613e958184613928565b905098975050505050505050565b600061010082019050613eb9600083018b6136e3565b613ec6602083018a613d03565b613ed36040830189613d03565b613ee06060830188613d03565b613eed6080830187613d03565b613efa60a08301866138a7565b81810360c0830152613f0c8185613928565b905081810360e0830152613f208184613928565b90509998505050505050505050565b60006020820190508181036000830152613f498184613750565b905092915050565b60006020820190508181036000830152613f6b81846137ae565b905092915050565b60006020820190508181036000830152613f8d8184613823565b905092915050565b6000604082019050613faa60008301856138a7565b8181036020830152613fbc81846138b6565b90509392505050565b60006020820190508181036000830152613fde816139e0565b9050919050565b60006020820190508181036000830152613ffe81613a26565b9050919050565b6000602082019050818103600083015261401e81613a6c565b9050919050565b6000602082019050818103600083015261403f8184613c3c565b905092915050565b600060208201905061405c6000830184613d03565b92915050565b600061406c61407d565b90506140788282614358565b919050565b6000604051905090565b600067ffffffffffffffff8211156140a2576140a161448e565b5b6140ab826144db565b9050602081019050919050565b600067ffffffffffffffff8211156140d3576140d261448e565b5b6140dc826144db565b9050602081019050919050565b6000819050602082019050919050565b6000819050602082019050919050565b6000819050602082019050919050565b60008190508160005260206000209050919050565b600081519050919050565b600081519050919050565b600081519050919050565b600081519050919050565b600081519050919050565b6000602082019050919050565b6000602082019050919050565b6000602082019050919050565b600082825260208201905092915050565b600082825260208201905092915050565b600082825260208201905092915050565b600082825260208201905092915050565b600082825260208201905092915050565b600082825260208201905092915050565b600082825260208201905092915050565b600081905092915050565b6000614219826142da565b9150614224836142da565b9250817fffffffffffffffffffffffffffffffffffffffffffffffffffffffffffffffff048311821515161561425d5761425c6143d2565b5b828202905092915050565b6000614273826142da565b915061427e836142da565b925082821015614291576142906143d2565b5b828203905092915050565b60006142a7826142ba565b9050919050565b60008115159050919050565b600073ffffffffffffffffffffffffffffffffffffffff82169050919050565b6000819050919050565b82818337600083830152505050565b60005b838110156143115780820151818401526020810190506142f6565b83811115614320576000848401525b50505050565b6000600282049050600182168061433e57607f821691505b6020821081141561435257614351614430565b5b50919050565b614361826144db565b810181811067ffffffffffffffff821117156143805761437f61448e565b5b80604052505050565b6000614394826142da565b91507fffffffffffffffffffffffffffffffffffffffffffffffffffffffffffffffff8214156143c7576143c66143d2565b5b600182019050919050565b7f4e487b7100000000000000000000000000000000000000000000000000000000600052601160045260246000fd5b7f4e487b7100000000000000000000000000000000000000000000000000000000600052602160045260246000fd5b7f4e487b7100000000000000000000000000000000000000000000000000000000600052602260045260246000fd5b7f4e487b7100000000000000000000000000000000000000000000000000000000600052603260045260246000fd5b7f4e487b7100000000000000000000000000000000000000000000000000000000600052604160045260246000fd5b600080fd5b600080fd5b600080fd5b600080fd5b600080fd5b600080fd5b6000601f19601f8301169050919050565b7f4e4f542041205553455200000000000000000000000000000000000000000000600082015250565b7f5573657200000000000000000000000000000000000000000000000000000000600082015250565b7f446f65736e2774206d65657420726571756972656d656e7420666f722055704b60008201527f6565700000000000000000000000000000000000000000000000000000000000602082015250565b7f486f737400000000000000000000000000000000000000000000000000000000600082015250565b7f4e4f54204120484f535400000000000000000000000000000000000000000000600082015250565b6145e88161429c565b81146145f357600080fd5b50565b6145ff816142da565b811461460a57600080fd5b5056fea26469706673582212203e55bf3c5acca9e40382b9c83a94403070acb5277c070c299e45b9b2f532bf9f64736f6c63430008070033",
  "devdoc": {
    "kind": "dev",
    "methods": {
      "checkUpkeep(bytes)": {
        "details": "This is the function that the Chainlink Keeper nodes call they look for `upkeepNeeded` to return True. the following should be true for this to return true: 1. It makes sure that the campaign or meeting is not yet completed 2. The time interval has passed for either meeting or campaign."
      },
      "constructor": {
        "details": "constructor used to assign values that will not change"
      },
      "createCampaign(string,string)": {
        "details": "This function `createCampaign` allows only the User to call it hence the `OnlyUser` modifier after which any avaliable volunteer would be assigned to the campaign"
      },
      "createHost(uint256,string,string,string,string)": {
        "details": "This function `createHost` any body can call this functions and the senders profile would be set to that of a `Host`"
      },
      "createSchedule(uint256,uint256,string)": {
        "details": "This function `createSchedule` allows only the Host to call it hence the `OnlyHost` modifier after which a Host can create a meeting with some parameters like time and fee needed"
      },
      "createUser(uint256,string,string,string)": {
        "details": "This function `createUser` any body can call this functions and the senders profile would be set to that of a `User`"
      },
      "endCampaign(uint256)": {
        "details": "This function `endCampaign` allows only the User end the campaign"
      },
      "getHelp(uint256)": {
        "details": "This function `getHelo` allows only the User to call it hence the `OnlyUser` modifier after which the Campaign ID is specified and the user would be assigned to the Campaign"
      },
      "joinCampaign(uint256)": {
        "details": "This function `joinCampaign` allows only the User to call it hence the `onlyHost` modifier after which the Campaign ID is specified and the user would be assigned to the Campaign"
      },
      "joinMeeting(address,uint256)": {
        "details": "This function `joinMeeting` allows only the User to call it hence the `OnlyUser` modifier after which the meeting ID is specified and the user would be assigned to the meeting"
      },
      "performUpkeep(bytes)": {
        "details": "Once `checkUpkeep` is returning `true`, this function is called"
      }
    },
    "version": 1
  },
  "userdoc": {
    "kind": "user",
    "methods": {
      "meetingNum()": {
        "notice": "Getter Functions "
      }
    },
    "version": 1
  },
  "storageLayout": {
    "storage": [
      {
        "astId": 20,
        "contract": "contracts/XTELPT.sol:XTELPT",
        "label": "owner",
        "offset": 0,
        "slot": "0",
        "type": "t_address"
      },
      {
        "astId": 25,
        "contract": "contracts/XTELPT.sol:XTELPT",
        "label": "counter",
        "offset": 0,
        "slot": "1",
        "type": "t_uint256"
      },
      {
        "astId": 27,
        "contract": "contracts/XTELPT.sol:XTELPT",
        "label": "i_interval",
        "offset": 0,
        "slot": "2",
        "type": "t_uint256"
      },
      {
        "astId": 29,
        "contract": "contracts/XTELPT.sol:XTELPT",
        "label": "s_lastTimeStamp",
        "offset": 0,
        "slot": "3",
        "type": "t_uint256"
      },
      {
        "astId": 31,
        "contract": "contracts/XTELPT.sol:XTELPT",
        "label": "v_lastTimeStamp",
        "offset": 0,
        "slot": "4",
        "type": "t_uint256"
      },
      {
        "astId": 34,
        "contract": "contracts/XTELPT.sol:XTELPT",
        "label": "userType",
        "offset": 0,
        "slot": "5",
        "type": "t_string_storage"
      },
      {
        "astId": 37,
        "contract": "contracts/XTELPT.sol:XTELPT",
        "label": "hostType",
        "offset": 0,
        "slot": "6",
        "type": "t_string_storage"
      },
      {
        "astId": 40,
        "contract": "contracts/XTELPT.sol:XTELPT",
        "label": "volunType",
        "offset": 0,
        "slot": "7",
        "type": "t_string_storage"
      },
      {
        "astId": 46,
        "contract": "contracts/XTELPT.sol:XTELPT",
        "label": "Meeting",
        "offset": 0,
        "slot": "8",
        "type": "t_mapping(t_address,t_array(t_struct(meeting)111_storage)dyn_storage)"
      },
      {
        "astId": 50,
        "contract": "contracts/XTELPT.sol:XTELPT",
        "label": "Campaign",
        "offset": 0,
        "slot": "9",
        "type": "t_array(t_struct(campaign)131_storage)dyn_storage"
      },
      {
        "astId": 52,
        "contract": "contracts/XTELPT.sol:XTELPT",
        "label": "campaignIndex",
        "offset": 0,
        "slot": "10",
        "type": "t_uint256"
      },
      {
        "astId": 54,
        "contract": "contracts/XTELPT.sol:XTELPT",
        "label": "meetingIndex",
        "offset": 0,
        "slot": "11",
        "type": "t_uint256"
      },
      {
        "astId": 59,
        "contract": "contracts/XTELPT.sol:XTELPT",
        "label": "UserProfile",
        "offset": 0,
        "slot": "12",
        "type": "t_mapping(t_address,t_struct(profile)90_storage)"
      },
      {
        "astId": 64,
        "contract": "contracts/XTELPT.sol:XTELPT",
        "label": "s_xtelpState",
        "offset": 0,
        "slot": "13",
        "type": "t_mapping(t_address,t_enum(XTELPState)23)"
      },
      {
        "astId": 69,
        "contract": "contracts/XTELPT.sol:XTELPT",
        "label": "volunState",
        "offset": 0,
        "slot": "14",
        "type": "t_mapping(t_address,t_enum(XTELPState)23)"
      },
      {
        "astId": 72,
        "contract": "contracts/XTELPT.sol:XTELPT",
        "label": "AllAccount",
        "offset": 0,
        "slot": "15",
        "type": "t_array(t_address)dyn_storage"
      },
      {
        "astId": 75,
        "contract": "contracts/XTELPT.sol:XTELPT",
        "label": "recentCampaignCreator",
        "offset": 0,
        "slot": "16",
        "type": "t_array(t_address)dyn_storage"
      }
    ],
    "types": {
      "t_address": {
        "encoding": "inplace",
        "label": "address",
        "numberOfBytes": "20"
      },
      "t_array(t_address)dyn_storage": {
        "base": "t_address",
        "encoding": "dynamic_array",
        "label": "address[]",
        "numberOfBytes": "32"
      },
      "t_array(t_struct(campaign)131_storage)dyn_storage": {
        "base": "t_struct(campaign)131_storage",
        "encoding": "dynamic_array",
        "label": "struct XTELPT.campaign[]",
        "numberOfBytes": "32"
      },
      "t_array(t_struct(meeting)111_storage)dyn_storage": {
        "base": "t_struct(meeting)111_storage",
        "encoding": "dynamic_array",
        "label": "struct XTELPT.meeting[]",
        "numberOfBytes": "32"
      },
      "t_bool": {
        "encoding": "inplace",
        "label": "bool",
        "numberOfBytes": "1"
      },
      "t_enum(XTELPState)23": {
        "encoding": "inplace",
        "label": "enum XTELPT.XTELPState",
        "numberOfBytes": "1"
      },
      "t_mapping(t_address,t_array(t_struct(meeting)111_storage)dyn_storage)": {
        "encoding": "mapping",
        "key": "t_address",
        "label": "mapping(address => struct XTELPT.meeting[])",
        "numberOfBytes": "32",
        "value": "t_array(t_struct(meeting)111_storage)dyn_storage"
      },
      "t_mapping(t_address,t_enum(XTELPState)23)": {
        "encoding": "mapping",
        "key": "t_address",
        "label": "mapping(address => enum XTELPT.XTELPState)",
        "numberOfBytes": "32",
        "value": "t_enum(XTELPState)23"
      },
      "t_mapping(t_address,t_struct(profile)90_storage)": {
        "encoding": "mapping",
        "key": "t_address",
        "label": "mapping(address => struct XTELPT.profile)",
        "numberOfBytes": "32",
        "value": "t_struct(profile)90_storage"
      },
      "t_string_storage": {
        "encoding": "bytes",
        "label": "string",
        "numberOfBytes": "32"
      },
      "t_struct(campaign)131_storage": {
        "encoding": "inplace",
        "label": "struct XTELPT.campaign",
        "members": [
          {
            "astId": 114,
            "contract": "contracts/XTELPT.sol:XTELPT",
            "label": "volunteer",
            "offset": 0,
            "slot": "0",
            "type": "t_array(t_address)dyn_storage"
          },
          {
            "astId": 116,
            "contract": "contracts/XTELPT.sol:XTELPT",
            "label": "user",
            "offset": 0,
            "slot": "1",
            "type": "t_address"
          },
          {
            "astId": 118,
            "contract": "contracts/XTELPT.sol:XTELPT",
            "label": "start_time",
            "offset": 0,
            "slot": "2",
            "type": "t_uint256"
          },
          {
            "astId": 120,
            "contract": "contracts/XTELPT.sol:XTELPT",
            "label": "end_time",
            "offset": 0,
            "slot": "3",
            "type": "t_uint256"
          },
          {
            "astId": 122,
            "contract": "contracts/XTELPT.sol:XTELPT",
            "label": "fee",
            "offset": 0,
            "slot": "4",
            "type": "t_uint256"
          },
          {
            "astId": 124,
            "contract": "contracts/XTELPT.sol:XTELPT",
            "label": "index",
            "offset": 0,
            "slot": "5",
            "type": "t_uint256"
          },
          {
            "astId": 126,
            "contract": "contracts/XTELPT.sol:XTELPT",
            "label": "completed",
            "offset": 0,
            "slot": "6",
            "type": "t_bool"
          },
          {
            "astId": 128,
            "contract": "contracts/XTELPT.sol:XTELPT",
            "label": "name",
            "offset": 0,
            "slot": "7",
            "type": "t_string_storage"
          },
          {
            "astId": 130,
            "contract": "contracts/XTELPT.sol:XTELPT",
            "label": "desc",
            "offset": 0,
            "slot": "8",
            "type": "t_string_storage"
          }
        ],
        "numberOfBytes": "288"
      },
      "t_struct(meeting)111_storage": {
        "encoding": "inplace",
        "label": "struct XTELPT.meeting",
        "members": [
          {
            "astId": 92,
            "contract": "contracts/XTELPT.sol:XTELPT",
            "label": "host",
            "offset": 0,
            "slot": "0",
            "type": "t_address"
          },
          {
            "astId": 94,
            "contract": "contracts/XTELPT.sol:XTELPT",
            "label": "user",
            "offset": 0,
            "slot": "1",
            "type": "t_address"
          },
          {
            "astId": 96,
            "contract": "contracts/XTELPT.sol:XTELPT",
            "label": "start",
            "offset": 0,
            "slot": "2",
            "type": "t_uint256"
          },
          {
            "astId": 98,
            "contract": "contracts/XTELPT.sol:XTELPT",
            "label": "end",
            "offset": 0,
            "slot": "3",
            "type": "t_uint256"
          },
          {
            "astId": 100,
            "contract": "contracts/XTELPT.sol:XTELPT",
            "label": "desc",
            "offset": 0,
            "slot": "4",
            "type": "t_string_storage"
          },
          {
            "astId": 102,
            "contract": "contracts/XTELPT.sol:XTELPT",
            "label": "time",
            "offset": 0,
            "slot": "5",
            "type": "t_uint256"
          },
          {
            "astId": 104,
            "contract": "contracts/XTELPT.sol:XTELPT",
            "label": "fee",
            "offset": 0,
            "slot": "6",
            "type": "t_uint256"
          },
          {
            "astId": 106,
            "contract": "contracts/XTELPT.sol:XTELPT",
            "label": "index",
            "offset": 0,
            "slot": "7",
            "type": "t_uint256"
          },
          {
            "astId": 108,
            "contract": "contracts/XTELPT.sol:XTELPT",
            "label": "completed",
            "offset": 0,
            "slot": "8",
            "type": "t_bool"
          },
          {
            "astId": 110,
            "contract": "contracts/XTELPT.sol:XTELPT",
            "label": "booked",
            "offset": 1,
            "slot": "8",
            "type": "t_bool"
          }
        ],
        "numberOfBytes": "288"
      },
      "t_struct(profile)90_storage": {
        "encoding": "inplace",
        "label": "struct XTELPT.profile",
        "members": [
          {
            "astId": 77,
            "contract": "contracts/XTELPT.sol:XTELPT",
            "label": "addr",
            "offset": 0,
            "slot": "0",
            "type": "t_address"
          },
          {
            "astId": 79,
            "contract": "contracts/XTELPT.sol:XTELPT",
            "label": "name",
            "offset": 0,
            "slot": "1",
            "type": "t_string_storage"
          },
          {
            "astId": 81,
            "contract": "contracts/XTELPT.sol:XTELPT",
            "label": "role",
            "offset": 0,
            "slot": "2",
            "type": "t_string_storage"
          },
          {
            "astId": 83,
            "contract": "contracts/XTELPT.sol:XTELPT",
            "label": "rating",
            "offset": 0,
            "slot": "3",
            "type": "t_uint256"
          },
          {
            "astId": 85,
            "contract": "contracts/XTELPT.sol:XTELPT",
            "label": "bio",
            "offset": 0,
            "slot": "4",
            "type": "t_string_storage"
          },
          {
            "astId": 87,
            "contract": "contracts/XTELPT.sol:XTELPT",
            "label": "profilePic",
            "offset": 0,
            "slot": "5",
            "type": "t_string_storage"
          },
          {
            "astId": 89,
            "contract": "contracts/XTELPT.sol:XTELPT",
            "label": "hostTitle",
            "offset": 0,
            "slot": "6",
            "type": "t_string_storage"
          }
        ],
        "numberOfBytes": "224"
      },
      "t_uint256": {
        "encoding": "inplace",
        "label": "uint256",
        "numberOfBytes": "32"
      }
    }
  }
}