{
  "address": "0x0Bd60b5248023f758Df94c54Fa086cbC35afCde5",
  "abi": [
    {
      "inputs": [],
      "stateMutability": "nonpayable",
      "type": "constructor"
    },
    {
      "anonymous": false,
      "inputs": [
        {
          "indexed": true,
          "internalType": "uint256",
          "name": "requestId",
          "type": "uint256"
        }
      ],
      "name": "RequestedID",
      "type": "event"
    },
    {
      "inputs": [
        {
          "internalType": "uint256",
          "name": "",
          "type": "uint256"
        }
      ],
      "name": "AllAccount",
      "outputs": [
        {
          "internalType": "address",
          "name": "",
          "type": "address"
        }
      ],
      "stateMutability": "view",
      "type": "function"
    },
    {
      "inputs": [
        {
          "internalType": "uint256",
          "name": "",
          "type": "uint256"
        }
      ],
      "name": "Campaign",
      "outputs": [
        {
          "internalType": "address",
          "name": "user",
          "type": "address"
        },
        {
          "internalType": "address",
          "name": "vol",
          "type": "address"
        },
        {
          "internalType": "uint256",
          "name": "start_time",
          "type": "uint256"
        },
        {
          "internalType": "uint256",
          "name": "end_time",
          "type": "uint256"
        },
        {
          "internalType": "string",
          "name": "image",
          "type": "string"
        },
        {
          "internalType": "uint256",
          "name": "fee",
          "type": "uint256"
        },
        {
          "internalType": "uint256",
          "name": "index",
          "type": "uint256"
        },
        {
          "internalType": "bool",
          "name": "completed",
          "type": "bool"
        },
        {
          "internalType": "string",
          "name": "name",
          "type": "string"
        },
        {
          "internalType": "string",
          "name": "desc",
          "type": "string"
        }
      ],
      "stateMutability": "view",
      "type": "function"
    },
    {
      "inputs": [
        {
          "internalType": "address",
          "name": "",
          "type": "address"
        },
        {
          "internalType": "uint256",
          "name": "",
          "type": "uint256"
        }
      ],
      "name": "Meeting",
      "outputs": [
        {
          "internalType": "address payable",
          "name": "host",
          "type": "address"
        },
        {
          "internalType": "address payable",
          "name": "user",
          "type": "address"
        },
        {
          "internalType": "uint256",
          "name": "start",
          "type": "uint256"
        },
        {
          "internalType": "uint256",
          "name": "end",
          "type": "uint256"
        },
        {
          "internalType": "string",
          "name": "desc",
          "type": "string"
        },
        {
          "internalType": "uint256",
          "name": "time",
          "type": "uint256"
        },
        {
          "internalType": "uint256",
          "name": "fee",
          "type": "uint256"
        },
        {
          "internalType": "uint256",
          "name": "index",
          "type": "uint256"
        },
        {
          "internalType": "bool",
          "name": "completed",
          "type": "bool"
        },
        {
          "internalType": "bool",
          "name": "booked",
          "type": "bool"
        }
      ],
      "stateMutability": "view",
      "type": "function"
    },
    {
      "inputs": [
        {
          "internalType": "address",
          "name": "",
          "type": "address"
        }
      ],
      "name": "UserProfile",
      "outputs": [
        {
          "internalType": "address",
          "name": "addr",
          "type": "address"
        },
        {
          "internalType": "string",
          "name": "name",
          "type": "string"
        },
        {
          "internalType": "string",
          "name": "role",
          "type": "string"
        },
        {
          "internalType": "uint256",
          "name": "rating",
          "type": "uint256"
        },
        {
          "internalType": "string",
          "name": "bio",
          "type": "string"
        },
        {
          "internalType": "string",
          "name": "profilePic",
          "type": "string"
        },
        {
          "internalType": "string",
          "name": "hostTitle",
          "type": "string"
        }
      ],
      "stateMutability": "view",
      "type": "function"
    },
    {
      "inputs": [],
      "name": "campaignIndex",
      "outputs": [
        {
          "internalType": "uint256",
          "name": "",
          "type": "uint256"
        }
      ],
      "stateMutability": "view",
      "type": "function"
    },
    {
      "inputs": [],
      "name": "campaignNum",
      "outputs": [
        {
          "internalType": "uint256",
          "name": "",
          "type": "uint256"
        }
      ],
      "stateMutability": "view",
      "type": "function"
    },
    {
      "inputs": [],
      "name": "counter",
      "outputs": [
        {
          "internalType": "uint256",
          "name": "",
          "type": "uint256"
        }
      ],
      "stateMutability": "view",
      "type": "function"
    },
    {
      "inputs": [
        {
          "internalType": "string",
          "name": "_name",
          "type": "string"
        },
        {
          "internalType": "string",
          "name": "_desc",
          "type": "string"
        },
        {
          "internalType": "string",
          "name": "_image",
          "type": "string"
        }
      ],
      "name": "createCampaign",
      "outputs": [],
      "stateMutability": "nonpayable",
      "type": "function"
    },
    {
      "inputs": [
        {
          "internalType": "uint256",
          "name": "_rating",
          "type": "uint256"
        },
        {
          "internalType": "string",
          "name": "_name",
          "type": "string"
        },
        {
          "internalType": "string",
          "name": "_pic",
          "type": "string"
        },
        {
          "internalType": "string",
          "name": "_bio",
          "type": "string"
        },
        {
          "internalType": "string",
          "name": "_title",
          "type": "string"
        }
      ],
      "name": "createHost",
      "outputs": [],
      "stateMutability": "nonpayable",
      "type": "function"
    },
    {
      "inputs": [
        {
          "internalType": "uint256",
          "name": "_start",
          "type": "uint256"
        },
        {
          "internalType": "uint256",
          "name": "_end",
          "type": "uint256"
        },
        {
          "internalType": "uint256",
          "name": "_fee",
          "type": "uint256"
        },
        {
          "internalType": "string",
          "name": "_desc",
          "type": "string"
        }
      ],
      "name": "createSchedule",
      "outputs": [],
      "stateMutability": "nonpayable",
      "type": "function"
    },
    {
      "inputs": [
        {
          "internalType": "uint256",
          "name": "_rating",
          "type": "uint256"
        },
        {
          "internalType": "string",
          "name": "_name",
          "type": "string"
        },
        {
          "internalType": "string",
          "name": "_pic",
          "type": "string"
        },
        {
          "internalType": "string",
          "name": "_bio",
          "type": "string"
        }
      ],
      "name": "createUser",
      "outputs": [],
      "stateMutability": "nonpayable",
      "type": "function"
    },
    {
      "inputs": [
        {
          "internalType": "uint256",
          "name": "_id",
          "type": "uint256"
        },
        {
          "internalType": "string",
          "name": "_name",
          "type": "string"
        },
        {
          "internalType": "string",
          "name": "_desc",
          "type": "string"
        },
        {
          "internalType": "string",
          "name": "_image",
          "type": "string"
        }
      ],
      "name": "editCampaign",
      "outputs": [],
      "stateMutability": "nonpayable",
      "type": "function"
    },
    {
      "inputs": [
        {
          "internalType": "uint256",
          "name": "_id",
          "type": "uint256"
        }
      ],
      "name": "endCampaign",
      "outputs": [],
      "stateMutability": "nonpayable",
      "type": "function"
    },
    {
      "inputs": [],
      "name": "endMeeting",
      "outputs": [],
      "stateMutability": "nonpayable",
      "type": "function"
    },
    {
      "inputs": [],
      "name": "getAllAccount",
      "outputs": [
        {
          "internalType": "address[]",
          "name": "",
          "type": "address[]"
        }
      ],
      "stateMutability": "view",
      "type": "function"
    },
    {
      "inputs": [],
      "name": "getCampaign",
      "outputs": [
        {
          "components": [
            {
              "internalType": "address[]",
              "name": "volunteer",
              "type": "address[]"
            },
            {
              "internalType": "address",
              "name": "user",
              "type": "address"
            },
            {
              "internalType": "address",
              "name": "vol",
              "type": "address"
            },
            {
              "internalType": "uint256",
              "name": "start_time",
              "type": "uint256"
            },
            {
              "internalType": "uint256",
              "name": "end_time",
              "type": "uint256"
            },
            {
              "internalType": "string",
              "name": "image",
              "type": "string"
            },
            {
              "internalType": "uint256",
              "name": "fee",
              "type": "uint256"
            },
            {
              "internalType": "uint256",
              "name": "index",
              "type": "uint256"
            },
            {
              "internalType": "bool",
              "name": "completed",
              "type": "bool"
            },
            {
              "internalType": "string",
              "name": "name",
              "type": "string"
            },
            {
              "internalType": "string",
              "name": "desc",
              "type": "string"
            }
          ],
          "internalType": "struct XTELPT.campaign[]",
          "name": "",
          "type": "tuple[]"
        }
      ],
      "stateMutability": "view",
      "type": "function"
    },
    {
      "inputs": [
        {
          "internalType": "uint256",
          "name": "_id",
          "type": "uint256"
        }
      ],
      "name": "getHelp",
      "outputs": [],
      "stateMutability": "nonpayable",
      "type": "function"
    },
    {
      "inputs": [
        {
          "internalType": "address",
          "name": "_prof",
          "type": "address"
        }
      ],
      "name": "getMeeting",
      "outputs": [
        {
          "components": [
            {
              "internalType": "address payable",
              "name": "host",
              "type": "address"
            },
            {
              "internalType": "address payable",
              "name": "user",
              "type": "address"
            },
            {
              "internalType": "uint256",
              "name": "start",
              "type": "uint256"
            },
            {
              "internalType": "uint256",
              "name": "end",
              "type": "uint256"
            },
            {
              "internalType": "string",
              "name": "desc",
              "type": "string"
            },
            {
              "internalType": "uint256",
              "name": "time",
              "type": "uint256"
            },
            {
              "internalType": "uint256",
              "name": "fee",
              "type": "uint256"
            },
            {
              "internalType": "uint256",
              "name": "index",
              "type": "uint256"
            },
            {
              "internalType": "bool",
              "name": "completed",
              "type": "bool"
            },
            {
              "internalType": "bool",
              "name": "booked",
              "type": "bool"
            }
          ],
          "internalType": "struct XTELPT.meeting[]",
          "name": "",
          "type": "tuple[]"
        }
      ],
      "stateMutability": "view",
      "type": "function"
    },
    {
      "inputs": [
        {
          "internalType": "address",
          "name": "userAdd",
          "type": "address"
        }
      ],
      "name": "getProfile",
      "outputs": [
        {
          "components": [
            {
              "internalType": "address",
              "name": "addr",
              "type": "address"
            },
            {
              "internalType": "string",
              "name": "name",
              "type": "string"
            },
            {
              "internalType": "string",
              "name": "role",
              "type": "string"
            },
            {
              "internalType": "uint256",
              "name": "rating",
              "type": "uint256"
            },
            {
              "internalType": "string",
              "name": "bio",
              "type": "string"
            },
            {
              "internalType": "string",
              "name": "profilePic",
              "type": "string"
            },
            {
              "internalType": "string",
              "name": "hostTitle",
              "type": "string"
            }
          ],
          "internalType": "struct XTELPT.profile",
          "name": "",
          "type": "tuple"
        }
      ],
      "stateMutability": "view",
      "type": "function"
    },
    {
      "inputs": [],
      "name": "interval",
      "outputs": [
        {
          "internalType": "uint256",
          "name": "",
          "type": "uint256"
        }
      ],
      "stateMutability": "view",
      "type": "function"
    },
    {
      "inputs": [
        {
          "internalType": "uint256",
          "name": "_id",
          "type": "uint256"
        }
      ],
      "name": "joinCampaign",
      "outputs": [],
      "stateMutability": "nonpayable",
      "type": "function"
    },
    {
      "inputs": [
        {
          "internalType": "address",
          "name": "_host",
          "type": "address"
        },
        {
          "internalType": "uint256",
          "name": "_id",
          "type": "uint256"
        }
      ],
      "name": "joinMeeting",
      "outputs": [],
      "stateMutability": "payable",
      "type": "function"
    },
    {
      "inputs": [],
      "name": "lastTimeStamp",
      "outputs": [
        {
          "internalType": "uint256",
          "name": "",
          "type": "uint256"
        }
      ],
      "stateMutability": "view",
      "type": "function"
    },
    {
      "inputs": [],
      "name": "meetingIndex",
      "outputs": [
        {
          "internalType": "uint256",
          "name": "",
          "type": "uint256"
        }
      ],
      "stateMutability": "view",
      "type": "function"
    },
    {
      "inputs": [],
      "name": "meetingNum",
      "outputs": [
        {
          "internalType": "uint256",
          "name": "",
          "type": "uint256"
        }
      ],
      "stateMutability": "view",
      "type": "function"
    },
    {
      "inputs": [],
      "name": "owner",
      "outputs": [
        {
          "internalType": "address",
          "name": "",
          "type": "address"
        }
      ],
      "stateMutability": "view",
      "type": "function"
    },
    {
      "inputs": [
        {
          "internalType": "uint256",
          "name": "",
          "type": "uint256"
        }
      ],
      "name": "recentCampaignCreator",
      "outputs": [
        {
          "internalType": "address",
          "name": "",
          "type": "address"
        }
      ],
      "stateMutability": "view",
      "type": "function"
    }
  ],
  "transactionHash": "0x4f12e572895e62385ef4030e5bdc8baa333ff9e618bdb99c3f5fa449ab81ef8c",
  "args": [],
  "numDeployments": 21,
  "solcInputHash": "c87abe009e80ecb93c6ca464558c2253",
  "bytecode": "0x60a06040526040518060400160405280600481526020017f5573657200000000000000000000000000000000000000000000000000000000815250600390805190602001906200005192919062000229565b506040518060400160405280600481526020017f486f737400000000000000000000000000000000000000000000000000000000815250600490805190602001906200009f92919062000229565b506040518060400160405280600581526020017f566f6c756e00000000000000000000000000000000000000000000000000000081525060059080519060200190620000ed92919062000229565b50348015620000fb57600080fd5b50336000806101000a81548173ffffffffffffffffffffffffffffffffffffffff021916908373ffffffffffffffffffffffffffffffffffffffff160217905550426002819055506000600b60003373ffffffffffffffffffffffffffffffffffffffff1673ffffffffffffffffffffffffffffffffffffffff16815260200190815260200160002060006101000a81548160ff02191690836001811115620001a957620001a86200030f565b5b02179055506000600c60003373ffffffffffffffffffffffffffffffffffffffff1673ffffffffffffffffffffffffffffffffffffffff16815260200190815260200160002060006101000a81548160ff021916908360018111156200021457620002136200030f565b5b021790555061012c608081815250506200036d565b8280546200023790620002d9565b90600052602060002090601f0160209004810192826200025b5760008555620002a7565b82601f106200027657805160ff1916838001178555620002a7565b82800160010185558215620002a7579182015b82811115620002a657825182559160200191906001019062000289565b5b509050620002b69190620002ba565b5090565b5b80821115620002d5576000816000905550600101620002bb565b5090565b60006002820490506001821680620002f257607f821691505b602082108114156200030957620003086200033e565b5b50919050565b7f4e487b7100000000000000000000000000000000000000000000000000000000600052602160045260246000fd5b7f4e487b7100000000000000000000000000000000000000000000000000000000600052602260045260246000fd5b608051614400620003896000396000611b7701526144006000f3fe60806040526004361061019c5760003560e01c80637fa9d037116100ec578063cb40bf601161008a578063dd0408ae11610064578063dd0408ae146105cc578063e34116de146105f5578063e9323db61461061e578063fc49d3e6146106645761019c565b8063cb40bf6014610544578063d4a82a5814610560578063d7358c5e146105895761019c565b8063960ccccc116100c6578063960ccccc146104885780639dc5368d146104b1578063b16cfdd4146104dc578063c5e0cfd0146105195761019c565b80637fa9d037146104095780638da5cb5b14610432578063947a36fb1461045d5761019c565b806356361f0d1161015957806370af1dd21161013357806370af1dd214610361578063766c21a2146103785780637d74311c146103a35780637eac3d92146103cc5761019c565b806356361f0d146102e057806361bc221a1461030b578063680908c9146103365761019c565b80630f53a470146101a1578063236b8e3a146101de57806324b9ed2d146102095780632dd47fc9146102465780633f3b3b271461028c578063550c18d7146102b7575b600080fd5b3480156101ad57600080fd5b506101c860048036038101906101c3919061320d565b61068d565b6040516101d59190613ed0565b60405180910390f35b3480156101ea57600080fd5b506101f3610a20565b6040516102009190613e4c565b60405180910390f35b34801561021557600080fd5b50610230600480360381019061022b919061320d565b610db3565b60405161023d9190613e6e565b60405180910390f35b34801561025257600080fd5b5061026d6004803603810190610268919061323a565b610ff8565b6040516102839a99989796959493929190613c44565b60405180910390f35b34801561029857600080fd5b506102a161114b565b6040516102ae9190613ef2565b60405180910390f35b3480156102c357600080fd5b506102de60048036038101906102d99190613409565b611151565b005b3480156102ec57600080fd5b506102f561153b565b6040516103029190613ef2565b60405180910390f35b34801561031757600080fd5b50610320611541565b60405161032d9190613ef2565b60405180910390f35b34801561034257600080fd5b5061034b611547565b6040516103589190613ef2565b60405180910390f35b34801561036d57600080fd5b50610376611551565b005b34801561038457600080fd5b5061038d6116d6565b60405161039a9190613ef2565b60405180910390f35b3480156103af57600080fd5b506103ca60048036038101906103c5919061334e565b6116dc565b005b3480156103d857600080fd5b506103f360048036038101906103ee9190613321565b611a06565b6040516104009190613c29565b60405180910390f35b34801561041557600080fd5b50610430600480360381019061042b919061334e565b611a45565b005b34801561043e57600080fd5b50610447611b51565b6040516104549190613c29565b60405180910390f35b34801561046957600080fd5b50610472611b75565b60405161047f9190613ef2565b60405180910390f35b34801561049457600080fd5b506104af60048036038101906104aa9190613321565b611b99565b005b3480156104bd57600080fd5b506104c6611dc6565b6040516104d39190613e2a565b60405180910390f35b3480156104e857600080fd5b5061050360048036038101906104fe9190613321565b611e54565b6040516105109190613c29565b60405180910390f35b34801561052557600080fd5b5061052e611e93565b60405161053b9190613ef2565b60405180910390f35b61055e6004803603810190610559919061323a565b611e9d565b005b34801561056c57600080fd5b5061058760048036038101906105829190613321565b61208a565b005b34801561059557600080fd5b506105b060048036038101906105ab919061320d565b6121e0565b6040516105c39796959493929190613d98565b60405180910390f35b3480156105d857600080fd5b506105f360048036038101906105ee9190613321565b6124ea565b005b34801561060157600080fd5b5061061c6004803603810190610617919061327a565b612622565b005b34801561062a57600080fd5b5061064560048036038101906106409190613321565b6128c1565b60405161065b9a99989796959493929190613ce7565b60405180910390f35b34801561067057600080fd5b5061068b600480360381019061068691906134f4565b612b0a565b005b610695612e5b565b600a60008373ffffffffffffffffffffffffffffffffffffffff1673ffffffffffffffffffffffffffffffffffffffff1681526020019081526020016000206040518060e00160405290816000820160009054906101000a900473ffffffffffffffffffffffffffffffffffffffff1673ffffffffffffffffffffffffffffffffffffffff1673ffffffffffffffffffffffffffffffffffffffff1681526020016001820180546107459061413c565b80601f01602080910402602001604051908101604052809291908181526020018280546107719061413c565b80156107be5780601f10610793576101008083540402835291602001916107be565b820191906000526020600020905b8154815290600101906020018083116107a157829003601f168201915b505050505081526020016002820180546107d79061413c565b80601f01602080910402602001604051908101604052809291908181526020018280546108039061413c565b80156108505780601f1061082557610100808354040283529160200191610850565b820191906000526020600020905b81548152906001019060200180831161083357829003601f168201915b50505050508152602001600382015481526020016004820180546108739061413c565b80601f016020809104026020016040519081016040528092919081815260200182805461089f9061413c565b80156108ec5780601f106108c1576101008083540402835291602001916108ec565b820191906000526020600020905b8154815290600101906020018083116108cf57829003601f168201915b505050505081526020016005820180546109059061413c565b80601f01602080910402602001604051908101604052809291908181526020018280546109319061413c565b801561097e5780601f106109535761010080835404028352916020019161097e565b820191906000526020600020905b81548152906001019060200180831161096157829003601f168201915b505050505081526020016006820180546109979061413c565b80601f01602080910402602001604051908101604052809291908181526020018280546109c39061413c565b8015610a105780601f106109e557610100808354040283529160200191610a10565b820191906000526020600020905b8154815290600101906020018083116109f357829003601f168201915b5050505050815250509050919050565b60606007805480602002602001604051908101604052809291908181526020016000905b82821015610daa57838290600052602060002090600b02016040518061016001604052908160008201805480602002602001604051908101604052809291908181526020018280548015610aed57602002820191906000526020600020905b8160009054906101000a900473ffffffffffffffffffffffffffffffffffffffff1673ffffffffffffffffffffffffffffffffffffffff1681526020019060010190808311610aa3575b505050505081526020016001820160009054906101000a900473ffffffffffffffffffffffffffffffffffffffff1673ffffffffffffffffffffffffffffffffffffffff1673ffffffffffffffffffffffffffffffffffffffff1681526020016002820160009054906101000a900473ffffffffffffffffffffffffffffffffffffffff1673ffffffffffffffffffffffffffffffffffffffff1673ffffffffffffffffffffffffffffffffffffffff1681526020016003820154815260200160048201548152602001600582018054610bc69061413c565b80601f0160208091040260200160405190810160405280929190818152602001828054610bf29061413c565b8015610c3f5780601f10610c1457610100808354040283529160200191610c3f565b820191906000526020600020905b815481529060010190602001808311610c2257829003601f168201915b5050505050815260200160068201548152602001600782015481526020016008820160009054906101000a900460ff16151515158152602001600982018054610c879061413c565b80601f0160208091040260200160405190810160405280929190818152602001828054610cb39061413c565b8015610d005780601f10610cd557610100808354040283529160200191610d00565b820191906000526020600020905b815481529060010190602001808311610ce357829003601f168201915b50505050508152602001600a82018054610d199061413c565b80601f0160208091040260200160405190810160405280929190818152602001828054610d459061413c565b8015610d925780601f10610d6757610100808354040283529160200191610d92565b820191906000526020600020905b815481529060010190602001808311610d7557829003601f168201915b50505050508152505081526020019060010190610a44565b50505050905090565b6060600660008373ffffffffffffffffffffffffffffffffffffffff1673ffffffffffffffffffffffffffffffffffffffff168152602001908152602001600020805480602002602001604051908101604052809291908181526020016000905b82821015610fed5783829060005260206000209060090201604051806101400160405290816000820160009054906101000a900473ffffffffffffffffffffffffffffffffffffffff1673ffffffffffffffffffffffffffffffffffffffff1673ffffffffffffffffffffffffffffffffffffffff1681526020016001820160009054906101000a900473ffffffffffffffffffffffffffffffffffffffff1673ffffffffffffffffffffffffffffffffffffffff1673ffffffffffffffffffffffffffffffffffffffff1681526020016002820154815260200160038201548152602001600482018054610f089061413c565b80601f0160208091040260200160405190810160405280929190818152602001828054610f349061413c565b8015610f815780601f10610f5657610100808354040283529160200191610f81565b820191906000526020600020905b815481529060010190602001808311610f6457829003601f168201915b505050505081526020016005820154815260200160068201548152602001600782015481526020016008820160009054906101000a900460ff161515151581526020016008820160019054906101000a900460ff16151515158152505081526020019060010190610e14565b505050509050919050565b6006602052816000526040600020818154811061101457600080fd5b9060005260206000209060090201600091509150508060000160009054906101000a900473ffffffffffffffffffffffffffffffffffffffff16908060010160009054906101000a900473ffffffffffffffffffffffffffffffffffffffff16908060020154908060030154908060040180546110909061413c565b80601f01602080910402602001604051908101604052809291908181526020018280546110bc9061413c565b80156111095780601f106110de57610100808354040283529160200191611109565b820191906000526020600020905b8154815290600101906020018083116110ec57829003601f168201915b5050505050908060050154908060060154908060070154908060080160009054906101000a900460ff16908060080160019054906101000a900460ff1690508a565b60025481565b600073ffffffffffffffffffffffffffffffffffffffff16600a60003373ffffffffffffffffffffffffffffffffffffffff1673ffffffffffffffffffffffffffffffffffffffff16815260200190815260200160002060000160009054906101000a900473ffffffffffffffffffffffffffffffffffffffff1673ffffffffffffffffffffffffffffffffffffffff16141561124c57600d339080600181540180825580915050600190039060005260206000200160009091909190916101000a81548173ffffffffffffffffffffffffffffffffffffffff021916908373ffffffffffffffffffffffffffffffffffffffff1602179055505b6000600b60003373ffffffffffffffffffffffffffffffffffffffff1673ffffffffffffffffffffffffffffffffffffffff16815260200190815260200160002060006101000a81548160ff021916908360018111156112af576112ae614217565b5b021790555033600a60003373ffffffffffffffffffffffffffffffffffffffff1673ffffffffffffffffffffffffffffffffffffffff16815260200190815260200160002060000160006101000a81548173ffffffffffffffffffffffffffffffffffffffff021916908373ffffffffffffffffffffffffffffffffffffffff16021790555083600a60003373ffffffffffffffffffffffffffffffffffffffff1673ffffffffffffffffffffffffffffffffffffffff168152602001908152602001600020600101908051906020019061138b929190612eae565b5080600a60003373ffffffffffffffffffffffffffffffffffffffff1673ffffffffffffffffffffffffffffffffffffffff16815260200190815260200160002060060190805190602001906113e2929190612eae565b5084600a60003373ffffffffffffffffffffffffffffffffffffffff1673ffffffffffffffffffffffffffffffffffffffff168152602001908152602001600020600301819055506004600a60003373ffffffffffffffffffffffffffffffffffffffff1673ffffffffffffffffffffffffffffffffffffffff16815260200190815260200160002060020190805461147a9061413c565b611485929190612f34565b5082600a60003373ffffffffffffffffffffffffffffffffffffffff1673ffffffffffffffffffffffffffffffffffffffff16815260200190815260200160002060050190805190602001906114dc929190612eae565b5081600a60003373ffffffffffffffffffffffffffffffffffffffff1673ffffffffffffffffffffffffffffffffffffffff1681526020019081526020016000206004019080519060200190611533929190612eae565b505050505050565b60085481565b60015481565b6000600954905090565b60005b600d805490508110156116d35760005b60066000600d848154811061157c5761157b614275565b5b9060005260206000200160009054906101000a900473ffffffffffffffffffffffffffffffffffffffff1673ffffffffffffffffffffffffffffffffffffffff1673ffffffffffffffffffffffffffffffffffffffff168152602001908152602001600020805490508110156116bf57600160066000600d858154811061160657611605614275565b5b9060005260206000200160009054906101000a900473ffffffffffffffffffffffffffffffffffffffff1673ffffffffffffffffffffffffffffffffffffffff1673ffffffffffffffffffffffffffffffffffffffff168152602001908152602001600020828154811061167d5761167c614275565b5b906000526020600020906009020160080160006101000a81548160ff0219169083151502179055504260028190555080806116b79061419f565b915050611564565b5080806116cb9061419f565b915050611554565b50565b60095481565b600073ffffffffffffffffffffffffffffffffffffffff16600a60003373ffffffffffffffffffffffffffffffffffffffff1673ffffffffffffffffffffffffffffffffffffffff16815260200190815260200160002060000160009054906101000a900473ffffffffffffffffffffffffffffffffffffffff1673ffffffffffffffffffffffffffffffffffffffff1614156117d757600d339080600181540180825580915050600190039060005260206000200160009091909190916101000a81548173ffffffffffffffffffffffffffffffffffffffff021916908373ffffffffffffffffffffffffffffffffffffffff1602179055505b33600a60003373ffffffffffffffffffffffffffffffffffffffff1673ffffffffffffffffffffffffffffffffffffffff16815260200190815260200160002060000160006101000a81548173ffffffffffffffffffffffffffffffffffffffff021916908373ffffffffffffffffffffffffffffffffffffffff16021790555082600a60003373ffffffffffffffffffffffffffffffffffffffff1673ffffffffffffffffffffffffffffffffffffffff16815260200190815260200160002060010190805190602001906118ae929190612eae565b5083600a60003373ffffffffffffffffffffffffffffffffffffffff1673ffffffffffffffffffffffffffffffffffffffff168152602001908152602001600020600301819055506003600a60003373ffffffffffffffffffffffffffffffffffffffff1673ffffffffffffffffffffffffffffffffffffffff1681526020019081526020016000206002019080546119469061413c565b611951929190612f34565b5081600a60003373ffffffffffffffffffffffffffffffffffffffff1673ffffffffffffffffffffffffffffffffffffffff16815260200190815260200160002060050190805190602001906119a8929190612eae565b5080600a60003373ffffffffffffffffffffffffffffffffffffffff1673ffffffffffffffffffffffffffffffffffffffff16815260200190815260200160002060040190805190602001906119ff929190612eae565b5050505050565b600d8181548110611a1657600080fd5b906000526020600020016000915054906101000a900473ffffffffffffffffffffffffffffffffffffffff1681565b60008054906101000a900473ffffffffffffffffffffffffffffffffffffffff1673ffffffffffffffffffffffffffffffffffffffff163373ffffffffffffffffffffffffffffffffffffffff1614611a9d57600080fd5b8260078581548110611ab257611ab1614275565b5b90600052602060002090600b02016009019080519060200190611ad6929190612eae565b508060078581548110611aec57611aeb614275565b5b90600052602060002090600b02016005019080519060200190611b10929190612eae565b508160078581548110611b2657611b25614275565b5b90600052602060002090600b0201600a019080519060200190611b4a929190612eae565b5050505050565b60008054906101000a900473ffffffffffffffffffffffffffffffffffffffff1681565b7f000000000000000000000000000000000000000000000000000000000000000081565b604051602001611ba890613bff565b60405160208183030381529060405280519060200120600a60003373ffffffffffffffffffffffffffffffffffffffff1673ffffffffffffffffffffffffffffffffffffffff168152602001908152602001600020600201604051602001611c109190613be8565b6040516020818303038152906040528051906020012014611c66576040517f08c379a0000000000000000000000000000000000000000000000000000000008152600401611c5d90613e90565b60405180910390fd5b3360078281548110611c7b57611c7a614275565b5b90600052602060002090600b020160010160006101000a81548173ffffffffffffffffffffffffffffffffffffffff021916908373ffffffffffffffffffffffffffffffffffffffff16021790555060078181548110611cde57611cdd614275565b5b90600052602060002090600b0201600001600160078381548110611d0557611d04614275565b5b90600052602060002090600b020160000180549050611d24919061406c565b81548110611d3557611d34614275565b5b9060005260206000200160009054906101000a900473ffffffffffffffffffffffffffffffffffffffff1660078281548110611d7457611d73614275565b5b90600052602060002090600b020160020160006101000a81548173ffffffffffffffffffffffffffffffffffffffff021916908373ffffffffffffffffffffffffffffffffffffffff16021790555050565b6060600d805480602002602001604051908101604052809291908181526020018280548015611e4a57602002820191906000526020600020905b8160009054906101000a900473ffffffffffffffffffffffffffffffffffffffff1673ffffffffffffffffffffffffffffffffffffffff1681526020019060010190808311611e00575b5050505050905090565b600e8181548110611e6457600080fd5b906000526020600020016000915054906101000a900473ffffffffffffffffffffffffffffffffffffffff1681565b6000600854905090565b604051602001611eac90613bff565b60405160208183030381529060405280519060200120600a60003373ffffffffffffffffffffffffffffffffffffffff1673ffffffffffffffffffffffffffffffffffffffff168152602001908152602001600020600201604051602001611f149190613be8565b6040516020818303038152906040528051906020012014611f6a576040517f08c379a0000000000000000000000000000000000000000000000000000000008152600401611f6190613e90565b60405180910390fd5b33600660008473ffffffffffffffffffffffffffffffffffffffff1673ffffffffffffffffffffffffffffffffffffffff1681526020019081526020016000208281548110611fbc57611fbb614275565b5b906000526020600020906009020160010160006101000a81548173ffffffffffffffffffffffffffffffffffffffff021916908373ffffffffffffffffffffffffffffffffffffffff1602179055506001600660008473ffffffffffffffffffffffffffffffffffffffff1673ffffffffffffffffffffffffffffffffffffffff168152602001908152602001600020828154811061205e5761205d614275565b5b906000526020600020906009020160080160016101000a81548160ff0219169083151502179055505050565b60405160200161209990613c14565b60405160208183030381529060405280519060200120600a60003373ffffffffffffffffffffffffffffffffffffffff1673ffffffffffffffffffffffffffffffffffffffff1681526020019081526020016000206002016040516020016121019190613be8565b6040516020818303038152906040528051906020012014612157576040517f08c379a000000000000000000000000000000000000000000000000000000000815260040161214e90613eb0565b60405180910390fd5b6007818154811061216b5761216a614275565b5b90600052602060002090600b0201600001339080600181540180825580915050600190039060005260206000200160009091909190916101000a81548173ffffffffffffffffffffffffffffffffffffffff021916908373ffffffffffffffffffffffffffffffffffffffff16021790555050565b600a6020528060005260406000206000915090508060000160009054906101000a900473ffffffffffffffffffffffffffffffffffffffff16908060010180546122299061413c565b80601f01602080910402602001604051908101604052809291908181526020018280546122559061413c565b80156122a25780601f10612277576101008083540402835291602001916122a2565b820191906000526020600020905b81548152906001019060200180831161228557829003601f168201915b5050505050908060020180546122b79061413c565b80601f01602080910402602001604051908101604052809291908181526020018280546122e39061413c565b80156123305780601f1061230557610100808354040283529160200191612330565b820191906000526020600020905b81548152906001019060200180831161231357829003601f168201915b50505050509080600301549080600401805461234b9061413c565b80601f01602080910402602001604051908101604052809291908181526020018280546123779061413c565b80156123c45780601f10612399576101008083540402835291602001916123c4565b820191906000526020600020905b8154815290600101906020018083116123a757829003601f168201915b5050505050908060050180546123d99061413c565b80601f01602080910402602001604051908101604052809291908181526020018280546124059061413c565b80156124525780601f1061242757610100808354040283529160200191612452565b820191906000526020600020905b81548152906001019060200180831161243557829003601f168201915b5050505050908060060180546124679061413c565b80601f01602080910402602001604051908101604052809291908181526020018280546124939061413c565b80156124e05780601f106124b5576101008083540402835291602001916124e0565b820191906000526020600020905b8154815290600101906020018083116124c357829003601f168201915b5050505050905087565b6040516020016124f990613bff565b60405160208183030381529060405280519060200120600a60003373ffffffffffffffffffffffffffffffffffffffff1673ffffffffffffffffffffffffffffffffffffffff1681526020019081526020016000206002016040516020016125619190613be8565b60405160208183030381529060405280519060200120146125b7576040517f08c379a00000000000000000000000000000000000000000000000000000000081526004016125ae90613e90565b60405180910390fd5b6001600782815481106125cd576125cc614275565b5b90600052602060002090600b020160080160006101000a81548160ff021916908315150217905550426007828154811061260a57612609614275565b5b90600052602060002090600b02016004018190555050565b60008054906101000a900473ffffffffffffffffffffffffffffffffffffffff1673ffffffffffffffffffffffffffffffffffffffff163373ffffffffffffffffffffffffffffffffffffffff161461267a57600080fd5b612682612fc1565b4281606001818152505083816101200181905250818160a001819052506008548160e00181815250508281610140018190525060008160c00181815250506000600b60003373ffffffffffffffffffffffffffffffffffffffff1673ffffffffffffffffffffffffffffffffffffffff16815260200190815260200160002060006101000a81548160ff0219169083600181111561272357612722614217565b5b021790555060078190806001815401808255809150506001900390600052602060002090600b02016000909190919091506000820151816000019080519060200190612770929190613049565b5060208201518160010160006101000a81548173ffffffffffffffffffffffffffffffffffffffff021916908373ffffffffffffffffffffffffffffffffffffffff16021790555060408201518160020160006101000a81548173ffffffffffffffffffffffffffffffffffffffff021916908373ffffffffffffffffffffffffffffffffffffffff160217905550606082015181600301556080820151816004015560a082015181600501908051906020019061282f929190612eae565b5060c0820151816006015560e082015181600701556101008201518160080160006101000a81548160ff021916908315150217905550610120820151816009019080519060200190612882929190612eae565b5061014082015181600a0190805190602001906128a0929190612eae565b505050600860008154809291906128b69061419f565b919050555050505050565b600781815481106128d157600080fd5b90600052602060002090600b02016000915090508060010160009054906101000a900473ffffffffffffffffffffffffffffffffffffffff16908060020160009054906101000a900473ffffffffffffffffffffffffffffffffffffffff169080600301549080600401549080600501805461294c9061413c565b80601f01602080910402602001604051908101604052809291908181526020018280546129789061413c565b80156129c55780601f1061299a576101008083540402835291602001916129c5565b820191906000526020600020905b8154815290600101906020018083116129a857829003601f168201915b5050505050908060060154908060070154908060080160009054906101000a900460ff16908060090180546129f99061413c565b80601f0160208091040260200160405190810160405280929190818152602001828054612a259061413c565b8015612a725780601f10612a4757610100808354040283529160200191612a72565b820191906000526020600020905b815481529060010190602001808311612a5557829003601f168201915b50505050509080600a018054612a879061413c565b80601f0160208091040260200160405190810160405280929190818152602001828054612ab39061413c565b8015612b005780601f10612ad557610100808354040283529160200191612b00565b820191906000526020600020905b815481529060010190602001808311612ae357829003601f168201915b505050505090508a565b604051602001612b1990613c14565b60405160208183030381529060405280519060200120600a60003373ffffffffffffffffffffffffffffffffffffffff1673ffffffffffffffffffffffffffffffffffffffff168152602001908152602001600020600201604051602001612b819190613be8565b6040516020818303038152906040528051906020012014612bd7576040517f08c379a0000000000000000000000000000000000000000000000000000000008152600401612bce90613eb0565b60405180910390fd5b612bdf6130d3565b33816000019073ffffffffffffffffffffffffffffffffffffffff16908173ffffffffffffffffffffffffffffffffffffffff168152505083816060018181525050818160800181905250848160400181815250506009548160e0018181525050828160c00181815250506000600b60003373ffffffffffffffffffffffffffffffffffffffff1673ffffffffffffffffffffffffffffffffffffffff16815260200190815260200160002060006101000a81548160ff02191690836001811115612cad57612cac614217565b5b0217905550600660003373ffffffffffffffffffffffffffffffffffffffff1673ffffffffffffffffffffffffffffffffffffffff16815260200190815260200160002081908060018154018082558091505060019003906000526020600020906009020160009091909190915060008201518160000160006101000a81548173ffffffffffffffffffffffffffffffffffffffff021916908373ffffffffffffffffffffffffffffffffffffffff16021790555060208201518160010160006101000a81548173ffffffffffffffffffffffffffffffffffffffff021916908373ffffffffffffffffffffffffffffffffffffffff16021790555060408201518160020155606082015181600301556080820151816004019080519060200190612dd9929190612eae565b5060a0820151816005015560c0820151816006015560e082015181600701556101008201518160080160006101000a81548160ff0219169083151502179055506101208201518160080160016101000a81548160ff021916908315150217905550505060096000815480929190612e4f9061419f565b91905055505050505050565b6040518060e00160405280600073ffffffffffffffffffffffffffffffffffffffff1681526020016060815260200160608152602001600081526020016060815260200160608152602001606081525090565b828054612eba9061413c565b90600052602060002090601f016020900481019282612edc5760008555612f23565b82601f10612ef557805160ff1916838001178555612f23565b82800160010185558215612f23579182015b82811115612f22578251825591602001919060010190612f07565b5b509050612f309190613156565b5090565b828054612f409061413c565b90600052602060002090601f016020900481019282612f625760008555612fb0565b82601f10612f735780548555612fb0565b82800160010185558215612fb057600052602060002091601f016020900482015b82811115612faf578254825591600101919060010190612f94565b5b509050612fbd9190613156565b5090565b60405180610160016040528060608152602001600073ffffffffffffffffffffffffffffffffffffffff168152602001600073ffffffffffffffffffffffffffffffffffffffff168152602001600081526020016000815260200160608152602001600081526020016000815260200160001515815260200160608152602001606081525090565b8280548282559060005260206000209081019282156130c2579160200282015b828111156130c15782518260006101000a81548173ffffffffffffffffffffffffffffffffffffffff021916908373ffffffffffffffffffffffffffffffffffffffff16021790555091602001919060010190613069565b5b5090506130cf9190613156565b5090565b604051806101400160405280600073ffffffffffffffffffffffffffffffffffffffff168152602001600073ffffffffffffffffffffffffffffffffffffffff1681526020016000815260200160008152602001606081526020016000815260200160008152602001600081526020016000151581526020016000151581525090565b5b8082111561316f576000816000905550600101613157565b5090565b600061318661318184613f32565b613f0d565b9050828152602081018484840111156131a2576131a16142d8565b5b6131ad8482856140fa565b509392505050565b6000813590506131c48161439c565b92915050565b600082601f8301126131df576131de6142d3565b5b81356131ef848260208601613173565b91505092915050565b600081359050613207816143b3565b92915050565b600060208284031215613223576132226142e2565b5b6000613231848285016131b5565b91505092915050565b60008060408385031215613251576132506142e2565b5b600061325f858286016131b5565b9250506020613270858286016131f8565b9150509250929050565b600080600060608486031215613293576132926142e2565b5b600084013567ffffffffffffffff8111156132b1576132b06142dd565b5b6132bd868287016131ca565b935050602084013567ffffffffffffffff8111156132de576132dd6142dd565b5b6132ea868287016131ca565b925050604084013567ffffffffffffffff81111561330b5761330a6142dd565b5b613317868287016131ca565b9150509250925092565b600060208284031215613337576133366142e2565b5b6000613345848285016131f8565b91505092915050565b60008060008060808587031215613368576133676142e2565b5b6000613376878288016131f8565b945050602085013567ffffffffffffffff811115613397576133966142dd565b5b6133a3878288016131ca565b935050604085013567ffffffffffffffff8111156133c4576133c36142dd565b5b6133d0878288016131ca565b925050606085013567ffffffffffffffff8111156133f1576133f06142dd565b5b6133fd878288016131ca565b91505092959194509250565b600080600080600060a08688031215613425576134246142e2565b5b6000613433888289016131f8565b955050602086013567ffffffffffffffff811115613454576134536142dd565b5b613460888289016131ca565b945050604086013567ffffffffffffffff811115613481576134806142dd565b5b61348d888289016131ca565b935050606086013567ffffffffffffffff8111156134ae576134ad6142dd565b5b6134ba888289016131ca565b925050608086013567ffffffffffffffff8111156134db576134da6142dd565b5b6134e7888289016131ca565b9150509295509295909350565b6000806000806080858703121561350e5761350d6142e2565b5b600061351c878288016131f8565b945050602061352d878288016131f8565b935050604061353e878288016131f8565b925050606085013567ffffffffffffffff81111561355f5761355e6142dd565b5b61356b878288016131ca565b91505092959194509250565b600061358383836135d5565b60208301905092915050565b600061359b8383613934565b905092915050565b60006135af8383613a38565b905092915050565b6135c0816140b2565b82525050565b6135cf816140b2565b82525050565b6135de816140a0565b82525050565b6135ed816140a0565b82525050565b60006135fe82613fa8565b6136088185613ffb565b935061361383613f63565b8060005b8381101561364457815161362b8882613577565b975061363683613fd4565b925050600181019050613617565b5085935050505092915050565b600061365c82613fa8565b613666818561400c565b935061367183613f63565b8060005b838110156136a25781516136898882613577565b975061369483613fd4565b925050600181019050613675565b5085935050505092915050565b60006136ba82613fb3565b6136c4818561401d565b9350836020820285016136d685613f73565b8060005b8581101561371257848403895281516136f3858261358f565b94506136fe83613fe1565b925060208a019950506001810190506136da565b50829750879550505050505092915050565b600061372f82613fbe565b613739818561402e565b93508360208202850161374b85613f83565b8060005b85811015613787578484038952815161376885826135a3565b945061377383613fee565b925060208a0199505060018101905061374f565b50829750879550505050505092915050565b6137a2816140c4565b82525050565b6137b1816140c4565b82525050565b60006137c282613fc9565b6137cc818561403f565b93506137dc818560208601614109565b6137e5816142e7565b840191505092915050565b60006137fb82613fc9565b6138058185614050565b9350613815818560208601614109565b61381e816142e7565b840191505092915050565b600081546138368161413c565b6138408186614061565b9450600182166000811461385b576001811461386c5761389f565b60ff1983168652818601935061389f565b61387585613f93565b60005b8381101561389757815481890152600182019150602081019050613878565b838801955050505b50505092915050565b60006138b5600a83614050565b91506138c0826142f8565b602082019050919050565b60006138d8600483614061565b91506138e382614321565b600482019050919050565b60006138fb600483614061565b91506139068261434a565b600482019050919050565b600061391e600a83614050565b915061392982614373565b602082019050919050565b600061016083016000830151848203600086015261395282826135f3565b915050602083015161396760208601826135d5565b50604083015161397a60408601826135d5565b50606083015161398d6060860182613bca565b5060808301516139a06080860182613bca565b5060a083015184820360a08601526139b882826137b7565b91505060c08301516139cd60c0860182613bca565b5060e08301516139e060e0860182613bca565b506101008301516139f5610100860182613799565b50610120830151848203610120860152613a0f82826137b7565b915050610140830151848203610140860152613a2b82826137b7565b9150508091505092915050565b600061014083016000830151613a5160008601826135b7565b506020830151613a6460208601826135b7565b506040830151613a776040860182613bca565b506060830151613a8a6060860182613bca565b5060808301518482036080860152613aa282826137b7565b91505060a0830151613ab760a0860182613bca565b5060c0830151613aca60c0860182613bca565b5060e0830151613add60e0860182613bca565b50610100830151613af2610100860182613799565b50610120830151613b07610120860182613799565b508091505092915050565b600060e083016000830151613b2a60008601826135d5565b5060208301518482036020860152613b4282826137b7565b91505060408301518482036040860152613b5c82826137b7565b9150506060830151613b716060860182613bca565b5060808301518482036080860152613b8982826137b7565b91505060a083015184820360a0860152613ba382826137b7565b91505060c083015184820360c0860152613bbd82826137b7565b9150508091505092915050565b613bd3816140f0565b82525050565b613be2816140f0565b82525050565b6000613bf48284613829565b915081905092915050565b6000613c0a826138cb565b9150819050919050565b6000613c1f826138ee565b9150819050919050565b6000602082019050613c3e60008301846135e4565b92915050565b600061014082019050613c5a600083018d6135c6565b613c67602083018c6135c6565b613c74604083018b613bd9565b613c81606083018a613bd9565b8181036080830152613c9381896137f0565b9050613ca260a0830188613bd9565b613caf60c0830187613bd9565b613cbc60e0830186613bd9565b613cca6101008301856137a8565b613cd86101208301846137a8565b9b9a5050505050505050505050565b600061014082019050613cfd600083018d6135e4565b613d0a602083018c6135e4565b613d17604083018b613bd9565b613d24606083018a613bd9565b8181036080830152613d3681896137f0565b9050613d4560a0830188613bd9565b613d5260c0830187613bd9565b613d5f60e08301866137a8565b818103610100830152613d7281856137f0565b9050818103610120830152613d8781846137f0565b90509b9a5050505050505050505050565b600060e082019050613dad600083018a6135e4565b8181036020830152613dbf81896137f0565b90508181036040830152613dd381886137f0565b9050613de26060830187613bd9565b8181036080830152613df481866137f0565b905081810360a0830152613e0881856137f0565b905081810360c0830152613e1c81846137f0565b905098975050505050505050565b60006020820190508181036000830152613e448184613651565b905092915050565b60006020820190508181036000830152613e6681846136af565b905092915050565b60006020820190508181036000830152613e888184613724565b905092915050565b60006020820190508181036000830152613ea9816138a8565b9050919050565b60006020820190508181036000830152613ec981613911565b9050919050565b60006020820190508181036000830152613eea8184613b12565b905092915050565b6000602082019050613f076000830184613bd9565b92915050565b6000613f17613f28565b9050613f23828261416e565b919050565b6000604051905090565b600067ffffffffffffffff821115613f4d57613f4c6142a4565b5b613f56826142e7565b9050602081019050919050565b6000819050602082019050919050565b6000819050602082019050919050565b6000819050602082019050919050565b60008190508160005260206000209050919050565b600081519050919050565b600081519050919050565b600081519050919050565b600081519050919050565b6000602082019050919050565b6000602082019050919050565b6000602082019050919050565b600082825260208201905092915050565b600082825260208201905092915050565b600082825260208201905092915050565b600082825260208201905092915050565b600082825260208201905092915050565b600082825260208201905092915050565b600081905092915050565b6000614077826140f0565b9150614082836140f0565b925082821015614095576140946141e8565b5b828203905092915050565b60006140ab826140d0565b9050919050565b60006140bd826140d0565b9050919050565b60008115159050919050565b600073ffffffffffffffffffffffffffffffffffffffff82169050919050565b6000819050919050565b82818337600083830152505050565b60005b8381101561412757808201518184015260208101905061410c565b83811115614136576000848401525b50505050565b6000600282049050600182168061415457607f821691505b6020821081141561416857614167614246565b5b50919050565b614177826142e7565b810181811067ffffffffffffffff82111715614196576141956142a4565b5b80604052505050565b60006141aa826140f0565b91507fffffffffffffffffffffffffffffffffffffffffffffffffffffffffffffffff8214156141dd576141dc6141e8565b5b600182019050919050565b7f4e487b7100000000000000000000000000000000000000000000000000000000600052601160045260246000fd5b7f4e487b7100000000000000000000000000000000000000000000000000000000600052602160045260246000fd5b7f4e487b7100000000000000000000000000000000000000000000000000000000600052602260045260246000fd5b7f4e487b7100000000000000000000000000000000000000000000000000000000600052603260045260246000fd5b7f4e487b7100000000000000000000000000000000000000000000000000000000600052604160045260246000fd5b600080fd5b600080fd5b600080fd5b600080fd5b6000601f19601f8301169050919050565b7f4e4f542041205553455200000000000000000000000000000000000000000000600082015250565b7f5573657200000000000000000000000000000000000000000000000000000000600082015250565b7f486f737400000000000000000000000000000000000000000000000000000000600082015250565b7f4e4f54204120484f535400000000000000000000000000000000000000000000600082015250565b6143a5816140a0565b81146143b057600080fd5b50565b6143bc816140f0565b81146143c757600080fd5b5056fea2646970667358221220f1d83344d1ebfcf5f0f16757eafa7aa5056318e010846e62fc4f5b127a9878ac64736f6c63430008070033",
  "devdoc": {
    "kind": "dev",
    "methods": {
      "constructor": {
        "details": "constructor used to assign values that will not change"
      },
      "createCampaign(string,string,string)": {
        "details": "This function `createCampaign` allows only the User to call it hence the `OnlyUser` modifier after which any avaliable volunteer would be assigned to the campaign"
      },
      "createHost(uint256,string,string,string,string)": {
        "details": "This function `createHost` any body can call this functions and the senders profile would be set to that of a `Host`"
      },
      "createSchedule(uint256,uint256,uint256,string)": {
        "details": "This function `createSchedule` allows only the Host to call it hence the `OnlyHost` modifier after which a Host can create a meeting with some parameters like time and fee needed"
      },
      "createUser(uint256,string,string,string)": {
        "details": "This function `createUser` any body can call this functions and the senders profile would be set to that of a `User`"
      },
      "editCampaign(uint256,string,string,string)": {
        "details": "This function `editCampaign` can only be called by the owner of the smart contract to make changes to th campaign that is still active"
      },
      "endCampaign(uint256)": {
        "details": "This function `endCampaign` allows only the User end the campaign"
      },
      "endMeeting()": {
        "details": "This function `endMeeting` is called by chainlink automation cron job and ends every meeting by setting the completed status to true"
      },
      "getHelp(uint256)": {
        "details": "This function `getHelp` allows only the User to call it hence the `OnlyUser` modifier after which the Campaign ID is specified and the user would be assigned to the Campaign"
      },
      "joinCampaign(uint256)": {
        "details": "This function `joinCampaign` allows only the User to call it hence the `onlyHost` modifier after which the Campaign ID is specified and the user would be assigned to the Campaign"
      },
      "joinMeeting(address,uint256)": {
        "details": "This function `joinMeeting` allows only the User to call it hence the `OnlyUser` modifier after which the meeting ID is specified and the user would be assigned to the meeting"
      }
    },
    "version": 1
  },
  "userdoc": {
    "kind": "user",
    "methods": {
      "meetingNum()": {
        "notice": "Getter Functions "
      }
    },
    "version": 1
  },
  "storageLayout": {
    "storage": [
      {
        "astId": 3,
        "contract": "contracts/XTELPT.sol:XTELPT",
        "label": "owner",
        "offset": 0,
        "slot": "0",
        "type": "t_address"
      },
      {
        "astId": 8,
        "contract": "contracts/XTELPT.sol:XTELPT",
        "label": "counter",
        "offset": 0,
        "slot": "1",
        "type": "t_uint256"
      },
      {
        "astId": 12,
        "contract": "contracts/XTELPT.sol:XTELPT",
        "label": "lastTimeStamp",
        "offset": 0,
        "slot": "2",
        "type": "t_uint256"
      },
      {
        "astId": 15,
        "contract": "contracts/XTELPT.sol:XTELPT",
        "label": "userType",
        "offset": 0,
        "slot": "3",
        "type": "t_string_storage"
      },
      {
        "astId": 18,
        "contract": "contracts/XTELPT.sol:XTELPT",
        "label": "hostType",
        "offset": 0,
        "slot": "4",
        "type": "t_string_storage"
      },
      {
        "astId": 21,
        "contract": "contracts/XTELPT.sol:XTELPT",
        "label": "volunType",
        "offset": 0,
        "slot": "5",
        "type": "t_string_storage"
      },
      {
        "astId": 27,
        "contract": "contracts/XTELPT.sol:XTELPT",
        "label": "Meeting",
        "offset": 0,
        "slot": "6",
        "type": "t_mapping(t_address,t_array(t_struct(meeting)92_storage)dyn_storage)"
      },
      {
        "astId": 31,
        "contract": "contracts/XTELPT.sol:XTELPT",
        "label": "Campaign",
        "offset": 0,
        "slot": "7",
        "type": "t_array(t_struct(campaign)116_storage)dyn_storage"
      },
      {
        "astId": 33,
        "contract": "contracts/XTELPT.sol:XTELPT",
        "label": "campaignIndex",
        "offset": 0,
        "slot": "8",
        "type": "t_uint256"
      },
      {
        "astId": 35,
        "contract": "contracts/XTELPT.sol:XTELPT",
        "label": "meetingIndex",
        "offset": 0,
        "slot": "9",
        "type": "t_uint256"
      },
      {
        "astId": 40,
        "contract": "contracts/XTELPT.sol:XTELPT",
        "label": "UserProfile",
        "offset": 0,
        "slot": "10",
        "type": "t_mapping(t_address,t_struct(profile)71_storage)"
      },
      {
        "astId": 45,
        "contract": "contracts/XTELPT.sol:XTELPT",
        "label": "s_xtelpState",
        "offset": 0,
        "slot": "11",
        "type": "t_mapping(t_address,t_enum(XTELPState)6)"
      },
      {
        "astId": 50,
        "contract": "contracts/XTELPT.sol:XTELPT",
        "label": "volunState",
        "offset": 0,
        "slot": "12",
        "type": "t_mapping(t_address,t_enum(XTELPState)6)"
      },
      {
        "astId": 53,
        "contract": "contracts/XTELPT.sol:XTELPT",
        "label": "AllAccount",
        "offset": 0,
        "slot": "13",
        "type": "t_array(t_address)dyn_storage"
      },
      {
        "astId": 56,
        "contract": "contracts/XTELPT.sol:XTELPT",
        "label": "recentCampaignCreator",
        "offset": 0,
        "slot": "14",
        "type": "t_array(t_address)dyn_storage"
      }
    ],
    "types": {
      "t_address": {
        "encoding": "inplace",
        "label": "address",
        "numberOfBytes": "20"
      },
      "t_address_payable": {
        "encoding": "inplace",
        "label": "address payable",
        "numberOfBytes": "20"
      },
      "t_array(t_address)dyn_storage": {
        "base": "t_address",
        "encoding": "dynamic_array",
        "label": "address[]",
        "numberOfBytes": "32"
      },
      "t_array(t_struct(campaign)116_storage)dyn_storage": {
        "base": "t_struct(campaign)116_storage",
        "encoding": "dynamic_array",
        "label": "struct XTELPT.campaign[]",
        "numberOfBytes": "32"
      },
      "t_array(t_struct(meeting)92_storage)dyn_storage": {
        "base": "t_struct(meeting)92_storage",
        "encoding": "dynamic_array",
        "label": "struct XTELPT.meeting[]",
        "numberOfBytes": "32"
      },
      "t_bool": {
        "encoding": "inplace",
        "label": "bool",
        "numberOfBytes": "1"
      },
      "t_enum(XTELPState)6": {
        "encoding": "inplace",
        "label": "enum XTELPT.XTELPState",
        "numberOfBytes": "1"
      },
      "t_mapping(t_address,t_array(t_struct(meeting)92_storage)dyn_storage)": {
        "encoding": "mapping",
        "key": "t_address",
        "label": "mapping(address => struct XTELPT.meeting[])",
        "numberOfBytes": "32",
        "value": "t_array(t_struct(meeting)92_storage)dyn_storage"
      },
      "t_mapping(t_address,t_enum(XTELPState)6)": {
        "encoding": "mapping",
        "key": "t_address",
        "label": "mapping(address => enum XTELPT.XTELPState)",
        "numberOfBytes": "32",
        "value": "t_enum(XTELPState)6"
      },
      "t_mapping(t_address,t_struct(profile)71_storage)": {
        "encoding": "mapping",
        "key": "t_address",
        "label": "mapping(address => struct XTELPT.profile)",
        "numberOfBytes": "32",
        "value": "t_struct(profile)71_storage"
      },
      "t_string_storage": {
        "encoding": "bytes",
        "label": "string",
        "numberOfBytes": "32"
      },
      "t_struct(campaign)116_storage": {
        "encoding": "inplace",
        "label": "struct XTELPT.campaign",
        "members": [
          {
            "astId": 95,
            "contract": "contracts/XTELPT.sol:XTELPT",
            "label": "volunteer",
            "offset": 0,
            "slot": "0",
            "type": "t_array(t_address)dyn_storage"
          },
          {
            "astId": 97,
            "contract": "contracts/XTELPT.sol:XTELPT",
            "label": "user",
            "offset": 0,
            "slot": "1",
            "type": "t_address"
          },
          {
            "astId": 99,
            "contract": "contracts/XTELPT.sol:XTELPT",
            "label": "vol",
            "offset": 0,
            "slot": "2",
            "type": "t_address"
          },
          {
            "astId": 101,
            "contract": "contracts/XTELPT.sol:XTELPT",
            "label": "start_time",
            "offset": 0,
            "slot": "3",
            "type": "t_uint256"
          },
          {
            "astId": 103,
            "contract": "contracts/XTELPT.sol:XTELPT",
            "label": "end_time",
            "offset": 0,
            "slot": "4",
            "type": "t_uint256"
          },
          {
            "astId": 105,
            "contract": "contracts/XTELPT.sol:XTELPT",
            "label": "image",
            "offset": 0,
            "slot": "5",
            "type": "t_string_storage"
          },
          {
            "astId": 107,
            "contract": "contracts/XTELPT.sol:XTELPT",
            "label": "fee",
            "offset": 0,
            "slot": "6",
            "type": "t_uint256"
          },
          {
            "astId": 109,
            "contract": "contracts/XTELPT.sol:XTELPT",
            "label": "index",
            "offset": 0,
            "slot": "7",
            "type": "t_uint256"
          },
          {
            "astId": 111,
            "contract": "contracts/XTELPT.sol:XTELPT",
            "label": "completed",
            "offset": 0,
            "slot": "8",
            "type": "t_bool"
          },
          {
            "astId": 113,
            "contract": "contracts/XTELPT.sol:XTELPT",
            "label": "name",
            "offset": 0,
            "slot": "9",
            "type": "t_string_storage"
          },
          {
            "astId": 115,
            "contract": "contracts/XTELPT.sol:XTELPT",
            "label": "desc",
            "offset": 0,
            "slot": "10",
            "type": "t_string_storage"
          }
        ],
        "numberOfBytes": "352"
      },
      "t_struct(meeting)92_storage": {
        "encoding": "inplace",
        "label": "struct XTELPT.meeting",
        "members": [
          {
            "astId": 73,
            "contract": "contracts/XTELPT.sol:XTELPT",
            "label": "host",
            "offset": 0,
            "slot": "0",
            "type": "t_address_payable"
          },
          {
            "astId": 75,
            "contract": "contracts/XTELPT.sol:XTELPT",
            "label": "user",
            "offset": 0,
            "slot": "1",
            "type": "t_address_payable"
          },
          {
            "astId": 77,
            "contract": "contracts/XTELPT.sol:XTELPT",
            "label": "start",
            "offset": 0,
            "slot": "2",
            "type": "t_uint256"
          },
          {
            "astId": 79,
            "contract": "contracts/XTELPT.sol:XTELPT",
            "label": "end",
            "offset": 0,
            "slot": "3",
            "type": "t_uint256"
          },
          {
            "astId": 81,
            "contract": "contracts/XTELPT.sol:XTELPT",
            "label": "desc",
            "offset": 0,
            "slot": "4",
            "type": "t_string_storage"
          },
          {
            "astId": 83,
            "contract": "contracts/XTELPT.sol:XTELPT",
            "label": "time",
            "offset": 0,
            "slot": "5",
            "type": "t_uint256"
          },
          {
            "astId": 85,
            "contract": "contracts/XTELPT.sol:XTELPT",
            "label": "fee",
            "offset": 0,
            "slot": "6",
            "type": "t_uint256"
          },
          {
            "astId": 87,
            "contract": "contracts/XTELPT.sol:XTELPT",
            "label": "index",
            "offset": 0,
            "slot": "7",
            "type": "t_uint256"
          },
          {
            "astId": 89,
            "contract": "contracts/XTELPT.sol:XTELPT",
            "label": "completed",
            "offset": 0,
            "slot": "8",
            "type": "t_bool"
          },
          {
            "astId": 91,
            "contract": "contracts/XTELPT.sol:XTELPT",
            "label": "booked",
            "offset": 1,
            "slot": "8",
            "type": "t_bool"
          }
        ],
        "numberOfBytes": "288"
      },
      "t_struct(profile)71_storage": {
        "encoding": "inplace",
        "label": "struct XTELPT.profile",
        "members": [
          {
            "astId": 58,
            "contract": "contracts/XTELPT.sol:XTELPT",
            "label": "addr",
            "offset": 0,
            "slot": "0",
            "type": "t_address"
          },
          {
            "astId": 60,
            "contract": "contracts/XTELPT.sol:XTELPT",
            "label": "name",
            "offset": 0,
            "slot": "1",
            "type": "t_string_storage"
          },
          {
            "astId": 62,
            "contract": "contracts/XTELPT.sol:XTELPT",
            "label": "role",
            "offset": 0,
            "slot": "2",
            "type": "t_string_storage"
          },
          {
            "astId": 64,
            "contract": "contracts/XTELPT.sol:XTELPT",
            "label": "rating",
            "offset": 0,
            "slot": "3",
            "type": "t_uint256"
          },
          {
            "astId": 66,
            "contract": "contracts/XTELPT.sol:XTELPT",
            "label": "bio",
            "offset": 0,
            "slot": "4",
            "type": "t_string_storage"
          },
          {
            "astId": 68,
            "contract": "contracts/XTELPT.sol:XTELPT",
            "label": "profilePic",
            "offset": 0,
            "slot": "5",
            "type": "t_string_storage"
          },
          {
            "astId": 70,
            "contract": "contracts/XTELPT.sol:XTELPT",
            "label": "hostTitle",
            "offset": 0,
            "slot": "6",
            "type": "t_string_storage"
          }
        ],
        "numberOfBytes": "224"
      },
      "t_uint256": {
        "encoding": "inplace",
        "label": "uint256",
        "numberOfBytes": "32"
      }
    }
  }
}