{
  "address": "0xbefDD1105c58c7CC19673f49e4A5e57Edd8ed10b",
  "abi": [
    {
      "inputs": [],
      "stateMutability": "nonpayable",
      "type": "constructor"
    },
    {
      "anonymous": false,
      "inputs": [
        {
          "indexed": true,
          "internalType": "uint256",
          "name": "requestId",
          "type": "uint256"
        }
      ],
      "name": "RequestedID",
      "type": "event"
    },
    {
      "inputs": [
        {
          "internalType": "uint256",
          "name": "",
          "type": "uint256"
        }
      ],
      "name": "AllAccount",
      "outputs": [
        {
          "internalType": "address",
          "name": "",
          "type": "address"
        }
      ],
      "stateMutability": "view",
      "type": "function"
    },
    {
      "inputs": [
        {
          "internalType": "uint256",
          "name": "",
          "type": "uint256"
        }
      ],
      "name": "Campaign",
      "outputs": [
        {
          "internalType": "address",
          "name": "user",
          "type": "address"
        },
        {
          "internalType": "address",
          "name": "vol",
          "type": "address"
        },
        {
          "internalType": "uint256",
          "name": "start_time",
          "type": "uint256"
        },
        {
          "internalType": "uint256",
          "name": "end_time",
          "type": "uint256"
        },
        {
          "internalType": "string",
          "name": "image",
          "type": "string"
        },
        {
          "internalType": "uint256",
          "name": "fee",
          "type": "uint256"
        },
        {
          "internalType": "uint256",
          "name": "index",
          "type": "uint256"
        },
        {
          "internalType": "bool",
          "name": "completed",
          "type": "bool"
        },
        {
          "internalType": "string",
          "name": "name",
          "type": "string"
        },
        {
          "internalType": "string",
          "name": "desc",
          "type": "string"
        }
      ],
      "stateMutability": "view",
      "type": "function"
    },
    {
      "inputs": [
        {
          "internalType": "address",
          "name": "",
          "type": "address"
        },
        {
          "internalType": "uint256",
          "name": "",
          "type": "uint256"
        }
      ],
      "name": "Meeting",
      "outputs": [
        {
          "internalType": "address payable",
          "name": "host",
          "type": "address"
        },
        {
          "internalType": "address payable",
          "name": "user",
          "type": "address"
        },
        {
          "internalType": "uint256",
          "name": "start",
          "type": "uint256"
        },
        {
          "internalType": "uint256",
          "name": "end",
          "type": "uint256"
        },
        {
          "internalType": "string",
          "name": "desc",
          "type": "string"
        },
        {
          "internalType": "uint256",
          "name": "time",
          "type": "uint256"
        },
        {
          "internalType": "uint256",
          "name": "fee",
          "type": "uint256"
        },
        {
          "internalType": "uint256",
          "name": "index",
          "type": "uint256"
        },
        {
          "internalType": "bool",
          "name": "completed",
          "type": "bool"
        },
        {
          "internalType": "bool",
          "name": "booked",
          "type": "bool"
        }
      ],
      "stateMutability": "view",
      "type": "function"
    },
    {
      "inputs": [
        {
          "internalType": "address",
          "name": "",
          "type": "address"
        }
      ],
      "name": "UserProfile",
      "outputs": [
        {
          "internalType": "address",
          "name": "addr",
          "type": "address"
        },
        {
          "internalType": "string",
          "name": "name",
          "type": "string"
        },
        {
          "internalType": "string",
          "name": "role",
          "type": "string"
        },
        {
          "internalType": "uint256",
          "name": "rating",
          "type": "uint256"
        },
        {
          "internalType": "string",
          "name": "bio",
          "type": "string"
        },
        {
          "internalType": "string",
          "name": "profilePic",
          "type": "string"
        },
        {
          "internalType": "string",
          "name": "hostTitle",
          "type": "string"
        }
      ],
      "stateMutability": "view",
      "type": "function"
    },
    {
      "inputs": [],
      "name": "campaignIndex",
      "outputs": [
        {
          "internalType": "uint256",
          "name": "",
          "type": "uint256"
        }
      ],
      "stateMutability": "view",
      "type": "function"
    },
    {
      "inputs": [],
      "name": "campaignNum",
      "outputs": [
        {
          "internalType": "uint256",
          "name": "",
          "type": "uint256"
        }
      ],
      "stateMutability": "view",
      "type": "function"
    },
    {
      "inputs": [
        {
          "internalType": "bytes",
          "name": "",
          "type": "bytes"
        }
      ],
      "name": "checkUpkeep",
      "outputs": [
        {
          "internalType": "bool",
          "name": "upkeepNeeded",
          "type": "bool"
        },
        {
          "internalType": "bytes",
          "name": "",
          "type": "bytes"
        }
      ],
      "stateMutability": "view",
      "type": "function"
    },
    {
      "inputs": [],
      "name": "counter",
      "outputs": [
        {
          "internalType": "uint256",
          "name": "",
          "type": "uint256"
        }
      ],
      "stateMutability": "view",
      "type": "function"
    },
    {
      "inputs": [
        {
          "internalType": "string",
          "name": "_name",
          "type": "string"
        },
        {
          "internalType": "string",
          "name": "_desc",
          "type": "string"
        },
        {
          "internalType": "string",
          "name": "_image",
          "type": "string"
        }
      ],
      "name": "createCampaign",
      "outputs": [],
      "stateMutability": "nonpayable",
      "type": "function"
    },
    {
      "inputs": [
        {
          "internalType": "uint256",
          "name": "_rating",
          "type": "uint256"
        },
        {
          "internalType": "string",
          "name": "_name",
          "type": "string"
        },
        {
          "internalType": "string",
          "name": "_pic",
          "type": "string"
        },
        {
          "internalType": "string",
          "name": "_bio",
          "type": "string"
        },
        {
          "internalType": "string",
          "name": "_title",
          "type": "string"
        }
      ],
      "name": "createHost",
      "outputs": [],
      "stateMutability": "nonpayable",
      "type": "function"
    },
    {
      "inputs": [
        {
          "internalType": "uint256",
          "name": "_start",
          "type": "uint256"
        },
        {
          "internalType": "uint256",
          "name": "_end",
          "type": "uint256"
        },
        {
          "internalType": "uint256",
          "name": "_fee",
          "type": "uint256"
        },
        {
          "internalType": "string",
          "name": "_desc",
          "type": "string"
        }
      ],
      "name": "createSchedule",
      "outputs": [],
      "stateMutability": "nonpayable",
      "type": "function"
    },
    {
      "inputs": [
        {
          "internalType": "uint256",
          "name": "_rating",
          "type": "uint256"
        },
        {
          "internalType": "string",
          "name": "_name",
          "type": "string"
        },
        {
          "internalType": "string",
          "name": "_pic",
          "type": "string"
        },
        {
          "internalType": "string",
          "name": "_bio",
          "type": "string"
        }
      ],
      "name": "createUser",
      "outputs": [],
      "stateMutability": "nonpayable",
      "type": "function"
    },
    {
      "inputs": [
        {
          "internalType": "uint256",
          "name": "_id",
          "type": "uint256"
        }
      ],
      "name": "endCampaign",
      "outputs": [],
      "stateMutability": "nonpayable",
      "type": "function"
    },
    {
      "inputs": [],
      "name": "getAllAccount",
      "outputs": [
        {
          "internalType": "address[]",
          "name": "",
          "type": "address[]"
        }
      ],
      "stateMutability": "view",
      "type": "function"
    },
    {
      "inputs": [],
      "name": "getCampaign",
      "outputs": [
        {
          "components": [
            {
              "internalType": "address[]",
              "name": "volunteer",
              "type": "address[]"
            },
            {
              "internalType": "address",
              "name": "user",
              "type": "address"
            },
            {
              "internalType": "address",
              "name": "vol",
              "type": "address"
            },
            {
              "internalType": "uint256",
              "name": "start_time",
              "type": "uint256"
            },
            {
              "internalType": "uint256",
              "name": "end_time",
              "type": "uint256"
            },
            {
              "internalType": "string",
              "name": "image",
              "type": "string"
            },
            {
              "internalType": "uint256",
              "name": "fee",
              "type": "uint256"
            },
            {
              "internalType": "uint256",
              "name": "index",
              "type": "uint256"
            },
            {
              "internalType": "bool",
              "name": "completed",
              "type": "bool"
            },
            {
              "internalType": "string",
              "name": "name",
              "type": "string"
            },
            {
              "internalType": "string",
              "name": "desc",
              "type": "string"
            }
          ],
          "internalType": "struct XTELPT.campaign[]",
          "name": "",
          "type": "tuple[]"
        }
      ],
      "stateMutability": "view",
      "type": "function"
    },
    {
      "inputs": [
        {
          "internalType": "uint256",
          "name": "_id",
          "type": "uint256"
        }
      ],
      "name": "getHelp",
      "outputs": [],
      "stateMutability": "nonpayable",
      "type": "function"
    },
    {
      "inputs": [
        {
          "internalType": "address",
          "name": "_prof",
          "type": "address"
        }
      ],
      "name": "getMeeting",
      "outputs": [
        {
          "components": [
            {
              "internalType": "address payable",
              "name": "host",
              "type": "address"
            },
            {
              "internalType": "address payable",
              "name": "user",
              "type": "address"
            },
            {
              "internalType": "uint256",
              "name": "start",
              "type": "uint256"
            },
            {
              "internalType": "uint256",
              "name": "end",
              "type": "uint256"
            },
            {
              "internalType": "string",
              "name": "desc",
              "type": "string"
            },
            {
              "internalType": "uint256",
              "name": "time",
              "type": "uint256"
            },
            {
              "internalType": "uint256",
              "name": "fee",
              "type": "uint256"
            },
            {
              "internalType": "uint256",
              "name": "index",
              "type": "uint256"
            },
            {
              "internalType": "bool",
              "name": "completed",
              "type": "bool"
            },
            {
              "internalType": "bool",
              "name": "booked",
              "type": "bool"
            }
          ],
          "internalType": "struct XTELPT.meeting[]",
          "name": "",
          "type": "tuple[]"
        }
      ],
      "stateMutability": "view",
      "type": "function"
    },
    {
      "inputs": [
        {
          "internalType": "address",
          "name": "userAdd",
          "type": "address"
        }
      ],
      "name": "getProfile",
      "outputs": [
        {
          "components": [
            {
              "internalType": "address",
              "name": "addr",
              "type": "address"
            },
            {
              "internalType": "string",
              "name": "name",
              "type": "string"
            },
            {
              "internalType": "string",
              "name": "role",
              "type": "string"
            },
            {
              "internalType": "uint256",
              "name": "rating",
              "type": "uint256"
            },
            {
              "internalType": "string",
              "name": "bio",
              "type": "string"
            },
            {
              "internalType": "string",
              "name": "profilePic",
              "type": "string"
            },
            {
              "internalType": "string",
              "name": "hostTitle",
              "type": "string"
            }
          ],
          "internalType": "struct XTELPT.profile",
          "name": "",
          "type": "tuple"
        }
      ],
      "stateMutability": "view",
      "type": "function"
    },
    {
      "inputs": [
        {
          "internalType": "uint256",
          "name": "_id",
          "type": "uint256"
        }
      ],
      "name": "joinCampaign",
      "outputs": [],
      "stateMutability": "nonpayable",
      "type": "function"
    },
    {
      "inputs": [
        {
          "internalType": "address",
          "name": "_host",
          "type": "address"
        },
        {
          "internalType": "uint256",
          "name": "_id",
          "type": "uint256"
        }
      ],
      "name": "joinMeeting",
      "outputs": [],
      "stateMutability": "payable",
      "type": "function"
    },
    {
      "inputs": [],
      "name": "meetingIndex",
      "outputs": [
        {
          "internalType": "uint256",
          "name": "",
          "type": "uint256"
        }
      ],
      "stateMutability": "view",
      "type": "function"
    },
    {
      "inputs": [],
      "name": "meetingNum",
      "outputs": [
        {
          "internalType": "uint256",
          "name": "",
          "type": "uint256"
        }
      ],
      "stateMutability": "view",
      "type": "function"
    },
    {
      "inputs": [
        {
          "internalType": "bytes",
          "name": "",
          "type": "bytes"
        }
      ],
      "name": "performUpkeep",
      "outputs": [],
      "stateMutability": "nonpayable",
      "type": "function"
    },
    {
      "inputs": [
        {
          "internalType": "uint256",
          "name": "",
          "type": "uint256"
        }
      ],
      "name": "recentCampaignCreator",
      "outputs": [
        {
          "internalType": "address",
          "name": "",
          "type": "address"
        }
      ],
      "stateMutability": "view",
      "type": "function"
    },
    {
      "inputs": [],
      "name": "s_lastTimeStamp",
      "outputs": [
        {
          "internalType": "uint256",
          "name": "",
          "type": "uint256"
        }
      ],
      "stateMutability": "view",
      "type": "function"
    },
    {
      "inputs": [],
      "name": "v_lastTimeStamp",
      "outputs": [
        {
          "internalType": "uint256",
          "name": "",
          "type": "uint256"
        }
      ],
      "stateMutability": "view",
      "type": "function"
    }
  ],
  "transactionHash": "0x00d48ee350c42661fce57371556442c6a1d60c45b0d59681b624358131a72abc",
  "args": [],
  "numDeployments": 19,
  "solcInputHash": "6b322b321c497c509506f17ae1a7618a",
  "bytecode": "0x60a06040526040518060400160405280600481526020017f5573657200000000000000000000000000000000000000000000000000000000815250600490805190602001906200005192919062000230565b506040518060400160405280600481526020017f486f737400000000000000000000000000000000000000000000000000000000815250600590805190602001906200009f92919062000230565b506040518060400160405280600581526020017f566f6c756e00000000000000000000000000000000000000000000000000000081525060069080519060200190620000ed92919062000230565b50348015620000fb57600080fd5b5042600281905550426003819055506000600c60003373ffffffffffffffffffffffffffffffffffffffff1673ffffffffffffffffffffffffffffffffffffffff16815260200190815260200160002060006101000a81548160ff0219169083600181111562000170576200016f62000316565b5b02179055506000600d60003373ffffffffffffffffffffffffffffffffffffffff1673ffffffffffffffffffffffffffffffffffffffff16815260200190815260200160002060006101000a81548160ff02191690836001811115620001db57620001da62000316565b5b021790555061a8c060808181525050336000806101000a81548173ffffffffffffffffffffffffffffffffffffffff021916908373ffffffffffffffffffffffffffffffffffffffff16021790555062000374565b8280546200023e90620002e0565b90600052602060002090601f016020900481019282620002625760008555620002ae565b82601f106200027d57805160ff1916838001178555620002ae565b82800160010185558215620002ae579182015b82811115620002ad57825182559160200191906001019062000290565b5b509050620002bd9190620002c1565b5090565b5b80821115620002dc576000816000905550600101620002c2565b5090565b60006002820490506001821680620002f957607f821691505b6020821081141562000310576200030f62000345565b5b50919050565b7f4e487b7100000000000000000000000000000000000000000000000000000000600052602160045260246000fd5b7f4e487b7100000000000000000000000000000000000000000000000000000000600052602260045260246000fd5b608051614bf2620003906000396000611bf10152614bf26000f3fe6080604052600436106101815760003560e01c80637d74311c116100d1578063cb40bf601161008a578063dd0408ae11610064578063dd0408ae146105ad578063e34116de146105d6578063e9323db6146105ff578063fc49d3e61461064557610181565b8063cb40bf6014610525578063d4a82a5814610541578063d7358c5e1461056a57610181565b80637d74311c146104035780637eac3d921461042c578063960ccccc146104695780639dc5368d14610492578063b16cfdd4146104bd578063c5e0cfd0146104fa57610181565b80634585e33b1161013e57806361bc221a1161011857806361bc221a14610344578063680908c91461036f5780636e04ff0d1461039a578063766c21a2146103d857610181565b80634585e33b146102c7578063550c18d7146102f057806356361f0d1461031957610181565b80630f53a470146101865780631007e8c7146101c3578063236b8e3a146101ee57806324b9ed2d146102195780632dd47fc914610256578063348540431461029c575b600080fd5b34801561019257600080fd5b506101ad60048036038101906101a891906137ab565b61066e565b6040516101ba91906145f3565b60405180910390f35b3480156101cf57600080fd5b506101d8610a01565b6040516101e59190614615565b60405180910390f35b3480156101fa57600080fd5b50610203610a07565b60405161021091906144ff565b60405180910390f35b34801561022557600080fd5b50610240600480360381019061023b91906137ab565b610d9a565b60405161024d9190614521565b60405180910390f35b34801561026257600080fd5b5061027d600480360381019061027891906137d8565b610fdf565b6040516102939a999897969594939291906142f7565b60405180910390f35b3480156102a857600080fd5b506102b1611132565b6040516102be9190614615565b60405180910390f35b3480156102d357600080fd5b506102ee60048036038101906102e99190613818565b611138565b005b3480156102fc57600080fd5b5061031760048036038101906103129190613a3d565b611570565b005b34801561032557600080fd5b5061032e61195a565b60405161033b9190614615565b60405180910390f35b34801561035057600080fd5b50610359611960565b6040516103669190614615565b60405180910390f35b34801561037b57600080fd5b50610384611966565b6040516103919190614615565b60405180910390f35b3480156103a657600080fd5b506103c160048036038101906103bc9190613865565b611970565b6040516103cf929190614543565b60405180910390f35b3480156103e457600080fd5b506103ed611c5d565b6040516103fa9190614615565b60405180910390f35b34801561040f57600080fd5b5061042a60048036038101906104259190613982565b611c63565b005b34801561043857600080fd5b50610453600480360381019061044e9190613955565b611f8d565b60405161046091906142dc565b60405180910390f35b34801561047557600080fd5b50610490600480360381019061048b9190613955565b611fcc565b005b34801561049e57600080fd5b506104a76121f9565b6040516104b491906144dd565b60405180910390f35b3480156104c957600080fd5b506104e460048036038101906104df9190613955565b612287565b6040516104f191906142dc565b60405180910390f35b34801561050657600080fd5b5061050f6122c6565b60405161051c9190614615565b60405180910390f35b61053f600480360381019061053a91906137d8565b6122d0565b005b34801561054d57600080fd5b5061056860048036038101906105639190613955565b612562565b005b34801561057657600080fd5b50610591600480360381019061058c91906137ab565b6126b8565b6040516105a4979695949392919061444b565b60405180910390f35b3480156105b957600080fd5b506105d460048036038101906105cf9190613955565b6129c2565b005b3480156105e257600080fd5b506105fd60048036038101906105f891906138ae565b612afa565b005b34801561060b57600080fd5b5061062660048036038101906106219190613955565b612d99565b60405161063c9a9998979695949392919061439a565b60405180910390f35b34801561065157600080fd5b5061066c60048036038101906106679190613b28565b612fe2565b005b610676613333565b600b60008373ffffffffffffffffffffffffffffffffffffffff1673ffffffffffffffffffffffffffffffffffffffff1681526020019081526020016000206040518060e00160405290816000820160009054906101000a900473ffffffffffffffffffffffffffffffffffffffff1673ffffffffffffffffffffffffffffffffffffffff1673ffffffffffffffffffffffffffffffffffffffff168152602001600182018054610726906148ac565b80601f0160208091040260200160405190810160405280929190818152602001828054610752906148ac565b801561079f5780601f106107745761010080835404028352916020019161079f565b820191906000526020600020905b81548152906001019060200180831161078257829003601f168201915b505050505081526020016002820180546107b8906148ac565b80601f01602080910402602001604051908101604052809291908181526020018280546107e4906148ac565b80156108315780601f1061080657610100808354040283529160200191610831565b820191906000526020600020905b81548152906001019060200180831161081457829003601f168201915b5050505050815260200160038201548152602001600482018054610854906148ac565b80601f0160208091040260200160405190810160405280929190818152602001828054610880906148ac565b80156108cd5780601f106108a2576101008083540402835291602001916108cd565b820191906000526020600020905b8154815290600101906020018083116108b057829003601f168201915b505050505081526020016005820180546108e6906148ac565b80601f0160208091040260200160405190810160405280929190818152602001828054610912906148ac565b801561095f5780601f106109345761010080835404028352916020019161095f565b820191906000526020600020905b81548152906001019060200180831161094257829003601f168201915b50505050508152602001600682018054610978906148ac565b80601f01602080910402602001604051908101604052809291908181526020018280546109a4906148ac565b80156109f15780601f106109c6576101008083540402835291602001916109f1565b820191906000526020600020905b8154815290600101906020018083116109d457829003601f168201915b5050505050815250509050919050565b60035481565b60606008805480602002602001604051908101604052809291908181526020016000905b82821015610d9157838290600052602060002090600b02016040518061016001604052908160008201805480602002602001604051908101604052809291908181526020018280548015610ad457602002820191906000526020600020905b8160009054906101000a900473ffffffffffffffffffffffffffffffffffffffff1673ffffffffffffffffffffffffffffffffffffffff1681526020019060010190808311610a8a575b505050505081526020016001820160009054906101000a900473ffffffffffffffffffffffffffffffffffffffff1673ffffffffffffffffffffffffffffffffffffffff1673ffffffffffffffffffffffffffffffffffffffff1681526020016002820160009054906101000a900473ffffffffffffffffffffffffffffffffffffffff1673ffffffffffffffffffffffffffffffffffffffff1673ffffffffffffffffffffffffffffffffffffffff1681526020016003820154815260200160048201548152602001600582018054610bad906148ac565b80601f0160208091040260200160405190810160405280929190818152602001828054610bd9906148ac565b8015610c265780601f10610bfb57610100808354040283529160200191610c26565b820191906000526020600020905b815481529060010190602001808311610c0957829003601f168201915b5050505050815260200160068201548152602001600782015481526020016008820160009054906101000a900460ff16151515158152602001600982018054610c6e906148ac565b80601f0160208091040260200160405190810160405280929190818152602001828054610c9a906148ac565b8015610ce75780601f10610cbc57610100808354040283529160200191610ce7565b820191906000526020600020905b815481529060010190602001808311610cca57829003601f168201915b50505050508152602001600a82018054610d00906148ac565b80601f0160208091040260200160405190810160405280929190818152602001828054610d2c906148ac565b8015610d795780601f10610d4e57610100808354040283529160200191610d79565b820191906000526020600020905b815481529060010190602001808311610d5c57829003601f168201915b50505050508152505081526020019060010190610a2b565b50505050905090565b6060600760008373ffffffffffffffffffffffffffffffffffffffff1673ffffffffffffffffffffffffffffffffffffffff168152602001908152602001600020805480602002602001604051908101604052809291908181526020016000905b82821015610fd45783829060005260206000209060090201604051806101400160405290816000820160009054906101000a900473ffffffffffffffffffffffffffffffffffffffff1673ffffffffffffffffffffffffffffffffffffffff1673ffffffffffffffffffffffffffffffffffffffff1681526020016001820160009054906101000a900473ffffffffffffffffffffffffffffffffffffffff1673ffffffffffffffffffffffffffffffffffffffff1673ffffffffffffffffffffffffffffffffffffffff1681526020016002820154815260200160038201548152602001600482018054610eef906148ac565b80601f0160208091040260200160405190810160405280929190818152602001828054610f1b906148ac565b8015610f685780601f10610f3d57610100808354040283529160200191610f68565b820191906000526020600020905b815481529060010190602001808311610f4b57829003601f168201915b505050505081526020016005820154815260200160068201548152602001600782015481526020016008820160009054906101000a900460ff161515151581526020016008820160019054906101000a900460ff16151515158152505081526020019060010190610dfb565b505050509050919050565b60076020528160005260406000208181548110610ffb57600080fd5b9060005260206000209060090201600091509150508060000160009054906101000a900473ffffffffffffffffffffffffffffffffffffffff16908060010160009054906101000a900473ffffffffffffffffffffffffffffffffffffffff1690806002015490806003015490806004018054611077906148ac565b80601f01602080910402602001604051908101604052809291908181526020018280546110a3906148ac565b80156110f05780601f106110c5576101008083540402835291602001916110f0565b820191906000526020600020905b8154815290600101906020018083116110d357829003601f168201915b5050505050908060050154908060060154908060070154908060080160009054906101000a900460ff16908060080160019054906101000a900460ff1690508a565b60025481565b60005b600e8054905081101561156b5760005b60076000600e8481548110611163576111626149e5565b5b9060005260206000200160009054906101000a900473ffffffffffffffffffffffffffffffffffffffff1673ffffffffffffffffffffffffffffffffffffffff1673ffffffffffffffffffffffffffffffffffffffff168152602001908152602001600020805490508110156115575760006111ed60405180602001604052806000815250611970565b50905080611230576040517f08c379a000000000000000000000000000000000000000000000000000000000815260040161122790614593565b60405180910390fd5b42600281905550600060076000600e8681548110611251576112506149e5565b5b9060005260206000200160009054906101000a900473ffffffffffffffffffffffffffffffffffffffff1673ffffffffffffffffffffffffffffffffffffffff1673ffffffffffffffffffffffffffffffffffffffff16815260200190815260200160002083815481106112c8576112c76149e5565b5b906000526020600020906009020160000160009054906101000a900473ffffffffffffffffffffffffffffffffffffffff1690508073ffffffffffffffffffffffffffffffffffffffff166108fc60076000600e888154811061132e5761132d6149e5565b5b9060005260206000200160009054906101000a900473ffffffffffffffffffffffffffffffffffffffff1673ffffffffffffffffffffffffffffffffffffffff1673ffffffffffffffffffffffffffffffffffffffff16815260200190815260200160002085815481106113a5576113a46149e5565b5b9060005260206000209060090201600601549081150290604051600060405180830381858888f193505050501580156113e2573d6000803e3d6000fd5b50600160076000600e87815481106113fd576113fc6149e5565b5b9060005260206000200160009054906101000a900473ffffffffffffffffffffffffffffffffffffffff1673ffffffffffffffffffffffffffffffffffffffff1673ffffffffffffffffffffffffffffffffffffffff1681526020019081526020016000208481548110611474576114736149e5565b5b906000526020600020906009020160080160006101000a81548160ff0219169083151502179055506001600c6000600e87815481106114b6576114b56149e5565b5b9060005260206000200160009054906101000a900473ffffffffffffffffffffffffffffffffffffffff1673ffffffffffffffffffffffffffffffffffffffff1673ffffffffffffffffffffffffffffffffffffffff16815260200190815260200160002060006101000a81548160ff0219169083600181111561153d5761153c614987565b5b02179055505050808061154f9061490f565b91505061114b565b5080806115639061490f565b91505061113b565b505050565b600073ffffffffffffffffffffffffffffffffffffffff16600b60003373ffffffffffffffffffffffffffffffffffffffff1673ffffffffffffffffffffffffffffffffffffffff16815260200190815260200160002060000160009054906101000a900473ffffffffffffffffffffffffffffffffffffffff1673ffffffffffffffffffffffffffffffffffffffff16141561166b57600e339080600181540180825580915050600190039060005260206000200160009091909190916101000a81548173ffffffffffffffffffffffffffffffffffffffff021916908373ffffffffffffffffffffffffffffffffffffffff1602179055505b6000600c60003373ffffffffffffffffffffffffffffffffffffffff1673ffffffffffffffffffffffffffffffffffffffff16815260200190815260200160002060006101000a81548160ff021916908360018111156116ce576116cd614987565b5b021790555033600b60003373ffffffffffffffffffffffffffffffffffffffff1673ffffffffffffffffffffffffffffffffffffffff16815260200190815260200160002060000160006101000a81548173ffffffffffffffffffffffffffffffffffffffff021916908373ffffffffffffffffffffffffffffffffffffffff16021790555083600b60003373ffffffffffffffffffffffffffffffffffffffff1673ffffffffffffffffffffffffffffffffffffffff16815260200190815260200160002060010190805190602001906117aa929190613386565b5080600b60003373ffffffffffffffffffffffffffffffffffffffff1673ffffffffffffffffffffffffffffffffffffffff1681526020019081526020016000206006019080519060200190611801929190613386565b5084600b60003373ffffffffffffffffffffffffffffffffffffffff1673ffffffffffffffffffffffffffffffffffffffff168152602001908152602001600020600301819055506005600b60003373ffffffffffffffffffffffffffffffffffffffff1673ffffffffffffffffffffffffffffffffffffffff168152602001908152602001600020600201908054611899906148ac565b6118a492919061340c565b5082600b60003373ffffffffffffffffffffffffffffffffffffffff1673ffffffffffffffffffffffffffffffffffffffff16815260200190815260200160002060050190805190602001906118fb929190613386565b5081600b60003373ffffffffffffffffffffffffffffffffffffffff1673ffffffffffffffffffffffffffffffffffffffff1681526020019081526020016000206004019080519060200190611952929190613386565b505050505050565b60095481565b60015481565b6000600a54905090565b6000606060005b600e80549050811015611c575760005b60076000600e848154811061199f5761199e6149e5565b5b9060005260206000200160009054906101000a900473ffffffffffffffffffffffffffffffffffffffff1673ffffffffffffffffffffffffffffffffffffffff1673ffffffffffffffffffffffffffffffffffffffff16815260200190815260200160002080549050811015611c4357600060076000600e8581548110611a2957611a286149e5565b5b9060005260206000200160009054906101000a900473ffffffffffffffffffffffffffffffffffffffff1673ffffffffffffffffffffffffffffffffffffffff1673ffffffffffffffffffffffffffffffffffffffff1681526020019081526020016000208281548110611aa057611a9f6149e5565b5b906000526020600020906009020160050154118015611b7057506000151560076000600e8581548110611ad657611ad56149e5565b5b9060005260206000200160009054906101000a900473ffffffffffffffffffffffffffffffffffffffff1673ffffffffffffffffffffffffffffffffffffffff1673ffffffffffffffffffffffffffffffffffffffff1681526020019081526020016000208281548110611b4d57611b4c6149e5565b5b906000526020600020906009020160080160009054906101000a900460ff161515145b15611c30576000600c60003373ffffffffffffffffffffffffffffffffffffffff1673ffffffffffffffffffffffffffffffffffffffff16815260200190815260200160002060009054906101000a900460ff166001811115611bd657611bd5614987565b5b60006001811115611bea57611be9614987565b5b14905060007f000000000000000000000000000000000000000000000000000000000000000060025442611c1e91906147dc565b119050818015611c2b5750805b955050505b8080611c3b9061490f565b915050611987565b508080611c4f9061490f565b915050611977565b50915091565b600a5481565b600073ffffffffffffffffffffffffffffffffffffffff16600b60003373ffffffffffffffffffffffffffffffffffffffff1673ffffffffffffffffffffffffffffffffffffffff16815260200190815260200160002060000160009054906101000a900473ffffffffffffffffffffffffffffffffffffffff1673ffffffffffffffffffffffffffffffffffffffff161415611d5e57600e339080600181540180825580915050600190039060005260206000200160009091909190916101000a81548173ffffffffffffffffffffffffffffffffffffffff021916908373ffffffffffffffffffffffffffffffffffffffff1602179055505b33600b60003373ffffffffffffffffffffffffffffffffffffffff1673ffffffffffffffffffffffffffffffffffffffff16815260200190815260200160002060000160006101000a81548173ffffffffffffffffffffffffffffffffffffffff021916908373ffffffffffffffffffffffffffffffffffffffff16021790555082600b60003373ffffffffffffffffffffffffffffffffffffffff1673ffffffffffffffffffffffffffffffffffffffff1681526020019081526020016000206001019080519060200190611e35929190613386565b5083600b60003373ffffffffffffffffffffffffffffffffffffffff1673ffffffffffffffffffffffffffffffffffffffff168152602001908152602001600020600301819055506004600b60003373ffffffffffffffffffffffffffffffffffffffff1673ffffffffffffffffffffffffffffffffffffffff168152602001908152602001600020600201908054611ecd906148ac565b611ed892919061340c565b5081600b60003373ffffffffffffffffffffffffffffffffffffffff1673ffffffffffffffffffffffffffffffffffffffff1681526020019081526020016000206005019080519060200190611f2f929190613386565b5080600b60003373ffffffffffffffffffffffffffffffffffffffff1673ffffffffffffffffffffffffffffffffffffffff1681526020019081526020016000206004019080519060200190611f86929190613386565b5050505050565b600e8181548110611f9d57600080fd5b906000526020600020016000915054906101000a900473ffffffffffffffffffffffffffffffffffffffff1681565b604051602001611fdb906142b2565b60405160208183030381529060405280519060200120600b60003373ffffffffffffffffffffffffffffffffffffffff1673ffffffffffffffffffffffffffffffffffffffff168152602001908152602001600020600201604051602001612043919061429b565b6040516020818303038152906040528051906020012014612099576040517f08c379a000000000000000000000000000000000000000000000000000000000815260040161209090614573565b60405180910390fd5b33600882815481106120ae576120ad6149e5565b5b90600052602060002090600b020160010160006101000a81548173ffffffffffffffffffffffffffffffffffffffff021916908373ffffffffffffffffffffffffffffffffffffffff16021790555060088181548110612111576121106149e5565b5b90600052602060002090600b0201600001600160088381548110612138576121376149e5565b5b90600052602060002090600b02016000018054905061215791906147dc565b81548110612168576121676149e5565b5b9060005260206000200160009054906101000a900473ffffffffffffffffffffffffffffffffffffffff16600882815481106121a7576121a66149e5565b5b90600052602060002090600b020160020160006101000a81548173ffffffffffffffffffffffffffffffffffffffff021916908373ffffffffffffffffffffffffffffffffffffffff16021790555050565b6060600e80548060200260200160405190810160405280929190818152602001828054801561227d57602002820191906000526020600020905b8160009054906101000a900473ffffffffffffffffffffffffffffffffffffffff1673ffffffffffffffffffffffffffffffffffffffff1681526020019060010190808311612233575b5050505050905090565b600f818154811061229757600080fd5b906000526020600020016000915054906101000a900473ffffffffffffffffffffffffffffffffffffffff1681565b6000600954905090565b6040516020016122df906142b2565b60405160208183030381529060405280519060200120600b60003373ffffffffffffffffffffffffffffffffffffffff1673ffffffffffffffffffffffffffffffffffffffff168152602001908152602001600020600201604051602001612347919061429b565b604051602081830303815290604052805190602001201461239d576040517f08c379a000000000000000000000000000000000000000000000000000000000815260040161239490614573565b60405180910390fd5b600760008373ffffffffffffffffffffffffffffffffffffffff1673ffffffffffffffffffffffffffffffffffffffff16815260200190815260200160002081815481106123ee576123ed6149e5565b5b906000526020600020906009020160060154341015612442576040517f08c379a0000000000000000000000000000000000000000000000000000000008152600401612439906145d3565b60405180910390fd5b33600760008473ffffffffffffffffffffffffffffffffffffffff1673ffffffffffffffffffffffffffffffffffffffff1681526020019081526020016000208281548110612494576124936149e5565b5b906000526020600020906009020160010160006101000a81548173ffffffffffffffffffffffffffffffffffffffff021916908373ffffffffffffffffffffffffffffffffffffffff1602179055506001600760008473ffffffffffffffffffffffffffffffffffffffff1673ffffffffffffffffffffffffffffffffffffffff1681526020019081526020016000208281548110612536576125356149e5565b5b906000526020600020906009020160080160016101000a81548160ff0219169083151502179055505050565b604051602001612571906142c7565b60405160208183030381529060405280519060200120600b60003373ffffffffffffffffffffffffffffffffffffffff1673ffffffffffffffffffffffffffffffffffffffff1681526020019081526020016000206002016040516020016125d9919061429b565b604051602081830303815290604052805190602001201461262f576040517f08c379a0000000000000000000000000000000000000000000000000000000008152600401612626906145b3565b60405180910390fd5b60088181548110612643576126426149e5565b5b90600052602060002090600b0201600001339080600181540180825580915050600190039060005260206000200160009091909190916101000a81548173ffffffffffffffffffffffffffffffffffffffff021916908373ffffffffffffffffffffffffffffffffffffffff16021790555050565b600b6020528060005260406000206000915090508060000160009054906101000a900473ffffffffffffffffffffffffffffffffffffffff1690806001018054612701906148ac565b80601f016020809104026020016040519081016040528092919081815260200182805461272d906148ac565b801561277a5780601f1061274f5761010080835404028352916020019161277a565b820191906000526020600020905b81548152906001019060200180831161275d57829003601f168201915b50505050509080600201805461278f906148ac565b80601f01602080910402602001604051908101604052809291908181526020018280546127bb906148ac565b80156128085780601f106127dd57610100808354040283529160200191612808565b820191906000526020600020905b8154815290600101906020018083116127eb57829003601f168201915b505050505090806003015490806004018054612823906148ac565b80601f016020809104026020016040519081016040528092919081815260200182805461284f906148ac565b801561289c5780601f106128715761010080835404028352916020019161289c565b820191906000526020600020905b81548152906001019060200180831161287f57829003601f168201915b5050505050908060050180546128b1906148ac565b80601f01602080910402602001604051908101604052809291908181526020018280546128dd906148ac565b801561292a5780601f106128ff5761010080835404028352916020019161292a565b820191906000526020600020905b81548152906001019060200180831161290d57829003601f168201915b50505050509080600601805461293f906148ac565b80601f016020809104026020016040519081016040528092919081815260200182805461296b906148ac565b80156129b85780601f1061298d576101008083540402835291602001916129b8565b820191906000526020600020905b81548152906001019060200180831161299b57829003601f168201915b5050505050905087565b6040516020016129d1906142b2565b60405160208183030381529060405280519060200120600b60003373ffffffffffffffffffffffffffffffffffffffff1673ffffffffffffffffffffffffffffffffffffffff168152602001908152602001600020600201604051602001612a39919061429b565b6040516020818303038152906040528051906020012014612a8f576040517f08c379a0000000000000000000000000000000000000000000000000000000008152600401612a8690614573565b60405180910390fd5b600160088281548110612aa557612aa46149e5565b5b90600052602060002090600b020160080160006101000a81548160ff0219169083151502179055504260088281548110612ae257612ae16149e5565b5b90600052602060002090600b02016004018190555050565b60008054906101000a900473ffffffffffffffffffffffffffffffffffffffff1673ffffffffffffffffffffffffffffffffffffffff163373ffffffffffffffffffffffffffffffffffffffff1614612b5257600080fd5b612b5a613499565b4281606001818152505083816101200181905250818160a001819052506009548160e00181815250508281610140018190525060008160c00181815250506000600c60003373ffffffffffffffffffffffffffffffffffffffff1673ffffffffffffffffffffffffffffffffffffffff16815260200190815260200160002060006101000a81548160ff02191690836001811115612bfb57612bfa614987565b5b021790555060088190806001815401808255809150506001900390600052602060002090600b02016000909190919091506000820151816000019080519060200190612c48929190613521565b5060208201518160010160006101000a81548173ffffffffffffffffffffffffffffffffffffffff021916908373ffffffffffffffffffffffffffffffffffffffff16021790555060408201518160020160006101000a81548173ffffffffffffffffffffffffffffffffffffffff021916908373ffffffffffffffffffffffffffffffffffffffff160217905550606082015181600301556080820151816004015560a0820151816005019080519060200190612d07929190613386565b5060c0820151816006015560e082015181600701556101008201518160080160006101000a81548160ff021916908315150217905550610120820151816009019080519060200190612d5a929190613386565b5061014082015181600a019080519060200190612d78929190613386565b50505060096000815480929190612d8e9061490f565b919050555050505050565b60088181548110612da957600080fd5b90600052602060002090600b02016000915090508060010160009054906101000a900473ffffffffffffffffffffffffffffffffffffffff16908060020160009054906101000a900473ffffffffffffffffffffffffffffffffffffffff1690806003015490806004015490806005018054612e24906148ac565b80601f0160208091040260200160405190810160405280929190818152602001828054612e50906148ac565b8015612e9d5780601f10612e7257610100808354040283529160200191612e9d565b820191906000526020600020905b815481529060010190602001808311612e8057829003601f168201915b5050505050908060060154908060070154908060080160009054906101000a900460ff1690806009018054612ed1906148ac565b80601f0160208091040260200160405190810160405280929190818152602001828054612efd906148ac565b8015612f4a5780601f10612f1f57610100808354040283529160200191612f4a565b820191906000526020600020905b815481529060010190602001808311612f2d57829003601f168201915b50505050509080600a018054612f5f906148ac565b80601f0160208091040260200160405190810160405280929190818152602001828054612f8b906148ac565b8015612fd85780601f10612fad57610100808354040283529160200191612fd8565b820191906000526020600020905b815481529060010190602001808311612fbb57829003601f168201915b505050505090508a565b604051602001612ff1906142c7565b60405160208183030381529060405280519060200120600b60003373ffffffffffffffffffffffffffffffffffffffff1673ffffffffffffffffffffffffffffffffffffffff168152602001908152602001600020600201604051602001613059919061429b565b60405160208183030381529060405280519060200120146130af576040517f08c379a00000000000000000000000000000000000000000000000000000000081526004016130a6906145b3565b60405180910390fd5b6130b76135ab565b33816000019073ffffffffffffffffffffffffffffffffffffffff16908173ffffffffffffffffffffffffffffffffffffffff16815250508381606001818152505081816080018190525084816040018181525050600a548160e0018181525050828160c00181815250506000600c60003373ffffffffffffffffffffffffffffffffffffffff1673ffffffffffffffffffffffffffffffffffffffff16815260200190815260200160002060006101000a81548160ff0219169083600181111561318557613184614987565b5b0217905550600760003373ffffffffffffffffffffffffffffffffffffffff1673ffffffffffffffffffffffffffffffffffffffff16815260200190815260200160002081908060018154018082558091505060019003906000526020600020906009020160009091909190915060008201518160000160006101000a81548173ffffffffffffffffffffffffffffffffffffffff021916908373ffffffffffffffffffffffffffffffffffffffff16021790555060208201518160010160006101000a81548173ffffffffffffffffffffffffffffffffffffffff021916908373ffffffffffffffffffffffffffffffffffffffff160217905550604082015181600201556060820151816003015560808201518160040190805190602001906132b1929190613386565b5060a0820151816005015560c0820151816006015560e082015181600701556101008201518160080160006101000a81548160ff0219169083151502179055506101208201518160080160016101000a81548160ff0219169083151502179055505050600a60008154809291906133279061490f565b91905055505050505050565b6040518060e00160405280600073ffffffffffffffffffffffffffffffffffffffff1681526020016060815260200160608152602001600081526020016060815260200160608152602001606081525090565b828054613392906148ac565b90600052602060002090601f0160209004810192826133b457600085556133fb565b82601f106133cd57805160ff19168380011785556133fb565b828001600101855582156133fb579182015b828111156133fa5782518255916020019190600101906133df565b5b509050613408919061362e565b5090565b828054613418906148ac565b90600052602060002090601f01602090048101928261343a5760008555613488565b82601f1061344b5780548555613488565b8280016001018555821561348857600052602060002091601f016020900482015b8281111561348757825482559160010191906001019061346c565b5b509050613495919061362e565b5090565b60405180610160016040528060608152602001600073ffffffffffffffffffffffffffffffffffffffff168152602001600073ffffffffffffffffffffffffffffffffffffffff168152602001600081526020016000815260200160608152602001600081526020016000815260200160001515815260200160608152602001606081525090565b82805482825590600052602060002090810192821561359a579160200282015b828111156135995782518260006101000a81548173ffffffffffffffffffffffffffffffffffffffff021916908373ffffffffffffffffffffffffffffffffffffffff16021790555091602001919060010190613541565b5b5090506135a7919061362e565b5090565b604051806101400160405280600073ffffffffffffffffffffffffffffffffffffffff168152602001600073ffffffffffffffffffffffffffffffffffffffff1681526020016000815260200160008152602001606081526020016000815260200160008152602001600081526020016000151581526020016000151581525090565b5b8082111561364757600081600090555060010161362f565b5090565b600061365e61365984614655565b614630565b90508281526020810184848401111561367a57613679614a52565b5b61368584828561486a565b509392505050565b60006136a061369b84614686565b614630565b9050828152602081018484840111156136bc576136bb614a52565b5b6136c784828561486a565b509392505050565b6000813590506136de81614b8e565b92915050565b60008083601f8401126136fa576136f9614a48565b5b8235905067ffffffffffffffff81111561371757613716614a43565b5b60208301915083600182028301111561373357613732614a4d565b5b9250929050565b600082601f83011261374f5761374e614a48565b5b813561375f84826020860161364b565b91505092915050565b600082601f83011261377d5761377c614a48565b5b813561378d84826020860161368d565b91505092915050565b6000813590506137a581614ba5565b92915050565b6000602082840312156137c1576137c0614a5c565b5b60006137cf848285016136cf565b91505092915050565b600080604083850312156137ef576137ee614a5c565b5b60006137fd858286016136cf565b925050602061380e85828601613796565b9150509250929050565b6000806020838503121561382f5761382e614a5c565b5b600083013567ffffffffffffffff81111561384d5761384c614a57565b5b613859858286016136e4565b92509250509250929050565b60006020828403121561387b5761387a614a5c565b5b600082013567ffffffffffffffff81111561389957613898614a57565b5b6138a58482850161373a565b91505092915050565b6000806000606084860312156138c7576138c6614a5c565b5b600084013567ffffffffffffffff8111156138e5576138e4614a57565b5b6138f186828701613768565b935050602084013567ffffffffffffffff81111561391257613911614a57565b5b61391e86828701613768565b925050604084013567ffffffffffffffff81111561393f5761393e614a57565b5b61394b86828701613768565b9150509250925092565b60006020828403121561396b5761396a614a5c565b5b600061397984828501613796565b91505092915050565b6000806000806080858703121561399c5761399b614a5c565b5b60006139aa87828801613796565b945050602085013567ffffffffffffffff8111156139cb576139ca614a57565b5b6139d787828801613768565b935050604085013567ffffffffffffffff8111156139f8576139f7614a57565b5b613a0487828801613768565b925050606085013567ffffffffffffffff811115613a2557613a24614a57565b5b613a3187828801613768565b91505092959194509250565b600080600080600060a08688031215613a5957613a58614a5c565b5b6000613a6788828901613796565b955050602086013567ffffffffffffffff811115613a8857613a87614a57565b5b613a9488828901613768565b945050604086013567ffffffffffffffff811115613ab557613ab4614a57565b5b613ac188828901613768565b935050606086013567ffffffffffffffff811115613ae257613ae1614a57565b5b613aee88828901613768565b925050608086013567ffffffffffffffff811115613b0f57613b0e614a57565b5b613b1b88828901613768565b9150509295509295909350565b60008060008060808587031215613b4257613b41614a5c565b5b6000613b5087828801613796565b9450506020613b6187828801613796565b9350506040613b7287828801613796565b925050606085013567ffffffffffffffff811115613b9357613b92614a57565b5b613b9f87828801613768565b91505092959194509250565b6000613bb78383613c09565b60208301905092915050565b6000613bcf8383613fe7565b905092915050565b6000613be383836140eb565b905092915050565b613bf481614822565b82525050565b613c0381614822565b82525050565b613c1281614810565b82525050565b613c2181614810565b82525050565b6000613c32826146fc565b613c3c818561475a565b9350613c47836146b7565b8060005b83811015613c78578151613c5f8882613bab565b9750613c6a83614733565b925050600181019050613c4b565b5085935050505092915050565b6000613c90826146fc565b613c9a818561476b565b9350613ca5836146b7565b8060005b83811015613cd6578151613cbd8882613bab565b9750613cc883614733565b925050600181019050613ca9565b5085935050505092915050565b6000613cee82614707565b613cf8818561477c565b935083602082028501613d0a856146c7565b8060005b85811015613d465784840389528151613d278582613bc3565b9450613d3283614740565b925060208a01995050600181019050613d0e565b50829750879550505050505092915050565b6000613d6382614712565b613d6d818561478d565b935083602082028501613d7f856146d7565b8060005b85811015613dbb5784840389528151613d9c8582613bd7565b9450613da78361474d565b925060208a01995050600181019050613d83565b50829750879550505050505092915050565b613dd681614834565b82525050565b613de581614834565b82525050565b6000613df68261471d565b613e00818561479e565b9350613e10818560208601614879565b613e1981614a61565b840191505092915050565b6000613e2f82614728565b613e3981856147af565b9350613e49818560208601614879565b613e5281614a61565b840191505092915050565b6000613e6882614728565b613e7281856147c0565b9350613e82818560208601614879565b613e8b81614a61565b840191505092915050565b60008154613ea3816148ac565b613ead81866147d1565b94506001821660008114613ec85760018114613ed957613f0c565b60ff19831686528186019350613f0c565b613ee2856146e7565b60005b83811015613f0457815481890152600182019150602081019050613ee5565b838801955050505b50505092915050565b6000613f22600a836147c0565b9150613f2d82614a72565b602082019050919050565b6000613f456004836147d1565b9150613f5082614a9b565b600482019050919050565b6000613f686023836147c0565b9150613f7382614ac4565b604082019050919050565b6000613f8b6004836147d1565b9150613f9682614b13565b600482019050919050565b6000613fae600a836147c0565b9150613fb982614b3c565b602082019050919050565b6000613fd16013836147c0565b9150613fdc82614b65565b602082019050919050565b60006101608301600083015184820360008601526140058282613c27565b915050602083015161401a6020860182613c09565b50604083015161402d6040860182613c09565b506060830151614040606086018261427d565b506080830151614053608086018261427d565b5060a083015184820360a086015261406b8282613e24565b91505060c083015161408060c086018261427d565b5060e083015161409360e086018261427d565b506101008301516140a8610100860182613dcd565b506101208301518482036101208601526140c28282613e24565b9150506101408301518482036101408601526140de8282613e24565b9150508091505092915050565b6000610140830160008301516141046000860182613beb565b5060208301516141176020860182613beb565b50604083015161412a604086018261427d565b50606083015161413d606086018261427d565b50608083015184820360808601526141558282613e24565b91505060a083015161416a60a086018261427d565b5060c083015161417d60c086018261427d565b5060e083015161419060e086018261427d565b506101008301516141a5610100860182613dcd565b506101208301516141ba610120860182613dcd565b508091505092915050565b600060e0830160008301516141dd6000860182613c09565b50602083015184820360208601526141f58282613e24565b9150506040830151848203604086015261420f8282613e24565b9150506060830151614224606086018261427d565b506080830151848203608086015261423c8282613e24565b91505060a083015184820360a08601526142568282613e24565b91505060c083015184820360c08601526142708282613e24565b9150508091505092915050565b61428681614860565b82525050565b61429581614860565b82525050565b60006142a78284613e96565b915081905092915050565b60006142bd82613f38565b9150819050919050565b60006142d282613f7e565b9150819050919050565b60006020820190506142f16000830184613c18565b92915050565b60006101408201905061430d600083018d613bfa565b61431a602083018c613bfa565b614327604083018b61428c565b614334606083018a61428c565b81810360808301526143468189613e5d565b905061435560a083018861428c565b61436260c083018761428c565b61436f60e083018661428c565b61437d610100830185613ddc565b61438b610120830184613ddc565b9b9a5050505050505050505050565b6000610140820190506143b0600083018d613c18565b6143bd602083018c613c18565b6143ca604083018b61428c565b6143d7606083018a61428c565b81810360808301526143e98189613e5d565b90506143f860a083018861428c565b61440560c083018761428c565b61441260e0830186613ddc565b8181036101008301526144258185613e5d565b905081810361012083015261443a8184613e5d565b90509b9a5050505050505050505050565b600060e082019050614460600083018a613c18565b81810360208301526144728189613e5d565b905081810360408301526144868188613e5d565b9050614495606083018761428c565b81810360808301526144a78186613e5d565b905081810360a08301526144bb8185613e5d565b905081810360c08301526144cf8184613e5d565b905098975050505050505050565b600060208201905081810360008301526144f78184613c85565b905092915050565b600060208201905081810360008301526145198184613ce3565b905092915050565b6000602082019050818103600083015261453b8184613d58565b905092915050565b60006040820190506145586000830185613ddc565b818103602083015261456a8184613deb565b90509392505050565b6000602082019050818103600083015261458c81613f15565b9050919050565b600060208201905081810360008301526145ac81613f5b565b9050919050565b600060208201905081810360008301526145cc81613fa1565b9050919050565b600060208201905081810360008301526145ec81613fc4565b9050919050565b6000602082019050818103600083015261460d81846141c5565b905092915050565b600060208201905061462a600083018461428c565b92915050565b600061463a61464b565b905061464682826148de565b919050565b6000604051905090565b600067ffffffffffffffff8211156146705761466f614a14565b5b61467982614a61565b9050602081019050919050565b600067ffffffffffffffff8211156146a1576146a0614a14565b5b6146aa82614a61565b9050602081019050919050565b6000819050602082019050919050565b6000819050602082019050919050565b6000819050602082019050919050565b60008190508160005260206000209050919050565b600081519050919050565b600081519050919050565b600081519050919050565b600081519050919050565b600081519050919050565b6000602082019050919050565b6000602082019050919050565b6000602082019050919050565b600082825260208201905092915050565b600082825260208201905092915050565b600082825260208201905092915050565b600082825260208201905092915050565b600082825260208201905092915050565b600082825260208201905092915050565b600082825260208201905092915050565b600081905092915050565b60006147e782614860565b91506147f283614860565b92508282101561480557614804614958565b5b828203905092915050565b600061481b82614840565b9050919050565b600061482d82614840565b9050919050565b60008115159050919050565b600073ffffffffffffffffffffffffffffffffffffffff82169050919050565b6000819050919050565b82818337600083830152505050565b60005b8381101561489757808201518184015260208101905061487c565b838111156148a6576000848401525b50505050565b600060028204905060018216806148c457607f821691505b602082108114156148d8576148d76149b6565b5b50919050565b6148e782614a61565b810181811067ffffffffffffffff8211171561490657614905614a14565b5b80604052505050565b600061491a82614860565b91507fffffffffffffffffffffffffffffffffffffffffffffffffffffffffffffffff82141561494d5761494c614958565b5b600182019050919050565b7f4e487b7100000000000000000000000000000000000000000000000000000000600052601160045260246000fd5b7f4e487b7100000000000000000000000000000000000000000000000000000000600052602160045260246000fd5b7f4e487b7100000000000000000000000000000000000000000000000000000000600052602260045260246000fd5b7f4e487b7100000000000000000000000000000000000000000000000000000000600052603260045260246000fd5b7f4e487b7100000000000000000000000000000000000000000000000000000000600052604160045260246000fd5b600080fd5b600080fd5b600080fd5b600080fd5b600080fd5b600080fd5b6000601f19601f8301169050919050565b7f4e4f542041205553455200000000000000000000000000000000000000000000600082015250565b7f5573657200000000000000000000000000000000000000000000000000000000600082015250565b7f446f65736e2774206d65657420726571756972656d656e7420666f722055704b60008201527f6565700000000000000000000000000000000000000000000000000000000000602082015250565b7f486f737400000000000000000000000000000000000000000000000000000000600082015250565b7f4e4f54204120484f535400000000000000000000000000000000000000000000600082015250565b7f496e73756666696369656e7420616d6f756e7400000000000000000000000000600082015250565b614b9781614810565b8114614ba257600080fd5b50565b614bae81614860565b8114614bb957600080fd5b5056fea26469706673582212209943c2d5df19d9d9ffaed5b0657fc6434201500354bce4a852e4bb49443c569064736f6c63430008070033",
  "devdoc": {
    "kind": "dev",
    "methods": {
      "checkUpkeep(bytes)": {
        "details": "This is the function that the Chainlink Keeper nodes call they look for `upkeepNeeded` to return True. the following should be true for this to return true: 1. It makes sure that the campaign or meeting is not yet completed 2. The time interval has passed for either meeting or campaign."
      },
      "constructor": {
        "details": "constructor used to assign values that will not change"
      },
      "createCampaign(string,string,string)": {
        "details": "This function `createCampaign` allows only the User to call it hence the `OnlyUser` modifier after which any avaliable volunteer would be assigned to the campaign"
      },
      "createHost(uint256,string,string,string,string)": {
        "details": "This function `createHost` any body can call this functions and the senders profile would be set to that of a `Host`"
      },
      "createSchedule(uint256,uint256,uint256,string)": {
        "details": "This function `createSchedule` allows only the Host to call it hence the `OnlyHost` modifier after which a Host can create a meeting with some parameters like time and fee needed"
      },
      "createUser(uint256,string,string,string)": {
        "details": "This function `createUser` any body can call this functions and the senders profile would be set to that of a `User`"
      },
      "endCampaign(uint256)": {
        "details": "This function `endCampaign` allows only the User end the campaign"
      },
      "getHelp(uint256)": {
        "details": "This function `getHelo` allows only the User to call it hence the `OnlyUser` modifier after which the Campaign ID is specified and the user would be assigned to the Campaign"
      },
      "joinCampaign(uint256)": {
        "details": "This function `joinCampaign` allows only the User to call it hence the `onlyHost` modifier after which the Campaign ID is specified and the user would be assigned to the Campaign"
      },
      "joinMeeting(address,uint256)": {
        "details": "This function `joinMeeting` allows only the User to call it hence the `OnlyUser` modifier after which the meeting ID is specified and the user would be assigned to the meeting"
      },
      "performUpkeep(bytes)": {
        "details": "Once `checkUpkeep` is returning `true`, this function is called"
      }
    },
    "version": 1
  },
  "userdoc": {
    "kind": "user",
    "methods": {
      "meetingNum()": {
        "notice": "Getter Functions "
      }
    },
    "version": 1
  },
  "storageLayout": {
    "storage": [
      {
        "astId": 20,
        "contract": "contracts/XTELPT.sol:XTELPT",
        "label": "owner",
        "offset": 0,
        "slot": "0",
        "type": "t_address"
      },
      {
        "astId": 25,
        "contract": "contracts/XTELPT.sol:XTELPT",
        "label": "counter",
        "offset": 0,
        "slot": "1",
        "type": "t_uint256"
      },
      {
        "astId": 29,
        "contract": "contracts/XTELPT.sol:XTELPT",
        "label": "s_lastTimeStamp",
        "offset": 0,
        "slot": "2",
        "type": "t_uint256"
      },
      {
        "astId": 31,
        "contract": "contracts/XTELPT.sol:XTELPT",
        "label": "v_lastTimeStamp",
        "offset": 0,
        "slot": "3",
        "type": "t_uint256"
      },
      {
        "astId": 34,
        "contract": "contracts/XTELPT.sol:XTELPT",
        "label": "userType",
        "offset": 0,
        "slot": "4",
        "type": "t_string_storage"
      },
      {
        "astId": 37,
        "contract": "contracts/XTELPT.sol:XTELPT",
        "label": "hostType",
        "offset": 0,
        "slot": "5",
        "type": "t_string_storage"
      },
      {
        "astId": 40,
        "contract": "contracts/XTELPT.sol:XTELPT",
        "label": "volunType",
        "offset": 0,
        "slot": "6",
        "type": "t_string_storage"
      },
      {
        "astId": 46,
        "contract": "contracts/XTELPT.sol:XTELPT",
        "label": "Meeting",
        "offset": 0,
        "slot": "7",
        "type": "t_mapping(t_address,t_array(t_struct(meeting)111_storage)dyn_storage)"
      },
      {
        "astId": 50,
        "contract": "contracts/XTELPT.sol:XTELPT",
        "label": "Campaign",
        "offset": 0,
        "slot": "8",
        "type": "t_array(t_struct(campaign)135_storage)dyn_storage"
      },
      {
        "astId": 52,
        "contract": "contracts/XTELPT.sol:XTELPT",
        "label": "campaignIndex",
        "offset": 0,
        "slot": "9",
        "type": "t_uint256"
      },
      {
        "astId": 54,
        "contract": "contracts/XTELPT.sol:XTELPT",
        "label": "meetingIndex",
        "offset": 0,
        "slot": "10",
        "type": "t_uint256"
      },
      {
        "astId": 59,
        "contract": "contracts/XTELPT.sol:XTELPT",
        "label": "UserProfile",
        "offset": 0,
        "slot": "11",
        "type": "t_mapping(t_address,t_struct(profile)90_storage)"
      },
      {
        "astId": 64,
        "contract": "contracts/XTELPT.sol:XTELPT",
        "label": "s_xtelpState",
        "offset": 0,
        "slot": "12",
        "type": "t_mapping(t_address,t_enum(XTELPState)23)"
      },
      {
        "astId": 69,
        "contract": "contracts/XTELPT.sol:XTELPT",
        "label": "volunState",
        "offset": 0,
        "slot": "13",
        "type": "t_mapping(t_address,t_enum(XTELPState)23)"
      },
      {
        "astId": 72,
        "contract": "contracts/XTELPT.sol:XTELPT",
        "label": "AllAccount",
        "offset": 0,
        "slot": "14",
        "type": "t_array(t_address)dyn_storage"
      },
      {
        "astId": 75,
        "contract": "contracts/XTELPT.sol:XTELPT",
        "label": "recentCampaignCreator",
        "offset": 0,
        "slot": "15",
        "type": "t_array(t_address)dyn_storage"
      }
    ],
    "types": {
      "t_address": {
        "encoding": "inplace",
        "label": "address",
        "numberOfBytes": "20"
      },
      "t_address_payable": {
        "encoding": "inplace",
        "label": "address payable",
        "numberOfBytes": "20"
      },
      "t_array(t_address)dyn_storage": {
        "base": "t_address",
        "encoding": "dynamic_array",
        "label": "address[]",
        "numberOfBytes": "32"
      },
      "t_array(t_struct(campaign)135_storage)dyn_storage": {
        "base": "t_struct(campaign)135_storage",
        "encoding": "dynamic_array",
        "label": "struct XTELPT.campaign[]",
        "numberOfBytes": "32"
      },
      "t_array(t_struct(meeting)111_storage)dyn_storage": {
        "base": "t_struct(meeting)111_storage",
        "encoding": "dynamic_array",
        "label": "struct XTELPT.meeting[]",
        "numberOfBytes": "32"
      },
      "t_bool": {
        "encoding": "inplace",
        "label": "bool",
        "numberOfBytes": "1"
      },
      "t_enum(XTELPState)23": {
        "encoding": "inplace",
        "label": "enum XTELPT.XTELPState",
        "numberOfBytes": "1"
      },
      "t_mapping(t_address,t_array(t_struct(meeting)111_storage)dyn_storage)": {
        "encoding": "mapping",
        "key": "t_address",
        "label": "mapping(address => struct XTELPT.meeting[])",
        "numberOfBytes": "32",
        "value": "t_array(t_struct(meeting)111_storage)dyn_storage"
      },
      "t_mapping(t_address,t_enum(XTELPState)23)": {
        "encoding": "mapping",
        "key": "t_address",
        "label": "mapping(address => enum XTELPT.XTELPState)",
        "numberOfBytes": "32",
        "value": "t_enum(XTELPState)23"
      },
      "t_mapping(t_address,t_struct(profile)90_storage)": {
        "encoding": "mapping",
        "key": "t_address",
        "label": "mapping(address => struct XTELPT.profile)",
        "numberOfBytes": "32",
        "value": "t_struct(profile)90_storage"
      },
      "t_string_storage": {
        "encoding": "bytes",
        "label": "string",
        "numberOfBytes": "32"
      },
      "t_struct(campaign)135_storage": {
        "encoding": "inplace",
        "label": "struct XTELPT.campaign",
        "members": [
          {
            "astId": 114,
            "contract": "contracts/XTELPT.sol:XTELPT",
            "label": "volunteer",
            "offset": 0,
            "slot": "0",
            "type": "t_array(t_address)dyn_storage"
          },
          {
            "astId": 116,
            "contract": "contracts/XTELPT.sol:XTELPT",
            "label": "user",
            "offset": 0,
            "slot": "1",
            "type": "t_address"
          },
          {
            "astId": 118,
            "contract": "contracts/XTELPT.sol:XTELPT",
            "label": "vol",
            "offset": 0,
            "slot": "2",
            "type": "t_address"
          },
          {
            "astId": 120,
            "contract": "contracts/XTELPT.sol:XTELPT",
            "label": "start_time",
            "offset": 0,
            "slot": "3",
            "type": "t_uint256"
          },
          {
            "astId": 122,
            "contract": "contracts/XTELPT.sol:XTELPT",
            "label": "end_time",
            "offset": 0,
            "slot": "4",
            "type": "t_uint256"
          },
          {
            "astId": 124,
            "contract": "contracts/XTELPT.sol:XTELPT",
            "label": "image",
            "offset": 0,
            "slot": "5",
            "type": "t_string_storage"
          },
          {
            "astId": 126,
            "contract": "contracts/XTELPT.sol:XTELPT",
            "label": "fee",
            "offset": 0,
            "slot": "6",
            "type": "t_uint256"
          },
          {
            "astId": 128,
            "contract": "contracts/XTELPT.sol:XTELPT",
            "label": "index",
            "offset": 0,
            "slot": "7",
            "type": "t_uint256"
          },
          {
            "astId": 130,
            "contract": "contracts/XTELPT.sol:XTELPT",
            "label": "completed",
            "offset": 0,
            "slot": "8",
            "type": "t_bool"
          },
          {
            "astId": 132,
            "contract": "contracts/XTELPT.sol:XTELPT",
            "label": "name",
            "offset": 0,
            "slot": "9",
            "type": "t_string_storage"
          },
          {
            "astId": 134,
            "contract": "contracts/XTELPT.sol:XTELPT",
            "label": "desc",
            "offset": 0,
            "slot": "10",
            "type": "t_string_storage"
          }
        ],
        "numberOfBytes": "352"
      },
      "t_struct(meeting)111_storage": {
        "encoding": "inplace",
        "label": "struct XTELPT.meeting",
        "members": [
          {
            "astId": 92,
            "contract": "contracts/XTELPT.sol:XTELPT",
            "label": "host",
            "offset": 0,
            "slot": "0",
            "type": "t_address_payable"
          },
          {
            "astId": 94,
            "contract": "contracts/XTELPT.sol:XTELPT",
            "label": "user",
            "offset": 0,
            "slot": "1",
            "type": "t_address_payable"
          },
          {
            "astId": 96,
            "contract": "contracts/XTELPT.sol:XTELPT",
            "label": "start",
            "offset": 0,
            "slot": "2",
            "type": "t_uint256"
          },
          {
            "astId": 98,
            "contract": "contracts/XTELPT.sol:XTELPT",
            "label": "end",
            "offset": 0,
            "slot": "3",
            "type": "t_uint256"
          },
          {
            "astId": 100,
            "contract": "contracts/XTELPT.sol:XTELPT",
            "label": "desc",
            "offset": 0,
            "slot": "4",
            "type": "t_string_storage"
          },
          {
            "astId": 102,
            "contract": "contracts/XTELPT.sol:XTELPT",
            "label": "time",
            "offset": 0,
            "slot": "5",
            "type": "t_uint256"
          },
          {
            "astId": 104,
            "contract": "contracts/XTELPT.sol:XTELPT",
            "label": "fee",
            "offset": 0,
            "slot": "6",
            "type": "t_uint256"
          },
          {
            "astId": 106,
            "contract": "contracts/XTELPT.sol:XTELPT",
            "label": "index",
            "offset": 0,
            "slot": "7",
            "type": "t_uint256"
          },
          {
            "astId": 108,
            "contract": "contracts/XTELPT.sol:XTELPT",
            "label": "completed",
            "offset": 0,
            "slot": "8",
            "type": "t_bool"
          },
          {
            "astId": 110,
            "contract": "contracts/XTELPT.sol:XTELPT",
            "label": "booked",
            "offset": 1,
            "slot": "8",
            "type": "t_bool"
          }
        ],
        "numberOfBytes": "288"
      },
      "t_struct(profile)90_storage": {
        "encoding": "inplace",
        "label": "struct XTELPT.profile",
        "members": [
          {
            "astId": 77,
            "contract": "contracts/XTELPT.sol:XTELPT",
            "label": "addr",
            "offset": 0,
            "slot": "0",
            "type": "t_address"
          },
          {
            "astId": 79,
            "contract": "contracts/XTELPT.sol:XTELPT",
            "label": "name",
            "offset": 0,
            "slot": "1",
            "type": "t_string_storage"
          },
          {
            "astId": 81,
            "contract": "contracts/XTELPT.sol:XTELPT",
            "label": "role",
            "offset": 0,
            "slot": "2",
            "type": "t_string_storage"
          },
          {
            "astId": 83,
            "contract": "contracts/XTELPT.sol:XTELPT",
            "label": "rating",
            "offset": 0,
            "slot": "3",
            "type": "t_uint256"
          },
          {
            "astId": 85,
            "contract": "contracts/XTELPT.sol:XTELPT",
            "label": "bio",
            "offset": 0,
            "slot": "4",
            "type": "t_string_storage"
          },
          {
            "astId": 87,
            "contract": "contracts/XTELPT.sol:XTELPT",
            "label": "profilePic",
            "offset": 0,
            "slot": "5",
            "type": "t_string_storage"
          },
          {
            "astId": 89,
            "contract": "contracts/XTELPT.sol:XTELPT",
            "label": "hostTitle",
            "offset": 0,
            "slot": "6",
            "type": "t_string_storage"
          }
        ],
        "numberOfBytes": "224"
      },
      "t_uint256": {
        "encoding": "inplace",
        "label": "uint256",
        "numberOfBytes": "32"
      }
    }
  }
}